:1000000000000220990100004519000011190000AC
:100010001119000011190000111900001119000038
:1000200011190000111900001119000045190000F4
:1000300045190000111900004519000001190000C0
:100040004519000045190000451900004519000038
:100050004519000045190000451900004519000028
:100060004519000045190000451900004519000018
:100070004519000045190000451900004519000008
:1000800045190000451900004519000045190000F8
:1000900045190000451900004519000045190000E8
:1000A00045190000451900004519000045190000D8
:1000B000451900004519000045190000F917000016
:1000C00045190000C133000045190000ED0800008B
:1000D000451900006D1E000045190000451900007B
:1000E0004519000045190000451900004519000098
:1000F0004519000045190000451900004519000088
:10010000313D0000493D0000613D0000793D0000A7
:1001100045190000510B0000451900004519000069
:100120004519000045190000451900004519000057
:100130004519000045190000451900004519000047
:10014000853F0000451900005925000045190000B1
:10015000912C0000451900004519000045190000C8
:100160004519000045190000451900004519000017
:100170004519000045190000451900004519000007
:1001800045190000451900004519000045190000F7
:100190004519000045190000584B4CF2205210B58B
:1001A0001A804DF628121A8000BF00BF01F0CEFB66
:1001B000534B4FF030621A60524A9A60524ADA60EA
:1001C000524B4FF470021A60514A136813F4807353
:1001D00001BF50490B604FF4A85313604E4B4F4979
:1001E0001A78100742BF1A7842F008021A704C4B76
:1001F0002A221A704B4A4C4B8B4204D252F8040FFD
:1002000043F8040BF8E7494B494A0021934202D2D4
:1002100043F8041BFAE7474A4748002350F82310E5
:1002200042F823100133662BF8D1444B444A802115
:1002300003F8011B9342FBD1424B3E4A1A60424BEA
:100240008A221A70A3F5805324225A70A0221A70B1
:100250009A799107FCD59A79D206FCD43B4A9379D6
:1002600003F00C03082B394BF9D103221A714022F9
:100270005A719A799406FCD534498A79334B5006E1
:10028000FBD5334A334911600221516020221A7094
:100290009A7902F00C020C2AFAD12F4B2F4A1A60DD
:1002A0002F4B4BF67F321A6000225A60072243F828
:1002B000042C2C4AC3F80C2D62B601F0E1FE154B5C
:1002C0001B68DA0705D5284801F038FE274B284A75
:1002D0001A60284B1B785B0609D5244C244B2268F6
:1002E0009A4204D1204801F029FE0023236004F043
:1002F0006DFC01F031FB00F0C3F8FEE70E20054075
:1003000030800440823F04000100002B88ED00E0B3
:1003100010D0034014D0034002D00740EC0FFF1F61
:1003200000E00740AC5B0000F806FF1FEC0FFF1F6A
:10033000EC14FF1F0002FF1F0000000000E400E0BB
:1003400056E400E008ED00E00050064000400640A2
:10035000448004400000131104800440C0100500D4
:1003600014E000E00000202000DD68501CE00340A5
:10037000A5C3945A00F00740FFFFFFFFFFFFFFFFF8
:10038000FFFFFFFFFFFFFFFFFFFFFFFFFFFFFFFF7D
:10039000FFFFFFFFFFFFFFFFFFFFFFFFFFFFFFFF6D
:1003A000FFFFFFFFFFFFFFFFFFFFFFFFFFFFFFFF5D
:1003B000FFFFFFFFFFFFFFFFFFFFFFFFFFFFFFFF4D
:1003C000FFFFFFFFFFFFFFFFFFFFFFFFFFFFFFFF3D
:1003D000FFFFFFFFFFFFFFFFFFFFFFFFFFFFFFFF2D
:1003E000FFFFFFFFFFFFFFFFFFFFFFFFFFFFFFFF1D
:1003F000FFFFFFFFFFFFFFFFFFFFFFFFFFFFFFFF0D
:10040000FFFFFFFFFFFFFFFFFFFFFFFFDEF9FFFF23
:1004100010B5054C237833B9044B13B10448AFF33E
:1004200000800123237010BDEC0FFF1F00000000AF
:10043000B05B0000084B10B51BB108490848AFF38A
:1004400000800848036803B910BD074B002BFBD0A0
:10045000BDE81040184700BF00000000F00FFF1F6C
:10046000B05B0000EC0FFF1F00000000704708B5F4
:10047000002002F0A7F900EE100ABAEECB0A08BD80
:1004800008B5FFF7F3FF01210D2001F087FD2024BF
:100490000F4D26462E60FA2001F0DCFD0D4BFA20B0
:1004A0001C6001F0D7FD10210B4803F075F8FFF731
:1004B000DEFF10EE100A04F06FF841EC100B022181
:1004C000064803F0D9FA054803F08CFAE2E700BFCA
:1004D00084F00F4088F00F40345600001014FF1FC6
:1004E000164B1A6842F480521A60154A00231370A2
:1004F000144A1370144A1370144A1370144A137078
:10050000144A40F2133111604FF451715160124A94
:10051000C0F344311170C0F3471100F01F00517057
:100520009072937013742C23D3700C4B40221A706A
:10053000A3F21F3308221A60704700BF34800440C2
:100540007610FF1F0D10FF1F7C10FF1F7710FF1F7D
:100550000C10FF1F08C0044000C0064023E400E068
:10056000194A937800F0030103F0EC030B434107B1
:1005700048BF43F01003937000F00F03042B12499F
:1005800003D18B7943F040038B7152790E4B02F00B
:10059000EF02C10648BF42F010025A719A7910F07A
:1005A000200F02F0EF02194618BF42F010028A71C4
:1005B000C205054B06D55A781978D2B241F0200110
:1005C00019705A70704700BF00C0064008B5124B42
:1005D0001B68DB0400D408BD104B1A7802F0FF033F
:1005E00012B103F009FDF7E70D4A082111600D4A29
:1005F00001F1804101F59821D37040F203120A60A5
:100600004A60094A1370094A1370094B1B680BB101
:1006100001221A7008BD00BF348004400C10FF1F77
:1006200084E100E000C006407610FF1F0D10FF1FA0
:100630000810FF1F38B50446094B1B7803F0FF056F
:10064000002BF9D12046012101F0A8FC20462946C3
:1006500001F084FC034B53F83420034B1A6038BD7F
:100660000C10FF1F485600007810FF1F10B509B18D
:1006700040F080000E4A1378984217D00D4C246841
:10068000E40412D503F07F03082B02D10A4B0024A7
:100690001C60002900F07F030CBF44216021082B5F
:1006A00003D1054B41F440711960107010BD00BFBB
:1006B000FC06FF1F348004400CC004407047FFFF5D
:1006C0000D4A38B5146814F480524FF0000410D06D
:1006D0003F280A4D0AD80A4A012152F830302B60CF
:1006E00001F05CFC2B681C70012038BD2C6020469A
:1006F00038BD104638BD00BF348004400810FF1FCD
:10070000485600000B4B1B6813F4805310D00E2882
:10071000094B09D1094A40F2023111605A7B42F07B
:1007200001025A73012070475A7B02F0FE025A738D
:10073000002070473480044000C0064004C00440DC
:10074000F8B51D4B1B68DA04064633D51B4B1B68F6
:100750000BB101221A701A4B1C780134282C1F4649
:1007600028BF0024174D2B78A34218D101F0FEF8C2
:1007700040280FDC144A13791B06F3D52B78134954
:100780000133282B28BF0023C95CDBB2C9B2D17169
:100790002B70E7E7FF28E5DD03F02EFCE2E70B4BCB
:1007A000F6B21E550A4B01221A70074BE4B2AC2276
:1007B0003C70DA70F8BD00BF348004407810FF1F31
:1007C0007C10FF1F7710FF1F00C006400E10FF1F98
:1007D0000C10FF1F38B504464518AC4204D014F87D
:1007E000010BFFF7ADFFF8E738BDFFFF08B5034B7E
:1007F0001B7813B103F000FCF9E708BD0C10FF1FD4
:10080000064A074B1B781078DBB2C0B283422CBF7C
:10081000273000F1FF30C01A704700BF7710FF1F6C
:100820007C10FF1F054B1878054B1B78C0B2DBB25C
:10083000984238BF4030C01A704700BF7610FF1F83
:100840000D10FF1F10B5104B10491A780B78D2B25B
:10085000DBB29A4214D00133402B28BF00230C484E
:10086000DCB2C05C0C700B490968C0B251B19A424D
:1008700038BF4032D31A1A2B04DC00230B7010BD92
:100880004FF0FF3010BD00BF7610FF1F0D10FF1F8F
:100890003610FF1F0810FF1F084B1A78084B1B78F3
:1008A000DBB29A4207D00133402B28BF0023054A10
:1008B000D05CC0B270474FF0FF3070477610FF1F1A
:1008C0000D10FF1F3610FF1F054B1A78054BD2B2D3
:1008D0001A70054B1B680BB100221A70704700BFDD
:1008E0000D10FF1F7610FF1F0810FF1F10B5294BBA
:1008F0001A79920620D5284AD879137827490133E6
:10090000402B097828BF00238B42C0B203D0244972
:10091000C854D9B21170234A116869B1224A1278B9
:10092000D2B2934236BFC2F14002C2EB03039B181E
:10093000272BC4BF01230B70164AD178C9B20C060D
:1009400016D51379180613D5184B17481C78037859
:10095000DBB29C4202D16C23D37009E00133282B17
:1009600028BF0023124CE45CDBB2E4B2D471037004
:100970004B060ED5074B1A7912F0400F194608D0D6
:100980000C4B00221A700C4B1B6803B11A702C23FD
:10099000CB7010BD00C006407610FF1F0D10FF1F6A
:1009A0003610FF1F0810FF1F7710FF1F7C10FF1F5E
:1009B0000E10FF1F0C10FF1F7810FF1FF0B50C4B1F
:1009C0000C4C1A7842F0020504EBC50682F00102D5
:1009D000706009481A700678002E0CBF8827C82757
:1009E00086F0010647EA0141067044F83510F0BD73
:1009F000E810FF1F0000FF1F6011FF1F431E032BA5
:100A000010B510D872B6094A52F8230048B14168AF
:100A100042F82310064A018832F81340611A22F87E
:100A2000131062B610BD002010BD00BFD810FF1F0C
:100A3000D414FF1F013803280AD872B6054B53F8A7
:100A40002030002013B101305B68FBE762B67047CD
:100A5000002070472C11FF1F10B572B60123174AF2
:100A60001A4412F8012C12071CD59900144A52F8A6
:100A700031402CB902EB431308305860114B09E0A8
:100A800041F0010152F8314064B902EBC103083072
:100A900058600D4B42F831300C4B1A78013A1A70FD
:100AA00062B610BD0133052BD9D162B6074B0022C7
:100AB0001A70BDE8104002F053BE00BF905800000D
:100AC0000000FF1F88004000C80040005611FF1FB3
:100AD000431E032B30B532D8194A400140F01000B4
:100AE000104472B6174CE25C032A09D8DFE802F022
:100AF000160218050830022213E00830042210E024
:100B00001148124A50F8234014B940F8231002E06B
:100B100052F82300416042F823100FE0032200E066
:100B20000522E25410F0080F01F108030A8843601F
:100B30000CBF8823C82343EA0243036062B630BD7A
:100B40000000FF1F9410FF1F2C11FF1F3C11FF1FFF
:100B50002DE9F84FAB4F3C78E4B214F0040F3D465A
:100B600019D0A94B1B78A3B1A84A117801F0FF0353
:100B700021B1013BDBB2137003B900BEA44A117866
:100B800001F0FF0329B1013BDBB213700BB902F096
:100B9000A5FD04233B7004F0080303F0FF02002BC3
:100BA00000F067829B4B9C4C1A78D2B215094FEA31
:100BB000920840F0E48104EBC803596854F83830D7
:100BC000C3F38303013B0C2B00F2D681DFE813F063
:100BD00095019501D401D401D401D401D401D401EB
:100BE000B001D401D401D4010D008C4D0A684B68CA
:100BF0008B486B6001218B4B44F838302A60DFF85A
:100C00005082017092B240F2816000238242C8F8A3
:100C100000302361A36117D8B2F5D06F80F01E8138
:100C2000B2F5817F00F0CF8006D8802A00F0BA802C
:100C3000822A00F0BB8031E140F202339A4200F098
:100C4000D180B2F5A06F1CE042F22100824200F098
:100C500051810ED8B2F5086F00F09E80B2F5106F8A
:100C600040F01C81684B6C4EAA781A7006F180091E
:100C70000AE042F221218A4200F0088142F2213347
:100C80009A4200F00F8109E1336A1B0603D5706AAE
:100C9000083802F065FD08364E45F5D10026B1460C
:100CA000DFF8B0A156F80A0028B1D0F804B002F07D
:100CB00057FD5846F8E74AF806005B4BDFF898A165
:100CC000F05056F80A0028B1D0F804B002F048FD00
:100CD0005846F8E7554B4AF80600F050544B23F8B5
:100CE0001900544B19F80320023A032A08D8DFE808
:100CF00002F002040204002200E0012203F80920AD
:100D000009F10109B9F1040F06F10406C8D14A4BF3
:100D100000221A7001269A46484A494B324433440D
:100D200012F8012C9B0012F0080F1A704FEA860986
:100D300025D002F0F7FC38B104EB461308305860B8
:100D4000404B44F8393006E09AF8003044F8390056
:100D500001338AF8003002F0E5FC49F0010338B1B4
:100D600004EBC302083050602E4A44F8332006E0FA
:100D700044F833009AF8003001338AF8003049F023
:100D80000202013649F003090023052E44F83230EF
:100D900044F83930C0D186E01B4B2B4C1B782370B4
:100DA0000B4683E0284C237063707EE0AA88042AF7
:100DB00074D8254C920023706370244B9B5C9E0773
:100DC00073D5217071E0AA8802F07F02042A65DCE5
:100DD0006B88002B62D191001C4A0A44117821F0E3
:100DE000020159E0AA8802F07F02042A56DC6B88CF
:100DF000002B53D19100154A0A44117841F00201A9
:100E00004AE000BF802007405F11FF1FE910FF1F6D
:100E1000DD13FF1F902007400000FF1F4C11FF1F34
:100E20006011FF1FC80040008410FF1F3C11FF1F0E
:100E3000D414FF1F9410FF1F5611FF1F905800007D
:100E400030C80110880040005711FF1FC020074024
:100E50008010FF1FD810FF1F2C11FF1F6A88A98860
:100E60009F4B53F8084CA3F10C00BCB133F80C6C49
:100E7000964209D133F80A6C8E4205D1120A032A30
:100E80000CBF2378038911E00C33EAE7954A116817
:100E9000954A1160A978954A117004E0944B0F228D
:100EA0001A7027E000231C4600E00223EE88B342BC
:100EB00038BF1E46402E34BF3546402520462946C1
:100EC000FFF77CFD761B2C4403D1402D12D1354613
:100ED00003E0402E34BF3546402520462946FFF723
:100EE0006DFD761B2C4401D1402D03D1814AC8F8F9
:100EF000004016800122804B3DE0804B1A8842F270
:100F000021039A4210D100237D4AC85C98540133D2
:100F1000072BF9D11368862B02D17A4B0F221A7056
:100F200000200146FFF74AFD774B44F8383023E0B4
:100F3000764E3568B5B1DFF8BC81B8F80090B9F1EC
:100F4000400F34BF4C46402428462146FFF736FD6B
:100F5000C4EB09039BB2A8F800300BB9402C00D1B8
:100F60002B193360654B1A88B2F5A06F04D10022AB
:100F70005A709A78664B1A7001225F4B6CE004EB52
:100F8000C806013D736802F00802A3F10800EDB243
:100F900002F0FF01002A36D002F0E2FB5D485E4B12
:100FA00050F82520EAB1516840F8251002F10801F7
:100FB0007160595D03290BD8DFE801F002040608CF
:100FC000032104E0022102E0052100E0042159553B
:100FD00016F0080F12880CBF8823C82343EA024387
:100FE00042E05A5D032A07D8DFE802F040400204DD
:100FF000002206E0012204E016F0080F0CBF0222D6
:1010000003225A5532E054F83820120C23F8082CE9
:1010100022B3DFF834E123F8061C43F8041C5EF821
:1010200025303E4913B94EF8250002E051F825302D
:1010300058603B4B41F8250033F815100A4423F85B
:10104000152002F06FFB10B10830706006E0354BE0
:1010500044F838001A7801321A7007E02A4B324AF5
:1010600016F0080F08BF134644F8383008233B70C9
:1010700070E5E0071FD520492B482C4C02230B704C
:101080002B4B1A702B4B186098602B48D8601A6154
:101090009A615C60164B0D2018702848FF2303707E
:1010A0002B700274264A1370264B9F221A7001235C
:1010B0000B70BDE8F88F210604D50D4B0D221A7078
:1010C00080232B70A20705D51C4B1A78D2B21A7058
:1010D00002232B70E30644BF10232B70BDE8F88F6A
:1010E000A05800007012FF1FE414FF1FEC13FF1F35
:1010F000C02007405411FF1F942007404C11FF1FD0
:10110000DC14FF1FE910FF1FC80040008010FF1F04
:10111000982007402C11FF1F9410FF1F8410FF1F01
:10112000D414FF1F5611FF1F880040009810FF1FA6
:10113000E810FF1F0000FF1FEC10FF1F8820074072
:101140008C20074084200740D810FF1F08B501F00D
:1011500007FE00221B4B0021D15098180832882A24
:101160004160F7D1184A106840F480201060174A97
:10117000106840F04070106002F5C9229C32C3F341
:1011800007201070C3F307401B0E10751376FF2362
:1011900002F81C3C02F8143C02F88C3C012302F8D3
:1011A000083C82F8641002F8183C094B70226FF476
:1011B0004C711A700B444FF400121A60054B102248
:1011C0001A7008BD0000FF1F3480044000D80040A2
:1011D00035E400E00821074010B50023B0FBF2F42D
:1011E00002FB1400092894BF30303730C0B2C85415
:1011F00020460CB10133F1E7CA18547022469A42D6
:1012000006DA885CCC5C8C54C8540132013BF6E7AA
:10121000084610BD294B1A6842F480621A60284AB9
:1012200000231370274A1370274A1370274A13703C
:10123000274A1370274B1B78152B06D01B2B08D081
:101240005BB940F21332244B06E040F21332234BD9
:1012500002E0234B40F213321A60224B1B78052B1D
:1012600007D01A2B09D0012B0BD14FF451721E4B12
:1012700006E04FF451721D4B02E01D4B4FF45172CA
:101280001A601C4BC0F344321A70C0F347125A70F4
:1012900000F01F000422022198729A70D9745A75C6
:1012A00088221A743C22DA70134B40221A70A3F27F
:1012B0001F334FF000421A60704700BF3480044073
:1012C000EB11FF1F6911FF1FF411FF1FEC11FF1F2E
:1012D0006811FF1FAA11FF1F40A0044018C004405E
:1012E0003C900440FD06FF1F44A004401CC0044085
:1012F0003890044000A006401FE400E0194A9378AB
:1013000000F0030103F0EC030B43410748BF43F037
:101310001003937000F00F03042B124903D18B7953
:1013200043F040038B7152790E4B02F0EF02C1067D
:1013300048BF42F010025A719A7910F0200F02F063
:10134000EF02194618BF42F010028A71C205054B20
:1013500006D55A781978D2B241F0200119705A7026
:10136000704700BF00A0064008B5114B1B685B0525
:1013700000D408BD0F4B1A7802F0FF0312B102F03F
:101380003BFEF7E70C4A4FF0004111600B4A0C4955
:10139000D37040F203120A604A600A4A13700A4A84
:1013A00013700A4B1B680BB101221A7008BD00BFF5
:1013B000348004406811FF1F80E100E000A0064077
:1013C00040A00440EB11FF1F6911FF1F6411FF1FB4
:1013D00038B50446094B1B7803F0FF05002BF9D103
:1013E0002046012100F0DAFD2046294600F0B6FD36
:1013F000034B53F83420034B1A6038BD6811FF1FAC
:1014000048560000F011FF1F10B509B140F08000F0
:10141000194A1378984214462DD0184A126852057A
:1014200028D503F07F03052B06D01A2B07D0012BFC
:1014300008D10022124B04E00022124B01E0124BB3
:1014400000221A60002900F07F020CBF44236023B1
:10145000052A07D01A2A09D0012A0BD143F4407378
:10146000074A06E043F44073064A02E0064A43F4A2
:1014700040731360207010BDFD06FF1F34800440D0
:1014800044A004401CC0044038900440144A13781F
:10149000984223D01349096849051ED5152B05D05C
:1014A0001B2B06D043B910490B6005E000210F4B00
:1014B00001E00F4B00211960152806D01B2808D029
:1014C00058B940F21331084B06E040F21331074B94
:1014D00002E0074B40F2133119601070704700BFF3
:1014E000AA11FF1F3480044040A0044018C00440EB
:1014F0003C9004400D4A38B5146814F480624FF0F3
:10150000000410D03F280A4D0AD80A4A012152F897
:1015100030302B6000F042FD2B681C70012038BD7C
:101520002C60204638BD104638BD00BF34800440D2
:101530006411FF1F485600000E4B1B6813F48063B4
:1015400016D012280C4B03D140F202310B4A04E0B2
:10155000142809D10A4A40F2023111605A7B42F044
:1015600001025A73012070475A7B02F0FE025A733F
:10157000002070473480044000A006400CA00440C6
:1015800014C00440F8B51D4B1B685A05064633D5F8
:101590001B4B1B680BB101221A701A4B1C780134CB
:1015A000402C1F4628BF0024174D2B78A34218D18A
:1015B00000F0DCF940280FDC144A13791B06F3D540
:1015C0002B7813490133402B28BF0023C95CDBB2C1
:1015D000C9B2D1712B70E7E7FF28E5DD02F00CFD01
:1015E000E2E70B4BF6B21E550A4B01221A70074B6D
:1015F000E4B2BC223C70DA70F8BD00BF3480044015
:10160000F011FF1FF411FF1FEC11FF1F00A0064097
:101610006A11FF1F6811FF1F274B1B685A052DE930
:10162000F04707468A4644D5244B1B680BB101227C
:101630001A703D4607EB0A039D4237D2DFF89080CF
:101640001F4E98F8004096F800900134402C28BFB7
:1016500000245FFA89F9A1451DD11A4BBC22DA702A
:1016600000F084F940280FDC164A13791B060FD5C9
:10167000337815490133402B28BF0023C95CDBB206
:10168000C9B2D171337003E0FF2801DD02F0B4FC70
:1016900033784B45E4D00C4B15F8012B1A550B4B06
:1016A0000122E4B21A7088F80040C3E7054BBC225F
:1016B000DA70BDE8F08700BF34800440F011FF1FEE
:1016C000EC11FF1F00A006406A11FF1F6811FF1FE9
:1016D000F411FF1F08B5034B1B7813B102F08CFC0B
:1016E000F9E708BD6811FF1F064A074B1B78107801
:1016F000DBB2C0B283422CBF3F3000F1FF30C01AD2
:10170000704700BFEC11FF1FF411FF1F054B187845
:10171000054B1B78C0B2DBB2984238BF4030C01ACC
:10172000704700BFEB11FF1F6911FF1F10B5104B71
:1017300010491A780B78D2B2DBB29A4214D0013336
:10174000402B28BF00230C48DCB2C05C0C700B4956
:101750000968C0B251B19A4238BF4032D31A1A2B2D
:1017600004DC00230B7010BD4FF0FF3010BD00BF34
:10177000EB11FF1F6911FF1FAB11FF1F6411FF1F4A
:10178000084B1A78084B1B78DBB29A4207D001331A
:10179000402B28BF0023054AD05CC0B270474FF0F1
:1017A000FF307047EB11FF1F6911FF1FAB11FF1FC7
:1017B0000C4B1B685B0514D50B4BDA7802F0CB029F
:1017C000DA7040225A74DA7842F03402DA70074B49
:1017D0001A78074BD2B21A70064B1B680BB1002265
:1017E0001A7070473480044000A006406911FF1F42
:1017F000EB11FF1F6411FF1F30B5374B1A7912F040
:10180000300F31D072B69A7D02F0FF0022B9DA793A
:1018100040225A7462B627E062B6304A30491378E3
:101820000978DBB2C9B214462B4AD5795A1C402A32
:1018300028BF00228A42EDB202D02A4B9D541346A3
:10184000421E12F0FF00EFD1DAB22270264A12686F
:1018500052B18B4236BFC1F14001C1EB03035B18AB
:10186000272BC4BF012313701B4BD978C9B20C06B8
:1018700020D51B7918061DD51C4B1D4A1D781378E1
:10188000EDB2DBB21046AB420CD0134A0133402B11
:101890001479184C28BF0023E45CE4B2D471127DA3
:1018A000072AF0D9DBB203700B4B1A79120644BF3A
:1018B0007C22DA704B060ED5074B1A7912F0400FD6
:1018C000194608D00C4B00221A700C4B1B6803B150
:1018D0001A703C23CB7030BD00A00640EB11FF1FF7
:1018E0006911FF1FAB11FF1F6411FF1FF411FF1FD0
:1018F000EC11FF1F6A11FF1F6811FF1FF011FF1F7E
:10190000024A136801331360704700BF7012FF1F53
:1019100008B50B4D2C462B68580301D5FFF718F975
:101920002368590501D5FFF767FF23681A0501D51C
:1019300001F046FD2368DB04EDD5FEF7D7FFEAE7AB
:101940003480044008B5FFF7E3FFFFFF014B10228E
:101950001A807047002005407047FFFF024A136855
:1019600018441060184670470007FF1FEFF31383F9
:101970009BB9EFF3108098B9EFF3058323B10F2BD8
:1019800004D9084A985C01E04FF48070EFF31183AA
:101990003BB1984228BF184670474FF0FF30704760
:1019A00018467047F0E300E0214B1A6842F40052F9
:1019B0001A60204A002313701F4A13701F4A1370C5
:1019C0001F4A13701F4A13701F4B1B781F2B05D023
:1019D0003F2B07D140F213321C4B02E01C4B40F26C
:1019E00013321A601B4B1B78202B05D03E2B07D1DE
:1019F0004FF45172184B02E0184B4FF451721A60B9
:101A0000174BC0F344321A70C0F347125A7000F0FB
:101A10001F00002298729A701A742C22DA70114BEF
:101A200040226FF448711A700B4420221A607047EC
:101A3000348004406612FF1FFD11FF1F6C12FF1F50
:101A40006712FF1FFC11FF1F0407FF1F14D0044083
:101A500028A004400507FF1F10D004402CA004401C
:101A600000D0064025E400E0194A937800F0030115
:101A700003F0EC030B43410748BF43F0100393709E
:101A800000F00F03042B124903D18B7943F040037C
:101A90008B7152790E4B02F0EF02C10648BF42F043
:101AA00010025A719A7910F0200F02F0EF021946D5
:101AB00018BF42F010028A71C205054B06D55A784C
:101AC0001978D2B241F0200119705A70704700BFE6
:101AD00000D006401E4B1B689B0410B500D410BDFF
:101AE0001C4B1B7803F0FF0213B102F085FAF7E7F5
:101AF000194B1A4C1A48202119601A4B1A49DA70EE
:101B000040F203130B60236000781F2804D03F28A5
:101B100003D1164B1A6000E00B60154B1B7803F0E5
:101B20007F03202B05D03E2B06D1124B00221A60DA
:101B300002E040F2031323600F4A002313700F4AA0
:101B400013700F4B1B680BB101221A7010BD00BF40
:101B500034800440FC11FF1F84E100E02CA004400D
:101B60000407FF1F00D0064028A0044014D0044002
:101B70000507FF1F10D004406612FF1FFD11FF1F55
:101B8000F811FF1F38B50446094B1B7803F0FF0519
:101B9000002BF9D12046012100F000FA2046294609
:101BA00000F0DCF9034B53F83420034B1A6038BDC6
:101BB000FC11FF1F485600006812FF1F10B509B145
:101BC00040F08000144A13789842144622D0134AF9
:101BD000126892041DD503F07F03202B04D03E2B06
:101BE00005D100220E4B01E00E4B00221A600029A5
:101BF00000F07F020CBF44236023202A05D03E2A38
:101C000007D143F44073064A02E0064A43F44073A6
:101C10001360207010BD00BF0507FF1F3480044013
:101C200010D004402CA004400F4A137898421AD0D8
:101C30000E490968890415D51F2B04D03F2B05D107
:101C400000210B4B01E00B4B002119601F2805D030
:101C50003F2807D140F21331054B02E0054B40F21B
:101C600013311960107070470407FF1F348004405F
:101C700014D0044028A004400D4A38B5146814F468
:101C800000524FF0000410D03F280A4D0AD80A4AEB
:101C9000012152F830302B6000F080F92B681C7065
:101CA000012038BD2C60204638BD104638BD00BF2D
:101CB00034800440F811FF1F485600000020704790
:101CC000F8B51D4B1B689A04064633D51B4B1B68A1
:101CD0000BB101221A701A4B1C780134282C1F46B4
:101CE00028BF0024174D2B78A34218D1FFF73EFEE2
:101CF00040280FDC144A13791B06F3D52B781349BF
:101D00000133282B28BF0023C95CDBB2C9B2D171D3
:101D10002B70E7E7FF28E5DD02F06EF9E2E70B4BF9
:101D2000F6B21E550A4B01221A70074BE4B2AC22E0
:101D30003C70DA70F8BD00BF348004406812FF1FA9
:101D40006C12FF1F6712FF1F00D00640FE11FF1F1D
:101D5000FC11FF1F38B504464518AC4204D014F8F6
:101D6000010BFFF7ADFFF8E738BDFFFF08B5034BE8
:101D70001B7813B102F040F9F9E708BDFC11FF1F11
:101D8000064A074B1B781078DBB2C0B283422CBFE7
:101D9000273000F1FF30C01A704700BF6712FF1FE5
:101DA0006C12FF1F054B1878054B1B78C0B2DBB2D5
:101DB000984238BF4030C01A704700BF6612FF1FFC
:101DC000FD11FF1F10B5104B10491A780B78D2B2D5
:101DD000DBB29A4214D00133402B28BF00230C48B9
:101DE000DCB2C05C0C700B490968C0B251B19A42B8
:101DF00038BF4032D31A1A2B04DC00230B7010BDFD
:101E00004FF0FF3010BD00BF6612FF1FFD11FF1F16
:101E10002612FF1FF811FF1F084B1A78084B1B787A
:101E2000DBB29A4207D00133402B28BF0023054A7A
:101E3000D05CC0B270474FF0FF3070476612FF1F92
:101E4000FD11FF1F2612FF1F054B1A78054BD2B25A
:101E50001A70054B1B680BB100221A70704700BF47
:101E6000FD11FF1F6612FF1FF811FF1F10B5294B50
:101E70001A79920620D5284AD87913782749013350
:101E8000402B097828BF00238B42C0B203D02449DD
:101E9000C854D9B21170234A116869B1224A127824
:101EA000D2B2934236BFC2F14002C2EB03039B1889
:101EB000272BC4BF01230B70164AD178C9B20C0678
:101EC00016D51379180613D5184B17481C780378C4
:101ED000DBB29C4202D16C23D37009E00133282B82
:101EE00028BF0023124CE45CDBB2E4B2D47103706F
:101EF0004B060ED5074B1A7912F0400F194608D041
:101F00000C4B00221A700C4B1B6803B11A702C2367
:101F1000CB7010BD00D006406612FF1FFD11FF1FE1
:101F20002612FF1FF811FF1F6712FF1F6C12FF1F01
:101F3000FE11FF1FFC11FF1F6812FF1F044B054914
:101F400000221A600A60044A106010221A6070476A
:101F500014D0034004D0034000D003403F2810B504
:101F600018D80D4A52F8303093F880423CB1012223
:101F700011B183F8802010BD83F8002110BD02EB61
:101F8000C00043681A6811B142F0030201E022F078
:101F900002021A6010BD00BF485600003F2810B56D
:101FA00037D81C4A02EBC00301295B68144601D0F4
:101FB00004290FD154F83020012082F880024FF418
:101FC000A2721A601A6804290CBF42F0200222F0A3
:101FD00020021DE052F83020002082F8800211B16A
:101FE0008A1E012A12D84FF4807202291A6003D186
:101FF0001A6842F003020BE003290AD11A6842F082
:1020000002021A601A6822F0010201E040F2031293
:102010001A6010BD4856000072B60B4B0B491A6887
:102020000B4B1B68096862B6490102D5322A88BF8A
:102030000133C2F53B4230217F32B2FBF1F24FF463
:102040007A7000FB0320704718E000E004ED00E028
:102050007012FF1F38B50446FFF7DEFF054624B9AE
:1020600038BD013C0AD005F57A75FFF7D5FF401B56
:10207000B0F57A7FF5D201F0BFFFF6E738BDFFFF7C
:102080002A4B4FF0006270B51A604FF080521A6010
:102090004FF000521A604FF080421A604FF0004239
:1020A0001A60234B234A244D244C254E4BF6FF71D6
:1020B00000201860596028231360936013619361B6
:1020C0001362936213639363103202F501222B6053
:1020D000236013609360136193611362936209221A
:1020E000326006F58056043630607160B36033614B
:1020F00046F8042C06F5FE2630607160B36033614B
:1021000046F8042C06F5805630600E4801602B60BE
:1021100023600D4B1A6000F0F9FA4FF4C870FFF716
:1021200099FFBDE87040FFF711B800BF04E100E07F
:10213000048003400C8003400C900B4014900B4033
:102140000080034008900B4000900B40164B1A682B
:1021500042F480621A60154A00231370144A137007
:10216000144A1370144A1370144A1370144A40F23C
:10217000133111604FF4517142F8041C114AC0F33D
:1021800044311170C0F3471100F01F00517090727C
:10219000937013742C23D3700B4B40221A70A3F24C
:1021A0003A3304221A60704728800440E212FF1F6D
:1021B0007912FF1FE812FF1FE312FF1F7812FF1FA3
:1021C00064D0044000A00E4042E400E0194A937835
:1021D00000F0030103F0EC030B43410748BF43F059
:1021E0001003937000F00F03042B124903D18B7975
:1021F00043F040038B7152790E4B02F0EF02C1069F
:1022000048BF42F010025A719A7910F0200F02F084
:10221000EF02194618BF42F010028A71C205054B41
:1022200006D55A781978D2B241F0200119705A7047
:10223000704700BF00A00E4008B5114B1B685B053E
:1022400000D408BD0F4B1A7802F0FF0312B101F061
:10225000D3FEF7E70C4A042111600C4A0C49D370F5
:1022600040F203120A6041F8042C0A4A13700A4A29
:1022700013700A4B1B680BB101221A7008BD00BF16
:10228000288004407812FF1F88E100E000A00E4083
:1022900064D00440E212FF1F7912FF1F7412FF1F67
:1022A00038B50446094B1B7803F0FF05002BF9D124
:1022B00020460121FFF772FE20462946FFF74EFE19
:1022C000034B53F83420034B1A6038BD7812FF1FBC
:1022D00048560000E412FF1F10B509B140F080001D
:1022E0000E4A1378984217D00D4C2468E40412D596
:1022F00003F07F03212B02D10A4B00241C6000292C
:1023000000F07F030CBF44216021212B03D1054B3A
:1023100041F440711960107010BD00BF0607FF1F27
:102320003480044060D004407047FFFF0D4A38B548
:10233000146814F480624FF0000410D03F280A4D56
:102340000AD80A4A012152F830302B60FFF726FEE6
:102350002B681C70012038BD2C60204638BD10460B
:1023600038BD00BF288004407412FF1F485600008B
:102370000B4B1B6813F4806310D01828094B09D14C
:10238000094A40F2023111605A7B42F001025A734D
:10239000012070475A7B02F0FE025A7300207047FA
:1023A0002880044000A00E4068D00440F8B51D4BC2
:1023B0001B685A05064633D51B4B1B680BB101221F
:1023C0001A701A4B1C780134282C1F4628BF002491
:1023D000174D2B78A34218D1FFF7C8FA40280FDC1D
:1023E000144A13791B06F3D52B7813490133282B94
:1023F00028BF0023C95CDBB2C9B2D1712B70E7E7FB
:10240000FF28E5DD01F0F8FDE2E70B4BF6B21E55C3
:102410000A4B01221A70074BE4B2AC223C70DA700E
:10242000F8BD00BF28800440E412FF1FE812FF1F20
:10243000E312FF1F00A00E407A12FF1F7812FF1F49
:1024400038B504464518AC4204D014F8010BFFF728
:10245000ADFFF8E738BDFFFF08B5034B1B7813B19C
:1024600001F0CAFDF9E708BD7812FF1F064A074BC5
:102470001B781078DBB2C0B283422CBF273000F14A
:10248000FF30C01A704700BFE312FF1FE812FF1FA2
:10249000054B1878054B1B78C0B2DBB2984238BFA9
:1024A0004030C01A704700BFE212FF1F7912FF1FB1
:1024B00010B5104B10491A780B78D2B2DBB29A42A1
:1024C00014D00133402B28BF00230C48DCB2C05C81
:1024D0000C700B490968C0B251B19A4238BF403202
:1024E000D31A1A2B04DC00230B7010BD4FF0FF3001
:1024F00010BD00BFE212FF1F7912FF1FA212FF1FC3
:102500007412FF1F084B1A78084B1B78DBB29A42F3
:1025100007D00133402B28BF0023054AD05CC0B24E
:1025200070474FF0FF307047E212FF1F7912FF1F14
:10253000A212FF1F054B1A78054BD2B21A70054B39
:102540001B680BB100221A70704700BF7912FF1F81
:10255000E212FF1F7412FF1F10B5294B1A79920661
:1025600020D5284AD879137827490133402B097898
:1025700028BF00238B42C0B203D02449C854D9B22B
:102580001170234A116869B1224A1278D2B293427B
:1025900036BFC2F14002C2EB03039B18272BC4BF16
:1025A00001230B70164AD178C9B20C0616D51379DF
:1025B000180613D5184B17481C780378DBB29C42D9
:1025C00002D16C23D37009E00133282B28BF0023EC
:1025D000124CE45CDBB2E4B2D47103704B060ED54E
:1025E000074B1A7912F0400F194608D00C4B002205
:1025F0001A700C4B1B6803B11A702C23CB7010BDE2
:1026000000A00E40E212FF1F7912FF1FA212FF1F4F
:102610007412FF1FE312FF1FE812FF1F7A12FF1F41
:102620007812FF1FE412FF1FF0B5304B1B681B062A
:10263000FBD42F4B1B6813F08002F6D172B62D4BE2
:102640001978002950D02C4908684F688E68CD68E9
:102650000C69384414313044096828442044084443
:10266000C0F34E00254940F400400860C86A0F6B73
:102670004E6B8D6BCC6B3844403130440968284434
:1026800020440844C0F34E001D4940F40040086057
:1026900001F10811143151F8140C51F8107C51F863
:1026A0000C6C51F8085C51F8044C0968384430440B
:1026B000284420440844C0F34E00124940F400402E
:1026C0000860C86A0F6B4E6B8D6BCC6B3844403121
:1026D00030440968284420440844C0F34E000A49A5
:1026E00040F4004008601A7062B6F0BD24B00340A8
:1026F00024B00B40EA12FF1F38B003402CB0034057
:1027000030B003402CB00B4030B00B4010B5204B24
:102710002048214960221A70E1225A701F4B204A3A
:102720001C78204B082C01D1012402E00A2C03D193
:1027300039240460132005E00C2C0CBF35243D2403
:1027400004601220086014601860174B17491B784A
:10275000174A03B101230B601360164B164A197810
:10276000164B012901D880210BE0042901D88421CE
:1027700007E0082901D8852103E0102994BF8621AC
:102780008721116019600E4B01221A7010BD00BF25
:102790000040074008B003400CB003400707FF1F8C
:1027A00008B00B400CB00B40ED12FF1F20B00340EF
:1027B00020B00B400807FF1F24B0034024B00B409B
:1027C000EA12FF1F472838B547D8254B1C5CFF2C61
:1027D00043D0244B1B780BB1FFF726FF210614D4FE
:1027E00072B6214B214D1C6001232B7062B672B66C
:1027F0001D4B1B681A0601D51D4B1FE02B78002BC3
:10280000EFD062B601F0F8FBF1E772B6194B1A4D42
:102810001A6814F0400F14BF22F0100242F01002A8
:102820001A60164B04F03F021A6001232B7062B647
:1028300072B6124B1B681B0608D5114B1868002393
:102840002B7062B60F4B1B78184138BD2B78002BCC
:10285000DCD062B601F0D0FBEAE7002038BD00BF53
:1028600048580000EA12FF1F00B00340EC12FF1F9F
:1028700010B003400CB00B40EB12FF1F00B00B4038
:1028800010B00B40E912FF1F164B1A6842F40062A9
:102890001A60154A00231370144A1370144A1370F7
:1028A000144A1370144A1370144A40F21331116021
:1028B0004FF451715160124AC0F344311170C0F3AA
:1028C000471100F01F0051709072937013742C2305
:1028D000D3700C4B40221A70A3F54F7310221A606C
:1028E000704700BF288004405E13FF1FF512FF1FD2
:1028F0006413FF1F5F13FF1FF412FF1F20C004406B
:1029000000B00E4044E400E0194A937800F003015F
:1029100003F0EC030B43410748BF43F010039370EF
:1029200000F00F03042B124903D18B7943F04003CD
:102930008B7152790E4B02F0EF02C10648BF42F094
:1029400010025A719A7910F0200F02F0EF02194626
:1029500018BF42F010028A71C205054B06D55A789D
:102960001978D2B241F0200119705A70704700BF37
:1029700000B00E4008B5104B1B681B0500D408BD05
:102980000E4B1A7802F0FF0312B101F035FBF7E7A6
:102990000B4A102111600B4A0B49D37040F203120D
:1029A0000A604A60094A1370094A1370094B1B6890
:1029B0000BB101221A7008BD28800440F412FF1FD9
:1029C00088E100E000B00E4020C004405E13FF1F0D
:1029D000F512FF1FF012FF1F38B50446094B1B7894
:1029E00003F0FF05002BF9D120460121FFF7D6FAAD
:1029F00020462946FFF7B2FA034B53F83420034B25
:102A00001A6038BDF412FF1F485600006013FF1F04
:102A100010B509B140F080000E4A1378984217D0E3
:102A20000D4C2468E40412D503F07F03302B02D14F
:102A30000A4B00241C60002900F07F030CBF4421D6
:102A40006021302B03D1054B41F4407119601070A7
:102A500010BD00BF0907FF1F3480044024C004409C
:102A60007047FFFF0D4A38B5146814F400624FF048
:102A7000000410D03F280A4D0AD80A4A012152F812
:102A800030302B60FFF78AFA2B681C70012038BDAC
:102A90002C60204638BD104638BD00BF2880044059
:102AA000F012FF1F485600000B4B1B6813F4006325
:102AB00010D03828094B09D1094A40F2023111607F
:102AC0005A7B42F001025A73012070475A7B02F090
:102AD000FE025A73002070472880044000B00E4068
:102AE00028D00440F8B51D4B1B681A05064633D59F
:102AF0001B4B1B680BB101221A701A4B1C78013456
:102B0000282C1F4628BF0024174D2B78A34218D12C
:102B1000FEF72CFF40280FDC144A13791B06F3D56F
:102B20002B7813490133282B28BF0023C95CDBB263
:102B3000C9B2D1712B70E7E7FF28E5DD01F05CFA3F
:102B4000E2E70B4BF6B21E550A4B01221A70074BF7
:102B5000E4B2AC223C70DA70F8BD00BF28800440BB
:102B60006013FF1F6413FF1F5F13FF1F00B00E40B1
:102B7000F612FF1FF412FF1F38B504464518AC4289
:102B800004D014F8010BFFF7ADFFF8E738BDFFFFE5
:102B900008B5034B1B7813B101F02EFAF9E708BD15
:102BA000F412FF1F064A074B1B781078DBB2C0B245
:102BB00083422CBF273000F1FF30C01A704700BF9E
:102BC0005F13FF1F6413FF1F054B1878054B1B781D
:102BD000C0B2DBB2984238BF4030C01A704700BF65
:102BE0005E13FF1FF512FF1F10B5104B10491A7826
:102BF0000B78D2B2DBB29A4214D00133402B28BFFB
:102C000000230C48DCB2C05C0C700B490968C0B2F0
:102C100051B19A4238BF4032D31A1A2B04DC002338
:102C20000B7010BD4FF0FF3010BD00BF5E13FF1FD3
:102C3000F512FF1F1E13FF1FF012FF1F084B1A781B
:102C4000084B1B78DBB29A4207D00133402B28BFD8
:102C50000023054AD05CC0B270474FF0FF30704788
:102C60005E13FF1FF512FF1F1E13FF1F054B1A787F
:102C7000054BD2B21A70054B1B680BB100221A70BB
:102C8000704700BFF512FF1F5E13FF1FF012FF1FFA
:102C900010B5294B1A79920620D5284AD87913788D
:102CA00027490133402B097828BF00238B42C0B24B
:102CB00003D02449C854D9B21170234A116869B1AC
:102CC000224A1278D2B2934236BFC2F14002C2EB1E
:102CD00003039B18272BC4BF01230B70164AD1781E
:102CE000C9B20C0616D51379180613D5184B174818
:102CF0001C780378DBB29C4202D16C23D37009E0CC
:102D00000133282B28BF0023124CE45CDBB2E4B271
:102D1000D47103704B060ED5074B1A7912F0400F91
:102D2000194608D00C4B00221A700C4B1B6803B1DB
:102D30001A702C23CB7010BD00B00E405E13FF1F25
:102D4000F512FF1F1E13FF1FF012FF1F5F13FF1F5F
:102D50006413FF1FF612FF1FF412FF1F6013FF1F03
:102D60001FB572B6134B144970221A70134A1160C2
:102D700080221A701A781206FCD5114B186862B6B8
:102D8000104B984298BF0A2301AC98BF5843214684
:102D90000A22FEF721FA0023E15C0B4A29B102EB7B
:102DA000430001330A2B4180F6D101335B001370DD
:102DB00004B010BD000002400000074104000240C2
:102DC0000C0002407F9698009207FF1F294B1A685B
:102DD00042F400621A60284A00231370274A1370D5
:102DE000274A1370274A1370274A1370274B1B7802
:102DF0001A2B07D03B2B09D0092B0BD140F21332F1
:102E0000234B06E040F21332224B02E0224B40F209
:102E100013321A60214B1B781F2B07D03A2B09D095
:102E20000A2B0BD14FF451721D4B06E04FF4517237
:102E30001C4B02E01C4B4FF451721A601B4BC0F349
:102E400044321A70C0F347125A700421022200F073
:102E50001F0098729970DA745975882119743C2191
:102E6000D970134B402119706FF447710B441A60ED
:102E7000704700BF34800440D613FF1F6D13FF1F3F
:102E8000DC13FF1FD713FF1F6C13FF1FA807FF1FC3
:102E90000CB004403890044004D00440A907FF1F40
:102EA00010B0044028A0044000D0044000B0064008
:102EB00021E400E0194A937800F0030103F0EC03E9
:102EC0000B43410748BF43F01003937000F00F031A
:102ED000042B124903D18B7943F040038B71527953
:102EE0000E4B02F0EF02C10648BF42F010025A71C9
:102EF0009A7910F0200F02F0EF02194618BF42F045
:102F000010028A71C205054B06D55A781978D2B2DB
:102F100041F0200119705A70704700BF00B00640A0
:102F200008B51C4B1B681B0500D408BD1A4B1A784A
:102F300002F0FF0312B101F05FF8F7E7174A022130
:102F40001160174AD370174A1278092A04D03B2A15
:102F500006D1154A136003E0144B40F203121A60C5
:102F6000134B1B7803F07F030A2B04D03A2B06D1B6
:102F70000022104B02E0104B40F203121A600F4A7D
:102F8000002313700E4A13700E4B1B680BB1012205
:102F90001A7008BD348004406C13FF1F84E100E008
:102FA00000B00640A807FF1F04D004400CB0044046
:102FB000A907FF1F00D0044010B00440D613FF1F24
:102FC0006D13FF1F6813FF1F38B50446094B1B78AC
:102FD00003F0FF05002BF9D120460121FEF7DEFFAB
:102FE00020462946FEF7BAFF034B53F83420034B23
:102FF0001A6038BD6C13FF1F48560000D813FF1F1E
:1030000010B509B140F08000144A13789842144674
:1030100022D0134A126812051DD503F07F030A2B34
:1030200004D03A2B05D100220E4B01E00E4B0022BA
:103030001A60002900F07F020CBF442360230A2A93
:1030400005D03A2A07D143F44073064A02E0064A03
:1030500043F440731360207010BD00BFA907FF1F29
:103060003480044000D0044010B004400F4A13786C
:1030700098421AD00E490968090515D5092B04D0C4
:103080003B2B05D100210B4B01E00B4B00211960BC
:10309000092805D03B2807D140F21331054B02E047
:1030A000054B40F21331196010707047A807FF1FDD
:1030B0003480044004D004400CB004400D4A38B5BC
:1030C000146814F400624FF0000410D03F280A4D39
:1030D0000AD80A4A012152F830302B60FEF75EFF11
:1030E0002B681C70012038BD2C60204638BD10466E
:1030F00038BD00BF348004406813FF1F48560000ED
:103100000E4B1B6813F4006316D017280C4B03D129
:1031100040F202310B4A04E03C2809D10A4A40F24D
:10312000023111605A7B42F001025A73012070474C
:103130005A7B02F0FE025A7300207047348004402C
:1031400000B0064008B0044008D00440F8B51D4B5C
:103150001B681A05064633D51B4B1B680BB10122B1
:103160001A701A4B1C780134282C1F4628BF0024E3
:10317000174D2B78A34218D1FEF7F8FB40280FDC3F
:10318000144A13791B06F3D52B7813490133282BE6
:1031900028BF0023C95CDBB2C9B2D1712B70E7E74D
:1031A000FF28E5DD00F028FFE2E70B4BF6B21E55E5
:1031B0000A4B01221A70074BE4B2BC223C70DA7051
:1031C000F8BD00BF34800440D813FF1FDC13FF1F7D
:1031D000D713FF1F00B006406E13FF1F6C13FF1FB5
:1031E000274B1B681A052DE9F04707468A4644D548
:1031F000244B1B680BB101221A703D4607EB0A03F2
:103200009D4237D2DFF890801F4E98F8004096F824
:1032100000900134282C28BF00245FFA89F9A145C9
:103220001DD11A4BBC22DA70FEF7A0FB40280FDC40
:10323000164A13791B060FD5337815490133282B0D
:1032400028BF0023C95CDBB2C9B2D171337003E07F
:10325000FF2801DD00F0D0FE33784B45E4D00C4B65
:1032600015F8012B1A550B4B0122E4B21A7088F89D
:103270000040C3E7054BBC22DA70BDE8F08700BF11
:1032800034800440D813FF1FD713FF1F00B006403F
:103290006E13FF1F6C13FF1FDC13FF1F08B5034BDA
:1032A0001B7813B100F0A8FEF9E708BD6C13FF1FEF
:1032B000064A074B1B781078DBB2C0B283422CBFA2
:1032C000273000F1FF30C01A704700BFD713FF1F2F
:1032D000DC13FF1F054B1878054B1B78C0B2DBB21F
:1032E000984238BF4030C01A704700BFD613FF1F46
:1032F0006D13FF1F10B5104B10491A780B78D2B21E
:10330000DBB29A4214D00133402B28BF00230C4873
:10331000DCB2C05C0C700B490968C0B251B19A4272
:1033200038BF4032D31A1A2B04DC00230B7010BDB7
:103330004FF0FF3010BD00BFD613FF1F6D13FF1FEE
:103340009613FF1F6813FF1F084B1A78084B1B7852
:10335000DBB29A4207D00133402B28BF0023054A35
:10336000D05CC0B270474FF0FF307047D613FF1FDC
:103370006D13FF1F9613FF1F0C4B1B681B0514D505
:103380000B4BDA7802F0CB02DA7040225A74DA780A
:1033900042F03402DA70074B1A78074BD2B21A7037
:1033A000064B1B680BB100221A7070473480044032
:1033B00000B006406D13FF1FD613FF1F6813FF1FD9
:1033C00030B5374B1A7912F0300F31D072B69A7D82
:1033D00002F0FF0022B9DA7940225A7462B627E07F
:1033E00062B6304A304913780978DBB2C9B2144664
:1033F0002B4AD5795A1C402A28BF00228A42EDB2B6
:1034000002D02A4B9D541346421E12F0FF00EFD10A
:10341000DAB22270264A126852B18B4236BFC1F12D
:103420004001C1EB03035B18272BC4BF01231370BA
:103430001B4BD978C9B20C0620D51B7918061DD5AF
:103440001C4B1D4A1D781378EDB2DBB21046AB421F
:103450000CD0134A0133282B1479184C28BF0023B1
:10346000E45CE4B2D471127D072AF0D9DBB20370B8
:103470000B4B1A79120644BF7C22DA704B060ED52C
:10348000074B1A7912F0400F194608D00C4B002256
:103490001A700C4B1B6803B11A703C23CB7030BD03
:1034A00000B00640D613FF1F6D13FF1F9613FF1FBA
:1034B0006813FF1FDC13FF1FD713FF1F6E13FF1FBF
:1034C0006C13FF1FD813FF1F10B5104C23686BB18E
:1034D00020684288531C0244147A0288934212D313
:1034E00000F03EF9094B00221A600DE0084B1B78F2
:1034F00013B94FF0FF3010BD0320FDF77FFA2060B5
:103500000028E5D1F5E74380204610BDE813FF1FF2
:103510005F11FF1F10B50B4C236813B123686BB903
:1035200002E0094B1B7813B94FF0FF3010BD0320A8
:10353000FDF764FA20600028F0D1F5E75A881344BB
:10354000187A10BDE813FF1F5F11FF1F044B988806
:10355000044B1B681BB11A885B88D31A1844704748
:10356000D414FF1FE813FF1F10B5094B1B786BB174
:10357000084C206818B100F0F3F800232360032002
:10358000FDF73CFA10B100F0EBF8F8E710BD00BF12
:103590005F11FF1FE813FF1F2DE9F8432D4E012394
:1035A00007460C463370002C4FD02B4D2B68A94694
:1035B0002BBB47F20958294B1B7803F0FF020BB9CC
:1035C000327015E00420FDF735FA072808D80123EA
:1035D000337000F0A7F8C9F8000080B91D4B1870CF
:1035E000B8F101081E4B01D01A782AB101221A70D5
:1035F0004FF0FF30BDE8F88300F0FEFCDBE7296800
:10360000174A488800231370C0F14002944238BF23
:10361000224600F1080C10448C444880A41A9342BE
:1036200004D0F85C0CF803000133F8E71F444B8822
:103630003F2B06D940230B800420FDF749FA0023D5
:103640002B60084B05221A70ADE734702046BDE8A8
:10365000F88300BFDE13FF1FE013FF1F5F11FF1F82
:10366000E413FF1FDD13FF1F07B502AB012103F8B1
:10367000010D1846FFF790FF03B05DF804FBFFFF54
:103680002DE9F041114B1B78F3B1114E114B346809
:10369000114D01271F7098464CB1002763882F7089
:1036A000042023802146FDF713FA376009E000F07B
:1036B00039F8014620B104202C70FDF709FA00E02A
:1036C0002F70002388F80030BDE8F0815F11FF1FE4
:1036D000E013FF1FDE13FF1FDD13FF1F38B50E4B76
:1036E0001B7803F0FF05ABB90C4C216831B14B8856
:1036F0000B800420FDF7ECF9256038BD00F012F8CE
:10370000014620B10420BDE83840FDF7E1B9044B83
:1037100001221A7038BD00BFDE13FF1FE013FF1F28
:10372000DD13FF1F72B60C4A1168B1FA81F30B2B3F
:1037300002D962B6002070474FF00040D84021EA1D
:103740000001116062B6054948225343C81800229F
:10375000CA504260704700BFAC07FF1F9803FF1FAD
:103760000C4B4822C31AB3FBF2F30B2B11D80A4AB5
:10377000127822B1094A12780AB1FDF76DB972B612
:10378000074A4FF0004121FA03F311681943116011
:1037900062B670479803FF1F5611FF1F5F11FF1F8E
:1037A000AC07FF1F08B50368C9B21B68984708BD7E
:1037B00008B50368C9B21B68984708BD08B5036817
:1037C000C9B21B68984708BD08B50368C9B21B6831
:1037D000984708BD08B50368C9B21B68984708BD7B
:1037E00008B50368C9B21B68984708BD08B50368E7
:1037F000C9B21B68984708BD08B50368C9B21B6801
:10380000984708BD4B0803F1B76000F55840B0FB7E
:10381000F1F0FDF7FFBC10B54B0803F1B76000F500
:1038200058401446B0FBF1F0FDF7F4FC2046BDE82B
:103830001040FDF763BDFDF797BD0846FDF7C8BD15
:103840000846FDF723BE08461146FDF7DDBD08B565
:103850000846FDF74FFE003018BF012008BD08B52F
:103860000846FDF769FE003018BF012008BDFDF7CE
:103870004DBFFDF785BFFDF759BFFDF72BBFFDF726
:1038800097BFFDF731BF08B50846FDF77BFE012065
:1038900008BD08B50846FDF775FE012008BD10B546
:1038A000084614461146FDF7B7FE204610BD38B550
:1038B00008460D4601F0A4FC044621462846FDF7C3
:1038C000ABFE204638BD4B0803F1B76000F5584009
:1038D000B0FBF1F0FEF7D8BF10B54B0803F1B760AD
:1038E00000F558401446B0FBF1F0FEF7CDFF20463E
:1038F000BDE81040FFF708B8FFF73CB80846FFF7EF
:103900006BB80846FFF7ACB808461146FFF780B819
:1039100008B50846FFF7A6F8003018BF012008BD1B
:1039200008B50846FFF7C0F8003018BF012008BDF1
:10393000FFF74AB9FFF782B9FFF756B9FFF728B981
:10394000FFF794B9FFF72EB908B50846FFF7CAF894
:10395000012008BD08B50846FFF7C4F8012008BDDE
:1039600010B5084614461146FFF706F9204610BD6B
:1039700038B508460D4601F043FC0446214628466A
:10398000FFF7FAF8204638BD7047FFFF044B0022CE
:103990001A714FF47A711A73024A99601A6070476B
:1039A000F013FF1FF05800007047FFFF044B002288
:1039B0001A714FF47A711A73024A99601A6070474B
:1039C0000014FF1F5059000038B5044608460D4644
:1039D00001F016FC236802465B682046294698479A
:1039E00038BDFFFF07B5064B1B88ADF804300368F0
:1039F00001A95B680222984703B05DF804FB00BF91
:103A0000A859000070B505468AB022B90368C9B24A
:103A10001B6898472CE0012A08BF0A2221B93022EE
:103A20008DF82520212413E02124B1FBF2F002FBC4
:103A30001011C9B209290AAE94BF3031373126447A
:103A4000C9B206F8241C014610B1013CE4B2ECE70F
:103A500033B1013CE4B20AAB23442D2203F8242CF9
:103A60002B6801A95B6828462144C4F122029847CB
:103A70000AB070BDFFFFFFFF2DE9FF47804655EC00
:103A8000104B894600F0F6FB10B940464C4907E060
:103A900045EC104B00F0EEFB012805D149494046AA
:103AA000FFF792FF064680E0204629464FF060422D
:103AB000454B01F055F810B140464449F0E7204627
:103AC00029464FF06042424B01F02CF80028F3D118
:103AD000204629460022002301F024F820B105F1F8
:103AE00000473D46012600E006463A4B00270022EB
:103AF000F9B249450AD2104619462FA3D3E900234B
:103B000000F09EFD013702460B46F1E720462946AC
:103B100000F0E4FB0D46044601F02CF8074633465E
:103B2000404639460A22FFF76DFF0646B9F1000FFD
:103B30003BD0384600F00EFDB9F10F0F28BF4FF013
:103B40000F090B4602462946204600F0C5FB09F145
:103B500001092E238DF800305FFA89F94FF0010A30
:103B600000221D4B00F06CFD0D46044601F002F8EA
:103B700004AB5344C0B200F1300203F8102C00F043
:103B8000F9FC0AF1010702460B46FFB2204629461E
:103B900000F0A2FB4F4501D0BA46E1E7D8F800306B
:103BA00040465B6869464A469847304604B0BDE8DF
:103BB000F08700BFAFF300809A9999999999B93F1E
:103BC000AA590000AE590000FFFFEF41B2590000B2
:103BD000FFFFEFC10000E03F00002440AFF3008092
:103BE000FFF7B4BCFFF770BCFFF794BCFFF748BD0C
:103BF000FFF7BABC0846FFF737BD08461146FFF786
:103C0000CBBC7047044B00221A714FF47A711A73BF
:103C1000024A99601A6070471014FF1FC0590000D3
:103C200008B50368C9B21B68984708BD08B50368A2
:103C3000C9B21B68984708BD08B50368C9B21B68BC
:103C4000984708BD08B50368C9B21B68984708BD06
:103C50004B0803F1B76000F55840B0FBF1F0FDF7F9
:103C6000A3BE10B54B0803F1B76000F558401446E9
:103C7000B0FBF1F0FDF798FE2046BDE81040FDF7DF
:103C8000F3BEFDF727BF0846FDF77CBF0846FDF7EA
:103C9000CBBF08461146FDF791BF08B50846FDF7B2
:103CA000EBFF003018BF012008BD08B50846FEF73D
:103CB00005F8003018BF012008BDFEF773B8FEF705
:103CC000ABB8FEF77FB8FEF751B8FEF7BDB8FEF708
:103CD00057B808B50846FDF7F3FF012008BD08B541
:103CE0000846FDF7EDFF012008BD10B50846144653
:103CF0001146FEF72FF8204610BD38B508460D4690
:103D000001F07EFA044621462846FEF723F82046B5
:103D100038BD7047044B00221A714FF47A711A7340
:103D2000024A99601A6070472014FF1FE85900008A
:103D300008B5034B01221A60024B1B68984708BD67
:103D40000C7103403814FF1F08B5034B01221A60A1
:103D5000024B5B68984708BD1C7103403814FF1F75
:103D600008B5034B01221A60024B9B68984708BDB7
:103D70002C7103403814FF1F08B5034B01221A6051
:103D8000024BDB68984708BD3C7103403814FF1FA5
:103D9000064B01221A6003F588333C331A6822F47B
:103DA00000021A60024B00221A7070470070034034
:103DB0003414FF1F8268002310B51360027B0121B9
:103DC000541102F01F0201FA02F2084941F82420BE
:103DD000074A41785354D15C31B90133042BFAD1ED
:103DE000BDE81040FFF7D4BF10BD00BF80E100E088
:103DF0003014FF1F037810B504460BB1FFF7DAFF4C
:103E00000023237010BD70B506460D4600243319FB
:103E1000284619790A2200230134FFF7F3FD042C08
:103E200005D02B6828461B682E219847EFE72046CF
:103E300070BDFFFF024B034A1A6000225A607047B0
:103E40004814FF1F485A000008B50368C9B21B6830
:103E5000984708BD08B50368C9B21B68984708BDF4
:103E600008B50368C9B21B68984708BD08B5036860
:103E7000C9B21B68984708BD4B0803F1B76000F54D
:103E80005840B0FBF1F0FEF7A1BF10B54B0803F1AD
:103E9000B76000F558401446B0FBF1F0FEF796FF0E
:103EA0002046BDE81040FFF705B8FFF739B80846CF
:103EB000FFF78AB80846FFF7D9B808461146FFF75A
:103EC0009FB808B50846FFF7F9F8003018BF012081
:103ED00008BD08B50846FFF713F9003018BF0120E8
:103EE00008BDFFF7F7B9FFF72FBAFFF703BAFFF7DF
:103EF000D5B9FFF741BAFFF7DBB908B50846FFF7B8
:103F000025F9012008BD08B50846FFF71FF9012073
:103F100008BD10B5084614461146FFF761F9204662
:103F200010BD38B508460D4601F06AF90446214631
:103F30002846FFF755F9204638BD7047044B00224C
:103F40001A714FF47A711A73024A99601A607047B5
:103F50005014FF1F585A000010B50446FFF74AFFDF
:103F6000204610BD04480549054A002303708023FC
:103F7000437300F01FBE00BF6014FF1F593F0000D5
:103F8000F806FF1FF8B5164B164D1A6842F08072FE
:103F90001A60154B1A6842F001021A60134B2E6822
:103FA0001C688CB1237A6BB123682F681B6820468C
:103FB00098472A68E188D21B120993B28A42A380EB
:103FC00088BFE3806469ECE72968094B891B09090C
:103FD0008AB21A80074B1888814288BF1A80F8BDC0
:103FE000FCED00E0041000E0001000E07414FF1F7E
:103FF0007A14FF1F7814FF1F10B5154C237833BBBC
:1040000001232370FFF7A2FA08B1FFF7FAFDFDF7CD
:104010007DFB08B1FFF7C8FCFFF75CF908B1FFF7BB
:104020008CFFFCF7FFFB08B100F015F9FDF7BAFEB5
:1040300008B1FFF76EFEFEF72BFA08B100F083F827
:10404000FEF7C2FD08B1FFF79FFC0023237010BDEF
:104050007C14FF1F08B50368C9B21B68984708BDE8
:1040600008B50368C9B21B68984708BD08B503685E
:10407000C9B21B68984708BD08B50368C9B21B6878
:10408000984708BD4B0803F1B76000F55840B0FBF6
:10409000F1F0FEF75BB810B54B0803F1B76000F51F
:1040A00058401446B0FBF1F0FEF750F82046BDE84A
:1040B0001040FEF78BB8FEF7BFB80846FEF7F0B821
:1040C0000846FEF731B908461146FEF705B908B5AE
:1040D0000846FEF72BF9003018BF012008BD08B5CF
:1040E0000846FEF745F9003018BF012008BDFEF76D
:1040F000CFB9FEF707BAFEF7DBB9FEF7ADB9FEF7A9
:1041000019BAFEF7B3B908B50846FEF74FF9012012
:1041100008BD08B50846FEF749F9012008BD10B5ED
:10412000084614461146FEF78BF9204610BD38B5F7
:1041300008460D4601F064F8044621462846FEF77D
:104140007FF9204638BD7047044B00221A714FF4A6
:104150007A711A73024A99601A6070478014FF1FBF
:10416000B85A000008B50368C9B21B68984708BD73
:1041700008B50368C9B21B68984708BD08B503684D
:10418000C9B21B68984708BD08B50368C9B21B6867
:10419000984708BD4B0803F1B76000F55840B0FBE5
:1041A000F1F0FCF79DB910B54B0803F1B76000F5CD
:1041B00058401446B0FBF1F0FCF792F92046BDE8F8
:1041C0001040FCF7CDB9FCF701BA0846FCF732BA4B
:1041D0000846FCF773BA08461146FCF747BA08B51B
:1041E0000846FCF76DFA003018BF012008BD08B57D
:1041F0000846FCF787FA003018BF012008BDFCF71D
:1042000011BBFCF749BBFCF71DBBFCF7EFBAFCF791
:104210005BBBFCF7F5BA08B50846FCF791FA01203C
:1042200008BD08B50846FCF78BFA012008BD10B59B
:10423000084614461146FCF7CDFA204610BD38B5A5
:1042400008460D4600F0DCFF044621462846FCF7F0
:10425000C1FA204638BD7047044B00221A714FF452
:104260007A711A73024A99601A6070479014FF1F9E
:10427000185B000053EC102B33F0004110B408D051
:104280001148A3F58014844208D804205DF8044B3B
:1042900070471AB902205DF8044B704703F1FF43E1
:1042A000094803F5E0038342EFD9B1F5801F01D23D
:1042B0000320EBE7054B994201D00020E6E7B2FA74
:1042C00082F04009E2E700BFFFFFDF7F0000F07FE0
:1042D00081F0004102E000BF83F0004330B54FEAB7
:1042E00041044FEA430594EA050F08BF90EA020F24
:1042F0001FBF54EA000C55EA020C7FEA645C7FEAB7
:10430000655C00F0E2804FEA5454D4EB5555B8BFD9
:104310006D420CDD2C4480EA020281EA030382EA4A
:10432000000083EA010180EA020281EA0303362DDC
:1043300088BF30BD11F0004F4FEA01314FF4801CAF
:104340004CEA113102D0404261EB410113F0004FC1
:104350004FEA03334CEA133302D0524263EB430378
:1043600094EA050F00F0A780A4F10104D5F1200E16
:104370000DDB02FA0EFC22FA05F2801841F1000171
:1043800003FA0EF2801843FA05F359410EE0A5F145
:1043900020050EF1200E012A03FA0EFC28BF4CF076
:1043A000020C43FA05F3C01851EBE37101F000452C
:1043B00007D54FF0000EDCF1000C7EEB00006EEB39
:1043C0000101B1F5801F1BD3B1F5001F0CD34908C3
:1043D0005FEA30004FEA3C0C04F101044FEA44521A
:1043E00012F5800F80F09A80BCF1004F08BF5FEAA1
:1043F000500C50F1000041EB045141EA050130BD81
:104400005FEA4C0C404141EB010111F4801FA4F123
:104410000104E9D191F0000F04BF01460020B1FA78
:1044200081F308BF2033A3F10B03B3F120020CDAB0
:104430000C3208DD02F1140CC2F10C0201FA0CF08E
:1044400021FA02F10CE002F11402D8BFC2F1200CF3
:1044500001FA02F120FA0CFCDCBF41EA0C019040A9
:10446000E41AA2BF01EB0451294330BD6FEA0404F2
:104470001F3C1CDA0C340EDC04F11404C4F12002DD
:1044800020FA04F001FA02F340EA030021FA04F3EF
:1044900045EA030130BDC4F10C04C4F1200220FA46
:1044A00002F001FA04F340EA0300294630BD21FA84
:1044B00004F0294630BD94F0000F83F4801306BF4A
:1044C00081F480110134013D4EE77FEA645C18BF3E
:1044D0007FEA655C29D094EA050F08BF90EA020FD5
:1044E00005D054EA000C04BF1946104630BD91EACD
:1044F000030F1EBF0021002030BD5FEA545C05D1D0
:104500004000494128BF41F0004130BD14F580040E
:104510003CBF01F5801130BD01F0004545F0FE4182
:1045200041F470014FF0000030BD7FEA645C1ABFB7
:10453000194610467FEA655C1CBF0B46024650EAEE
:10454000013406BF52EA033591EA030F41F400211A
:1045500030BD00BF90F0000F04BF0021704730B5A0
:104560004FF4806404F132044FF000054FF0000175
:1045700050E700BF90F0000F04BF0021704730B536
:104580004FF4806404F1320410F0004548BF40420B
:104590004FF000013EE700BF42004FEAE2014FEA60
:1045A00031014FEA02701FBF12F07F4393F07F4F3B
:1045B00081F06051704792F0000F14BF93F07F4F6D
:1045C000704730B54FF4607401F0004521F00041B0
:1045D00020E700BF50EA010208BF704730B54FF036
:1045E00000050AE050EA010208BF704730B511F03B
:1045F000004502D5404261EB41014FF4806404F173
:1046000032045FEA915C3FF4DCAE4FF003025FEAF4
:10461000DC0C18BF03325FEADC0C18BF033202EB7C
:10462000DC02C2F1200300FA03FC20FA02F001FAD6
:1046300003FE40EA0E0021FA02F11444C1E600BF75
:1046400070B54FF0FF0C4CF4E06C1CEA11541DBF28
:104650001CEA135594EA0C0F95EA0C0F00F0DEF8F3
:104660002C4481EA030621EA4C5123EA4C5350EAD8
:10467000013518BF52EA033541F4801143F4801329
:1046800038D0A0FB02CE4FF00005E1FB02E506F0BA
:104690000042E0FB03E54FF00006E1FB03569CF00F
:1046A000000F18BF4EF0010EA4F1FF04B6F5007F15
:1046B00064F5407404D25FEA4E0E6D4146EB060687
:1046C00042EAC62141EA55514FEAC52040EA5E5010
:1046D0004FEACE2EB4F1FD0C88BFBCF5E06F1ED8BA
:1046E000BEF1004F08BF5FEA500E50F1000041EBF1
:1046F000045170BD06F0004646EA010140EA02009E
:1047000081EA0301B4EB5C04C2BFD4EB0C0541EABF
:10471000045170BD41F480114FF0000E013C00F3D4
:10472000AB8014F1360FDEBF002001F0004170BDF8
:10473000C4F10004203C35DA0C341BDC04F1140411
:10474000C4F1200500FA05F320FA04F001FA05F29D
:1047500040EA020001F0004221F0004110EBD3706A
:1047600021FA04F642EB06015EEA430E08BF20EA96
:10477000D37070BDC4F10C04C4F1200500FA04F339
:1047800020FA05F001FA04F240EA020001F00041CB
:1047900010EBD37041F100015EEA430E08BF20EA3E
:1047A000D37070BDC4F1200500FA05F24EEA020E86
:1047B00020FA04F301FA05F243EA020321FA04F0B5
:1047C00001F0004121FA04F220EA020000EBD3706C
:1047D0005EEA430E08BF20EAD37070BD94F0000F6C
:1047E0000FD101F00046400041EB010111F4801FA0
:1047F00008BF013CF7D041EA060195F0000F18BF51
:10480000704703F00046520043EB030313F4801F8C
:1048100008BF013DF7D043EA0603704794EA0C0F46
:104820000CEA135518BF95EA0C0F0CD050EA41065C
:1048300018BF52EA4306D1D181EA030101F00041D9
:104840004FF0000070BD50EA410606BF1046194601
:1048500052EA430619D094EA0C0F02D150EA01360D
:1048600013D195EA0C0F05D152EA03361CBF10464E
:1048700019460AD181EA030101F0004141F0FE41ED
:1048800041F470014FF0000070BD41F0FE4141F471
:10489000780170BD70B54FF0FF0C4CF4E06C1CEA71
:1048A00011541DBF1CEA135594EA0C0F95EA0C0F26
:1048B00000F0A7F8A4EB050481EA030E52EA0335E1
:1048C0004FEA013100F088804FEA03334FF0805502
:1048D00045EA131343EA12634FEA022245EA11152F
:1048E00045EA10654FEA00260EF000419D4208BFE0
:1048F000964244F1FD0404F5407402D25B084FEA8D
:104900003202B61A65EB03055B084FEA32024FF438
:1049100080104FF4002CB6EB020E75EB030E22BF95
:10492000B61A754640EA0C005B084FEA3202B6EB55
:10493000020E75EB030E22BFB61A754640EA5C0004
:104940005B084FEA3202B6EB020E75EB030E22BF94
:10495000B61A754640EA9C005B084FEA3202B6EB95
:10496000020E75EB030E22BFB61A754640EADC0054
:1049700055EA060E18D04FEA051545EA16754FEAB6
:1049800006164FEAC30343EA52734FEAC2025FEAD4
:104990001C1CC0D111F4801F0BD141EA00014FF063
:1049A00000004FF0004CB6E711F4801F04BF014334
:1049B0000020B4F1FD0C88BFBCF5E06F3FF6AFAE50
:1049C000B5EB030C04BFB6EB020C5FEA500C50F1E0
:1049D000000041EB045170BD0EF0004E4EEA113163
:1049E00014EB5C04C2BFD4EB0C0541EA045170BD6A
:1049F00041F480114FF0000E013C90E645EA060EAE
:104A00008DE60CEA135594EA0C0F08BF95EA0C0FDB
:104A10003FF43BAF94EA0C0F0AD150EA01347FF423
:104A200034AF95EA0C0F7FF425AF104619462CE7FA
:104A300095EA0C0F06D152EA03353FF4FDAE10465D
:104A4000194622E750EA410618BF52EA43067FF4AE
:104A5000C5AE50EA41047FF40DAF52EA43057FF43E
:104A6000EBAE12E74FF0FF3C06E000BF4FF0010C49
:104A700002E000BF4FF0010C4DF804CD4FEA410CAD
:104A80007FEA6C5C4FEA430C18BF7FEA6C5C1BD07A
:104A900001B050EA410C0CBF52EA430C91EA030FFB
:104AA00002BF90EA020F0020704710F1000F91EA58
:104AB000030F58BF994208BF90422CBFD8176FEA26
:104AC000E37040F0010070474FEA410C7FEA6C5CF4
:104AD00002D150EA013C07D14FEA430C7FEA6C5CFB
:104AE000D6D152EA033CD3D05DF8040B704700BF27
:104AF0008446104662468C461946634600E000BF75
:104B000001B5FFF7B7FF002848BF10F1000F01BD46
:104B10004DF808EDFFF7F4FF0CBF012000205DF811
:104B200008FB00BF4DF808EDFFF7EAFF34BF012096
:104B300000205DF808FB00BF4DF808EDFFF7E0FF2F
:104B400094BF012000205DF808FB00BF4DF808ED80
:104B5000FFF7CEFF94BF012000205DF808FB00BFE7
:104B60004DF808EDFFF7C4FF34BF012000205DF8C9
:104B700008FB00BF4A0011D212F5001211D20DD568
:104B80006FF47873B3EB62520ED44FEAC12343F053
:104B9000004343EA505323FA02F070474FF00000FD
:104BA000704750EA013002D14FF0FF3070474FF0AC
:104BB000000070470B460146184600F001B800BFE0
:104BC00013460A460146022000F088BB70B50F4E1E
:104BD0000F4D761BB61018BF002405D0013455F8D0
:104BE000043B9847A642F9D10A4E0B4D761B00F0C4
:104BF000C1FFB61018BF002406D0013455F8043B9D
:104C00009847A642F9D170BD70BD00BF805B00001F
:104C1000805B0000AC5B0000805B0000024B014643
:104C2000186800F003B800BFD80BFF1F2DE9F04F44
:104C300001F10B05162D83B0064640F29F8035F03A
:104C4000070500F1BF80A94200F2BC8000F0A6FA7F
:104C5000B5F5FC7FC0F09C826B0A00F0BA80042B93
:104C600000F28381A80900F1390E4FEA4E03383073
:104C7000C44F07EB8303A3F108015C68A14207D18D
:104C8000ACE0002A80F2AC80E468A14200F0A6808B
:104C9000636823F003035A1B0F2AF2DDB9493C690C
:104CA00001F1080E744500F0B381636823F003033B
:104CB0005A1B0F2A00F39981002AC1F814E0C1F8A9
:104CC00010E080F29E80B3F5007F80F06781DB0802
:104CD00003F1010C01229B1002FA03F34A6851F818
:104CE0003C80C4F8088001EBCC091A43A9F1080301
:104CF000E3604A6041F83C40C8F80C40831001244E
:104D00009C40944200F28A80144206D120F00300B5
:104D10006400144200F10400FAD007EBC009CC464D
:104D20008046DCF80C108C4507D173E1002A80F234
:104D30008181C9688C4500F06D814B6823F00303C5
:104D40005A1B0F2AF2DD0C46D1F80CC054F8088F1C
:104D50004B1945F001054D6042F00101C8F80CC047
:104D60003046CCF808807B613B61C3F80CE0C3F8A7
:104D700008E059609A5000F013FA1FE0102921D87A
:104D800000F00CFA1025062302207E4F07EB830368
:104D9000A3F108025C68944200F045816368E16811
:104DA000A56823F00303234430465A68E96042F0C3
:104DB00001028D605A6000F0F3F90834204603B018
:104DC000BDE8F08F00240C232046336003B0BDE81B
:104DD000F08F80234FF0400E3F2049E770465DE79B
:104DE0002344E1685A68A56842F00102E960304650
:104DF0008D605A6000F0D4F90834204603B0BDE855
:104E0000F08F234430465A6842F001025A6000F0A5
:104E1000C7F90834204603B0BDE8F08FBC6863686A
:104E200023F00308A84504D3C5EB08030F2B00F3B8
:104E30008C80554BDFF860911A68D9F80030013347
:104E40002A4404EB080A00F0608102F580520F3218
:104E500022F47F6222F00F0211463046019200F0E8
:104E6000A1F9B0F1FF3F8346019A00F058818245D5
:104E700000F2FC80454B1968DA451144196000F0D6
:104E80005381D9F80000DFF810E101301BBFCAEBF5
:104E90000B0A5144CEF800B019601BF0070100F076
:104EA0001781C1F10800C1F58051834408315A448B
:104EB000C2F30B02C2EB010949463046019300F0F0
:104EC00071F9431C019B00F03F81CBEB00024A4487
:104ED00042F001021968C7F808B04944BC42CBF857
:104EE00004201960DFF8A49016D0B8F10F0F40F23B
:104EF000FD806268A8F10C0323F00703E01802F0BC
:104F000001024FF0050E1A430F2B6260C0F804E057
:104F1000C0F808E000F21C811D4BBC681A68914281
:104F200088BF19601B4B1A689142626888BF19607C
:104F300022F003029542A2EB050301D80F2B04DCFB
:104F4000304600F02DF9002438E7621943F00103E0
:104F500045F0010565603046BA60536000F020F905
:104F60000834204603B0BDE8F08F142B71D9542BC0
:104F700000F2A480280B00F16F0E4FEA4E036E3052
:104F800076E600BFDC0BFF1FA814FF1FAC14FF1F49
:104F9000A414FF1FA014FF1FE80FFF1F5A0A042AC2
:104FA0005ED9142A00F2B38002F15C0149005B3241
:104FB00007EB810C57F82110DFF8DC81ACF1080C0D
:104FC0008C4500F088804A6822F00302934202D2A6
:104FD00089688C45F7D1D1F80CC07A68C4F80CC048
:104FE000A160CCF80840CC6088E6631942F0010764
:104FF00045F00105656030464B610B61C3F80CE07C
:10500000C3F808E05F609A50083400F0C9F8D5E6AC
:105010004A6873E608F1010818F0030F0CF1080C58
:105020007FF47FAE30E0DC68A34208BF02303FF47B
:1050300035AEB3E60B440C465A68C96854F8085FAD
:1050400042F001025A603046E9608D6000F0A8F835
:10505000B4E603F15C0E03F15B004FEA4E0307E692
:105060009A0902F1390149003832A1E7BC424A4BA2
:105070003FF400AF9C68626822F003025AE759F8D7
:105080000839994540F0828010F0030F00F1FF309D
:10509000F5D17B6823EA04037B6064009C423FF601
:1050A000BDAE002C3FF4BAAE1C4240467FF435AE94
:1050B00064001C4200F10400FAD02EE6B3F5AA7F8A
:1050C00018D8E80B00F1780E4FEA4E037730CFE5A1
:1050D0004FF48051EBE60121D8F80430921001FA28
:1050E00002F21A43C8F80420614677E70123CBF89F
:1050F000043025E740F25452934220D8A80C00F126
:105100007D0E4FEA4E037C30B2E51032A4E6542AFD
:1051100026D81A0B02F16F0149006E3248E7BC68CD
:10512000626822F0030205E7CAF30B0000287FF44F
:10513000A8AE4244BB6842F001025A60ECE6FE238E
:105140004FF07F0E7E2093E501224FF00009C1E66B
:1051500004F10801304600F085F9D9F80010DBE6CB
:10516000B2F5AA7F05D8DA0B02F17801490077324F
:105170001EE740F254518A4205D89A0C02F17D0193
:1051800049007C3214E7FE217E2211E77B6884E728
:10519000E808431C5B00F8E5DC0BFF1F704700BF0D
:1051A000704700BF38B5074C00230546084623600A
:1051B000FCF7D4FB431C00D038BD2368002BFBD088
:1051C0002B6038BDE814FF1FFFFFFFFFFFFFFFFF4D
:1051D000FFFFFFFFFFFFFFFFFFFFFFFFFFFFFFFFDF
:1051E000FFFFFFFFFFFFFFFFFFFFFFFFFFFFFFFFCF
:1051F000FFFFFFFFFFFFFFFFFFFFFFFFFFFFFFFFBF
:1052000090F800F06DE9024520F007016FF0000C06
:1052100010F0070491F820F040F049804FF00004AE
:105220006FF00700D1E9002391F840F000F1080089
:1052300082FA4CF2A4FA8CF283FA4CF3A2FA8CF3C1
:105240004BBBD1E9022382FA4CF200F10800A4FA28
:105250008CF283FA4CF3A2FA8CF3E3B9D1E904237C
:1052600082FA4CF200F10800A4FA8CF283FA4CF3B3
:10527000A2FA8CF37BB9D1E9062301F1200182FA6D
:105280004CF200F10800A4FA8CF283FA4CF3A2FA73
:105290008CF3002BC6D0002A04BF04301A4612BA81
:1052A000B2FA82F2FDE8024500EBD2007047D1E984
:1052B000002304F00305C4F100004FEAC50514F013
:1052C000040F91F840F00CFA05F562EA05021CBFE4
:1052D00063EA050362464FF00004A9E72DE9F047B1
:1052E000254C2568D5F84841064688469246994699
:1052F000C4B360681F2817DC431C76B104EB80053B
:105300000122C5F888A0D4F8881182401143022EEA
:10531000C4F88811C5F808911ED00230636044F8C3
:1053200020800020BDE8F087144B03B34FF4C87011
:10533000FFF774FC0446D0B1D5F84831002780E867
:105340008800C5F8484138460123C4F88871C4F87C
:105350008C71002EE1D0D1E7D4F88C110A43C4F847
:105360008C21DAE705F5A674C5F84841C1E74FF08E
:10537000FF30BDE8F08700BF705B00001D4C0000EF
:10538000024B13B1024800F005B87047000000005E
:10539000A1530000002301461A461846FFF79EBF9E
:1053A00038B5074D074C2C1BA41005D0013C55F80F
:1053B000043D9847002CF9D1BDE8384000F0F6BB19
:1053C0000000000000000000F8B5234F0C46064620
:1053D000FFF7E4FEBB685D6825F00305291B01F6B5
:1053E000EF7121F47F6121F00F01A1F58054B4F534
:1053F000805F07DB00213046FFF7D4FEBB682B44FB
:10540000984204D03046FFF7CBFE0020F8BD614241
:105410003046FFF7C7FE01300DD0104BBA6819684F
:105420002D1B45F001053046091B55601960FFF73B
:10543000B7FE0120F8BD00213046FFF7B3FEBA6881
:10544000831A0F2BDEDD064C0449246843F0010368
:10545000001B53600860D5E7DC0BFF1FAC14FF1F77
:10546000E80FFF1F002945D02DE9F0410D46804689
:10547000FFF794FE55F8047C6A4927F00103A5F173
:105480000804E2188E685068B24220F0030062D02F
:10549000FE0750600BD455F8087CE41B01F1080EA0
:1054A000A56875453B446FD0E768EF60BD6015188F
:1054B0006D68ED0742D543F001026260E350B3F539
:1054C000007F18D2DB085A1C4D6851F83270A76073
:1054D00001209B1000FA03F301EBC2001D430838C2
:1054E000E0604D6041F83240FC604046BDE8F0416C
:1054F000FFF756BE70475A0A042A53D89A0902F198
:1055000039077F0002F1380501EB870051F82720A9
:105510004449083890424DD0516821F003018B4234
:1055200002D292689042F7D1D068E060A2608460B5
:10553000D4604046BDE8F041FFF732BE95683A4F6F
:10554000BD4203443FD0D068E86043F0010285606B
:105550006260E350B3E7FF07034407D455F8082C13
:10556000A41A1344A068E268C26090602F4A1268CF
:1055700043F00100934260608C60B6D32C4B4046F0
:105580001968FFF721FFB0E711184968C90744D42B
:105590009168D268CA60034443F001009160606082
:1055A000E350A2E7142A17D802F15C077F0002F14A
:1055B0005B05A9E7AA104B68012505FA02F213431F
:1055C0004B600246B1E743F001024C610C61E560BB
:1055D000A5606260E35088E7542A06D81A0B02F1EE
:1055E0006F077F0002F16E058EE7B2F5AA7F06D83D
:1055F000DA0B02F178077F0002F1770584E740F2C9
:105600005450824206D89A0C02F17D077F0002F1C5
:105610007C0579E7FE277E2576E743F0010262608C
:10562000E35062E7DC0BFF1FE40BFF1FE40FFF1FDB
:10563000A814FF1F506564616C20506F7369746912
:105640006F6E3A2000FFFFFF4008FE4340A0044079
:105650004408FE4344A004400018FE4300C0044038
:105660003000FE43309004403400FE433490044048
:105670001C18FE431CC004401018FE4310C0044018
:105680000818FE4308C004400C18FE430CC0044038
:105690000C10FE430CB004401010FE4310B0044048
:1056A0001810FE4318B004401C10FE431CB0044008
:1056B0001410FE4314B004400418FE4304C0044018
:1056C0000010FE4300B004400008FE4300A0044068
:1056D0000408FE4304A004400C08FE430CA0044050
:1056E0000808FE4308A004401418FE4314C00440F8
:1056F0001818FE4318C004400410FE4304B00440D0
:105700000810FE4308B004406820FE4368D00440FF
:105710001400FE43149004403800FE4338900440C7
:105720003C00FE433C9004404000FE434090044057
:105730004808FE4348A004404C08FE434CA00440E7
:105740002808FE4328A004402C08FE432CA0044057
:105750006020FE4360D004406420FE4364D00440D7
:105760002010FE4320B004402410FE4324B0044027
:105770002810FE4328B004402C10FE432CB00440F7
:105780004400FE43449004407000FE437090044087
:105790007400FE43749004406800FE436890044027
:1057A0005008FE4350A004405808FE4358A004404F
:1057B0005C08FE435CA004405408FE4354A004402F
:1057C0002018FE4320C004402418FE4324C0044097
:1057D0001008FE4310A004401408FE4314A0044027
:1057E0003818FE4338C004403418FE4334C0044027
:1057F0003018FE4330C004403C18FE433CC0044017
:105800002C18FE432CC004402820FE4328D004401E
:105810002C20FE432CD004400020FE4300D0044046
:105820000420FE4304D004400820FE4308D0044076
:105830000C20FE430CD004401020FE4310D0044046
:105840001420FE4314D00440050E08090D0C060771
:105850000F0403938E8F050E08090D0C06070F0425
:10586000FFFFFFFFFFFFFF8E8F1112848586879158
:10587000FFFFFFFFFFFFFFFFFF8A8BFFFFFFFFFF21
:10588000FFFFFFFFFFFFFFFF0393179701811A92AE
:1058900000151915000100000A07FF1F1200000083
:1058A000000200003407FF1F430000000003000057
:1058B0008E07FF1F00000000010309041C07FF1FE3
:1058C00000000000020309047807FF1F0000000029
:1058D000030309049207FF1F0000000000000000FE
:1058E00000000000000000000000000000000000B8
:1058F00049390000613900003139000039390000B0
:10590000353900003D390000C7380000D9380000A3
:10591000F9380000FD3800000339000009390000A3
:1059200011390000213900004139000045390000DB
:10593000D5370000E1370000ED370000F9370000EF
:10594000713900005539000000000000000000001F
:10595000873800009F3800006F380000773800005B
:10596000733800007B38000005380000173800004D
:10597000373800003B38000041380000473800004D
:105980004F3800005F3800007F3800008338000087
:10599000A5370000B1370000BD370000C93700004F
:1059A000AF380000933800000D0A6E616E00696E1A
:1059B00066006F766600FFFF000000000000000038
:1059C000F53B0000FB3B0000E13B0000E53B000035
:1059D000E93B0000ED3B0000F13B0000000000004F
:1059E0000000000000000000D33C0000EB3C000081
:1059F000BB3C0000C33C0000BF3C0000C73C0000B3
:105A0000513C0000633C0000833C0000873C0000E8
:105A10008D3C0000933C00009B3C0000AB3C000030
:105A2000CB3C0000CF3C0000213C00002D3C00009E
:105A3000393C0000453C0000FB3C0000DF3C00001E
:105A40000000000000000000073E00000000000011
:105A50000000000000000000FB3E0000133F0000BB
:105A6000E33E0000EB3E0000E73E0000EF3E00009A
:105A7000793E00008B3E0000AB3E0000AF3E0000D0
:105A8000B53E0000BB3E0000C33E0000D33E000018
:105A9000F33E0000F73E0000493E0000553E000086
:105AA000613E00006D3E0000233F0000073F000004
:105AB0000000000000000000074100001F4100003E
:105AC000EF400000F7400000F3400000FB40000002
:105AD0008540000097400000B7400000BB40000038
