:100000000000022099010000FD180000C91800003E
:10001000C9180000C9180000C9180000C91800005C
:10002000C9180000C9180000C9180000FD18000018
:10003000FD180000C9180000FD180000B9180000E4
:10004000FD180000FD180000FD180000FD1800005C
:10005000FD180000FD180000FD180000FD1800004C
:10006000FD180000FD180000FD180000FD1800003C
:10007000FD180000FD180000FD180000FD1800002C
:10008000FD180000FD180000FD180000FD1800001C
:10009000FD180000FD180000FD180000FD1800000C
:1000A000FD180000FD180000FD180000FD180000FC
:1000B000FD180000FD180000FD180000B117000039
:1000C000FD180000D1310000FD180000A508000057
:1000D000FD180000251E0000FD180000FD1800009E
:1000E000FD180000FD180000FD180000FD180000BC
:1000F000FD180000FD180000FD180000FD180000AC
:1001000099390000B1390000C9390000E139000017
:10011000FD180000090B0000FD180000FD1800008C
:10012000FD180000FD180000FD180000FD1800007B
:10013000FD180000FD180000FD180000FD1800006B
:10014000ED3B0000FD18000011250000FD18000027
:10015000A12A0000FD180000FD180000FD18000095
:10016000FD180000FD180000FD180000FD1800003B
:10017000FD180000FD180000FD180000FD1800002B
:10018000FD180000FD180000FD180000FD1800001B
:10019000FD180000FD180000574B4CF2205210B51E
:1001A0001A804DF628121A8000BF00BF01F0AAFB8A
:1001B000524B4FF030621A60514A9A60514ADA60ED
:1001C000514B4FF470021A60504B1A6812F480724F
:1001D00004D14F490A604FF4A8521A604D4B1A7867
:1001E000110703D51A7842F008021A704A4B2A22E6
:1001F0001A700023494A4A499818884204D249494A
:10020000595899500433F5E7474A484B9A424FF002
:10021000000302D242F8043BF7E74549454A5958E2
:1002200099500433B3F5CC7FF7D1434B802103F8C9
:10023000011B42498B42F9D1414B1A60414B8A2242
:100240001A70A3F5805324225A70A0221A709A794A
:100250009207FCD59A79D406FCD43B4B9A7902F0EC
:100260000C02082AF9D103221A7140225A719A7994
:100270009006FCD5344B9A795106FBD5334A344964
:1002800011600221516020221A702F4B9B7903F0DC
:100290000C030C2BF9D12F4B2F4A1A602F4B4BF626
:1002A0007F321A6000225A60072243F8042C2C4A3D
:1002B000C3F80C2D62B601F0BFFE154B1B68DA07C0
:1002C00005D5284801F016FE274B284A1A60284B0E
:1002D0001B785B0609D5244C244A2368934204D139
:1002E000204801F007FE0023236003F003FE01F025
:1002F0000FFB00F0BBF8FEE70E2005403080044005
:10030000823F04000100002B88ED00E010D0034084
:1003100014D0034002D0074000E007406007FF1FF1
:100320005410FF1F484E00005410FF1F5015FF1FB0
:10033000000000000002FF1F00E400E056E400E0BF
:1003400008ED00E0005006400040064044800440B4
:100350000000131104800440C010050014E000E008
:100360000000202000DD68501CE00340A5C3945A23
:1003700000F00740FFFFFFFFFFFFFFFFFFFFFFFF52
:10038000FFFFFFFFFFFFFFFFFFFFFFFFFFFFFFFF7D
:10039000FFFFFFFFFFFFFFFFFFFFFFFFFFFFFFFF6D
:1003A000FFFFFFFFFFFFFFFFFFFFFFFFFFFFFFFF5D
:1003B000FFFFFFFFFFFFFFFFFFFFFFFFFFFFFFFF4D
:1003C000FFFFFFFFFFFFFFFFFFFFFFFFFFFFFFFF3D
:1003D000FFFFFFFFFFFFFFFFFFFFFFFFFFFFFFFF2D
:1003E000FFFFFFFFFFFFFFFFFFFFFFFFFFFFFFFF1D
:1003F000FFFFFFFFFFFFFFFFFFFFFFFFFFFFFFFF0D
:10040000FFFFFFFFFFFFFFFFFFFFFFFFDEF9FFFF23
:1004100010B5054C237833B9044B13B10448AFF33E
:1004200000800123237010BD5410FF1F0000000046
:10043000484E0000084B10B51BB108490848AFF3FF
:1004400000800848036803B910BD074B002BFBD0A0
:10045000BDE81040184700BF000000005810FF1F03
:10046000484E00005410FF1F0000000080B501211D
:100470000D2001F06FFD2024054E064D2746376004
:10048000FA2001F0C3FD2C60FA2001F0BFFDF6E771
:1004900084F00F4088F00F40164B1A6842F48052E7
:1004A0001A60154A00231370144A1370144A13700B
:1004B000144A1370144A1370144A40F21331116035
:1004C0004FF451715160124AC0F344311170C0F3BE
:1004D000471100F01F0051709072937013742C2319
:1004E000D3700C4B40221A70A3F21F3308221A60FB
:1004F000704700BF34800440DE10FF1F7510FF1FDF
:10050000E410FF1FDF10FF1F7410FF1F08C004401E
:1005100000C0064023E400E0194A937800F003018C
:1005200003F0EC030B43410748BF43F01003937003
:1005300000F00F03042B124903D18B7943F04003E1
:100540008B7152790E4B02F0EF02C10648BF42F0A8
:1005500010025A719A7910F0200F02F0EF0219463A
:1005600018BF42F010028A71C205054B06D55A78B1
:100570001978D2B241F0200119705A70704700BF4B
:1005800000C0064008B5124B1B68DB0400D408BD50
:10059000104B1A7802F0FF0312B103F061FBF7E78A
:1005A0000D4A082111600D4A01F1804101F59821A1
:1005B000D37040F203120A604A60094A1370094A74
:1005C0001370094B1B680BB101221A7008BD00BFE4
:1005D000348004407410FF1F84E100E000C0064036
:1005E000DE10FF1F7510FF1F7010FF1F38B5044687
:1005F000094B1B7803F0FF05002BF9D120460121A0
:1006000001F0A8FC2046294601F084FC034B53F876
:100610003420034B1A6038BD7410FF1F34490000AA
:10062000E010FF1F10B509B140F080000E4A1378AA
:10063000984217D00D4C2468E40412D503F07F03D0
:10064000082B02D10A4B00241C60002900F07F0314
:100650000CBF44216021082B03D1054B41F44071AC
:100660001960107010BD00BF6407FF1F3480044084
:100670000CC004407047FFFF0D4A38B5146814F4ED
:1006800080524FF0000410D03F280A4D0AD80A4A81
:10069000012152F830302B6001F05CFC2B681C709B
:1006A000012038BD2C60204638BD104638BD00BF43
:1006B000348004407010FF1F344900000B4B1B684E
:1006C00013F4805310D00E28094B09D1094A40F287
:1006D000023111605A7B42F001025A7301207047C7
:1006E0005A7B02F0FE025A730020704734800440A7
:1006F00000C0064004C00440F8B51D4B1B68DA0476
:10070000064633D51B4B1B680BB101221A701A4BDE
:100710001C780134282C1F4628BF0024174D2B7845
:10072000A34218D101F0FEF840280FDC144A1379D7
:100730001B06F3D52B7813490133282B28BF002340
:10074000C95CDBB2C9B2D1712B70E7E7FF28E5DDE8
:1007500003F086FAE2E70B4BF6B21E550A4B012274
:100760001A70074BE4B2AC223C70DA70F8BD00BFDF
:1007700034800440E010FF1FE410FF1FDF10FF1F54
:1007800000C006407610FF1F7410FF1F38B50446E6
:100790004518AC4204D014F8010BFFF7ADFFF8E7A1
:1007A00038BDFFFF08B5034B1B7813B103F058FAAF
:1007B000F9E708BD7410FF1F064A074B1B78107835
:1007C000DBB2C0B283422CBF273000F1FF30C01A29
:1007D000704700BFDF10FF1FE410FF1F054B1878A4
:1007E000054B1B78C0B2DBB2984238BF4030C01A0C
:1007F000704700BFDE10FF1F7510FF1F10B5104BB4
:1008000010491A780B78D2B2DBB29A4214D0013375
:10081000402B28BF00230C48DCB2C05C0C700B4995
:100820000968C0B251B19A4238BF4032D31A1A2B6C
:1008300004DC00230B7010BD4FF0FF3010BD00BF73
:10084000DE10FF1F7510FF1F9E10FF1F7010FF1F8F
:10085000084B1A78084B1B78DBB29A4207D0013359
:10086000402B28BF0023054AD05CC0B270474FF030
:10087000FF307047DE10FF1F7510FF1F9E10FF1F17
:10088000054B1A78054BD2B21A70054B1B680BB199
:1008900000221A70704700BF7510FF1FDE10FF1F87
:1008A0007010FF1F10B5294B1A79920620D5284ADF
:1008B000D879137827490133402B097828BF0023C2
:1008C0008B42C0B203D02449C854D9B21170234A14
:1008D000116869B1224A1278D2B2934236BFC2F18E
:1008E0004002C2EB03039B18272BC4BF01230B70EC
:1008F000164AD178C9B20C0616D51379180613D545
:10090000184B17481C780378DBB29C4202D16C2349
:10091000D37009E00133282B28BF0023124CE45C7C
:10092000DBB2E4B2D47103704B060ED5074B1A79D3
:1009300012F0400F194608D00C4B00221A700C4BD5
:100940001B6803B11A702C23CB7010BD00C0064089
:10095000DE10FF1F7510FF1F9E10FF1F7010FF1F7E
:10096000DF10FF1FE410FF1F7610FF1F7410FF1F22
:10097000E010FF1FF0B50C4B0C4C1A7842F002054A
:1009800004EBC50682F00102706009481A7006780F
:10099000002E0CBF8827C82786F0010647EA0141D0
:1009A000067044F83510F0BD5011FF1F0000FF1F06
:1009B000C811FF1F431E032B10B510D872B6094A89
:1009C00052F8230048B1416842F82310064A0188D2
:1009D00032F81340611A22F8131062B610BD0020DD
:1009E00010BD00BF4011FF1F3815FF1F013803283D
:1009F0000AD872B6054B53F82030002013B10130ED
:100A00005B68FBE762B67047002070479411FF1FD8
:100A100010B572B60123174A1A4412F8012C1207B6
:100A20001CD59900144A52F831402CB902EB4313FB
:100A300008305860114B09E041F0010152F8314093
:100A400064B902EBC103083058600D4B42F83130F5
:100A50000C4B1A78013A1A7062B610BD0133052B9F
:100A6000D9D162B6074B00221A70BDE8104002F0DF
:100A70007FBD00BF344B00000000FF1F8800400016
:100A8000C8004000BE11FF1F431E032B30B532D8F3
:100A9000194A400140F01000104472B6174CE25C55
:100AA000032A09D8DFE802F01602180508300222EE
:100AB00013E00830042210E01148124A50F8234095
:100AC00014B940F8231002E052F82300416042F8C4
:100AD00023100FE0032200E00522E25410F0080F7B
:100AE00001F108030A8843600CBF8823C82343EA46
:100AF0000243036062B630BD0000FF1FFC10FF1F01
:100B00009411FF1FA411FF1F2DE9F84FAB4F3C7844
:100B1000E4B214F0040F3D4619D0A94B1B78A3B1E1
:100B2000A84A117801F0FF0321B1013BDBB2137039
:100B300003B900BEA44A117801F0FF0329B1013BBB
:100B4000DBB213700BB902F0D1FC04233B7004F04C
:100B5000080303F0FF02002B00F067829B4B9C4CC4
:100B60001A78D2B215094FEA920840F0E48104EBFA
:100B7000C803596854F83830C3F38303013B0C2B86
:100B800000F2D681DFE813F095019501D401D4017C
:100B9000D401D401D401D401B001D401D401D401D1
:100BA0000D008C4D0A684B688B486B6001218B4BA4
:100BB00044F838302A60DFF85082017092B240F277
:100BC000816000238242C8F800302361A36117D8F6
:100BD000B2F5D06F80F01E81B2F5817F00F0CF803A
:100BE00006D8802A00F0BA80822A00F0BB8031E16A
:100BF00040F202339A4200F0D180B2F5A06F1CE0BF
:100C000042F22100824200F051810ED8B2F5086F05
:100C100000F09E80B2F5106F40F01C81684B6C4E66
:100C2000AA781A7006F180090AE042F221218A426C
:100C300000F0088142F221339A4200F00F8109E16D
:100C4000336A1B0603D5706A083802F091FC083637
:100C50004E45F5D10026B146DFF8B0A156F80A009E
:100C600028B1D0F804B002F083FC5846F8E74AF8FF
:100C700006005B4BDFF898A1F05056F80A0028B147
:100C8000D0F804B002F074FC5846F8E7554B4AF827
:100C90000600F050544B23F81900544B19F8032068
:100CA000023A032A08D8DFE802F002040204002214
:100CB00000E0012203F8092009F10109B9F1040F4C
:100CC00006F10406C8D14A4B00221A7001269A4642
:100CD000484A494B3244334412F8012C9B0012F02D
:100CE000080F1A704FEA860925D002F023FC38B1AC
:100CF00004EB461308305860404B44F8393006E0A6
:100D00009AF8003044F8390001338AF8003002F0D4
:100D100011FC49F0010338B104EBC3020830506004
:100D20002E4A44F8332006E044F833009AF80030A5
:100D300001338AF8003049F00202013649F0030914
:100D40000023052E44F8323044F83930C0D186E013
:100D50001B4B2B4C1B7823700B4683E0284C2370D5
:100D600063707EE0AA88042A74D8254C9200237010
:100D70006370244B9B5C9E0773D5217071E0AA8839
:100D800002F07F02042A65DC6B88002B62D191009F
:100D90001C4A0A44117821F0020159E0AA8802F0A5
:100DA0007F02042A56DC6B88002B53D19100154A30
:100DB0000A44117841F002014AE000BF8020074058
:100DC000C711FF1F5111FF1F4114FF1F9020074043
:100DD0000000FF1FB411FF1FC811FF1FC800400013
:100DE000EC10FF1FA411FF1F3815FF1FFC10FF1F81
:100DF000BE11FF1F344B000030C8011088004000B6
:100E0000BF11FF1FC0200740E810FF1F4011FF1F48
:100E10009411FF1F6A88A9889F4B53F8084CA3F1CF
:100E20000C00BCB133F80C6C964209D133F80A6C53
:100E30008E4205D1120A032A0CBF2378038911E0E0
:100E40000C33EAE7954A1168954A1160A978954AEA
:100E5000117004E0944B0F221A7027E000231C4607
:100E600000E00223EE88B34238BF1E46402E34BF56
:100E70003546402520462946FFF77CFD761B2C444D
:100E800003D1402D12D1354603E0402E34BF354604
:100E9000402520462946FFF76DFD761B2C4401D1E5
:100EA000402D03D1814AC8F8004016800122804BB2
:100EB0003DE0804B1A8842F221039A4210D1002370
:100EC0007D4AC85C98540133072BF9D11368862BEF
:100ED00002D17A4B0F221A7000200146FFF74AFD1B
:100EE000774B44F8383023E0764E3568B5B1DFF8FB
:100EF000BC81B8F80090B9F1400F34BF4C46402493
:100F000028462146FFF736FDC4EB09039BB2A8F83B
:100F100000300BB9402C00D12B193360654B1A8877
:100F2000B2F5A06F04D100225A709A78664B1A70FD
:100F300001225F4B6CE004EBC806013D736802F0D0
:100F40000802A3F10800EDB202F0FF01002A36D03A
:100F500002F00EFB5D485E4B50F82520EAB1516867
:100F600040F8251002F108017160595D03290BD882
:100F7000DFE801F002040608032104E0022102E098
:100F8000052100E00421595516F0080F12880CBF06
:100F90008823C82343EA024342E05A5D032A07D864
:100FA000DFE802F040400204002206E0012204E0F3
:100FB00016F0080F0CBF022203225A5532E054F8F3
:100FC0003820120C23F8082C22B3DFF834E123F880
:100FD000061C43F8041C5EF825303E4913B94EF850
:100FE000250002E051F8253058603B4B41F82500C0
:100FF00033F815100A4423F8152002F09BFA10B1BB
:101000000830706006E0354B44F838001A78013239
:101010001A7007E02A4B324A16F0080F08BF134631
:1010200044F8383008233B7070E5E0071FD52049AD
:101030002B482C4C02230B702B4B1A702B4B186037
:1010400098602B48D8601A619A615C60164B0D203D
:1010500018702848FF2303702B700274264A1370FF
:10106000264B9F221A7001230B70BDE8F88F2106D2
:1010700004D50D4B0D221A7080232B70A20705D5C5
:101080001C4B1A78D2B21A7002232B70E30644BFAD
:1010900010232B70BDE8F88F444B0000D812FF1FBF
:1010A0004815FF1F5014FF1FC0200740BC11FF1F31
:1010B00094200740B411FF1F4015FF1F5111FF1F5F
:1010C000C8004000E810FF1F982007409411FF1F40
:1010D000FC10FF1FEC10FF1F3815FF1FBE11FF1F74
:1010E000880040000011FF1F5011FF1F0000FF1F6C
:1010F0005411FF1F882007408C20074084200740A0
:101100004011FF1F08B501F033FD00221B4B0021E9
:10111000D15098180832882A4160F7D1184A1068CF
:1011200040F480201060174A106840F04070106052
:1011300002F5C9229C32C3F307201070C3F30740A5
:101140001B0E10751376FF2302F81C3C02F8143CAA
:1011500002F88C3C012302F8083C82F8641002F883
:10116000183C094B70226FF44C711A700B444FF409
:1011700000121A60054B10221A7008BD0000FF1FF4
:101180003480044000D8004035E400E008210740E6
:1011900010B50023B0FBF2F402FB1400092894BF41
:1011A00030303730C0B2C85420460CB10133F1E7BB
:1011B000CA18547022469A4206DA885CCC5C8C5479
:1011C000C8540132013BF6E7084610BD294B1A68A6
:1011D00042F480621A60284A00231370274A137071
:1011E000274A1370274A1370274A1370274B1B781E
:1011F000152B06D01B2B08D05BB940F21332244BC1
:1012000006E040F21332234B02E0234B40F213324C
:101210001A60224B1B78052B07D01A2B09D0012B03
:101220000BD14FF451721E4B06E04FF451721D4B1F
:1012300002E01D4B4FF451721A601C4BC0F3443254
:101240001A70C0F347125A7000F01F0004220221E6
:1012500098729A70D9745A7588221A743C22DA707E
:10126000134B40221A70A3F21F334FF000421A6052
:10127000704700BF348004405312FF1FD111FF1F7D
:101280005C12FF1F5412FF1FD011FF1F1212FF1F0D
:1012900040A0044018C004403C9004406507FF1F74
:1012A00044A004401CC004403890044000A0064004
:1012B0001FE400E0194A937800F0030103F0EC0307
:1012C0000B43410748BF43F01003937000F00F0336
:1012D000042B124903D18B7943F040038B7152796F
:1012E0000E4B02F0EF02C10648BF42F010025A71E5
:1012F0009A7910F0200F02F0EF02194618BF42F061
:1013000010028A71C205054B06D55A781978D2B2F7
:1013100041F0200119705A70704700BF00A00640CC
:1013200008B5114B1B685B0500D408BD0F4B1A783C
:1013300002F0FF0312B102F093FCF7E70C4A4FF002
:10134000004111600B4A0C49D37040F203120A604D
:101350004A600A4A13700A4A13700A4B1B680BB1A1
:1013600001221A7008BD00BF34800440D011FF1F55
:1013700080E100E000A0064040A004405312FF1F9F
:10138000D111FF1FCC11FF1F38B50446094B1B7844
:1013900003F0FF05002BF9D12046012100F0DAFD12
:1013A0002046294600F0B6FD034B53F83420034B8A
:1013B0001A6038BDD011FF1F344900005812FF1FBA
:1013C00010B509B140F08000194A137898421446CC
:1013D0002DD0184A1268520528D503F07F03052B3B
:1013E00006D01A2B07D0012B08D10022124B04E0A3
:1013F0000022124B01E0124B00221A60002900F07B
:101400007F020CBF44236023052A07D01A2A09D083
:10141000012A0BD143F44073074A06E043F44073BA
:10142000064A02E0064A43F440731360207010BD80
:101430006507FF1F3480044044A004401CC00440E2
:1014400038900440144A1378984223D0134909680D
:1014500049051ED5152B05D01B2B06D043B91049C5
:101460000B6005E000210F4B01E00F4B00211960DC
:10147000152806D01B2808D058B940F21331084B64
:1014800006E040F21331074B02E0074B40F2133104
:1014900019601070704700BF1212FF1F34800440A3
:1014A00040A0044018C004403C9004400D4A38B5A8
:1014B000146814F480624FF0000410D03F280A4DE5
:1014C0000AD80A4A012152F830302B6000F042FD60
:1014D0002B681C70012038BD2C60204638BD10469A
:1014E00038BD00BF34800440CC11FF1F34490000D8
:1014F0000E4B1B6813F4806316D012280C4B03D1DB
:1015000040F202310B4A04E0142809D10A4A40F2A1
:10151000023111605A7B42F001025A730120704778
:101520005A7B02F0FE025A73002070473480044058
:1015300000A006400CA0044014C00440F8B51D4BA8
:101540001B685A05064633D51B4B1B680BB101229D
:101550001A701A4B1C780134402C1F4628BF0024F7
:10156000174D2B78A34218D100F0DCF940280FDC8E
:10157000144A13791B06F3D52B7813490133402BFA
:1015800028BF0023C95CDBB2C9B2D1712B70E7E779
:10159000FF28E5DD02F064FBE2E70B4BF6B21E55D7
:1015A0000A4B01221A70074BE4B2BC223C70DA707D
:1015B000F8BD00BF348004405812FF1F5C12FF1FAB
:1015C0005412FF1F00A00640D211FF1FD011FF1FB1
:1015D000274B1B685A052DE9F04707468A4644D534
:1015E000244B1B680BB101221A703D4607EB0A031E
:1015F0009D4237D2DFF890801F4E98F8004096F851
:1016000000900134402C28BF00245FFA89F9A145DD
:101610001DD11A4BBC22DA7000F084F940280FDC8F
:10162000164A13791B060FD5337815490133402B21
:1016300028BF0023C95CDBB2C9B2D171337003E0AB
:10164000FF2801DD02F00CFB33784B45E4D00C4B56
:1016500015F8012B1A550B4B0122E4B21A7088F8C9
:101660000040C3E7054BBC22DA70BDE8F08700BF3D
:10167000348004405812FF1F5412FF1F00A0064080
:10168000D211FF1FD011FF1F5C12FF1F08B5034BC3
:101690001B7813B102F0E4FAF9E708BDD011FF1F7F
:1016A000064A074B1B781078DBB2C0B283422CBFCE
:1016B0003F3000F1FF30C01A704700BF5412FF1FC7
:1016C0005C12FF1F054B1878054B1B78C0B2DBB2CC
:1016D000984238BF4030C01A704700BF5312FF1FF6
:1016E000D111FF1F10B5104B10491A780B78D2B2E8
:1016F000DBB29A4214D00133402B28BF00230C48A0
:10170000DCB2C05C0C700B490968C0B251B19A429E
:1017100038BF4032D31A1A2B04DC00230B7010BDE3
:101720004FF0FF3010BD00BF5312FF1FD111FF1F3C
:101730001312FF1FCC11FF1F084B1A78084B1B78A0
:10174000DBB29A4207D00133402B28BF0023054A61
:10175000D05CC0B270474FF0FF3070475312FF1F8C
:10176000D111FF1F1312FF1F0C4B1B685B0514D513
:101770000B4BDA7802F0CB02DA7040225A74DA7836
:1017800042F03402DA70074B1A78074BD2B21A7063
:10179000064B1B680BB100221A707047348004405E
:1017A00000A00640D111FF1F5312FF1FCC11FF1FD5
:1017B00030B5374B1A7912F0300F31D072B69A7DAE
:1017C00002F0FF0022B9DA7940225A7462B627E0AB
:1017D00062B6304A304913780978DBB2C9B2144690
:1017E0002B4AD5795A1C402A28BF00228A42EDB2E2
:1017F00002D02A4B9D541346421E12F0FF00EFD137
:10180000DAB22270264A126852B18B4236BFC1F159
:101810004001C1EB03035B18272BC4BF01231370E6
:101820001B4BD978C9B20C0620D51B7918061DD5DB
:101830001C4B1D4A1D781378EDB2DBB21046AB424B
:101840000CD0134A0133402B1479184C28BF0023C5
:10185000E45CE4B2D471127D072AF0D9DBB20370E4
:101860000B4B1A79120644BF7C22DA704B060ED558
:10187000074B1A7912F0400F194608D00C4B002282
:101880001A700C4B1B6803B11A703C23CB7030BD2F
:1018900000A006405312FF1FD111FF1F1312FF1F9C
:1018A000CC11FF1F5C12FF1F5412FF1FD211FF1F2C
:1018B000D011FF1F5812FF1F024B1A6801321A6025
:1018C000704700BFD812FF1F08B50B4C23685803A0
:1018D00001D5FFF719F92368590501D5FFF768FF0E
:1018E00023681A0501D501F073FC2368DB04ECD5ED
:1018F000FEF7D8FFE9E700BF3480044008B5FFF7E2
:10190000E3FFFFFF014B10221A80704700200540C3
:101910007047FFFF024A136818441060184670476A
:101920006807FF1FEFF313839BB9EFF3108098B99B
:10193000EFF3058323B10F2B04D9084A985C01E02B
:101940004FF48070EFF311833BB1834238BF1846E8
:1019500070474FF0FF30704718467047F0E300E0E3
:10196000214B1A6842F400521A60204A0023137077
:101970001F4A13701F4A13701F4A13701F4A1370B7
:101980001F4B1B781F2B05D03F2B07D140F2133282
:101990001C4B02E01C4B40F213321A601B4B1B78AD
:1019A000202B05D03E2B07D14FF45172184B02E08B
:1019B000184B4FF451721A60174BC0F344321A702F
:1019C000C0F347125A7000F01F00002298729A70FC
:1019D0001A742C22DA70114B40226FF448711A707D
:1019E0000B4420221A60704734800440CE12FF1F3F
:1019F0006512FF1FD412FF1FCF12FF1F6412FF1FBB
:101A00006C07FF1F14D0044028A004406D07FF1F7F
:101A100010D004402CA0044000D0064025E400E093
:101A2000194A937800F0030103F0EC030B434107DC
:101A300048BF43F01003937000F00F03042B1249CA
:101A400003D18B7943F040038B7152790E4B02F036
:101A5000EF02C10648BF42F010025A719A7910F0A5
:101A6000200F02F0EF02194618BF42F010028A71EF
:101A7000C205054B06D55A781978D2B241F020013B
:101A800019705A70704700BF00D006401E4B1B688B
:101A90009B0410B500D410BD1C4B1B7803F0FF0253
:101AA00013B102F0DDF8F7E7194B1A4C1A48202160
:101AB00019601A4B1A49DA7040F203130B60236065
:101AC00000781F2804D03F2803D1164B1A6000E08D
:101AD0000B60154B1B7803F07F03202B05D03E2BAA
:101AE00006D1124B00221A6002E040F20313236079
:101AF0000F4A002313700F4A13700F4B1B680BB172
:101B000001221A7010BD00BF348004406412FF1F10
:101B100084E100E02CA004406C07FF1F00D00640C9
:101B200028A0044014D004406D07FF1F10D00440CB
:101B3000CE12FF1F6512FF1F6012FF1F38B504464B
:101B4000094B1B7803F0FF05002BF9D1204601213A
:101B500000F000FA2046294600F0DCF9034B53F868
:101B60003420034B1A6038BD6412FF1F3449000053
:101B7000D012FF1F10B509B140F08000144A13784D
:101B80009842144622D0134A126892041DD503F0DD
:101B90007F03202B04D03E2B05D100220E4B01E009
:101BA0000E4B00221A60002900F07F020CBF442374
:101BB0006023202A05D03E2A07D143F44073064A09
:101BC00002E0064A43F440731360207010BD00BF6A
:101BD0006D07FF1F3480044010D004402CA0044047
:101BE0000F4A137898421AD00E490968890415D50E
:101BF0001F2B04D03F2B05D100210B4B01E00B4BD9
:101C0000002119601F2805D03F2807D140F2133169
:101C1000054B02E0054B40F213311960107070471C
:101C20006C07FF1F3480044014D0044028A00440F7
:101C30000D4A38B5146814F400524FF0000410D067
:101C40003F280A4D0AD80A4A012152F830302B6049
:101C500000F080F92B681C70012038BD2C602046F4
:101C600038BD104638BD00BF348004406012FF1FED
:101C70003449000000207047F8B51D4B1B689A04DA
:101C8000064633D51B4B1B680BB101221A701A4B49
:101C90001C780134282C1F4628BF0024174D2B78B0
:101CA000A34218D1FFF73EFE40280FDC144A1379F7
:101CB0001B06F3D52B7813490133282B28BF0023AB
:101CC000C95CDBB2C9B2D1712B70E7E7FF28E5DD53
:101CD00001F0C6FFE2E70B4BF6B21E550A4B01229C
:101CE0001A70074BE4B2AC223C70DA70F8BD00BF4A
:101CF00034800440D012FF1FD412FF1FCF12FF1FE9
:101D000000D006406612FF1F6412FF1F38B504465C
:101D10004518AC4204D014F8010BFFF7ADFFF8E70B
:101D200038BDFFFF08B5034B1B7813B101F098FFD6
:101D3000F9E708BD6412FF1F064A074B1B781078AD
:101D4000DBB2C0B283422CBF273000F1FF30C01A93
:101D5000704700BFCF12FF1FD412FF1F054B18782A
:101D6000054B1B78C0B2DBB2984238BF4030C01A76
:101D7000704700BFCE12FF1F6512FF1F10B5104B3A
:101D800010491A780B78D2B2DBB29A4214D00133E0
:101D9000402B28BF00230C48DCB2C05C0C700B4900
:101DA0000968C0B251B19A4238BF4032D31A1A2BD7
:101DB00004DC00230B7010BD4FF0FF3010BD00BFDE
:101DC000CE12FF1F6512FF1F8E12FF1F6012FF1F32
:101DD000084B1A78084B1B78DBB29A4207D00133C4
:101DE000402B28BF0023054AD05CC0B270474FF09B
:101DF000FF307047CE12FF1F6512FF1F8E12FF1FAC
:101E0000054B1A78054BD2B21A70054B1B680BB103
:101E100000221A70704700BF6512FF1FCE12FF1F0D
:101E20006012FF1F10B5294B1A79920620D5284A57
:101E3000D879137827490133402B097828BF00232C
:101E40008B42C0B203D02449C854D9B21170234A7E
:101E5000116869B1224A1278D2B2934236BFC2F1F8
:101E60004002C2EB03039B18272BC4BF01230B7056
:101E7000164AD178C9B20C0616D51379180613D5AF
:101E8000184B17481C780378DBB29C4202D16C23B4
:101E9000D37009E00133282B28BF0023124CE45CE7
:101EA000DBB2E4B2D47103704B060ED5074B1A793E
:101EB00012F0400F194608D00C4B00221A700C4B40
:101EC0001B6803B11A702C23CB7010BD00D00640E4
:101ED000CE12FF1F6512FF1F8E12FF1F6012FF1F21
:101EE000CF12FF1FD412FF1F6612FF1F6412FF1FC5
:101EF000D012FF1F044B054900221A600A60044AF1
:101F0000106010221A60704714D0034004D00340C0
:101F100000D003403F2810B518D80D4A52F8303091
:101F200093F880423CB1012211B183F8802010BDAA
:101F300083F8002110BD02EBC00043681A6811B19C
:101F400042F0030201E022F002021A6010BD00BF5D
:101F5000344900003F2810B537D81C4A02EBC003B3
:101F600001295B68144601D004290FD154F83020B0
:101F7000012082F880024FF4A2721A601A680429C4
:101F80000CBF42F0200222F020021DE052F8302067
:101F9000002082F8800211B18A1E012A12D84FF463
:101FA000807202291A6003D11A6842F003020BE022
:101FB00003290AD11A6842F002021A601A6822F054
:101FC000010201E040F203121A6010BD3449000022
:101FD00072B60B4B0B491A680B4B1B68096862B64B
:101FE000490102D5322A88BF0133C2F53B42302174
:101FF0007F32B2FBF1F24FF47A7000FB032070479E
:1020000018E000E004ED00E0D812FF1F38B50446E8
:10201000FFF7DEFF054624B938BD013C0AD005F5BF
:102020007A75FFF7D5FF401BB0F57A7FF5D201F046
:1020300017FEF6E738BDFFFF2A4B4FF0006270B580
:102040001A604FF080521A604FF000521A604FF041
:1020500080421A604FF000421A60234B234A244DFD
:10206000244C254E4BF6FF71002018605960282340
:1020700013609360136193611362936213639363BC
:10208000103202F501222B6023601360936013610C
:102090009361136293620922326006F5805604361A
:1020A00030607160B360336146F8042C06F5FE269B
:1020B00030607160B360336146F8042C06F58056D9
:1020C00030600E4801602B6023600D4B1A6000F0F9
:1020D00087FA4FF4C870FFF799FFBDE87040FFF72B
:1020E00011B800BF04E100E0048003400C8003400D
:1020F0000C900B4014900B400080034008900B4064
:1021000000900B40164B1A6842F480621A60154A20
:1021100000231370144A1370144A1370144A137076
:10212000144A1370144A40F2133111604FF4517184
:1021300042F8041C114AC0F344311170C0F3471136
:1021400000F01F0051709072937013742C23D370A1
:102150000B4B40221A70A3F23A3304221A607047E4
:10216000288004404A13FF1FE112FF1F5013FF1F76
:102170004B13FF1FE012FF1F64D0044000A00E406D
:1021800042E400E0194A937800F0030103F0EC0305
:102190000B43410748BF43F01003937000F00F0357
:1021A000042B124903D18B7943F040038B71527990
:1021B0000E4B02F0EF02C10648BF42F010025A7106
:1021C0009A7910F0200F02F0EF02194618BF42F082
:1021D00010028A71C205054B06D55A781978D2B219
:1021E00041F0200119705A70704700BF00A00E40E6
:1021F00008B5114B1B685B0500D408BD0F4B1A785E
:1022000002F0FF0312B101F02BFDF7E70C4A0421A5
:1022100011600C4A0C49D37040F203120A6041F875
:10222000042C0A4A13700A4A13700A4B1B680BB13C
:1022300001221A7008BD00BF28800440E012FF1F71
:1022400088E100E000A00E4064D004404A13FF1F64
:10225000E112FF1FDC12FF1F38B50446094B1B7843
:1022600003F0FF05002BF9D120460121FFF772FE94
:1022700020462946FFF74EFE034B53F83420034B0C
:102280001A6038BDE012FF1F344900004C13FF1FD5
:1022900010B509B140F080000E4A1378984217D06B
:1022A0000D4C2468E40412D503F07F03212B02D1E6
:1022B0000A4B00241C60002900F07F030CBF44215E
:1022C0006021212B03D1054B41F44071196010703E
:1022D00010BD00BF6E07FF1F3480044060D0044073
:1022E0007047FFFF0D4A38B5146814F480624FF050
:1022F000000410D03F280A4D0AD80A4A012152F89A
:1023000030302B60FFF726FE2B681C70012038BD93
:102310002C60204638BD104638BD00BF28800440E0
:10232000DC12FF1F344900000B4B1B6813F4806361
:1023300010D01828094B09D1094A40F20231116026
:102340005A7B42F001025A73012070475A7B02F017
:10235000FE025A73002070472880044000A00E40FF
:1023600068D00440F8B51D4B1B685A05064633D5A6
:102370001B4B1B680BB101221A701A4B1C780134DD
:10238000282C1F4628BF0024174D2B78A34218D1B4
:10239000FFF7C8FA40280FDC144A13791B06F3D55F
:1023A0002B7813490133282B28BF0023C95CDBB2EB
:1023B000C9B2D1712B70E7E7FF28E5DD01F050FCD1
:1023C000E2E70B4BF6B21E550A4B01221A70074B7F
:1023D000E4B2AC223C70DA70F8BD00BF2880044043
:1023E0004C13FF1F5013FF1F4B13FF1F00A00E4085
:1023F000E212FF1FE012FF1F38B504464518AC4239
:1024000004D014F8010BFFF7ADFFF8E738BDFFFF6C
:1024100008B5034B1B7813B101F022FCF9E708BDA6
:10242000E012FF1F064A074B1B781078DBB2C0B2E0
:1024300083422CBF273000F1FF30C01A704700BF25
:102440004B13FF1F5013FF1F054B1878054B1B78CC
:10245000C0B2DBB2984238BF4030C01A704700BFEC
:102460004A13FF1FE112FF1F10B5104B10491A78D5
:102470000B78D2B2DBB29A4214D00133402B28BF82
:1024800000230C48DCB2C05C0C700B490968C0B278
:1024900051B19A4238BF4032D31A1A2B04DC0023C0
:1024A0000B7010BD4FF0FF3010BD00BF4A13FF1F6F
:1024B000E112FF1F0A13FF1FDC12FF1F084B1A78DF
:1024C000084B1B78DBB29A4207D00133402B28BF60
:1024D0000023054AD05CC0B270474FF0FF30704710
:1024E0004A13FF1FE112FF1F0A13FF1F054B1A7843
:1024F000054BD2B21A70054B1B680BB100221A7043
:10250000704700BFE112FF1F4A13FF1FDC12FF1FBD
:1025100010B5294B1A79920620D5284AD879137814
:1025200027490133402B097828BF00238B42C0B2D2
:1025300003D02449C854D9B21170234A116869B133
:10254000224A1278D2B2934236BFC2F14002C2EBA5
:1025500003039B18272BC4BF01230B70164AD178A5
:10256000C9B20C0616D51379180613D5184B17489F
:102570001C780378DBB29C4202D16C23D37009E053
:102580000133282B28BF0023124CE45CDBB2E4B2F9
:10259000D47103704B060ED5074B1A7912F0400F19
:1025A000194608D00C4B00221A700C4B1B6803B163
:1025B0001A702C23CB7010BD00A00E404A13FF1FD1
:1025C000E112FF1F0A13FF1FDC12FF1F4B13FF1F37
:1025D0005013FF1FE212FF1FE012FF1F4C13FF1FDB
:1025E00010B5204B2048214960221A70E1225A7010
:1025F0001F4B204A1C78204B082C01D1012402E0FB
:102600000A2C03D139240460132005E00C2C0CBFE4
:1026100035243D2404601220086014601860174BB4
:1026200017491B78174A03B101230B601360164B3F
:10263000164A1978164B012901D880210BE004298C
:1026400001D8842107E0082901D8852103E0102959
:1026500094BF86218721116019600E4B01221A70E8
:1026600010BD00BF0040074008B003400CB003405D
:102670006F07FF1F08B00B400CB00B405213FF1F39
:1026800020B0034020B00B407007FF1F24B0034070
:1026900024B00B405113FF1F164B1A6842F400621E
:1026A0001A60154A00231370144A1370144A1370E9
:1026B000144A1370144A1370144A40F21331116013
:1026C0004FF451715160124AC0F344311170C0F39C
:1026D000471100F01F0051709072937013742C23F7
:1026E000D3700C4B40221A70A3F54F7310221A605E
:1026F000704700BF28800440C213FF1F5913FF1FFB
:10270000C813FF1FC313FF1F5813FF1F20C004402F
:1027100000B00E4044E400E0194A937800F0030151
:1027200003F0EC030B43410748BF43F010039370E1
:1027300000F00F03042B124903D18B7943F04003BF
:102740008B7152790E4B02F0EF02C10648BF42F086
:1027500010025A719A7910F0200F02F0EF02194618
:1027600018BF42F010028A71C205054B06D55A788F
:102770001978D2B241F0200119705A70704700BF29
:1027800000B00E4008B5104B1B681B0500D408BDF7
:102790000E4B1A7802F0FF0312B101F061FAF7E76D
:1027A0000B4A102111600B4A0B49D37040F20312FF
:1027B0000A604A60094A1370094A1370094B1B6882
:1027C0000BB101221A7008BD288004405813FF1F66
:1027D00088E100E000B00E4020C00440C213FF1F9B
:1027E0005913FF1F5413FF1F38B50446094B1B78BC
:1027F00003F0FF05002BF9D120460121FFF7AAFBCA
:1028000020462946FFF786FB034B53F83420034B41
:102810001A6038BD5813FF1F34490000C413FF1F4E
:1028200010B509B140F080000E4A1378984217D0D5
:102830000D4C2468E40412D503F07F03302B02D141
:102840000A4B00241C60002900F07F030CBF4421C8
:102850006021302B03D1054B41F440711960107099
:1028600010BD00BF7107FF1F3480044024C0044026
:102870007047FFFF0D4A38B5146814F400624FF03A
:10288000000410D03F280A4D0AD80A4A012152F804
:1028900030302B60FFF75EFB2B681C70012038BDC9
:1028A0002C60204638BD104638BD00BF288004404B
:1028B0005413FF1F344900000B4B1B6813F40063D3
:1028C00010D03828094B09D1094A40F20231116071
:1028D0005A7B42F001025A73012070475A7B02F082
:1028E000FE025A73002070472880044000B00E405A
:1028F00028D00440F8B51D4B1B681A05064633D591
:102900001B4B1B680BB101221A701A4B1C78013447
:10291000282C1F4628BF0024174D2B78A34218D11E
:10292000FFF700F840280FDC144A13791B06F3D593
:102930002B7813490133282B28BF0023C95CDBB255
:10294000C9B2D1712B70E7E7FF28E5DD01F088F906
:10295000E2E70B4BF6B21E550A4B01221A70074BE9
:10296000E4B2AC223C70DA70F8BD00BF28800440AD
:10297000C413FF1FC813FF1FC313FF1F00B00E4077
:102980005A13FF1F5813FF1F38B504464518AC42B1
:1029900004D014F8010BFFF7ADFFF8E738BDFFFFD7
:1029A00008B5034B1B7813B101F05AF9F9E708BDDC
:1029B0005813FF1F064A074B1B781078DBB2C0B2D2
:1029C00083422CBF273000F1FF30C01A704700BF90
:1029D000C313FF1FC813FF1F054B1878054B1B7847
:1029E000C0B2DBB2984238BF4030C01A704700BF57
:1029F000C213FF1F5913FF1F10B5104B10491A784F
:102A00000B78D2B2DBB29A4214D00133402B28BFEC
:102A100000230C48DCB2C05C0C700B490968C0B2E2
:102A200051B19A4238BF4032D31A1A2B04DC00232A
:102A30000B7010BD4FF0FF3010BD00BFC213FF1F61
:102A40005913FF1F8213FF1F5413FF1F084B1A78DF
:102A5000084B1B78DBB29A4207D00133402B28BFCA
:102A60000023054AD05CC0B270474FF0FF3070477A
:102A7000C213FF1F5913FF1F8213FF1F054B1A7844
:102A8000054BD2B21A70054B1B680BB100221A70AD
:102A9000704700BF5913FF1FC213FF1F5413FF1FBE
:102AA00010B5294B1A79920620D5284AD87913787F
:102AB00027490133402B097828BF00238B42C0B23D
:102AC00003D02449C854D9B21170234A116869B19E
:102AD000224A1278D2B2934236BFC2F14002C2EB10
:102AE00003039B18272BC4BF01230B70164AD17810
:102AF000C9B20C0616D51379180613D5184B17480A
:102B00001C780378DBB29C4202D16C23D37009E0BD
:102B10000133282B28BF0023124CE45CDBB2E4B263
:102B2000D47103704B060ED5074B1A7912F0400F83
:102B3000194608D00C4B00221A700C4B1B6803B1CD
:102B40001A702C23CB7010BD00B00E40C213FF1FB3
:102B50005913FF1F8213FF1F5413FF1FC313FF1FBF
:102B6000C813FF1F5A13FF1F5813FF1FC413FF1F63
:102B70001FB572B6134B144970221A70134A1160B4
:102B800080221A701A781206FCD5114B186862B6AA
:102B9000104B984298BF0A2301AC98BF5843214676
:102BA0000A22FEF7F5FA0023E15C0B4A29B102EB99
:102BB000430001330A2B4180F6D101335B001370CF
:102BC00004B010BD000002400000074104000240B4
:102BD0000C0002407F969800FA07FF1F294B1A68E5
:102BE00042F400621A60284A00231370274A1370C7
:102BF000274A1370274A1370274A1370274B1B78F4
:102C00001A2B07D03B2B09D0092B0BD140F21332E2
:102C1000234B06E040F21332224B02E0224B40F2FB
:102C200013321A60214B1B781F2B07D03A2B09D087
:102C30000A2B0BD14FF451721D4B06E04FF4517229
:102C40001C4B02E01C4B4FF451721A601B4BC0F33B
:102C500044321A70C0F347125A700421022200F065
:102C60001F0098729970DA745975882119743C2183
:102C7000D970134B402119706FF447710B441A60DF
:102C8000704700BF348004403A14FF1FD113FF1F68
:102C90004014FF1F3B14FF1FD013FF1F1008FF1F1E
:102CA0000CB004403890044004D004401108FF1FC9
:102CB00010B0044028A0044000D0044000B00640FA
:102CC00021E400E0194A937800F0030103F0EC03DB
:102CD0000B43410748BF43F01003937000F00F030C
:102CE000042B124903D18B7943F040038B71527945
:102CF0000E4B02F0EF02C10648BF42F010025A71BB
:102D00009A7910F0200F02F0EF02194618BF42F036
:102D100010028A71C205054B06D55A781978D2B2CD
:102D200041F0200119705A70704700BF00B0064092
:102D300008B51C4B1B681B0500D408BD1A4B1A783C
:102D400002F0FF0312B100F08BFFF7E7174A0221F0
:102D50001160174AD370174A1278092A04D03B2A07
:102D600006D1154A136003E0144B40F203121A60B7
:102D7000134B1B7803F07F030A2B04D03A2B06D1A8
:102D80000022104B02E0104B40F203121A600F4A6F
:102D9000002313700E4A13700E4B1B680BB10122F7
:102DA0001A7008BD34800440D013FF1F84E100E096
:102DB00000B006401008FF1F04D004400CB00440CF
:102DC0001108FF1F00D0044010B004403A14FF1F48
:102DD000D113FF1FCC13FF1F38B50446094B1B78D6
:102DE00003F0FF05002BF9D120460121FFF7B2F8CF
:102DF00020462946FFF78EF8034B53F83420034B47
:102E00001A6038BDD013FF1F344900003C14FF1F67
:102E100010B509B140F08000144A13789842144666
:102E200022D0134A126812051DD503F07F030A2B26
:102E300004D03A2B05D100220E4B01E00E4B0022AC
:102E40001A60002900F07F020CBF442360230A2A85
:102E500005D03A2A07D143F44073064A02E0064AF5
:102E600043F440731360207010BD00BF1108FF1FB2
:102E70003480044000D0044010B004400F4A13785E
:102E800098421AD00E490968090515D5092B04D0B6
:102E90003B2B05D100210B4B01E00B4B00211960AE
:102EA000092805D03B2807D140F21331054B02E039
:102EB000054B40F213311960107070471008FF1F66
:102EC0003480044004D004400CB004400D4A38B5AE
:102ED000146814F400624FF0000410D03F280A4D2B
:102EE0000AD80A4A012152F830302B60FFF732F835
:102EF0002B681C70012038BD2C60204638BD104660
:102F000038BD00BF34800440CC13FF1F344900009B
:102F10000E4B1B6813F4006316D017280C4B03D11B
:102F200040F202310B4A04E03C2809D10A4A40F23F
:102F3000023111605A7B42F001025A73012070473E
:102F40005A7B02F0FE025A7300207047348004401E
:102F500000B0064008B0044008D00440F8B51D4B4E
:102F60001B681A05064633D51B4B1B680BB10122A3
:102F70001A701A4B1C780134282C1F4628BF0024D5
:102F8000174D2B78A34218D1FEF7CCFC40280FDC5C
:102F9000144A13791B06F3D52B7813490133282BD8
:102FA00028BF0023C95CDBB2C9B2D1712B70E7E73F
:102FB000FF28E5DD00F054FEE2E70B4BF6B21E55AC
:102FC0000A4B01221A70074BE4B2BC223C70DA7043
:102FD000F8BD00BF348004403C14FF1F4014FF1FA5
:102FE0003B14FF1F00B00640D213FF1FD013FF1F7A
:102FF000274B1B681A052DE9F04707468A4644D53A
:10300000244B1B680BB101221A703D4607EB0A03E3
:103010009D4237D2DFF890801F4E98F8004096F816
:1030200000900134282C28BF00245FFA89F9A145BB
:103030001DD11A4BBC22DA70FEF774FC40280FDC5D
:10304000164A13791B060FD5337815490133282BFF
:1030500028BF0023C95CDBB2C9B2D171337003E071
:10306000FF2801DD00F0FCFD33784B45E4D00C4B2C
:1030700015F8012B1A550B4B0122E4B21A7088F88F
:103080000040C3E7054BBC22DA70BDE8F08700BF03
:10309000348004403C14FF1F3B14FF1F00B0064067
:1030A000D213FF1FD013FF1F4014FF1F08B5034B9F
:1030B0001B7813B100F0D4FDF9E708BDD013FF1F52
:1030C000064A074B1B781078DBB2C0B283422CBF94
:1030D000273000F1FF30C01A704700BF3B14FF1FBC
:1030E0004014FF1F054B1878054B1B78C0B2DBB2AC
:1030F000984238BF4030C01A704700BF3A14FF1FD3
:10310000D113FF1F10B5104B10491A780B78D2B2AB
:10311000DBB29A4214D00133402B28BF00230C4865
:10312000DCB2C05C0C700B490968C0B251B19A4264
:1031300038BF4032D31A1A2B04DC00230B7010BDA9
:103140004FF0FF3010BD00BF3A14FF1FD113FF1F17
:10315000FA13FF1FCC13FF1F084B1A78084B1B787C
:10316000DBB29A4207D00133402B28BF0023054A27
:10317000D05CC0B270474FF0FF3070473A14FF1F69
:10318000D113FF1FFA13FF1F0C4B1B681B0514D52F
:103190000B4BDA7802F0CB02DA7040225A74DA78FC
:1031A00042F03402DA70074B1A78074BD2B21A7029
:1031B000064B1B680BB100221A7070473480044024
:1031C00000B00640D113FF1F3A14FF1FCC13FF1F9E
:1031D00030B5374B1A7912F0300F31D072B69A7D74
:1031E00002F0FF0022B9DA7940225A7462B627E071
:1031F00062B6304A304913780978DBB2C9B2144656
:103200002B4AD5795A1C402A28BF00228A42EDB2A7
:1032100002D02A4B9D541346421E12F0FF00EFD1FC
:10322000DAB22270264A126852B18B4236BFC1F11F
:103230004001C1EB03035B18272BC4BF01231370AC
:103240001B4BD978C9B20C0620D51B7918061DD5A1
:103250001C4B1D4A1D781378EDB2DBB21046AB4211
:103260000CD0134A0133282B1479184C28BF0023A3
:10327000E45CE4B2D471127D072AF0D9DBB20370AA
:103280000B4B1A79120644BF7C22DA704B060ED51E
:10329000074B1A7912F0400F194608D00C4B002248
:1032A0001A700C4B1B6803B11A703C23CB7030BDF5
:1032B00000B006403A14FF1FD113FF1FFA13FF1F7F
:1032C000CC13FF1F4014FF1F3B14FF1FD213FF1F1F
:1032D000D013FF1F3C14FF1F10B5104C23686BB1B7
:1032E00020684288531C0244147A0288934212D305
:1032F00000F03EF9094B00221A600DE0084B1B78E4
:1033000013B94FF0FF3010BD0320FDF753FB2060D1
:103310000028E5D1F5E74380204610BD4C14FF1F7F
:10332000C711FF1F10B50B4C236813B123686BB98D
:1033300002E0094B1B7813B94FF0FF3010BD03209A
:10334000FDF738FB20600028F0D1F5E75A881344D8
:10335000187A10BD4C14FF1FC711FF1F044B98882B
:10336000044B1B681BB11A885B88D31A184470473A
:103370003815FF1F4C14FF1F10B5094B1B786BB19C
:10338000084C206818B100F0F3F8002323600320F4
:10339000FDF710FB10B100F0EBF8F8E710BD00BF2F
:1033A000C711FF1F4C14FF1F2DE9F8432D4E0123B9
:1033B00007460C463370002C4FD02B4D2B68A94686
:1033C0002BBB47F20958294B1B7803F0FF020BB9BE
:1033D000327015E00420FDF709FB072808D8012307
:1033E000337000F0A7F8C9F8000080B91D4B1870C1
:1033F000B8F101081E4B01D01A782AB101221A70C7
:103400004FF0FF30BDE8F88300F02AFCDBE72968C5
:10341000174A488800231370C0F14002944238BF15
:10342000224600F1080C10448C444880A41A9342B0
:1034300004D0F85C0CF803000133F8E71F444B8814
:103440003F2B06D940230B800420FDF71DFB0023F2
:103450002B60084B05221A70ADE734702046BDE89A
:10346000F88300BF4214FF1F4414FF1FC711FF1F42
:103470004814FF1F4114FF1F07B502AB012103F8D9
:10348000010D1846FFF790FF03B05DF804FBFFFF46
:103490002DE9F041114B1B78F3B1114E114B3468FB
:1034A000114D01271F7098464CB1002763882F707B
:1034B000042023802146FDF7E7FA376009E000F099
:1034C00039F8014620B104202C70FDF7DDFA00E048
:1034D0002F70002388F80030BDE8F081C711FF1F6E
:1034E0004414FF1F4214FF1F4114FF1F38B50E4B39
:1034F0001B7803F0FF05ABB90C4C216831B14B8848
:103500000B800420FDF7C0FA256038BD00F012F8EA
:10351000014620B10420BDE83840FDF7B5BA044BA0
:1035200001221A7038BD00BF4214FF1F4414FF1F50
:103530004114FF1F72B60C4A1168B1FA81F30B2BCC
:1035400002D962B6002070474FF00040D84021EA0F
:103550000001116062B6054948225343C818002291
:10356000CA504260704700BF1408FF1F0004FF1FCD
:103570000C4B4822C31AB3FBF2F30B2B11D80A4AA7
:10358000127822B1094A12780AB1FDF741BA72B62F
:10359000074A4FF0004121FA03F311681943116003
:1035A00062B670470004FF1FBE11FF1FC711FF1F47
:1035B0001408FF1F08B50368C9B21B68984708BD07
:1035C00008B50368C9B21B68984708BD08B5036809
:1035D000C9B21B68984708BD08B50368C9B21B6823
:1035E000984708BD08B50368C9B21B68984708BD6D
:1035F00008B50368C9B21B68984708BD08B50368D9
:10360000C9B21B68984708BD08B50368C9B21B68F2
:10361000984708BD4B0803F1B76000F55840B0FB70
:10362000F1F0FDF7D3BD10B54B0803F1B76000F51D
:1036300058401446B0FBF1F0FDF7C8FD2046BDE848
:103640001040FDF737BEFDF76BBE0846FDF79CBE88
:103650000846FDF7F7BE08461146FDF7B1BE08B5AE
:103660000846FDF723FF003018BF012008BD08B54C
:103670000846FDF73DFF003018BF012008BDFEF7EA
:1036800021B8FEF759B8FEF72DB8FDF7FFBFFEF7DA
:103690006BB8FEF705B808B50846FDF74FFF0120E7
:1036A00008BD08B50846FDF749FF012008BD10B563
:1036B000084614461146FDF78BFF204610BD38B56D
:1036C00008460D4600F01CFF044621462846FDF73B
:1036D0007FFF204638BD4B0803F1B76000F5584026
:1036E000B0FBF1F0FEF7D8BF10B54B0803F1B7609F
:1036F00000F558401446B0FBF1F0FEF7CDFF204630
:10370000BDE81040FFF708B8FFF73CB80846FFF7E0
:103710006BB80846FFF7ACB808461146FFF780B80B
:1037200008B50846FFF7A6F8003018BF012008BD0D
:1037300008B50846FFF7C0F8003018BF012008BDE3
:10374000FFF74AB9FFF782B9FFF756B9FFF728B973
:10375000FFF794B9FFF72EB908B50846FFF7CAF886
:10376000012008BD08B50846FFF7C4F8012008BDD0
:1037700010B5084614461146FFF706F9204610BD5D
:1037800038B508460D4600F0BBFE044621462846E3
:10379000FFF7FAF8204638BD7047FFFF044B0022C0
:1037A0001A714FF47A711A73024A99601A6070475D
:1037B0005414FF1F984B00007047FFFF044B00227A
:1037C0001A714FF47A711A73024A99601A6070473D
:1037D0006414FF1FF84B000070B505468AB022B98B
:1037E0000368C9B21B6898472CE0012A08BF0A2267
:1037F00021B930228DF82520212413E02124B1FBAA
:10380000F2F002FB1011C9B209290AAE94BF30319F
:1038100037312644C9B206F8241C014610B1013CD8
:10382000E4B2ECE733B1013CE4B20AAB23442D220D
:1038300003F8242C2B6801A95B6828462144C4F1B5
:10384000220298470AB070BDFFF788BDFFF744BD5C
:10385000FFF768BDFFF71CBEFFF78EBD0846FFF7F8
:103860000BBE08461146FFF79FBD7047044B002270
:103870001A714FF47A711A73024A99601A6070478C
:103880007414FF1F584C000008B50368C9B21B68C8
:10389000984708BD08B50368C9B21B68984708BDBA
:1038A00008B50368C9B21B68984708BD08B5036826
:1038B000C9B21B68984708BD4B0803F1B76000F513
:1038C0005840B0FBF1F0FEF74BB810B54B0803F1D0
:1038D000B76000F558401446B0FBF1F0FEF740F831
:1038E0002046BDE81040FEF79BB8FEF7CFB808466B
:1038F000FEF724B90846FEF773B908461146FEF7ED
:1039000039B908B50846FEF793F9003018BF012011
:1039100008BD08B50846FEF7ADF9003018BF012014
:1039200008BDFEF71BBAFEF753BAFEF727BAFEF73B
:10393000F9B9FEF765BAFEF7FFB908B50846FEF714
:103940009BF9012008BD08B50846FEF795F901204E
:1039500008BD10B5084614461146FEF7D7F92046B3
:1039600010BD38B508460D4600F0CAFD0446214694
:103970002846FEF7CBF9204638BD7047044B00229D
:103980001A714FF47A711A73024A99601A6070477B
:103990008414FF1F804C000008B5034B01221A60FD
:1039A000024B1B68984708BD0C7103409C14FF1F15
:1039B00008B5034B01221A60024B5B68984708BDAB
:1039C0001C7103409C14FF1F08B5034B01221A60B1
:1039D000024B9B68984708BD2C7103409C14FF1F45
:1039E00008B5034B01221A60024BDB68984708BDFB
:1039F0003C7103409C14FF1F064B01221A6003F523
:103A000088333C331A6822F400021A60024B002209
:103A10001A707047007003409814FF1F82680023DB
:103A200010B51360027B0121541102F01F0201FA4C
:103A300002F2084941F82420074A41785354D15CE6
:103A400031B90133042BFAD1BDE81040FFF7D4BFE0
:103A500010BD00BF80E100E09414FF1F037810B593
:103A600004460BB1FFF7DAFF0023237010BD70B5D9
:103A700006460D4600243319284619790A220023E8
:103A80000134FFF7A9FE042C05D02B6828461B68DB
:103A90002E219847EFE7204670BDFFFF024B034AF7
:103AA0001A6000225A607047AC14FF1FE04C0000FF
:103AB00008B50368C9B21B68984708BD08B5036814
:103AC000C9B21B68984708BD08B50368C9B21B682E
:103AD000984708BD08B50368C9B21B68984708BD78
:103AE0004B0803F1B76000F55840B0FBF1F0FFF769
:103AF00075B810B54B0803F1B76000F5584014468F
:103B0000B0FBF1F0FFF76AF82046BDE81040FFF780
:103B1000D9B8FFF70DB90846FFF75EB90846FFF7B9
:103B2000ADB908461146FFF773B908B50846FFF767
:103B3000CDF9003018BF012008BD08B50846FFF7D1
:103B4000E7F9003018BF012008BDFFF7CBBAFFF737
:103B500003BBFFF7D7BAFFF7A9BAFFF715BBFFF70B
:103B6000AFBA08B50846FFF7F9F9012008BD08B556
:103B70000846FFF7F3F9012008BD10B508461446C2
:103B80001146FFF735FA204610BD38B508460D46F8
:103B900000F0B6FC044621462846FFF729FA2046E5
:103BA00038BD7047044B00221A714FF47A711A73B2
:103BB000024A99601A607047B414FF1FF04C00006D
:103BC00010B50446FFF74AFF204610BD04480549DA
:103BD000054A002303708023437300F07FB900BFC0
:103BE000C414FF1FC13B00006007FF1FF8B5164B50
:103BF000164D1A6842F080721A60154B1A6842F02E
:103C000001021A60134B2E681C688CB1237A6BB1C9
:103C100023682F681B68204698472A68E188D21BD2
:103C2000120993B28A42A38088BFE3806469ECE7FB
:103C30002968094B891B09098AB21A80074B188821
:103C4000814288BF1A80F8BDFCED00E0041000E05E
:103C5000001000E0D814FF1FDE14FF1FDC14FF1F4C
:103C600010B5154C237833BB01232370FFF776FB87
:103C700008B1FFF7FAFDFDF725FD08B1FFF79CFD40
:103C8000FFF730FA08B1FFF78CFFFCF7A7FD08B18A
:103C900000F015F9FEF762F808B1FFF76EFEFEF7C7
:103CA000D3FB08B100F083F8FEF796FE08B1FFF7EA
:103CB00073FD0023237010BDE014FF1F08B50368D7
:103CC000C9B21B68984708BD08B50368C9B21B682C
:103CD000984708BD08B50368C9B21B68984708BD76
:103CE00008B50368C9B21B68984708BD4B0803F1C3
:103CF000B76000F55840B0FBF1F0FEF703BA10B51D
:103D00004B0803F1B76000F558401446B0FBF1F0E2
:103D1000FEF7F8F92046BDE81040FEF733BAFEF78B
:103D200067BA0846FEF798BA0846FEF7D9BA0846B9
:103D30001146FEF7ADBA08B50846FEF7D3FA0030D3
:103D400018BF012008BD08B50846FEF7EDFA00309F
:103D500018BF012008BDFEF777BBFEF7AFBBFEF72B
:103D600083BBFEF755BBFEF7C1BBFEF75BBB08B5D7
:103D70000846FEF7F7FA012008BD08B50846FEF729
:103D8000F1FA012008BD10B5084614461146FEF7A9
:103D900033FB204610BD38B508460D4600F0B0FB99
:103DA000044621462846FEF727FB204638BD7047CB
:103DB000044B00221A714FF47A711A73024A996007
:103DC0001A607047E414FF1F504D000008B50368E7
:103DD000C9B21B68984708BD08B50368C9B21B681B
:103DE000984708BD08B50368C9B21B68984708BD65
:103DF00008B50368C9B21B68984708BD4B0803F1B2
:103E0000B76000F55840B0FBF1F0FCF745BB10B5CA
:103E10004B0803F1B76000F558401446B0FBF1F0D1
:103E2000FCF73AFB2046BDE81040FCF775BBFCF7F9
:103E3000A9BB0846FCF7DABB0846FCF71BBC0846E2
:103E40001146FCF7EFBB08B50846FCF715FC00303F
:103E500018BF012008BD08B50846FCF72FFC00304C
:103E600018BF012008BDFCF7B9BCFCF7F1BCFCF79A
:103E7000C5BCFCF797BCFCF703BDFCF79DBC08B5BF
:103E80000846FCF739FC012008BD08B50846FCF7D8
:103E900033FC012008BD10B5084614461146FCF756
:103EA00075FC204610BD38B508460D4600F028FBCD
:103EB000044621462846FCF769FC204638BD704779
:103EC000044B00221A714FF47A711A73024A9960F6
:103ED0001A607047F414FF1FB04D00000B460146F6
:103EE000184600F001B800BF13460A4601460220FA
:103EF00000F074BB70B50F4E0F4D761BB61018BF97
:103F0000002405D0013455F8043B9847A642F9D166
:103F10000A4E0B4D761B00F079FFB61018BF002437
:103F200006D0013455F8043B9847A642F9D170BD3C
:103F300070BD00BF184E0000184E0000444E000037
:103F4000184E0000024B0146186800F003B800BF8D
:103F5000400CFF1F2DE9F04F01F10B05162D83B02A
:103F6000064640F29F8035F0070500F1BF80A94268
:103F700000F2BC8000F0A6FAB5F5FC7FC0F09C8290
:103F80006B0A00F0BA80042B00F28381A80900F1CB
:103F9000390E4FEA4E033830C44F07EB8303A3F1C9
:103FA00008015C68A14207D1ACE0002A80F2AC8035
:103FB000E468A14200F0A680636823F003035A1B63
:103FC0000F2AF2DDB9493C6901F1080E744500F091
:103FD000B381636823F003035A1B0F2A00F399810E
:103FE000002AC1F814E0C1F810E080F29E80B3F519
:103FF000007F80F06781DB0803F1010C01229B1038
:1040000002FA03F34A6851F83C80C4F8088001EBD7
:10401000CC091A43A9F10803E3604A6041F83C4027
:10402000C8F80C40831001249C40944200F28A801E
:10403000144206D120F003006400144200F1040091
:10404000FAD007EBC009CC468046DCF80C108C4552
:1040500007D173E1002A80F28181C9688C4500F0A4
:104060006D814B6823F003035A1B0F2AF2DD0C46C7
:10407000D1F80CC054F8088F4B1945F001054D607C
:1040800042F00101C8F80CC03046CCF808807B61D2
:104090003B61C3F80CE0C3F808E059609A5000F0A7
:1040A00013FA1FE0102921D800F00CFA102506237E
:1040B00002207E4F07EB8303A3F108025C68944261
:1040C00000F045816368E168A56823F00303234499
:1040D00030465A68E96042F001028D605A6000F093
:1040E000F3F90834204603B0BDE8F08F00240C2318
:1040F0002046336003B0BDE8F08F80234FF0400EC0
:104100003F2049E770465DE72344E1685A68A568A7
:1041100042F00102E96030468D605A6000F0D4F947
:104120000834204603B0BDE8F08F234430465A6877
:1041300042F001025A6000F0C7F90834204603B08B
:10414000BDE8F08FBC68636823F00308A84504D37A
:10415000C5EB08030F2B00F38C80554BDFF8609103
:104160001A68D9F8003001332A4404EB080A00F039
:10417000608102F580520F3222F47F6222F00F023A
:1041800011463046019200F0A1F9B0F1FF3F83469D
:10419000019A00F05881824500F2FC80454B196875
:1041A000DA451144196000F05381D9F80000DFF8B6
:1041B00010E101301BBFCAEB0B0A5144CEF800B02E
:1041C00019601BF0070100F01781C1F10800C1F56B
:1041D0008051834408315A44C2F30B02C2EB0109F7
:1041E00049463046019300F071F9431C019B00F0F1
:1041F0003F81CBEB00024A4442F001021968C7F844
:1042000008B04944BC42CBF804201960DFF8A49000
:1042100016D0B8F10F0F40F2FD806268A8F10C03D0
:1042200023F00703E01802F001024FF0050E1A43D5
:104230000F2B6260C0F804E0C0F808E000F21C81B7
:104240001D4BBC681A68914288BF19601B4B1A68E5
:104250009142626888BF196022F003029542A2EB86
:10426000050301D80F2B04DC304600F02DF90024A3
:1042700038E7621943F0010345F0010565603046F7
:10428000BA60536000F020F90834204603B0BDE85E
:10429000F08F142B71D9542B00F2A480280B00F15D
:1042A0006F0E4FEA4E036E3076E600BF440CFF1FE0
:1042B0000C15FF1F1015FF1F0815FF1F0415FF1F0A
:1042C0005010FF1F5A0A042A5ED9142A00F2B38044
:1042D00002F15C0149005B3207EB810C57F82110B9
:1042E000DFF8DC81ACF1080C8C4500F088804A686E
:1042F00022F00302934202D289688C45F7D1D1F8AB
:104300000CC07A68C4F80CC0A160CCF80840CC603E
:1043100088E6631942F0010745F001056560304603
:104320004B610B61C3F80CE0C3F808E05F609A5082
:10433000083400F0C9F8D5E64A6873E608F10108C8
:1043400018F0030F0CF1080C7FF47FAE30E0DC684E
:10435000A34208BF02303FF435AEB3E60B440C462F
:104360005A68C96854F8085F42F001025A60304642
:10437000E9608D6000F0A8F8B4E603F15C0E03F18B
:104380005B004FEA4E0307E69A0902F13901490042
:104390003832A1E7BC424A4B3FF400AF9C686268E8
:1043A00022F003025AE759F80839994540F0828013
:1043B00010F0030F00F1FF30F5D17B6823EA04030E
:1043C0007B6064009C423FF6BDAE002C3FF4BAAE69
:1043D0001C4240467FF435AE64001C4200F10400EC
:1043E000FAD02EE6B3F5AA7F18D8E80B00F1780EC4
:1043F0004FEA4E037730CFE54FF48051EBE60121D1
:10440000D8F80430921001FA02F21A43C8F80420D6
:10441000614677E70123CBF8043025E740F2545298
:10442000934220D8A80C00F17D0E4FEA4E037C3059
:10443000B2E51032A4E6542A26D81A0B02F16F0115
:1044400049006E3248E7BC68626822F0030205E763
:10445000CAF30B0000287FF4A8AE4244BB6842F0C8
:1044600001025A60ECE6FE234FF07F0E7E2093E5BA
:1044700001224FF00009C1E604F10801304600F0C6
:1044800071F9D9F80010DBE6B2F5AA7F05D8DA0B8E
:1044900002F17801490077321EE740F254518A4216
:1044A00005D89A0C02F17D0149007C3214E7FE2107
:1044B0007E2211E77B6884E7E808431C5B00F8E58F
:1044C000440CFF1F704700BF704700BF38B5074C52
:1044D0000023054608462360FDF71CFA431C00D064
:1044E00038BD2368002BFBD02B6038BD4C15FF1F57
:1044F000FFFFFFFFFFFFFFFFFFFFFFFFFFFFFFFFCC
:1045000090F800F06DE9024520F007016FF0000C13
:1045100010F0070491F820F040F049804FF00004BB
:104520006FF00700D1E9002391F840F000F1080096
:1045300082FA4CF2A4FA8CF283FA4CF3A2FA8CF3CE
:104540004BBBD1E9022382FA4CF200F10800A4FA35
:104550008CF283FA4CF3A2FA8CF3E3B9D1E9042389
:1045600082FA4CF200F10800A4FA8CF283FA4CF3C0
:10457000A2FA8CF37BB9D1E9062301F1200182FA7A
:104580004CF200F10800A4FA8CF283FA4CF3A2FA80
:104590008CF3002BC6D0002A04BF04301A4612BA8E
:1045A000B2FA82F2FDE8024500EBD2007047D1E991
:1045B000002304F00305C4F100004FEAC50514F020
:1045C000040F91F840F00CFA05F562EA05021CBFF1
:1045D00063EA050362464FF00004A9E72DE9F047BE
:1045E000254C2568D5F848410646884692469946A6
:1045F000C4B360681F2817DC431C76B104EB800548
:104600000122C5F888A0D4F8881182401143022EF7
:10461000C4F88811C5F808911ED00230636044F8D0
:1046200020800020BDE8F087144B03B34FF4C8701E
:10463000FFF788FC0446D0B1D5F84831002780E860
:104640008800C5F8484138460123C4F88871C4F889
:104650008C71002EE1D0D1E7D4F88C110A43C4F854
:104660008C21DAE705F5A674C5F84841C1E74FF09B
:10467000FF30BDE8F08700BF084E0000453F000056
:10468000024B13B1024800F005B87047000000006B
:10469000A1460000002301461A461846FFF79EBFB8
:1046A00038B5074D074C2C1BA41005D0013C55F81C
:1046B000043D9847002CF9D1BDE8384000F0C2BB5A
:1046C0000000000000000000F8B5234F0C4606462D
:1046D000FFF7F8FEBB685D6825F00305291B01F6AE
:1046E000EF7121F47F6121F00F01A1F58054B4F541
:1046F000805F07DB00213046FFF7E8FEBB682B44F4
:10470000984204D03046FFF7DFFE0020F8BD61423A
:104710003046FFF7DBFE01300DD0104BBA68196848
:104720002D1B45F001053046091B55601960FFF748
:10473000CBFE0120F8BD00213046FFF7C7FEBA6866
:10474000831A0F2BDEDD064C0449246843F0010375
:10475000001B53600860D5E7440CFF1F1015FF1FB6
:104760005010FF1F002945D02DE9F0410D4680462D
:10477000FFF7A8FE55F8047C6A4927F00103A5F16C
:104780000804E2188E685068B24220F0030062D03C
:10479000FE0750600BD455F8087CE41B01F1080EAD
:1047A000A56875453B446FD0E768EF60BD6015189C
:1047B0006D68ED0742D543F001026260E350B3F546
:1047C000007F18D2DB085A1C4D6851F83270A76080
:1047D00001209B1000FA03F301EBC2001D430838CF
:1047E000E0604D6041F83240FC604046BDE8F04179
:1047F000FFF76ABE70475A0A042A53D89A0902F191
:1048000039077F0002F1380501EB870051F82720B6
:104810004449083890424DD0516821F003018B4241
:1048200002D292689042F7D1D068E060A2608460C2
:10483000D4604046BDE8F041FFF746BE95683A4F68
:10484000BD4203443FD0D068E86043F00102856078
:104850006260E350B3E7FF07034407D455F8082C20
:10486000A41A1344A068E268C26090602F4A1268DC
:1048700043F00100934260608C60B6D32C4B4046FD
:104880001968FFF721FFB0E711184968C90744D438
:104890009168D268CA60034443F00100916060608F
:1048A000E350A2E7142A17D802F15C077F0002F157
:1048B0005B05A9E7AA104B68012505FA02F213432C
:1048C0004B600246B1E743F001024C610C61E560C8
:1048D000A5606260E35088E7542A06D81A0B02F1FB
:1048E0006F077F0002F16E058EE7B2F5AA7F06D84A
:1048F000DA0B02F178077F0002F1770584E740F2D6
:104900005450824206D89A0C02F17D077F0002F1D2
:104910007C0579E7FE277E2576E743F00102626099
:10492000E35062E7440CFF1F4C0CFF1F4C10FF1FAD
:104930000C15FF1F4008FE4340A004404408FE43FE
:1049400044A004400018FE4300C004403000FE4371
:10495000309004403400FE43349004401C18FE4361
:104960001CC004401018FE4310C004400818FE4349
:1049700008C004400C18FE430CC004400C10FE4359
:104980000CB004401010FE4310B004401810FE4359
:1049900018B004401C10FE431CB004401410FE4329
:1049A00014B004400418FE4304C004400010FE4349
:1049B00000B004400008FE4300A004400408FE4389
:1049C00004A004400C08FE430CA004400808FE4369
:1049D00008A004401418FE4314C004401818FE43F5
:1049E00018C004400410FE4304B004400810FE4305
:1049F00008B004406820FE4368D004401400FE4321
:104A0000149004403800FE43389004403C00FE43BC
:104A10003C9004404000FE43409004404808FE4360
:104A200048A004404C08FE434CA004402808FE4324
:104A300028A004402C08FE432CA004406020FE4324
:104A400060D004406420FE4364D004402010FE4344
:104A500020B004402410FE4324B004402810FE433C
:104A600028B004402C10FE432CB004404400FE4308
:104A7000449004407000FE43709004407400FE4374
:104A8000749004406800FE43689004405008FE4360
:104A900050A004405808FE4358A004405C08FE4360
:104AA0005CA004405408FE4354A004402018FE4378
:104AB00020C004402418FE4324C004401008FE43D4
:104AC00010A004401408FE4314A004403818FE430C
:104AD00038C004403418FE4334C004403018FE434C
:104AE00030C004403C18FE433CC004402C18FE4338
:104AF0002CC004402820FE4328D004402C20FE4334
:104B00002CD004400020FE4300D004400420FE438B
:104B100004D004400820FE4308D004400C20FE438B
:104B20000CD004401020FE4310D004401420FE435B
:104B300014D0044000151915000100007207FF1F72
:104B400012000000000200009C07FF1F430000004D
:104B500000030000F607FF1F000000000103090426
:104B60008407FF1F0000000002030904E007FF1F85
:104B70000000000003030904FA07FF1F0000000003
:104B8000000000000000000000000000FFFFFFFF29
:104B900000000000000000005937000071370000DD
:104BA0004137000049370000453700004D3700000D
:104BB000D7360000E9360000093700000D37000045
:104BC000133700001937000021370000313700008B
:104BD0005137000055370000E5350000F135000081
:104BE000FD35000009360000813700006537000000
:104BF000000000000000000097360000AF36000003
:104C00007F36000087360000833600008B360000B8
:104C10001536000027360000473600004B360000EE
:104C200051360000573600005F3600006F36000036
:104C30008F36000093360000B5350000C135000006
:104C4000CD350000D9350000BF360000A336000086
:104C500000000000000000005D3800006338000024
:104C6000493800004D380000513800005538000028
:104C700059380000000000000000000000000000A3
:104C80003B39000053390000233900002B39000064
:104C9000273900002F390000B9380000CB38000058
:104CA000EB380000EF380000F5380000FB3800005A
:104CB0000339000013390000333900003739000090
:104CC0008938000095380000A1380000AD38000098
:104CD00063390000473900000000000000000000B8
:104CE0006F3A00000000000000000000000000001B
:104CF000633B00007B3B00004B3B0000533B00004C
:104D00004F3B0000573B0000E13A0000F33A00003F
:104D1000133B0000173B00001D3B0000233B00003D
:104D20002B3B00003B3B00005B3B00005F3B000077
:104D3000B13A0000BD3A0000C93A0000D53A00007F
:104D40008B3B00006F3B00000000000000000000F3
:104D50006F3D0000873D0000573D00005F3D0000B3
:104D60005B3D0000633D0000ED3C0000FF3C0000A7
:104D70001F3D0000233D0000293D00002F3D0000A5
:104D8000373D0000473D0000673D00006B3D0000DF
:104D9000BD3C0000C93C0000D53C0000E13C0000E7
:104DA000973D00007B3D0000000000000000000077
:104DB0007F3E0000973E0000673E00006F3E00000F
:104DC0006B3E0000733E0000FD3D00000F3E000002
:104DD0002F3E0000333E0000393E00003F3E000001
:104DE000473E0000573E0000773E00007B3E00003B
:104DF000CD3D0000D93D0000E53D0000F13D000043
:104E0000A73E00008B3E00001808FF1FF8B500BF4A
:104E1000F8BC08BC9E46704781460000350400007F
:104E20009D370000BD3700006D3800007D3900005F
:104E30009D3A0000A53B0000CD3B0000B13D0000C5
:044E4000C13E00006F
:044E4400F8B500BFFE
:104E480000000000080100005015FF1F1F20220A63
:104E580004221201010102000040C016830400026E
:104E68000102030118035400650065006E00730019
:104E780079006400750069006E006F000902430044
:104E8800020100C0320904000001020201000524E9
:104E9800001001052401010104240206052406006E
:104EA800010705820310004009040100020A0000FE
:104EB80000070503024000000705840240000000C7
:104EC800160355005300420020005300650072008D
:104ED800690061006C00040309040C030000000071
:104EE80000000000000000000000000000000000BA
:104EF800090A0000FFFFFFFF00000000040BFF1F6E
:104F08006C0BFF1FD40BFF1F000000000000000007
:104F18000000000000000000000000000000000089
:104F28000000000000000000000000000000000079
:104F38000000000000000000000000000000000069
:104F48000000000000000000000000000000000059
:104F58000000000000000000000000000000000049
:104F68000000000000000000000000000000000039
:104F78000000000000000000000000000000000029
:104F88000000000000000000000000000000000019
:104F98000000000000000000000000000000000009
:104FA80001000000000000000E33CDAB34126DE6A6
:104FB800ECDE05000B00000000000000000000000F
:104FC80000000000000000000000000000000000D9
:104FD80000000000000000000000000000000000C9
:104FE80000000000000000000000000000000000B9
:104FF80000000000000000000000000000000000A9
:105328001808FF1F0000000000000000440CFF1FC9
:10533800440CFF1F4C0CFF1F4C0CFF1F540CFF1F8D
:10534800540CFF1F5C0CFF1F5C0CFF1F640CFF1F3D
:10535800640CFF1F6C0CFF1F6C0CFF1F740CFF1FED
:10536800740CFF1F7C0CFF1F7C0CFF1F840CFF1F9D
:10537800840CFF1F8C0CFF1F8C0CFF1F940CFF1F4D
:10538800940CFF1F9C0CFF1F9C0CFF1FA40CFF1FFD
:10539800A40CFF1FAC0CFF1FAC0CFF1FB40CFF1FAD
:1053A800B40CFF1FBC0CFF1FBC0CFF1FC40CFF1F5D
:1053B800C40CFF1FCC0CFF1FCC0CFF1FD40CFF1F0D
:1053C800D40CFF1FDC0CFF1FDC0CFF1FE40CFF1FBD
:1053D800E40CFF1FEC0CFF1FEC0CFF1FF40CFF1F6D
:1053E800F40CFF1FFC0CFF1FFC0CFF1F040DFF1F1C
:1053F800040DFF1F0C0DFF1F0C0DFF1F140DFF1FC9
:10540800140DFF1F1C0DFF1F1C0DFF1F240DFF1F78
:10541800240DFF1F2C0DFF1F2C0DFF1F340DFF1F28
:10542800340DFF1F3C0DFF1F3C0DFF1F440DFF1FD8
:10543800440DFF1F4C0DFF1F4C0DFF1F540DFF1F88
:10544800540DFF1F5C0DFF1F5C0DFF1F640DFF1F38
:10545800640DFF1F6C0DFF1F6C0DFF1F740DFF1FE8
:10546800740DFF1F7C0DFF1F7C0DFF1F840DFF1F98
:10547800840DFF1F8C0DFF1F8C0DFF1F940DFF1F48
:10548800940DFF1F9C0DFF1F9C0DFF1FA40DFF1FF8
:10549800A40DFF1FAC0DFF1FAC0DFF1FB40DFF1FA8
:1054A800B40DFF1FBC0DFF1FBC0DFF1FC40DFF1F58
:1054B800C40DFF1FCC0DFF1FCC0DFF1FD40DFF1F08
:1054C800D40DFF1FDC0DFF1FDC0DFF1FE40DFF1FB8
:1054D800E40DFF1FEC0DFF1FEC0DFF1FF40DFF1F68
:1054E800F40DFF1FFC0DFF1FFC0DFF1F040EFF1F17
:1054F800040EFF1F0C0EFF1F0C0EFF1F140EFF1FC4
:10550800140EFF1F1C0EFF1F1C0EFF1F240EFF1F73
:10551800240EFF1F2C0EFF1F2C0EFF1F340EFF1F23
:10552800340EFF1F3C0EFF1F3C0EFF1F440EFF1FD3
:10553800440EFF1F4C0EFF1F4C0EFF1F540EFF1F83
:10554800540EFF1F5C0EFF1F5C0EFF1F640EFF1F33
:10555800640EFF1F6C0EFF1F6C0EFF1F740EFF1FE3
:10556800740EFF1F7C0EFF1F7C0EFF1F840EFF1F93
:10557800840EFF1F8C0EFF1F8C0EFF1F940EFF1F43
:10558800940EFF1F9C0EFF1F9C0EFF1FA40EFF1FF3
:10559800A40EFF1FAC0EFF1FAC0EFF1FB40EFF1FA3
:1055A800B40EFF1FBC0EFF1FBC0EFF1FC40EFF1F53
:1055B800C40EFF1FCC0EFF1FCC0EFF1FD40EFF1F03
:1055C800D40EFF1FDC0EFF1FDC0EFF1FE40EFF1FB3
:1055D800E40EFF1FEC0EFF1FEC0EFF1FF40EFF1F63
:1055E800F40EFF1FFC0EFF1FFC0EFF1F040FFF1F12
:1055F800040FFF1F0C0FFF1F0C0FFF1F140FFF1FBF
:10560800140FFF1F1C0FFF1F1C0FFF1F240FFF1F6E
:10561800240FFF1F2C0FFF1F2C0FFF1F340FFF1F1E
:10562800340FFF1F3C0FFF1F3C0FFF1F440FFF1FCE
:10563800440FFF1F4C0FFF1F4C0FFF1F540FFF1F7E
:10564800540FFF1F5C0FFF1F5C0FFF1F640FFF1F2E
:10565800640FFF1F6C0FFF1F6C0FFF1F740FFF1FDE
:10566800740FFF1F7C0FFF1F7C0FFF1F840FFF1F8E
:10567800840FFF1F8C0FFF1F8C0FFF1F940FFF1F3E
:10568800940FFF1F9C0FFF1F9C0FFF1FA40FFF1FEE
:10569800A40FFF1FAC0FFF1FAC0FFF1FB40FFF1F9E
:1056A800B40FFF1FBC0FFF1FBC0FFF1FC40FFF1F4E
:1056B800C40FFF1FCC0FFF1FCC0FFF1FD40FFF1FFE
:1056C800D40FFF1FDC0FFF1FDC0FFF1FE40FFF1FAE
:1056D800E40FFF1FEC0FFF1FEC0FFF1FF40FFF1F5E
:1056E800F40FFF1FFC0FFF1FFC0FFF1F0410FF1F0D
:1056F8000410FF1F0C10FF1F0C10FF1F1410FF1FBA
:105708001410FF1F1C10FF1F1C10FF1F2410FF1F69
:105718002410FF1F2C10FF1F2C10FF1F3410FF1F19
:105728003410FF1F3C10FF1F3C10FF1F0000020039
:04573800FFFFFFFF71
:00000001FF
