:100000000000022099010000911B00005D1B000010
:100010005D1B00005D1B00005D1B00005D1B000000
:100020005D1B00005D1B00005D1B0000C145000062
:10003000911B00005D1B0000911B0000A545000006
:10004000911B0000911B0000911B0000911B000000
:10005000911B0000911B0000911B0000911B0000F0
:10006000911B0000911B0000911B0000911B0000E0
:10007000911B0000911B0000911B0000911B0000D0
:10008000911B0000911B0000911B0000911B0000C0
:10009000911B0000911B0000911B0000911B0000B0
:1000A000911B0000911B0000911B0000911B0000A0
:1000B000911B0000911B0000911B0000611A0000C1
:1000C000911B000065360000911B0000290900000B
:1000D000911B0000C1200000911B0000911B00003B
:1000E000911B0000911B0000911B0000911B000060
:1000F000911B0000911B0000911B0000911B000050
:10010000A93F0000BD3F0000D13F0000E53F0000D7
:10011000911B0000890B0000911B0000911B000047
:10012000911B0000911B0000911B0000911B00001F
:10013000911B0000911B0000911B0000911B00000F
:10014000A1410000911B0000B1270000911B00009D
:100150002D2F0000911B0000911B0000911B00003F
:10016000911B0000911B0000911B0000911B0000DF
:10017000911B0000911B0000911B0000911B0000CF
:10018000911B0000911B0000911B0000911B0000BF
:10019000911B0000911B0000584B4CF2205210B5EF
:1001A0001A804DF628121A8000BF00BF01F0F4FC3F
:1001B000534B4FF030621A60524A9A60524ADA60EA
:1001C000524B4FF470021A60514A136813F4807353
:1001D00001BF50490B604FF4A85313604E4B4F4979
:1001E0001A78100742BF1A7842F008021A704C4B76
:1001F0002A221A704B4A4C4B8B4204D252F8040FFD
:1002000043F8040BF8E7494B494A0021934202D2D4
:1002100043F8041BFAE7474A4748002350F82310E5
:1002200042F823100133662BF8D1444B444A802115
:1002300003F8011B9342FBD1424B3E4A1A60424BEA
:100240008A221A70A3F5805324225A70A0221A70B1
:100250009A799107FCD59A79D206FCD43B4A9379D6
:1002600003F00C03082B394BF9D103221A714022F9
:100270005A719A799406FCD534498A79334B5006E1
:10028000FBD5334A334911600221516020221A7094
:100290009A7902F00C020C2AFAD12F4B2F4A1A60DD
:1002A0002F4B4BF67F321A6000225A60072243F828
:1002B000042C2C4AC3F80C2D62B602F009F8154B39
:1002C0001B68DA0705D5284801F060FF274B284A4C
:1002D0001A60284B1B785B0609D5244C244B2268F6
:1002E0009A4204D1204801F051FF0023236004F01A
:1002F000F7FF01F057FC00F0D1F8FEE70E200540B3
:1003000030800440823F04000100002B88ED00E0B3
:1003100010D0034014D0034002D00740F40FFF1F59
:1003200000E00740D8810000F806FF1FF40FFF1F10
:10033000781BFF1F0002FF1F0000000000E400E028
:1003400056E400E008ED00E00050064000400640A2
:10035000448004400000131104800440C0100500D4
:1003600014E000E00000202000DD68501CE00340A5
:10037000A5C3945A00F00740FFFFFFFFFFFFFFFFF8
:10038000FFFFFFFFFFFFFFFFFFFFFFFFFFFFFFFF7D
:10039000FFFFFFFFFFFFFFFFFFFFFFFFFFFFFFFF6D
:1003A000FFFFFFFFFFFFFFFFFFFFFFFFFFFFFFFF5D
:1003B000FFFFFFFFFFFFFFFFFFFFFFFFFFFFFFFF4D
:1003C000FFFFFFFFFFFFFFFFFFFFFFFFFFFFFFFF3D
:1003D000FFFFFFFFFFFFFFFFFFFFFFFFFFFFFFFF2D
:1003E000FFFFFFFFFFFFFFFFFFFFFFFFFFFFFFFF1D
:1003F000FFFFFFFFFFFFFFFFFFFFFFFFFFFFFFFF0D
:10040000FFFFFFFFFFFFFFFFFFFFFFFFDEF9FFFF23
:1004100010B5054C237833B9044B13B10448AFF33E
:1004200000800123237010BDF40FFF1F00000000A7
:10043000DC810000084B10B51BB108490848AFF338
:1004400000800848036803B910BD074B002BFBD0A0
:10045000BDE81040184700BF00000000F80FFF1F64
:10046000DC810000F40FFF1F000000007047FFFF59
:1004700008B5002002F0E6FA323807EE900A9FED48
:10048000057AF8EEE77A87EE870ADFED037A80EEE9
:10049000270A08BD00C07F448E39663FF0B50420AE
:1004A0008DB004F0BFF8FFF7E1FF01210D2001F04E
:1004B0009DFE2024144E154D27463760FA2001F08A
:1004C000F1FE2C60FA2001F0EDFE114904A803F0C2
:1004D000FBFA04A908A803F011FBFFF7C9FF08A85D
:1004E00003F059FB0146684603F008FB08A803F037
:1004F000ABFA04A803F0A8FA0099042004F09AF8D3
:10050000684603F0A1FAD8E784F00F4088F00F4066
:10051000547B0000164A136843F480531360154A55
:1005200000231370144A1370144A1370144A137082
:10053000144A1370144A40F2133111604FF4517190
:100540005160124AC0F344311170C0F3471100F0FA
:100550001F0051709072937013742C23D3700C4B46
:1005600040221A70A3F21F3308221A60704700BF9E
:10057000348004407E10FF1F1510FF1F8410FF1FE2
:100580007F10FF1F1410FF1F08C0044000C006406A
:1005900023E400E0184B9A7802F0EC0100F003022B
:1005A0000A43410748BF42F010029A70124900F016
:1005B0000F02042A02BF8A7942F040028A715A79F6
:1005C000C30602F0EF020C4B48BF42F010025A7112
:1005D0009A79810602F0EF0248BF42F010029A7148
:1005E000C305054906D54B780A78DBB242F02002F4
:1005F0000A704B70704700BF00C00640124B1B686A
:10060000DB0410B500D410BD104C227802F0FF03BB
:1006100012B103F0FFFDF8E70D4A082111600D4A01
:1006200001F1804101F59821D37040F203120A6074
:100630004A60094A1370094A1370094B1B680BB1D1
:1006400001221A7010BD00BF348004401410FF1F37
:1006500084E100E000C006407E10FF1F1510FF1F60
:100660001010FF1F0A4A38B50446137803F0FF053F
:10067000002BFAD10121204601F0B8FD2946204681
:1006800001F094FD034B53F83420034B1A6038BD3E
:100690001410FF1F6C7B00008010FF1F10B509B104
:1006A00040F080000E4B1A78904217D00D4C246811
:1006B000E40412D502F07F02082A02BF0A4A00248D
:1006C0001460002900F07F010CBF44226022082939
:1006D00002BF054942F440720A60187010BD00BFA5
:1006E000FC06FF1F348004400CC004407047FFFF2D
:1006F00038B50D4B1B6813F480534FF0000410D035
:100700003F280A4D0AD80A4B012153F830302B609C
:1007100001F06CFD2B681C70012038BD2C60204658
:1007200038BD184638BD00BF348004401010FF1F8C
:100730006C7B00000B4B1B6813F4805310D00E2809
:10074000094B09D1094A40F2023111605A7B42F04B
:1007500001025A73012070475A7B02F0FE025A735D
:10076000002070473480044000C0064004C00440AC
:100770002DE9F8431F4B1B68DA04064637D51E4B9C
:100780001B680BB101221A701C4DDFF880902C7889
:100790001B4F0134282C28BF0024C84699F800308C
:1007A000A34219D101F008FA402810DC3B791B065E
:1007B000F4D599F80030134A0133282B28BF0023C1
:1007C000D25CDBB2D2B2FA7188F80030E6E7FF28DB
:1007D000E4DD03F01FFDE1E70A4BF6B21E550A4BBC
:1007E00001221A70064BE4B2AC222C70DA70BDE81C
:1007F000F88300BF348004408010FF1F8410FF1F67
:1008000000C006401610FF1F1410FF1F7F10FF1FAF
:1008100038B504464518AC4204D014F8010BFFF774
:10082000A7FFF8E738BDFFFF10B5034C237813B1DD
:1008300003F0F0FCFAE710BD1410FF1F064B187808
:10084000064B1A78C0B2D3B298422CBF273303F1BB
:10085000FF33181A704700BF8410FF1F7F10FF1F5F
:10086000054B1878054B1A78C0B2D3B2984238BFFE
:100870004030C01A704700BF7E10FF1F1510FF1FC9
:1008800010B5104B104C1B782278D9B2D2B29142DD
:1008900014D0531C402B28BF00230C4AD05CDAB282
:1008A00022700B4A1268C0B252B18B4288BF4031ED
:1008B000CB1A1A2B04DC0023137010BD4FF0FF304D
:1008C00010BD00BF7E10FF1F1510FF1F3E10FF1F41
:1008D0001010FF1F084B1A78084B1B78DBB29A42A6
:1008E00007D00133402B28BF0023054AD05CC0B29B
:1008F00070474FF0FF3070477E10FF1F1510FF1F2D
:100900003E10FF1F054B064A1B78DBB21370054BE8
:100910001B680BB100221A70704700BF1510FF1F33
:100920007E10FF1F1010FF1F10B5284B1A7992067A
:1009300020D52749DA790B782648013300783F2BF8
:10094000C8BF0023834218BF2348D2B21EBFC2547F
:10095000DAB20A70214A116861B1214A1278D2B222
:10096000934236BFC2F140029B1A9B18272BC4BF8B
:1009700001230B701549CA78D2B2140616D50B792B
:10098000180613D5174B164C18782378DBB298420B
:1009900002D16C23CB7009E00133282B28BF002340
:1009A0001148C05CDBB2C0B2C871237051060CD5CF
:1009B000064B1A79520608D50C4A002111700C4AD0
:1009C000126802B111702C22DA7010BD00C006400E
:1009D0007E10FF1F1510FF1F3E10FF1F1010FF1F7E
:1009E0007F10FF1F8410FF1F1610FF1F1410FF1F22
:1009F0008010FF1FF0B50C4C0C4E23780C4D43F0CB
:100A0000020706EBC70283F0010350602A782370C7
:100A1000002A14BFC820882082F0010240EA014168
:100A20002A7046F83710F0BDF010FF1F0000FF1FBE
:100A30006811FF1F431E032B10B510D872B6094A68
:100A400052F8230048B1416842F82310064904884F
:100A500031F81320121B21F8132062B610BD0020BC
:100A600010BD00BFE010FF1F601BFF1F01380328EF
:100A70000AD872B6054B53F82030002013B101306C
:100A80005B68FBE762B67047002070473411FF1FB8
:100A900070B472B6174C184901231A1912F8012CB8
:100AA00012071DD59A00144E51F832502DB906EB9D
:100AB000431308305860114B09E042F0010251F82D
:100AC00032506DB906EBC203083058600C4B46F843
:100AD00032300C4A1378013B137062B670BC704719
:100AE0000133052BD9D162B6064B00221A7070BCB7
:100AF00002F088BFB47D00000000FF1F88004000A6
:100B0000C80040005E11FF1F431E032B10B532D8F2
:100B1000194A400140F01000104472B6174AD45CE4
:100B2000032C0BD8DFE804F018040207052414E0B6
:100B30000830022411E0083004240EE01048114A65
:100B400050F8234014B940F8231002E052F8230073
:100B5000416042F823100DE00324D45410F0080F34
:100B600001F108030A88436014BFC823882343EABD
:100B70000243036062B610BD0000FF1F9C10FF1F00
:100B80003411FF1F4411FF1F2DE9F74FA84B1C78AC
:100B9000E4B214F0040F1D461AD0A64B1B78A3B183
:100BA000A54A117801F0FF0321B1013BDBB21370BC
:100BB00003B900BEA14A117801F0FF0329B1013B3E
:100BC000DBB213700BB902F0DBFE994A04231370F9
:100BD00004F0080303F0FF02002B00F06F82984B33
:100BE000984C1B78DBB21F094FEA930640F0EA816C
:100BF00004EBC603596854F83630C3F38303013B52
:100C00000C2B00F2DB81DFE813F098019801D90189
:100C1000D901D901D901D901D901B701D901D90126
:100C2000D9010D000A68884D88484B682A60012167
:100C30006B60DFF84C82864B017092B240F28160AB
:100C400044F8363082424FF00003C8F80030236188
:100C5000A36117D8B2F5D06F80F02581B2F5817FFE
:100C600000F0D68006D8802A00F0C180822A00F0E9
:100C7000C28033E140F202339A4200F00581B2F5BE
:100C8000A06F1AE042F22100824200F053810CD89A
:100C9000B2F5086F00F0A580B2F5106F40F01E812C
:100CA000644AA97811701E460AE042F221218A4264
:100CB00000F00C8142F221339A4200F013810DE1E1
:100CC000A219136A1F0603D5506A083802F09AFE6B
:100CD0000836802EF4D1DFF8AC915E4F0026CA466C
:100CE00059F826004FEA860B30B14268009202F0B4
:100CF00089FE009A1046F7E7574B584A4AF80B000E
:100D00004BF803005BF8020040B14168019200918A
:100D100002F078FE0099019A0846F5E7504B42F838
:100D20000B0023F816003B784E4A023B4BF80200BA
:100D3000032B07D8DFE803F002040204002300E0DD
:100D400001233B700136042E07F10107C8D1464B41
:100D5000464E3F4F00221A704FF0010B9946444A0D
:100D60000BEB06015A4411F8011C920011F0080F18
:100D700011704FEA8B0A24D002F026FE38B104EB42
:100D80004B1208303B4B506044F83A3006E099F87B
:100D9000002044F83A00013289F8002002F014FEE5
:100DA0004AF0010230B104EBC2010830486044F857
:100DB000327006E044F8320099F80020013289F8D8
:100DC00000204AF002010BF1010B4AF0030A002255
:100DD000BBF1050F44F8312044F83A20BFD1134647
:100DE00081E0144B244E1B7833700B467EE0224E7C
:100DF0003370737079E0AA88042A6FD81E4E92006F
:100E0000337073701D4B9B5C9C076ED531706CE02A
:100E1000AA8802F07F02042A60D86B88002B5DD17B
:100E20001649920011440A7822F0020239E000BF0C
:100E3000802007406711FF1FF110FF1FE513FF1F00
:100E4000902007400000FF1F5411FF1F6811FF1F73
:100E5000C80040009C10FF1F8C10FF1F3411FF1FA3
:100E6000601BFF1F4411FF1F5E11FF1FB47D0000B8
:100E700030C80110880040005F11FF1FC0200740EC
:100E80008810FF1FE010FF1FAA8802F07F02042ACB
:100E900024D86B8813BBA549920011440A7842F00C
:100EA00002020A701FE06A88A988A14B5E68AEB191
:100EB0001888904208D15888884205D1120A032A1E
:100EC0000CBF33781B8911E00C33EFE7994A1168A6
:100ED000994A1160994AA978117004E0934B0F2246
:100EE0001A7027E000231E4600E00223EC889C4293
:100EF00028BF1C46402C254628BF402530462946A1
:100F0000FFF778FD641B2E4403D1402D12D12546F6
:100F100003E0402C254628BF402530462946FFF7F0
:100F200069FD641B2E4401D1402D03D1844BC8F8C8
:100F300000601C800122834B3FE0834B1A8842F201
:100F400021039A4214D1814A0023C85C985401338A
:100F5000072BFAD17D4B1B68862B08BF7C4B4FF0CB
:100F6000000108BF0F22084608BF1A70FFF742FDB4
:100F7000784B44F8363021E0774F3E68A6B1DFF871
:100F8000C081B8F80040402C254628BF4025304697
:100F90002946FFF72FFD601B80B2A8F8000008B9B2
:100FA000402D00D170193860674B1A88B2F5A06FD8
:100FB00004D100225A709A78684B1A70614B012252
:100FC0001A7077E004EBC605013F6A6803F0080376
:100FD000A2F10800FFB203F0FF0E002B36D002F0A2
:100FE00011FD5F485F4A50F82710E9B14B6840F89F
:100FF000273001F108036B60D35D032B0BD8DFE8CA
:1010000003F002040608032304E0022302E00523A0
:1010100000E00423D35515F0080F0A8814BFC82335
:10102000882343EA024343E0D35D032B07D8DFE87C
:1010300003F041410204002306E0012304E015F01F
:10104000080F14BF03230223D35533E054F836307E
:101050001B0C99B222F8081C23B3434B22F806EC70
:1010600042F804EC53F82720DFF82CE112B943F8DA
:10107000270002E05EF8273058603C4A4EF827000F
:1010800032F817300B4422F8173002F09DFC10B1F3
:101090000830686006E0364A44F8360013780133B9
:1010A000137007E0334A2B4B15F0080F08BF1346A7
:1010B00044F83630304A0823137067E5E0071ED540
:1010C00020492C482D4C02230B702D4B1A702D4BB0
:1010D000186098602C48D8601A619A615C60134B64
:1010E0000D2018702948FF2303702B700274284AC2
:1010F0001370284B9F221A7001230B7012E02106F7
:1011000004D50A4B0D221A7080232B70A20705D537
:101110001E4A1378DBB2137002232B70E30644BF20
:1011200010232B7003B0BDE8F08F00BFC020074034
:10113000B87D00007812FF1F701BFF1FF413FF1F04
:101140005C11FF1F942007405411FF1F681BFF1FF5
:10115000F110FF1FC80040008810FF1F98200740B3
:101160003411FF1F9C10FF1FE010FF1F601BFF1FAB
:101170005E11FF1F8800400080200740A010FF1F65
:10118000F010FF1F0000FF1FF410FF1F8820074012
:101190008C200740842007408C10FF1F10B501F001
:1011A0002BFF00231A4819461950C4180833882BFE
:1011B000174A6160F8D117490B6843F480230B602C
:1011C00015490B6843F040730B60144BC2F30721C1
:1011D0001970C2F30741120E19751A76104AFF23CF
:1011E00013700021137202F8703C0123137582F80A
:1011F000801013710B4B70226FF44C711A700B44FA
:101200004FF400121A60084B10221A7010BD00BF74
:101210000000FF1F3480044000D800409C2007409D
:101220008020074035E400E00821074030B5034640
:101230000020B3FBF2F402FB1433092B94BF3033CC
:101240003733DBB20B5423460CB10130F1E70A18F7
:1012500023465470C41AA34206DACC5C1578CD54E8
:1012600002F801490133F5E7084630BDB4EE400A03
:1012700080EAE073F1EE10FA2DE9F341F0EE407AE6
:10128000054688461446A3EBE07328D7B5EEC00A9E
:10129000F1EE10FA4CBF042003209842B4BF181A94
:1012A0000020002D07DA10442023844202D004F8E5
:1012B000013BFAE7002017EE903A002BBEBF2D232A
:1012C0002370013441234E226370E31C2270A2700C
:1012D00018442022834236D003F8012BFAE7DFEDD1
:1012E000626AB0EEC07AB4EE667AF1EE10FA2DDDE5
:1012F000B5EEC00AF1EE10FA4CBF0420032098426C
:10130000B4BF181A0020002D07DA104420238442AD
:1013100002D004F8013BFAE70020F5EEC07AF1EEC6
:1013200010FA42BF2D2323700134492323704E232A
:1013300046226370E31CA27018442022834202D02C
:1013400003F8012BFAE7002303708AE001AA69463B
:10135000404603F0B3FF009E0746B8F1000F09D1E5
:1013600046B90778414B424A0120342F94BF1746B3
:101370001F4607E0384604F063FEB042C8BF0130A4
:1013800006B90130DDF804E0BEF1000F00D00130F5
:101390002B1A002B04EB000209DD1A4421462344DA
:1013A0004FF0200C994203D001F801CBFAE7234615
:1013B000BEF1000F02D02D2119700133002E0CD187
:1013C000B8F1000F06D01946302601F8026B2E2620
:1013D0005E700B464FF02E0E2CE0FBDAB8F1000FDA
:1013E000F8D09E4630210EF8021B4FF02E0C83F8E9
:1013F00001C0734601324FF0000EF61A13EB060CD3
:1014000004D503F8011B4FF0010EF7E7BEF1000F02
:10141000E0D0CDF800C0DDE75E1C17F8011B1970A5
:10142000B2420AD000990139009111B99E1C83F88B
:1014300001E033469342EFD300E01346002D0DDA6E
:1014400005446D42194620206A1A1A44002A02DD1A
:1014500001F8010BF8E7002DA8BF5B1900221A70F4
:10146000204602B0BDE8F081FFFF7F7F657B000072
:10147000677B0000294A136843F480631360284A9D
:1014800000231370274A1370274A1370274A1370DA
:10149000274A1370274B1B78152B06D01B2B08D01F
:1014A0005BB940F21332244B06E040F21332234B77
:1014B00002E0234B40F213321A60224B1B78052BBB
:1014C00007D01A2B09D0012B0BD14FF451721E4BB0
:1014D00006E04FF451721D4B02E01D4B4FF4517268
:1014E0001A601C4BC0F344321A70C0F347125A7092
:1014F00000F01F000422022198729A70D9745A7564
:1015000088221A743C22DA70134B40221A70A3F21C
:101510001F334FF000421A60704700BF3480044010
:10152000F311FF1F7111FF1FFC11FF1FF411FF1FAB
:101530007011FF1FB211FF1F40A0044018C00440EB
:101540003C900440FD06FF1F44A004401CC0044022
:101550003890044000A006401FE400E0184B9A7841
:1015600002F0EC0100F003020A43410748BF42F0D9
:1015700010029A70124900F00F02042A02BF8A7901
:1015800042F040028A715A79C30602F0EF020C4B16
:1015900048BF42F010025A719A79810602F0EF02B8
:1015A00048BF42F010029A71C305054906D54B7831
:1015B0000A78DBB242F020020A704B70704700BF1D
:1015C00000A00640114B1B685B0510B500D410BD90
:1015D0000F4C227802F0FF0312B102F01BFEF8E775
:1015E0000C4A4FF0004111600B4A0C49D37040F295
:1015F00003120A604A600A4A13700A4A13700A4BBF
:101600001B680BB101221A7010BD00BF348004406A
:101610007011FF1F80E100E000A0064040A00440E0
:10162000F311FF1F7111FF1F6C11FF1F0A4A38B51C
:101630000446137803F0FF05002BFAD10121204660
:1016400000F0D4FD2946204600F0B0FD034B53F8CE
:101650003420034B1A6038BD7011FF1F6C7B0000F3
:10166000F811FF1F10B509B140F08000194A137836
:10167000984214462DD0184A1268520528D503F016
:101680007F03052B06D01A2B07D0012B08D100228F
:10169000124B04E00022124B01E0124B00221A60B0
:1016A000002900F07F0214BF60234423052A07D0DD
:1016B0001A2A09D0012A0BD143F44073074A06E0E5
:1016C00043F44073064A02E0064A43F44073136051
:1016D000207010BDFD06FF1F3480044044A004406C
:1016E0001CC0044038900440144A1378834223D02D
:1016F0001349096849051ED5152B05D01B2B06D0AB
:1017000043B910490B6005E000210F4B01E00F4B7E
:1017100000211960152806D01B2808D058B940F2BE
:101720001331084B06E040F21331074B02E0074B40
:1017300040F2133119601070704700BFB211FF1FE3
:101740003480044040A0044018C004403C90044051
:1017500038B50D4B1B6813F480634FF0000410D0B4
:101760003F280A4D0AD80A4B012153F830302B602C
:1017700000F03CFD2B681C70012038BD2C60204619
:1017800038BD184638BD00BF348004406C11FF1FBF
:101790006C7B00000E4B1B6813F4806316D012287C
:1017A0000C4B03D140F202310B4A04E0142809D15A
:1017B0000A4A40F2023111605A7B42F001025A7328
:1017C000012070475A7B02F0FE025A7300207047D6
:1017D0003480044000A006400CA0044014C0044023
:1017E0002DE9F8431F4B1B685A05064637D51E4B9B
:1017F0001B680BB101221A701C4DDFF880902C7809
:101800001B4F0134402C28BF0024C84699F80030F3
:10181000A34219D100F0D0F9402810DC3B791B0617
:10182000F4D599F80030134A0133402B28BF002328
:10183000D25CDBB2D2B2FA7188F80030E6E7FF285A
:10184000E4DD02F0E7FCE1E70A4BF6B21E550A4B75
:1018500001221A70064BE4B2BC222C70DA70BDE88B
:10186000F88300BF34800440F811FF1FFC11FF1FF4
:1018700000A006407211FF1F7011FF1FF411FF1F1F
:101880002DE9F84F264B1B685A050646884645D574
:10189000244B1B680BB101221A70234FB246B94684
:1018A00006EB08039A4536D23C78204BDFF87CB033
:1018B0001B780134402C28BF00249C420AD01C4BCA
:1018C0001AF8011B19551B4B0121E4B2197089F854
:1018D0000040E5E7184DBC23EB7000F06DF940289F
:1018E00010DC2B791B0611D59BF80030104A013310
:1018F000402B28BF0023D05CDBB2C0B2E8718BF86C
:10190000003003E0FF2801DD02F084FC9BF800308A
:101910009C42E2D0D3E7084BBC22DA70BDE8F88FD6
:1019200034800440F811FF1FFC11FF1FF411FF1F4A
:101930007211FF1F7011FF1F00A0064010B5034C6D
:10194000237813B102F066FCFAE710BD7011FF1F97
:10195000064B1878064B1A78C0B2D3B298422CBF07
:101960003F3303F1FF33181A704700BFFC11FF1F0C
:10197000F411FF1F054B1878054B1A78C0B2D3B28B
:10198000984238BF4030C01A704700BFF311FF1FA4
:101990007111FF1F10B5104B104C1B782278D9B273
:1019A000D2B2914214D0531C402B28BF00230C4AC2
:1019B000D05CDAB222700B4A1268C0B252B18B42CC
:1019C00088BF4031CB1A1A2B04DC0023137010BDE2
:1019D0004FF0FF3010BD00BFF311FF1F7111FF1F4B
:1019E000B311FF1F6C11FF1F084B1A78084B1B78AF
:1019F000DBB29A4207D00133402B28BF0023054AAF
:101A0000D05CC0B270474FF0FF307047F311FF1F3A
:101A10007111FF1FB311FF1F0C4B1B685B0514D521
:101A20000B4BDA7802F0CB02DA7040225A74DA7883
:101A300042F03402DA70074B074A1B78DBB21370AE
:101A4000064B1B680BB100221A70704734800440AB
:101A500000A006407111FF1FF311FF1F6C11FF1F43
:101A6000F0B534490B7913F0300F2FD072B68B7D5F
:101A700003F0FF0423B9CB7940234B7462B625E011
:101A800062B62D482D4A037812782D4FDBB2D2B2C0
:101A90000546581C4028CE7928BF00209042F6B257
:101AA0001CBF3E540346601E10F0FF04F1D1D9B2B2
:101AB00029702449096849B1934236BFC2F14002F6
:101AC0009B1A9B18272BC4BF01230B70194AD1788E
:101AD000C9B20D061ED513791C061BD51A4B1B481F
:101AE0001D7803781A4EEDB2DBB2AB420AD0013357
:101AF000402B28BF00231479F45CE4B2D471147D28
:101B0000072CF2D9DBB203700A4B1A79100644BFD6
:101B10007C22DA7049060CD5064B1A79520608D594
:101B20000C4A002111700C4A126802B111703C225B
:101B3000DA70F0BD00A00640F311FF1F7111FF1F06
:101B4000B311FF1F6C11FF1FFC11FF1FF411FF1FCA
:101B50007211FF1F7011FF1FF811FF1F08B50B4D09
:101B60002C462B68580301D5FFF70EF8236859055A
:101B700001D5FFF775FF23681A0501D501F072FD45
:101B80002368DB04EDD5FEF7CFFEEAE7348004409E
:101B900008B5FFF7E3FFFFFF014B10221A807047E3
:101BA000002005407047FFFF024A13681844106088
:101BB000184670470007FF1FEFF313839BB9EFF33D
:101BC000108098B9EFF3058323B10F2B04D9084A8D
:101BD000985C01E04FF48070EFF311833BB19842C1
:101BE00028BF184670474FF0FF30704718467047BF
:101BF000F0E300E0214A136843F400531360204AE5
:101C0000002313701F4A13701F4A13701F4A13706A
:101C10001F4A13701F4B1B781F2B05D03F2B07D17A
:101C200040F213321C4B02E01C4B40F213321A609C
:101C30001B4B1B78202B05D03E2B07D14FF4517244
:101C4000184B02E0184B4FF451721A60174BC0F357
:101C500044321A70C0F347125A7000F01F0000227D
:101C600098729A701A742C22DA70114B40226FF419
:101C700048711A700B4420221A6070473480044067
:101C80006E12FF1F0512FF1F7412FF1F6F12FF1F3E
:101C90000412FF1F0407FF1F14D0044028A00440B3
:101CA0000507FF1F10D004402CA0044000D00640C0
:101CB00025E400E0184B9A7802F0EC0100F00302F2
:101CC0000A43410748BF42F010029A70124900F0DF
:101CD0000F02042A02BF8A7942F040028A715A79BF
:101CE000C30602F0EF020C4B48BF42F010025A71DB
:101CF0009A79810602F0EF0248BF42F010029A7111
:101D0000C305054906D54B780A78DBB242F02002BC
:101D10000A704B70704700BF00D006401F4B1B6815
:101D20009B0410B500D410BD1D4C237803F0FF01B7
:101D300013B102F06FFAF8E71A4B1B481B4C202234
:101D40001A601B4BD970A3F50B33A3F5757340F2E2
:101D5000031202601A6024781F2C04D03F2C03D198
:101D6000144A116000E00260134A127802F07F0208
:101D7000202A04D03E2A05D10022104B01E040F277
:101D800003121A600E4A002313700E4A13700E4B92
:101D90001B680BB101221A7010BD00BF34800440D3
:101DA0000412FF1F84E100E028A004400407FF1F85
:101DB00000D0064014D004400507FF1F10D0044097
:101DC0006E12FF1F0512FF1F0012FF1F0A4A38B5CF
:101DD0000446137803F0FF05002BFAD101212046B9
:101DE00000F004FA2946204600F0E0F9034B53F8CE
:101DF0003420034B1A6038BD0412FF1F6C7B0000B7
:101E00007012FF1F10B509B140F08000144A13781A
:101E10009842144622D0134A126892041DD503F04A
:101E20007F03202B04D03E2B05D100220E4B01E076
:101E30000E4B00221A60002900F07F0214BF6023BD
:101E40004423202A05D03E2A07D143F44073064A92
:101E500002E0064A43F440731360207010BD00BFD7
:101E60000507FF1F3480044010D004402CA004401C
:101E70000F4B1A7882421AD00E490968890415D589
:101E80001F2A04D03F2A05D100210B4A01E00B4A4A
:101E9000002111601F2805D03F2807D140F21331DF
:101EA000054A02E0054A40F213311160187070478C
:101EB0000407FF1F3480044014D0044028A00440CD
:101EC00038B50D4B1B6813F400534FF0000410D0CD
:101ED0003F280A4D0AD80A4B012153F830302B60B5
:101EE00000F084F92B681C70012038BD2C6020465E
:101EF00038BD184638BD00BF348004400012FF1FB3
:101F00006C7B0000002070472DE9F8431F4B1B68D5
:101F10009A04064637D51E4B1B680BB101221A7076
:101F20001C4DDFF880902C781B4F0134282C28BFE3
:101F30000024C84699F80030A34219D1FFF73CFEAF
:101F4000402810DC3B791B06F4D599F80030134A81
:101F50000133282B28BF0023D25CDBB2D2B2FA7146
:101F600088F80030E6E7FF28E4DD02F053F9E1E706
:101F70000A4BF6B21E550A4B01221A70064BE4B208
:101F8000AC222C70DA70BDE8F88300BF34800440C6
:101F90007012FF1F7412FF1F00D006400612FF1FB1
:101FA0000412FF1F6F12FF1F38B504464518AC42DC
:101FB00004D014F8010BFFF7A7FFF8E738BDFFFFC7
:101FC00010B5034C237813B102F024F9FAE710BDE1
:101FD0000412FF1F064B1878064B1A78C0B2D3B212
:101FE00098422CBF273303F1FF33181A704700BF04
:101FF0007412FF1F6F12FF1F054B1878054B1A78DC
:10200000C0B2D3B2984238BF4030C01A704700BF48
:102010006E12FF1F0512FF1F10B5104B104C1B78DE
:102020002278D9B2D2B2914214D0531C402B28BF8F
:1020300000230C4AD05CDAB222700B4A1268C0B29C
:1020400052B18B4288BF4031CB1A1A2B04DC0023DB
:10205000137010BD4FF0FF3010BD00BF6E12FF1F98
:102060000512FF1F2E12FF1F0012FF1F084B1A78C8
:10207000084B1B78DBB29A4207D00133402B28BFB4
:102080000023054AD05CC0B270474FF0FF30704764
:102090006E12FF1F0512FF1F2E12FF1F054B064A6F
:1020A0001B78DBB21370054B1B680BB100221A7052
:1020B000704700BF0512FF1F6E12FF1F0012FF1FA7
:1020C00010B5284B1A79920620D52749DA790B7872
:1020D0002648013300783F2BC8BF0023834218BF36
:1020E0002348D2B21EBFC254DAB20A70214A116824
:1020F00061B1214A1278D2B2934236BFC2F1400296
:102100009B1A9B18272BC4BF01230B701549CA7853
:10211000D2B2140616D50B79180613D5174B164CE8
:1021200018782378DBB2984202D16C23CB7009E097
:102130000133282B28BF00231148C05CDBB2C0B29A
:10214000C871237051060CD5064B1A79520608D572
:102150000C4A002111700C4A126802B111702C2235
:10216000DA7010BD00D006406E12FF1F0512FF1F6F
:102170002E12FF1F0012FF1F6F12FF1F7412FF1F8E
:102180000612FF1F0412FF1F7012FF1F044B0549A8
:1021900000221A600A60044A106010221A60704718
:1021A00014D0034004D0034000D003403F2810B5B2
:1021B00018D80D4B53F8302092F880423CB10123DF
:1021C00011B182F8803010BD82F8003110BD03EBF0
:1021D000C0035B681A6811B142F0030201E022F00B
:1021E00002021A6010BD00BF6C7B00003F2810B5D2
:1021F00037D81C4A02EBC00301295B68144601D0A2
:1022000004290FD154F83020012082F880024FF4C5
:10221000A2721A601A6804290CBF42F0200222F050
:1022200020021DE052F83020002082F8800211B117
:102230008A1E012A12D84FF4807202291A6003D133
:102240001A6842F003020BE003290AD11A6842F02F
:1022500002021A601A6822F0010201E040F2031241
:102260001A6010BD6C7B000072B60B4B0B4A0C4918
:102270001B681268096862B6490102D5322B88BF13
:102280000132C3F53B4330207F33B3FBF0F34FF40F
:102290007A7000FB0230704718E000E07812FF1FF0
:1022A00004ED00E038B50446FFF7DEFF054624B92B
:1022B00038BD013C0AD005F57A75FFF7D5FF401B04
:1022C000B0F57A7FF5D201F0A5FFF6E738BDFFFF44
:1022D0002A4B4FF0006270B51A604FF080521A60BE
:1022E0004FF000521A604FF080421A604FF00042E7
:1022F0001A60234B234A244D244C254E4BF6FF7184
:102300000020186059602823136093601361936163
:102310001362936213639363103202F501222B6000
:1023200023601360936013619361136293620922C7
:10233000326006F58056043630607160B3603361F8
:1023400046F8042C06F5FE2630607160B3603361F8
:1023500046F8042C06F5805630600E4801602B606C
:1023600023600D4B1A6000F011FB4FF4C870FFF7AB
:1023700099FFBDE87040FEF711BF00BF04E100E027
:10238000048003400C8003400C900B4014900B40E1
:102390000080034008900B4000900B40164A1368E1
:1023A00043F480631360154A00231370144A1370BA
:1023B000144A1370144A1370144A1370144A40F2EA
:1023C000133111604FF4517142F8041C114AC0F3EB
:1023D00044311170C0F3471100F01F00517090722A
:1023E000937013742C23D3700B4B40221A70A3F2FA
:1023F0003A3304221A60704728800440EA12FF1F13
:102400008112FF1FF012FF1FEB12FF1F8012FF1F30
:1024100064D0044000A00E4042E400E0184B9A78DB
:1024200002F0EC0100F003020A43410748BF42F00A
:1024300010029A70124900F00F02042A02BF8A7932
:1024400042F040028A715A79C30602F0EF020C4B47
:1024500048BF42F010025A719A79810602F0EF02E9
:1024600048BF42F010029A71C305054906D54B7862
:102470000A78DBB242F020020A704B70704700BF4E
:1024800000A00E40114B1B685B0510B500D410BDB9
:102490000F4C227802F0FF0312B101F0BBFEF8E707
:1024A0000C4A042111600C4A0C49D37040F203120B
:1024B0000A6041F8042C0A4A13700A4A13700A4B46
:1024C0001B680BB101221A7010BD00BF28800440A8
:1024D0008012FF1F88E100E000A00E4064D004409D
:1024E000EA12FF1F8112FF1F7C12FF1F0A4A38B534
:1024F0000446137803F0FF05002BFAD10121204692
:10250000FFF774FE29462046FFF750FE034B53F8B1
:102510003420034B1A6038BD8012FF1F6C7B000013
:10252000EC12FF1F10B509B140F080000E4B1A7875
:10253000904217D00D4C2468E40412D502F07F02BB
:10254000212A02BF0A4A00241460002900F07F01FA
:102550000CBF44226022212902BF054942F4407287
:102560000A60187010BD00BF0607FF1F34800440CA
:1025700060D004407047FFFF38B50D4B1B6813F463
:1025800080634FF0000410D03F280A4D0AD80A4B50
:10259000012153F830302B60FFF728FE2B681C70A8
:1025A000012038BD2C60204638BD184638BD00BF1C
:1025B000288004407C12FF1F6C7B00000B4B1B68C3
:1025C00013F4806310D01828094B09D1094A40F24E
:1025D000023111605A7B42F001025A7301207047A8
:1025E0005A7B02F0FE025A73002070472880044094
:1025F00000A00E4068D004402DE9F8431F4B1B6833
:102600005A05064637D51E4B1B680BB101221A70BE
:102610001C4DDFF880902C781B4F0134282C28BFEC
:102620000024C84699F80030A34219D1FFF7C4FA34
:10263000402810DC3B791B06F4D599F80030134A8A
:102640000133282B28BF0023D25CDBB2D2B2FA714F
:1026500088F80030E6E7FF28E4DD01F0DBFDE1E784
:102660000A4BF6B21E550A4B01221A70064BE4B211
:10267000AC222C70DA70BDE8F88300BF28800440DB
:10268000EC12FF1FF012FF1F00A00E408212FF1F6E
:102690008012FF1FEB12FF1F38B504464518AC42ED
:1026A00004D014F8010BFFF7A7FFF8E738BDFFFFD0
:1026B00010B5034C237813B101F0ACFDFAE710BD5F
:1026C0008012FF1F064B1878064B1A78C0B2D3B29F
:1026D00098422CBF273303F1FF33181A704700BF0D
:1026E000F012FF1FEB12FF1F054B1878054B1A78ED
:1026F000C0B2D3B2984238BF4030C01A704700BF52
:10270000EA12FF1F8112FF1F10B5104B104C1B78EF
:102710002278D9B2D2B2914214D0531C402B28BF98
:1027200000230C4AD05CDAB222700B4A1268C0B2A5
:1027300052B18B4288BF4031CB1A1A2B04DC0023E4
:10274000137010BD4FF0FF3010BD00BFEA12FF1F25
:102750008112FF1FAA12FF1F7C12FF1F084B1A785D
:10276000084B1B78DBB29A4207D00133402B28BFBD
:102770000023054AD05CC0B270474FF0FF3070476D
:10278000EA12FF1F8112FF1FAA12FF1F054B064A04
:102790001B78DBB21370054B1B680BB100221A705B
:1027A000704700BF8112FF1FEA12FF1F7C12FF1F3C
:1027B00010B5284B1A79920620D52749DA790B787B
:1027C0002648013300783F2BC8BF0023834218BF3F
:1027D0002348D2B21EBFC254DAB20A70214A11682D
:1027E00061B1214A1278D2B2934236BFC2F140029F
:1027F0009B1A9B18272BC4BF01230B701549CA785D
:10280000D2B2140616D50B79180613D5174B164CF1
:1028100018782378DBB2984202D16C23CB7009E0A0
:102820000133282B28BF00231148C05CDBB2C0B2A3
:10283000C871237051060CD5064B1A79520608D57B
:102840000C4A002111700C4A126802B111702C223E
:10285000DA7010BD00A00E40EA12FF1F8112FF1FA8
:10286000AA12FF1F7C12FF1FEB12FF1FF012FF1FA7
:102870008212FF1F8012FF1FEC12FF1FF0B5374AB4
:10288000374B11680906FCD4196811F08001F8D1A2
:1028900072B634480378002B5DD0334B334A1F683F
:1028A00004330C321B6852F80C6C52F8085C52F876
:1028B000044C12683B4433442B4423441344C3F375
:1028C0004E032B4A43F4004313602A4B1F68043322
:1028D00040321B6852F80C6C52F8085C52F8044CF9
:1028E00012683B4433442B4423441344C3F34E0344
:1028F000214A43F400431360204B02F500221F6875
:10290000043310321B681668556894683B440C32D7
:10291000334412682B4423441344C3F34E03184A30
:1029200043F400431360174B1F68043340321B68A5
:1029300052F80C6C52F8085C52F8044C12683B4494
:1029400033442B4423441344C3F34E030E4A43F44D
:1029500000431360017062B6F0BD00BF24B00340B5
:1029600024B00B40F212FF1F38B0034040B00340C8
:102970002CB0034058B0034030B0034038B00B4097
:102980002CB00B4058B00B4030B00B4010B5204B72
:102990002048214960221A70E1225A701F4B204AB8
:1029A0001C78204B082C01D1012402E00A2C03D111
:1029B00039240460132005E00C2C0CBF35243D2481
:1029C00004601220086014601860174B17491B78C8
:1029D000174A03B101230B601360164B164A19788E
:1029E000164B012901D880210BE0042901D884214C
:1029F00007E0082901D8852103E0102994BF86212A
:102A00008721116019600E4B01221A7010BD00BFA2
:102A10000040074008B003400CB003400707FF1F09
:102A200008B00B400CB00B40F512FF1F20B0034064
:102A300020B00B400807FF1F24B0034024B00B4018
:102A4000F212FF1F47282DE9F04150D8294B1C5C9A
:102A5000FF2C4CD0284B1B780BB1FFF70FFF210642
:102A600017D472B6254E264F346001233B7062B6F0
:102A7000234D72B633681A0604D5224B00221B6818
:102A80002A7026E02B78002BEED062B601F0C2FB54
:102A9000EFE772B61C4EDFF8808004F04007FFB20B
:102AA00004F03F05336817B123F0100301E043F051
:102AB0001003164C33600123C8F80050237062B62F
:102AC00072B6D8F800301B060AD5114B00221B68DD
:102AD000227062B60F4A107843FA00F0BDE8F08128
:102AE0002378002BDED062B601F094FBE8E70020EB
:102AF000BDE8F0816C7D0000F212FF1F00B00340C2
:102B0000F412FF1F10B003400CB00B40F312FF1F74
:102B100010B00B40F112FF1F00B00B40164A1368B3
:102B200043F400631360154A00231370144A1370B2
:102B3000144A1370144A1370144A1370144A40F262
:102B4000133111604FF451715160124AC0F3443196
:102B50001170C0F3471100F01F0051709072937014
:102B600013742C23D3700C4B40221A70A3F54F73AF
:102B700010221A60704700BF288004406613FF1FB0
:102B8000FD12FF1F6C13FF1F6713FF1FFC12FF1FB7
:102B900020C0044000B00E4044E400E0184B9A7896
:102BA00002F0EC0100F003020A43410748BF42F083
:102BB00010029A70124900F00F02042A02BF8A79AB
:102BC00042F040028A715A79C30602F0EF020C4BC0
:102BD00048BF42F010025A719A79810602F0EF0262
:102BE00048BF42F010029A71C305054906D54B78DB
:102BF0000A78DBB242F020020A704B70704700BFC7
:102C000000B00E40104B1B681B0510B500D410BD62
:102C10000E4C227802F0FF0312B101F0FBFAF8E744
:102C20000B4A102111600B4A0B49D37040F203127A
:102C30000A604A60094A1370094A1370094B1B68FD
:102C40000BB101221A7010BD28800440FC12FF1F36
:102C500088E100E000B00E4020C004406613FF1F72
:102C6000FD12FF1FF812FF1F0A4A38B504461378F9
:102C700003F0FF05002BFAD101212046FFF7B6FA39
:102C800029462046FFF792FA034B53F83420034BB2
:102C90001A6038BDFC12FF1F6C7B00006813FF1F19
:102CA00010B509B140F080000E4B1A78904217D051
:102CB0000D4C2468E40412D502F07F02302A02BFD2
:102CC0000A4A00241460002900F07F010CBF44224E
:102CD0006022302902BF054942F440720A60187030
:102CE00010BD00BF0907FF1F3480044024C004400A
:102CF0007047FFFF38B50D4B1B6813F400634FF0AE
:102D0000000410D03F280A4D0AD80A4B012153F87D
:102D100030302B60FFF76AFA2B681C70012038BD39
:102D20002C60204638BD184638BD00BF28800440BE
:102D3000F812FF1F6C7B00000B4B1B6813F4006341
:102D400010D03828094B09D1094A40F202311160EC
:102D50005A7B42F001025A73012070475A7B02F0FD
:102D6000FE025A73002070472880044000B00E40D5
:102D700028D004402DE9F8431F4B1B681A0506466E
:102D800037D51E4B1B680BB101221A701C4DDFF8A2
:102D900080902C781B4F0134282C28BF0024C84673
:102DA00099F80030A34219D1FEF706FF402810DC45
:102DB0003B791B06F4D599F80030134A0133282BD0
:102DC00028BF0023D25CDBB2D2B2FA7188F800309F
:102DD000E6E7FF28E4DD01F01DFAE1E70A4BF6B271
:102DE0001E550A4B01221A70064BE4B2AC222C701D
:102DF000DA70BDE8F88300BF288004406813FF1F25
:102E00006C13FF1F00B00E40FE12FF1FFC12FF1FCD
:102E10006713FF1F38B504464518AC4204D014F8B8
:102E2000010BFFF7A7FFF8E738BDFFFF10B5034C14
:102E3000237813B101F0EEF9FAE710BDFC12FF1F81
:102E4000064B1878064B1A78C0B2D3B298422CBF02
:102E5000273303F1FF33181A704700BF6C13FF1FAD
:102E60006713FF1F054B1878054B1A78C0B2D3B211
:102E7000984238BF4030C01A704700BF6613FF1F2A
:102E8000FD12FF1F10B5104B104C1B782278D9B2E1
:102E9000D2B2914214D0531C402B28BF00230C4ABD
:102EA000D05CDAB222700B4A1268C0B252B18B42C7
:102EB00088BF4031CB1A1A2B04DC0023137010BDDD
:102EC0004FF0FF3010BD00BF6613FF1FFD12FF1F44
:102ED0002613FF1FF812FF1F084B1A78084B1B78A8
:102EE000DBB29A4207D00133402B28BF0023054AAA
:102EF000D05CC0B270474FF0FF3070476613FF1FC1
:102F0000FD12FF1F2613FF1F054B064A1B78DBB27D
:102F10001370054B1B680BB100221A70704700BF7D
:102F2000FD12FF1F6613FF1FF812FF1F10B5284B7D
:102F30001A79920620D52749DA790B782648013389
:102F400000783F2BC8BF0023834218BF2348D2B26A
:102F50001EBFC254DAB20A70214A116861B1214A17
:102F60001278D2B2934236BFC2F140029B1A9B182C
:102F7000272BC4BF01230B701549CA78D2B214069F
:102F800016D50B79180613D5174B164C18782378DD
:102F9000DBB2984202D16C23CB7009E00133282BBD
:102FA00028BF00231148C05CDBB2C0B2C8712370D7
:102FB00051060CD5064B1A79520608D50C4A002149
:102FC00011700C4A126802B111702C22DA7010BD17
:102FD00000B00E406613FF1FFD12FF1F2613FF1FD8
:102FE000F812FF1F6713FF1F6C13FF1FFE12FF1F56
:102FF000FC12FF1F6813FF1F1FB572B6134B144955
:1030000070221A70134A116080221A701A78120600
:10301000FCD5114B186862B6104B984298BF0A2332
:1030200001AC98BF58430A222146FEF7FFF80C4A2C
:103030000023E15C21B101330A2B22F8021BF8D1F5
:10304000084A01335B00137004B010BD0000024059
:1030500000000741040002400C0002407F969800E7
:103060009407FF1F9207FF1F294A136843F4006368
:103070001360284A00231370274A1370274A1370DD
:10308000274A1370274A1370274B1B781A2B07D037
:103090003B2B09D0092B0BD140F21332234B06E016
:1030A00040F21332224B02E0224B40F213321A60FC
:1030B000214B1B781F2B07D03A2B09D00A2B0BD1A1
:1030C0004FF451721D4B06E04FF451721C4B02E05D
:1030D0001C4B4FF451721A601B4BC0F344321A70F0
:1030E000C0F347125A700421022200F01F009872A8
:1030F0009970DA745975882119743C21D970134B71
:10310000402119706FF447710B441A60704700BF7B
:1031100034800440DE13FF1F7513FF1FE413FF1FED
:10312000DF13FF1F7413FF1FA807FF1F0CB004401D
:103130003890044004D00440A907FF1F10B0044099
:1031400028A0044000D0044000B0064021E400E084
:10315000184B9A7802F0EC0100F003020A43410791
:1031600048BF42F010029A70124900F00F02042A80
:1031700002BF8A7942F040028A715A79C30602F08E
:10318000EF020C4B48BF42F010025A719A79810647
:1031900002F0EF0248BF42F010029A71C3050549E0
:1031A00006D54B780A78DBB242F020020A704B70E9
:1031B000704700BF00B006401C4B1B681B0510B5D4
:1031C00000D410BD1A4C227802F0FF0312B101F0B6
:1031D00021F8F8E7174A02211160174AD370174AFD
:1031E0001278092A04D03B2A06D1154A136003E05D
:1031F000144B40F203121A60134B1B7803F07F0349
:103200000A2B04D03A2B06D10022104B02E0104BBF
:1032100040F203121A600F4A002313700E4A137013
:103220000E4B1B680BB101221A7010BD3480044094
:103230007413FF1F84E100E000B00640A807FF1FE1
:1032400004D004400CB00440A907FF1F00D0044084
:1032500010B00440DE13FF1F7513FF1F7013FF1F14
:103260000A4A38B50446137803F0FF05002BFAD15B
:1032700001212046FEF7BAFF29462046FEF796FFB9
:10328000034B53F83420034B1A6038BD7413FF1FEF
:103290006C7B0000E013FF1F10B509B140F0800007
:1032A000144A13789842144622D0134A1268120521
:1032B0001DD503F07F030A2B04D03A2B05D1002241
:1032C0000E4B01E00E4B00221A60002900F07F0235
:1032D00014BF602344230A2A05D03A2A07D143F4B5
:1032E0004073064A02E0064A43F4407313602070BC
:1032F00010BD00BFA907FF1F3480044000D0044068
:1033000010B004400F4B1A7882421AD00E49096857
:10331000090515D5092A04D03B2A05D100210B4AFD
:1033200001E00B4A00211160092805D03B2807D194
:1033300040F21331054A02E0054A40F213311160B0
:1033400018707047A807FF1F3480044004D0044061
:103350000CB0044038B50D4B1B6813F400634FF0FC
:10336000000410D03F280A4D0AD80A4B012153F817
:1033700030302B60FEF73AFF2B681C70012038BDFF
:103380002C60204638BD184638BD00BF348004404C
:103390007013FF1F6C7B00000E4B1B6813F400635F
:1033A00016D017280C4B03D140F202310B4A04E02F
:1033B0003C2809D10A4A40F2023111605A7B42F09E
:1033C00001025A73012070475A7B02F0FE025A73C1
:1033D000002070473480044000B0064008B004402C
:1033E00008D004402DE9F8431F4B1B681A05064618
:1033F00037D51E4B1B680BB101221A701C4DDFF82C
:1034000080902C781B4F0134282C28BF0024C846FC
:1034100099F800309C4219D1FEF7CEFB402810DC11
:103420003B791B06F4D599F80030134A0133282B59
:1034300028BF0023D25CDBB2D2B2FA7188F8003028
:10344000E6E7FF28E4DD00F0E5FEE1E70A4BF6B22F
:103450001E550A4B01221A70064BE4B2BC222C7096
:10346000DA70BDE8F88300BF34800440E013FF1F2A
:10347000E413FF1F00B006407613FF1F7413FF1FF5
:10348000DF13FF1F2DE9F84F264B1B681A05064670
:10349000884645D5244B1B680BB101221A70234F77
:1034A000B246B94606EB08039A4536D23C78204B23
:1034B000DFF87CB01B780134282C28BF00249C4204
:1034C0000AD01C4B1AF8011B19551B4B0121E4B201
:1034D000197089F80040E5E7184DBC23EB70FEF742
:1034E0006BFB402810DC2B791B0611D59BF80030B4
:1034F000104A0133282B28BF0023D05CDBB2C0B2B6
:10350000E8718BF8003003E0FF2801DD00F082FE57
:103510009BF800309C42E2D0D3E7084BBC22DA7023
:10352000BDE8F88F34800440E013FF1FE413FF1F51
:10353000DF13FF1F7613FF1F7413FF1F00B0064039
:1035400010B5034C237813B100F064FEFAE710BD08
:103550007413FF1F064B1878064B1A78C0B2D3B20B
:1035600098422CBF273303F1FF33181A704700BF6E
:10357000E413FF1FDF13FF1F054B1878054B1A7864
:10358000C0B2D3B2984238BF4030C01A704700BFB3
:10359000DE13FF1F7513FF1F10B5104B104C1B7867
:1035A0002278D9B2D2B2914214D0531C402B28BFFA
:1035B00000230C4AD05CDAB222700B4A1268C0B207
:1035C00052B18B4288BF4031CB1A1A2B04DC002346
:1035D000137010BD4FF0FF3010BD00BFDE13FF1F92
:1035E0007513FF1F9E13FF1F7013FF1F084B1A78E0
:1035F000084B1B78DBB29A4207D00133402B28BF1F
:103600000023054AD05CC0B270474FF0FF307047CE
:10361000DE13FF1F7513FF1F9E13FF1F0C4B1B684C
:103620001B0514D50B4BDA7802F0CB02DA7040227E
:103630005A74DA7842F03402DA70074B074A1B7882
:10364000DBB21370064B1B680BB100221A70704777
:103650003480044000B006407513FF1FDE13FF1FC7
:103660007013FF1FF0B534490B7913F0300F2FD0D2
:1036700072B68B7D03F0FF0423B9CB7940234B74E2
:1036800062B625E062B62D482D4A037812782D4F98
:10369000DBB2D2B20546581C4028CE7928BF0020A4
:1036A0009042F6B21CBF3E540346601E10F0FF0469
:1036B000F1D1D9B229702449096849B1934236BF82
:1036C000C2F140029B1A9B18272BC4BF01230B7029
:1036D000194AD178C9B20D061ED513791C061BD51F
:1036E0001A4B1B481D7803781A4EEDB2DBB2AB4281
:1036F0000AD00133282B28BF00231479F45CE4B2EC
:10370000D471147D072CF2D9DBB203700A4B1A79FD
:10371000100644BF7C22DA7049060CD5064B1A7994
:10372000520608D50C4A002111700C4A126802B1E9
:1037300011703C22DA70F0BD00B00640DE13FF1FAE
:103740007513FF1F9E13FF1F7013FF1FE413FF1F4E
:10375000DF13FF1F7613FF1F7413FF1FE013FF1FFC
:1037600010B5104C23686BB1206843885A1C034481
:103770001C7A03889A4212D300F044F9094B0022C4
:103780001A600DE0084B1B7813B94FF0FF3010BDE5
:103790000320FDF74FF920600028E5D1F5E74280CE
:1037A000204610BDF013FF1F6711FF1F10B50B4C13
:1037B000236813B122686AB902E0094B1B7813B978
:1037C0004FF0FF3010BD0320FDF734F920600028D2
:1037D000F0D1F5E753881344187A10BDF013FF1F9A
:1037E0006711FF1F044B9888044B1A681AB113889D
:1037F00052889B1A18447047601BFF1FF013FF1F6D
:1038000010B5094B1B786BB1084C206818B100F05B
:10381000F9F8002323600320FDF70CF910B100F044
:10382000F1F8F8E710BD00BF6711FF1FF013FF1F8D
:103830002DE9F84F304DDFF8D080012381460C464A
:103840002B704646002C52D0D8F8003043BBDFF82E
:10385000A8A0DFF8ACB047F20957284B1B7803F05B
:10386000FF010BB9297014E00420FDF7FFF80728C9
:1038700007D801232B7000F0A7F8306080B98AF8D0
:103880000000013F02D09BF8003033B11C4B0122F5
:103890001A704FF0FF30BDE8F88F00F0BBFCDCE79A
:1038A000174B0021197031684B88C3F14000A042CA
:1038B00028BF20461F180B444F80241A073309EBFA
:1038C0000007B94504D019F8010B03F8010FF8E718
:1038D0004B883F2B06D940230B800420FDF714F9B9
:1038E00000233360074B05221A70B946AAE72C70F3
:1038F0002046BDE8F88F00BFE613FF1F6711FF1FCA
:10390000EC13FF1FE513FF1FE813FF1F07B502AB02
:10391000012103F8010D1846FFF78AFF03B05DF897
:1039200004FBFFFF2DE9F041114B1B78F3B1114F60
:10393000114B3C68114D01261E7098464CB1002673
:1039400063882E70214623800420FDF7DDF83E6059
:1039500009E000F039F8014620B104202C70FDF791
:10396000D3F800E02E70002388F80030BDE8F08125
:103970006711FF1FE813FF1FE613FF1FE513FF1F6B
:1039800038B50E4B1B7803F0FF05ABB90C4C216822
:1039900031B14B880B800420FDF7B6F8256038BDA7
:1039A00000F012F8014620B10420BDE83840FDF7D0
:1039B000ABB8044B01221A7038BD00BFE613FF1FDD
:1039C000E813FF1FE513FF1F10B572B60B4802681E
:1039D000B2FA82F10B2902DD62B6002010BD4FF071
:1039E0000043CB4022EA0302026062B6044C482343
:1039F0004B43E0180022E250426010BDAC07FF1FAD
:103A00009803FF1F0C4B4822C31AB3FBF2F30B2B96
:103A100011D80A4A127822B1094A12780AB1FDF780
:103A200037B872B607494FF0004222FA03F30A682A
:103A30001A430A6062B670479803FF1F5E11FF1FAA
:103A40006711FF1FAC07FF1F10B50446006801F0A7
:103A500077FC204610BD38B504460D46006801319C
:103A600002F07EF810B184E82100012038BD4368DF
:103A70008B4210B5044606D2FFF7EDFF20B1A368D4
:103A80000BB922681370012010BDF8B504460F462B
:103A9000154622B9036803B11A7000230BE01146E2
:103AA000FFF7E5FF064640B9206810B101F048FC79
:103AB000266000236360A36004E0A56039462068A7
:103AC00002F058FA2046F8BD38B5002304460360DA
:103AD0004360836003730D4639B1084602F0B0FAC3
:103AE000294602462046FFF7D0FF204638BD8142D6
:103AF00003D08A680968FFF7C8BF704710B5002374
:103B000004460360436083600373FFF7F0FF2046C1
:103B100010BD2DE9F843036885688B4204460E46C4
:103B2000904606D85A19914203D2C3EB01090127E6
:103B300000E00027B8F1000F17D045442946204681
:103B4000FFF795FF88B1A06823684FB1424603EBA9
:103B50000901184401F0B4FE236800225A5503E01D
:103B60003146184402F006FAA5602046BDE8F88305
:103B700010B588B004466A4602210420FDF776FBA2
:103B8000684602F05DFA694602462046FFF7C1FF2B
:103B9000204608B010BD10B50446FFF7E9FF2046E7
:103BA00010BD0368C9B21B6818470368C9B21B6817
:103BB00018470368C9B21B6818470368C9B21B6875
:103BC00018470368C9B21B6818470368C9B21B6865
:103BD00018470368C9B21B6818470368C9B21B6855
:103BE000184708B50846FFF7C5F8012008BD08B515
:103BF0000846FFF7BFF8012008BD38B508460D4656
:103C000002F01EFA044601462846FFF703F9204653
:103C100038BD10B5084614461146FFF7FBF820469C
:103C200010BDFFF70DB9FFF76FB908B50846FFF7EC
:103C300083F8003018BF012008BD08B50846FFF71B
:103C400059F8003018BF012008BD08461146FFF79B
:103C500027B80846FFF74CB80846FFF705B8FEF747
:103C6000D1BF4B0803F1B76000F55840B0FBF1F04D
:103C7000FEF754BF10B54B0803F1B760144600F5CA
:103C80005840B0FBF1F0FEF749FF2046BDE8104078
:103C9000FEF784BFFFF7CAB8FFF71EB9FFF7F2B807
:103CA000FFF7E0B808B50846FDF79AFD012008BD0A
:103CB00008B50846FDF794FD012008BD38B5084653
:103CC0000D4602F0BDF9044601462846FDF7D8FD31
:103CD000204638BD10B5084614461146FDF7D0FD04
:103CE000204610BDFDF734BEFDF796BE08B5084668
:103CF000FDF750FD003018BF012008BD08B508468B
:103D0000FDF726FD003018BF012008BD084611460A
:103D1000FDF7A8BC0846FDF7E7BC0846FDF786BCE2
:103D2000FDF750BC4B0803F1B76000F55840B0FBFD
:103D3000F1F0FDF79FBB10B54B0803F1B7601446D7
:103D400000F55840B0FBF1F0FDF794FB2046BDE8CC
:103D50001040FDF703BCFDF7F1BDFDF745BEFDF7D3
:103D600019BEFDF707BE7047044B00221A714FF4CD
:103D70007A711A73024A99601A607047F813FF1F2C
:103D8000147E00007047FFFF044B00221A714FF4AD
:103D90007A711A73024A99601A6070470814FF1FFB
:103DA000747E000070B5044608460D4602F048F9DE
:103DB00023680246294620465B68BDE870401847E4
:103DC00007B5064B1B88ADF80430036802225B6818
:103DD00001A9984703B05DF804FB00BFCC7E00004A
:103DE00070B505468AB022B90368C9B21B68984706
:103DF0002FE0012A08BF0A2209B1212004E0302265
:103E00008DF82520212014E0B1FBF2F602FB1611FB
:103E1000CCB2092994BF04F1300104F137010AAC96
:103E20000444C9B204F8241C314616B10138C0B2AA
:103E3000EAE733B10138C0B20AAB03442D2203F8DC
:103E4000242C2B6801A9C0F1220201445B6828469A
:103E500098470AB070BD0029BABF49422D230023FC
:103E60000A22FFF7BDBFFFF7CBBCFFF75BBDFFF733
:103E70009DBCFFF775BCFFF7B5BC08461146FFF7C0
:103E8000D7BC0846FFF742BD7047FFFF044B002236
:103E90001A714FF47A711A73024A99601A60704766
:103EA0001814FF1FD87E00000368C9B21B681847AA
:103EB0000368C9B21B6818470368C9B21B68184772
:103EC0000368C9B21B68184708B50846FEF71CF816
:103ED000012008BD08B50846FEF716F8012008BD08
:103EE00038B508460D4602F0ABF8044601462846B0
:103EF000FEF75AF8204638BD10B50846144611465C
:103F0000FEF752F8204610BDFEF764B8FEF7C6B8BB
:103F100008B50846FDF7F6FF003018BF012008BDC0
:103F200008B50846FDF7CCFF003018BF012008BDDA
:103F300008461146FDF766BF0846FDF799BF0846DB
:103F4000FDF744BFFDF7EABE4B0803F1B76000F58B
:103F50005840B0FBF1F0FDF74DBE10B54B0803F132
:103F6000B760144600F55840B0FBF1F0FDF742FE93
:103F70002046BDE81040FDF79DBEFEF721B8FEF7D4
:103F800075B8FEF749B8FEF737B87047044B002202
:103F90001A714FF47A711A73024A99601A60704765
:103FA0002814FF1FFC7E0000024B01221A60024B06
:103FB0001B6818470C7103404014FF1F024B01227D
:103FC0001A60024B5B6818471C7103404014FF1FC6
:103FD000024B01221A60024B9B6818472C71034068
:103FE0004014FF1F024B01221A60024BDB68184786
:103FF0003C7103404014FF1F054B01221A60054A23
:10400000136823F400031360034B00221A707047F7
:10401000007003403C8004403C14FF1F8268002372
:1040200010B41360027B0121541102F01F0201FA47
:1040300002F2094941F82420084A41785354D15CDE
:1040400031B90133042BFAD15DF8044BFFF7D4BF2B
:104050005DF8044B704700BF80E100E03814FF1F9B
:10406000037810B504460BB1FFF7D8FF0023237087
:1040700010BD0368C9B21B6818470368C9B21B6842
:1040800018470368C9B21B6818470368C9B21B68A0
:10409000184708B50846FFF7A5F9012008BD08B57F
:1040A0000846FFF79FF9012008BD38B508460D46C0
:1040B00001F0C6FF044601462846FFF7E3F9204613
:1040C00038BD10B5084614461146FFF7DBF9204607
:1040D00010BDFFF73FBAFFF7A1BA08B50846FFF7D2
:1040E0005BF9003018BF012008BD08B50846FFF78E
:1040F00031F9003018BF012008BD08461146FFF70E
:10410000CBB80846FFF7FEB80846FFF7A9B8FFF797
:1041100053B84B0803F1B76000F55840B0FBF1F01D
:10412000FEF7A2BF10B54B0803F1B760144600F5C7
:104130005840B0FBF1F0FEF797FF2046BDE8104075
:10414000FFF706B8FFF7FCB9FFF750BAFFF724BA3C
:10415000FFF712BA7047FFFF044B00221A714FF4A9
:104160007A711A73024A99601A6070475014FF1FDF
:104170005C7F000010B50446FFF772FF204610BDBB
:104180000448054A0549002303708023437301F066
:1041900089B800BF6014FF1FF806FF1F75410000BB
:1041A000164AF8B51368164D43F080731360154A2C
:1041B000136843F001031360134B2E681C688CB125
:1041C000237A6BB123682F681B68204698472A68BA
:1041D000E388D21B120991B29A42A18088BFE18084
:1041E0006469ECE72B68094A9B1B1B0999B2118093
:1041F000074A1088834288BF1180F8BDFCED00E0BB
:10420000041000E0001000E07414FF1F7A14FF1F78
:104210007814FF1F10B5154C237833BB012323708E
:10422000FFF7E0FA08B1FFF72FFEFDF7A3FB08B197
:10423000FFF7A8FDFFF7A0F908B1FFF78BFFFCF728
:104240000FFB08B100F005F9FDF7D6FE08B1FFF746
:104250009CFEFEF749FA08B100F07BF8FEF702FE7B
:1042600008B1FFF780FD0023237010BD7C14FF1FF1
:104270000368C9B21B6818470368C9B21B681847AE
:104280000368C9B21B6818470368C9B21B6818479E
:1042900008B50846FEF7B0F9012008BD08B5084684
:1042A000FEF7AAF9012008BD38B508460D4601F011
:1042B000C7FE044601462846FEF7EEF9204638BD03
:1042C00010B5084614461146FEF7E6F9204610BD23
:1042D000FEF7F8B9FEF75ABA08B50846FEF76EF9C8
:1042E000003018BF012008BD08B50846FEF744F9A4
:1042F000003018BF012008BD08461146FEF712B96C
:104300000846FEF737B90846FEF7F0B8FEF7BAB828
:104310004B0803F1B76000F55840B0FBF1F0FEF731
:104320003DB810B54B0803F1B760144600F558408E
:10433000B0FBF1F0FEF732F82046BDE81040FEF782
:104340006DB8FEF7B5B9FEF709BAFEF7DDB9FEF7AD
:10435000CBB97047044B00221A714FF47A711A736B
:10436000024A99601A6070478014FF1FBC7F0000EA
:104370000368C9B21B6818470368C9B21B681847AD
:104380000368C9B21B6818470368C9B21B6818479D
:1043900008B50846FCF7ECF9012008BD08B5084649
:1043A000FCF7E6F9012008BD38B508460D4601F0D6
:1043B00047FE044601462846FCF72AFA204638BD47
:1043C00010B5084614461146FCF722FA204610BDE7
:1043D000FCF734BAFCF796BA08B50846FCF7AAF918
:1043E000003018BF012008BD08B50846FCF780F969
:1043F000003018BF012008BD08461146FCF74EB931
:104400000846FCF773B90846FCF72CB9FCF7F6B878
:104410004B0803F1B76000F55840B0FBF1F0FCF732
:1044200079B810B54B0803F1B760144600F5584051
:10443000B0FBF1F0FCF76EF82046BDE81040FCF749
:10444000A9B8FCF7F1B9FCF745BAFCF719BAFCF7C3
:1044500007BA7047044B00221A714FF47A711A732D
:10446000024A99601A6070479014FF1F1C80000078
:104470004FF4806310B50A2480E8180000F114019D
:1044800000238360C36003610A4600F23464536012
:104490009360C2F8B430C2F8B830C432A242F6D148
:1044A0000C4B19600C4B00F120021A600B4A0123DF
:1044B00013600B4AC0F8C8300021116009490A2274
:1044C0000A60C0F8D4200849084A03240C6013602D
:1044D00010BD00BFA814FF1FA014FF1FA414FF1FCE
:1044E000C814FF1FCC14FF1FC014FF1FC414FF1FEC
:1044F00083682449F0B5C42404FB03050A68C5F8A1
:10450000D0200022D5F8C860012E0DD104FB020690
:10451000D6F8CC7047B11C4B8260D6F8D4201A6014
:104520000023C6F8CC3017E00132082AEAD1C424AF
:104530000133072B01DD002305E004FB0302D2F861
:10454000C820012AF4D183608368C42202FB0303DC
:10455000D3F8D4200C4B1A6082680C4DC42353430B
:10456000C41814342C60C418094D203418442C602D
:10457000B2FA82F2074CD0F8D0300B6052092260B8
:10458000F0BD00BFC814FF1FCC14FF1FA814FF1FED
:10459000A014FF1FA414FF1F0148FFF7A9BF00BF0D
:1045A000D014FF1F044A136801331360034B1B68C8
:1045B0000BB100F0B1B970477812FF1FC414FF1F90
:1045C0001EF0040F0CBFEFF30880EFF3098083693E
:1045D00013F8023C212B02D100F094B906E0222B03
:1045E00004D1034B01221A6000F08EB9704700BF5E
:1045F000C014FF1F08B50748074A08490023037085
:104600008023437300F04EFE0548BDE80840FFF7E5
:104610002FBF00BFAC14FF1FF806FF1F754100003D
:10462000D014FF1F024B1870002000F0E7B800BF45
:10463000081BFF1F184B1B78834210B50C462AD36A
:1046400016491748FFF7AEFB00F03EF90146144843
:10465000FFF701FC13491248FFF7A4FB00F03EF9F5
:1046600001460F48FFF7F7FB0F490D48FFF79AFB8C
:1046700000F03EF901460A48FFF7EDFB0B490848F8
:10468000FFF790FB21460648FFF78CFB0448BDE886
:104690001040FFF795BB10BD081BFF1F7480000082
:1046A0001814FF1F76800000798000007C800000D5
:1046B0003C232DE9F041B0FBF3F403FB14020A7034
:1046C000B4FBF3F203FB124318244B704FF4616305
:1046D000B0FBF3F3B3FBF4F204FB12338B7007224D
:1046E0003C4BB0FBF3F0031DB3FBF2F2C2EBC20292
:1046F0009B1A01330024CB70224640F26D184FF014
:10470000640E4FF4C87CE6B206F2B27313F00307EE
:104710000ED193FBFEF50EFB153565B993FBFCF549
:104720000CFB1535002D14BF45464FF4B77504E05A
:1047300040F26D1501E04FF4B7752A44904204F140
:104740000104E0D28E7197B9642593FBF5F405FB63
:1047500014347CB94FF4C87593FBF5F405FB14349D
:10476000002C40F26D1408BF4FF4B77404E040F21F
:104770006D1401E04FF4B774121B64264FF4C87433
:10478000DFF854E0801A93FBF6F206FB123693FB37
:10479000F4F204FB12330022012AD5B206D147B944
:1047A0004EB9002B14BF1C241D2405E012F80E4046
:1047B00002E01C2400E01D24844205D801320C2AAA
:1047C000A0EB0400E8D11546013501304D710871A8
:1047D000BDE8F081805101008080000038B5054CB3
:1047E00023688342054603D00349FFF761FF256034
:1047F00038BD00BF0C1BFF1F101BFF1F094B1860AB
:10480000094B1B681844094B1860094B02221A70A7
:10481000084B82B01B680193019A074B1A6002B0E3
:10482000704700BF181BFF1FB007FF1F281BFF1F8B
:104830001C1BFF1F7812FF1F241BFF1FF7B51B4B0C
:104840001B4C1A682168DFF87CE00025DEF80000C8
:1048500001900198801AB0F57A7F02F57A7701F11C
:10486000010603D331463A460125EFE70DB11A6040
:104870002160104D23682A689A4213D80E4B1B689A
:1048800083B1984710B1FFF7B9FF0BE0084B1A68E6
:104890000A4B1B6813440A4A2B601378003318BF75
:1048A00001231370206803B0F0BD00BF241BFF1F5D
:1048B000181BFF1F281BFF1F201BFF1FB007FF1F18
:1048C0001C1BFF1F7812FF1F08B5FFF7B7FFFFF78C
:1048D00085FF014B987808BD101BFF1F08B5FFF737
:1048E000ADFFFFF77BFF014B587808BD101BFF1F82
:1048F00008B5FFF7A3FFFFF771FF014B187808BD5C
:10490000101BFF1F72B616E072B618E072B622488E
:1049100000680121016006E072B61EF10F0F38D069
:104920001EF11F0F35D01D480168002903D0A1F1E9
:10493000010101602DE01A480068012829D11948B9
:104940000068A0E8F04FA0EC200AF1EE101A02C0B7
:1049500015480068002803D1EFF309801349086067
:10496000FFF71AFE0F480068B0E8F04FB0EC200ADD
:1049700002C8E1EE101A0EF0100E6EF0160E0A4884
:104980000068002805D10948006880F309884EF0C6
:10499000040E62B670470000041BFF1FCC14FF1FFB
:1049A000C014FF1FA014FF1FA414FF1FC814FF1F73
:1049B00081F0004102E000BF83F0004330B54FEAD0
:1049C00041044FEA430594EA050F08BF90EA020F3D
:1049D0001FBF54EA000C55EA020C7FEA645C7FEAD0
:1049E000655C00F0E2804FEA5454D4EB5555B8BFF3
:1049F0006D420CDD2C4480EA020281EA030382EA64
:104A0000000083EA010180EA020281EA0303362DF5
:104A100088BF30BD11F0004F4FEA01314FF4801CC8
:104A20004CEA113102D0404261EB410113F0004FDA
:104A30004FEA03334CEA133302D0524263EB430391
:104A400094EA050F00F0A780A4F10104D5F1200E2F
:104A50000DDB02FA0EFC22FA05F2801841F100018A
:104A600003FA0EF2801843FA05F359410EE0A5F15E
:104A700020050EF1200E012A03FA0EFC28BF4CF08F
:104A8000020C43FA05F3C01851EBE37101F0004545
:104A900007D54FF0000EDCF1000C7EEB00006EEB52
:104AA0000101B1F5801F1BD3B1F5001F0CD34908DC
:104AB0005FEA30004FEA3C0C04F101044FEA445233
:104AC00012F5800F80F09A80BCF1004F08BF5FEABA
:104AD000500C50F1000041EB045141EA050130BD9A
:104AE0005FEA4C0C404141EB010111F4801FA4F13D
:104AF0000104E9D191F0000F04BF01460020B1FA92
:104B000081F308BF2033A3F10B03B3F120020CDAC9
:104B10000C3208DD02F1140CC2F10C0201FA0CF0A7
:104B200021FA02F10CE002F11402D8BFC2F1200C0C
:104B300001FA02F120FA0CFCDCBF41EA0C019040C2
:104B4000E41AA2BF01EB0451294330BD6FEA04040B
:104B50001F3C1CDA0C340EDC04F11404C4F12002F6
:104B600020FA04F001FA02F340EA030021FA04F308
:104B700045EA030130BDC4F10C04C4F1200220FA5F
:104B800002F001FA04F340EA0300294630BD21FA9D
:104B900004F0294630BD94F0000F83F4801306BF63
:104BA00081F480110134013D4EE77FEA645C18BF57
:104BB0007FEA655C29D094EA050F08BF90EA020FEE
:104BC00005D054EA000C04BF1946104630BD91EAE6
:104BD000030F1EBF0021002030BD5FEA545C05D1E9
:104BE0004000494128BF41F0004130BD14F5800428
:104BF0003CBF01F5801130BD01F0004545F0FE419C
:104C000041F470014FF0000030BD7FEA645C1ABFD0
:104C1000194610467FEA655C1CBF0B46024650EA07
:104C2000013406BF52EA033591EA030F41F4002133
:104C300030BD00BF90F0000F04BF0021704730B5B9
:104C40004FF4806404F132044FF000054FF000018E
:104C500050E700BF90F0000F04BF0021704730B54F
:104C60004FF4806404F1320410F0004548BF404224
:104C70004FF000013EE700BF42004FEAE2014FEA79
:104C800031014FEA02701FBF12F07F4393F07F4F54
:104C900081F06051704792F0000F14BF93F07F4F86
:104CA000704730B54FF4607401F0004521F00041C9
:104CB00020E700BF50EA010208BF704730B54FF04F
:104CC00000050AE050EA010208BF704730B511F054
:104CD000004502D5404261EB41014FF4806404F18C
:104CE00032045FEA915C3FF4DCAE4FF003025FEA0E
:104CF000DC0C18BF03325FEADC0C18BF033202EB96
:104D0000DC02C2F1200300FA03FC20FA02F001FAEF
:104D100003FE40EA0E0021FA02F11444C1E600BF8E
:104D200070B54FF0FF0C4CF4E06C1CEA11541DBF41
:104D30001CEA135594EA0C0F95EA0C0F00F0DEF80C
:104D40002C4481EA030621EA4C5123EA4C5350EAF1
:104D5000013518BF52EA033541F4801143F4801342
:104D600038D0A0FB02CE4FF00005E1FB02E506F0D3
:104D70000042E0FB03E54FF00006E1FB03569CF028
:104D8000000F18BF4EF0010EA4F1FF04B6F5007F2E
:104D900064F5407404D25FEA4E0E6D4146EB0606A0
:104DA00042EAC62141EA55514FEAC52040EA5E5029
:104DB0004FEACE2EB4F1FD0C88BFBCF5E06F1ED8D3
:104DC000BEF1004F08BF5FEA500E50F1000041EB0A
:104DD000045170BD06F0004646EA010140EA0200B7
:104DE00081EA0301B4EB5C04C2BFD4EB0C0541EAD9
:104DF000045170BD41F480114FF0000E013C00F3EE
:104E0000AB8014F1360FDEBF002001F0004170BD11
:104E1000C4F10004203C35DA0C341BDC04F114042A
:104E2000C4F1200500FA05F320FA04F001FA05F2B6
:104E300040EA020001F0004221F0004110EBD37083
:104E400021FA04F642EB06015EEA430E08BF20EAAF
:104E5000D37070BDC4F10C04C4F1200500FA04F352
:104E600020FA05F001FA04F240EA020001F00041E4
:104E700010EBD37041F100015EEA430E08BF20EA57
:104E8000D37070BDC4F1200500FA05F24EEA020E9F
:104E900020FA04F301FA05F243EA020321FA04F0CE
:104EA00001F0004121FA04F220EA020000EBD37085
:104EB0005EEA430E08BF20EAD37070BD94F0000F85
:104EC0000FD101F00046400041EB010111F4801FB9
:104ED00008BF013CF7D041EA060195F0000F18BF6A
:104EE000704703F00046520043EB030313F4801FA6
:104EF00008BF013DF7D043EA0603704794EA0C0F60
:104F00000CEA135518BF95EA0C0F0CD050EA410675
:104F100018BF52EA4306D1D181EA030101F00041F2
:104F20004FF0000070BD50EA410606BF104619461A
:104F300052EA430619D094EA0C0F02D150EA013626
:104F400013D195EA0C0F05D152EA03361CBF104667
:104F500019460AD181EA030101F0004141F0FE4106
:104F600041F470014FF0000070BD41F0FE4141F48A
:104F7000780170BD70B54FF0FF0C4CF4E06C1CEA8A
:104F800011541DBF1CEA135594EA0C0F95EA0C0F3F
:104F900000F0A7F8A4EB050481EA030E52EA0335FA
:104FA0004FEA013100F088804FEA03334FF080551B
:104FB00045EA131343EA12634FEA022245EA111548
:104FC00045EA10654FEA00260EF000419D4208BFF9
:104FD000964244F1FD0404F5407402D25B084FEAA6
:104FE0003202B61A65EB03055B084FEA32024FF452
:104FF00080104FF4002CB6EB020E75EB030E22BFAF
:10500000B61A754640EA0C005B084FEA3202B6EB6E
:10501000020E75EB030E22BFB61A754640EA5C001D
:105020005B084FEA3202B6EB020E75EB030E22BFAD
:10503000B61A754640EA9C005B084FEA3202B6EBAE
:10504000020E75EB030E22BFB61A754640EADC006D
:1050500055EA060E18D04FEA051545EA16754FEACF
:1050600006164FEAC30343EA52734FEAC2025FEAED
:105070001C1CC0D111F4801F0BD141EA00014FF07C
:1050800000004FF0004CB6E711F4801F04BF01434D
:105090000020B4F1FD0C88BFBCF5E06F3FF6AFAE69
:1050A000B5EB030C04BFB6EB020C5FEA500C50F1F9
:1050B000000041EB045170BD0EF0004E4EEA11317C
:1050C00014EB5C04C2BFD4EB0C0541EA045170BD83
:1050D00041F480114FF0000E013C90E645EA060EC7
:1050E0008DE60CEA135594EA0C0F08BF95EA0C0FF5
:1050F0003FF43BAF94EA0C0F0AD150EA01347FF43D
:1051000034AF95EA0C0F7FF425AF104619462CE713
:1051100095EA0C0F06D152EA03353FF4FDAE104676
:10512000194622E750EA410618BF52EA43067FF4C7
:10513000C5AE50EA41047FF40DAF52EA43057FF457
:10514000EBAE12E74FF0FF3C06E000BF4FF0010C62
:1051500002E000BF4FF0010C4DF804CD4FEA410CC6
:105160007FEA6C5C4FEA430C18BF7FEA6C5C1BD093
:1051700001B050EA410C0CBF52EA430C91EA030F14
:1051800002BF90EA020F0020704710F1000F91EA71
:10519000030F58BF994208BF90422CBFD8176FEA3F
:1051A000E37040F0010070474FEA410C7FEA6C5C0D
:1051B00002D150EA013C07D14FEA430C7FEA6C5C14
:1051C000D6D152EA033CD3D05DF8040B704700BF40
:1051D0008446104662468C461946634600E000BF8E
:1051E00001B5FFF7B7FF002848BF10F1000F01BD60
:1051F0004DF808EDFFF7F4FF0CBF012000205DF82B
:1052000008FB00BF4DF808EDFFF7EAFF34BF0120AF
:1052100000205DF808FB00BF4DF808EDFFF7E0FF48
:1052200094BF012000205DF808FB00BF4DF808ED99
:10523000FFF7CEFF94BF012000205DF808FB00BF00
:105240004DF808EDFFF7C4FF34BF012000205DF8E2
:1052500008FB00BF4FEA410212F5001215D211D52A
:105260006FF47873B3EB625212D94FEAC12343F063
:10527000004343EA505311F0004F23FA02F018BFE5
:10528000404270474FF00000704750EA013005D1AE
:1052900011F0004008BF6FF0004070474FF0000071
:1052A000704700BF0B460146184600F001B800BF2A
:1052B00013460A460146022000F030BF70B504468E
:1052C00010EE100A0D461646FFF7D6FC324641ECAA
:1052D000100B002329462046BDE8704000F080BF37
:1052E00070B50F4E0F4D761BB61018BF002405D0B9
:1052F000013455F8043B9847A642F9D10A4E0B4DAC
:10530000761B02F04DFFB61018BF002406D0013402
:1053100055F8043B9847A642F9D170BD70BD00BF57
:10532000AC810000AC810000D8810000AC8100009D
:10533000024B0146186800F00BB800BFE00BFF1FDE
:10534000024B0146186801F02DB800BFE00BFF1FAB
:105350002DE9F04F01F10B05162D83B0064640F202
:105360009F8035F0070500F1BF80A94200F2BC80A4
:1053700000F0F2FBB5F5FC7FC0F09C826B0A00F0F8
:10538000BA80042B00F28381A80900F1390E4FEA9C
:105390004E033830C44F07EB8303A3F108015C6868
:1053A000A14207D1ACE0002A80F2AC80E468A142BF
:1053B00000F0A680636823F003035A1B0F2AF2DD76
:1053C000B9493C6901F1080E744500F0B381636886
:1053D00023F003035A1B0F2A00F39981002AC1F816
:1053E00014E0C1F810E080F29E80B3F5007F80F0F9
:1053F0006781DB0803F1010C01229B1002FA03F321
:105400004A6851F83C80C4F8088001EBCC091A4383
:10541000A9F10803E3604A6041F83C40C8F80C4039
:10542000831001249C40944200F28A80144206D1E9
:1054300020F003006400144200F10400FAD007EBEE
:10544000C009CC468046DCF80C108C4507D173E1CE
:10545000002A80F28181C9688C4500F06D814B681B
:1054600023F003035A1B0F2AF2DD0C46D1F80CC0BF
:1054700054F8088F4B1945F001054D6042F00101C9
:10548000C8F80CC03046CCF808807B613B61C3F89B
:105490000CE0C3F808E059609A5000F05FFB1FE091
:1054A000102921D800F058FB1025062302207E4F3A
:1054B00007EB8303A3F108025C68944200F0458186
:1054C0006368E168A56823F00303234430465A6803
:1054D000E96042F001028D605A6000F03FFB083441
:1054E000204603B0BDE8F08F00240C232046336033
:1054F00003B0BDE8F08F80234FF0400E3F2049E716
:1055000070465DE72344E1685A68A56842F00102ED
:10551000E96030468D605A6000F020FB0834204678
:1055200003B0BDE8F08F234430465A6842F00102D0
:105530005A6000F013FB0834204603B0BDE8F08F3A
:10554000BC68636823F00308A84504D3C5EB0803CF
:105550000F2B00F38C80554BDFF860911A68D9F857
:10556000003001332A4404EB080A00F0608102F5A0
:1055700080520F3222F47F6222F00F021146304631
:10558000019200F0E5FCB0F1FF3F8346019A00F084
:105590005881824500F2FC80454B1968DA45114478
:1055A000196000F05381D9F80000DFF810E10130F4
:1055B0001BBFCAEB0B0A5144CEF800B019601BF0B8
:1055C000070100F01781C1F10800C1F58051834443
:1055D00008315A44C2F30B02C2EB01094946304676
:1055E000019300F0B5FC431C019B00F03F81CBEB25
:1055F00000024A4442F001021968C7F808B0494461
:10560000BC42CBF804201960DFF8A49016D0B8F1A2
:105610000F0F40F2FD806268A8F10C0323F007032E
:10562000E01802F001024FF0050E1A430F2B6260E2
:10563000C0F804E0C0F808E000F21C811D4BBC6813
:105640001A68914288BF19601B4B1A6891426268C0
:1056500088BF196022F003029542A2EB050301D82E
:105660000F2B04DC304600F079FA002438E7621989
:1056700043F0010345F0010565603046BA605360B0
:1056800000F06CFA0834204603B0BDE8F08F142B0C
:1056900071D9542B00F2A480280B00F16F0E4FEA51
:1056A0004E036E3076E600BFE40BFF1F341BFF1F76
:1056B000381BFF1F301BFF1F2C1BFF1FF00FFF1F8E
:1056C0005A0A042A5ED9142A00F2B38002F15C015E
:1056D00049005B3207EB810C57F82110DFF8DC81C1
:1056E000ACF1080C8C4500F088804A6822F0030277
:1056F000934202D289688C45F7D1D1F80CC07A6800
:10570000C4F80CC0A160CCF80840CC6088E66319EE
:1057100042F0010745F00105656030464B610B61C1
:10572000C3F80CE0C3F808E05F609A50083400F05A
:1057300015FAD5E64A6873E608F1010818F0030F78
:105740000CF1080C7FF47FAE30E0DC68A34208BFA8
:1057500002303FF435AEB3E60B440C465A68C968D4
:1057600054F8085F42F001025A603046E9608D60EB
:1057700000F0F4F9B4E603F15C0E03F15B004FEACC
:105780004E0307E69A0902F1390149003832A1E7D0
:10579000BC424A4B3FF400AF9C68626822F00302AF
:1057A0005AE759F80839994540F0828010F0030F04
:1057B00000F1FF30F5D17B6823EA04037B606400CD
:1057C0009C423FF6BDAE002C3FF4BAAE1C424046B0
:1057D0007FF435AE64001C4200F10400FAD02EE6DE
:1057E000B3F5AA7F18D8E80B00F1780E4FEA4E0304
:1057F0007730CFE54FF48051EBE60121D8F8043043
:10580000921001FA02F21A43C8F80420614677E7C1
:105810000123CBF8043025E740F25452934220D8BC
:10582000A80C00F17D0E4FEA4E037C30B2E5103239
:10583000A4E6542A26D81A0B02F16F0149006E32F1
:1058400048E7BC68626822F0030205E7CAF30B0070
:1058500000287FF4A8AE4244BB6842F001025A60BF
:10586000ECE6FE234FF07F0E7E2093E501224FF001
:105870000009C1E604F10801304600F093FDD9F8B3
:105880000010DBE6B2F5AA7F05D8DA0B02F1780149
:10589000490077321EE740F254518A4205D89A0CEB
:1058A00002F17D0149007C3214E7FE217E2211E7DE
:1058B0007B6884E7E808431C5B00F8E5E40BFF1F06
:1058C000844641EA000313F003036DD1403A41D30B
:1058D00051F8043B40F8043B51F8043B40F8043BCA
:1058E00051F8043B40F8043B51F8043B40F8043BBA
:1058F00051F8043B40F8043B51F8043B40F8043BAA
:1059000051F8043B40F8043B51F8043B40F8043B99
:1059100051F8043B40F8043B51F8043B40F8043B89
:1059200051F8043B40F8043B51F8043B40F8043B79
:1059300051F8043B40F8043B51F8043B40F8043B69
:1059400051F8043B40F8043B51F8043B40F8043B59
:10595000403ABDD2303211D351F8043B40F8043BF9
:1059600051F8043B40F8043B51F8043B40F8043B39
:1059700051F8043B40F8043B103AEDD20C3205D309
:1059800051F8043B40F8043B043AF9D2043208D001
:10599000D2071CBF11F8013B00F8013B01D30B8873
:1059A00003806046704700BF082A13D38B078DD051
:1059B00010F003038AD0C3F10403D21ADB071CBF23
:1059C00011F8013B00F8013B80D331F8023B20F88D
:1059D000023B7BE7043AD9D3013A11F8013B00F8C6
:1059E000013BF9D20B7803704B7843708B7883704E
:1059F000604670478842F0B50DD98B1898420AD29C
:105A00008118002A51D09A1A13F8014D01F8014D5E
:105A10009342F9D1F0BD0F2A48D941EA00039B0710
:105A200046D100F1100401F11003154653F8106C33
:105A300044F8106C53F80C6C44F80C6C53F8086C78
:105A400044F8086C103D53F8046C44F8046C0F2DB6
:105A500003F1100304F11004E8D8A2F1100323F0BD
:105A60000F0302F00F0E1033BEF1030F194403446D
:105A700021D91E1F0D467446043C55F8047B46F898
:105A8000047F032CF8D8AEF1040424F0030404349A
:105A90002344214402F0030262B1013B0A4411F89D
:105AA000014B03F8014F8A42F9D1F0BD0346F3E7F9
:105AB0000346F2E7F0BD7246EEE700BF70B484071C
:105AC00046D0541E002A41D0CDB2034602E0621EE9
:105AD000E4B3144603F8015B9A07F8D1032C2ED9DE
