:100000000000022099010000611A00002D1A000072
:100010002D1A00002D1A00002D1A00002D1A0000C4
:100020002D1A00002D1A00002D1A0000DD410000DD
:10003000611A00002D1A0000611A0000C141000081
:10004000611A0000611A0000611A0000611A0000C4
:10005000611A0000611A0000611A0000611A0000B4
:10006000611A0000611A0000611A0000611A0000A4
:10007000611A0000611A0000611A0000611A000094
:10008000611A0000611A0000611A0000611A000084
:10009000611A0000611A0000611A0000611A000074
:1000A000611A0000611A0000611A0000611A000064
:1000B000611A0000611A0000611A0000912F00000F
:1000C000611A000059260000611A00003909000079
:1000D000611A0000911F0000611A0000611A0000FF
:1000E000611A0000611A0000611A0000611A000024
:1000F000611A0000611A0000611A0000611A000014
:10010000C53A0000D93A0000ED3A0000013B00007A
:10011000611A000089130000611A0000611A0000D2
:10012000611A0000611A0000611A0000611A0000E3
:10013000611A0000611A0000611A0000611A0000D3
:10014000913D0000611A000029110000611A0000B1
:1001500085370000611A0000611A0000611A000072
:10016000611A0000611A0000611A0000611A0000A3
:10017000611A0000611A0000611A0000611A000093
:10018000611A0000611A0000611A0000611A000083
:10019000611A0000611A0000584B4CF2205210B551
:1001A0001A804DF628121A8000BF00BF01F05CFCD7
:1001B000534B4FF030621A60524A9A60524ADA60EA
:1001C000524B4FF470021A60514A136813F4807353
:1001D00001BF50490B604FF4A85313604E4B4F4979
:1001E0001A78100742BF1A7842F008021A704C4B76
:1001F0002A221A704B4A4C4B8B4204D252F8040FFD
:1002000043F8040BF8E7494B494A0021934202D2D4
:1002100043F8041BFAE7474A4748002350F82310E5
:1002200042F823100133662BF8D1444B444A802115
:1002300003F8011B9342FBD1424B3E4A1A60424BEA
:100240008A221A70A3F5805324225A70A0221A70B1
:100250009A799107FCD59A79D206FCD43B4A9379D6
:1002600003F00C03082B394BF9D103221A714022F9
:100270005A719A799406FCD534498A79334B5006E1
:10028000FBD5334A334911600221516020221A7094
:100290009A7902F00C020C2AFAD12F4B2F4A1A60DD
:1002A0002F4B4BF67F321A6000225A60072243F828
:1002B000042C2C4AC3F80C2D62B602F0EDFA154B53
:1002C0001B68DA0705D5284802F044FA274B284A6C
:1002D0001A60284B1B785B0609D5244C244B2268F6
:1002E0009A4204D1204802F035FA0023236004F03A
:1002F000FFF901F0BFFB00F0B9F8FEE70E20054062
:1003000030800440823F04000100002B88ED00E0B3
:1003100010D0034014D0034002D00740F40FFF1F59
:1003200000E0074078560000F806FF1FF40FFF1F9B
:100330005C1BFF1F0002FF1F0000000000E400E044
:1003400056E400E008ED00E00050064000400640A2
:10035000448004400000131104800440C0100500D4
:1003600014E000E00000202000DD68501CE00340A5
:10037000A5C3945A00F00740FFFFFFFFFFFFFFFFF8
:10038000FFFFFFFFFFFFFFFFFFFFFFFFFFFFFFFF7D
:10039000FFFFFFFFFFFFFFFFFFFFFFFFFFFFFFFF6D
:1003A000FFFFFFFFFFFFFFFFFFFFFFFFFFFFFFFF5D
:1003B000FFFFFFFFFFFFFFFFFFFFFFFFFFFFFFFF4D
:1003C000FFFFFFFFFFFFFFFFFFFFFFFFFFFFFFFF3D
:1003D000FFFFFFFFFFFFFFFFFFFFFFFFFFFFFFFF2D
:1003E000FFFFFFFFFFFFFFFFFFFFFFFFFFFFFFFF1D
:1003F000FFFFFFFFFFFFFFFFFFFFFFFFFFFFFFFF0D
:10040000FFFFFFFFFFFFFFFFFFFFFFFFDEF9FFFF23
:1004100010B5054C237833B9044B13B10448AFF33E
:1004200000800123237010BDF40FFF1F00000000A7
:100430007C560000084B10B51BB108490848AFF3C3
:1004400000800848036803B910BD074B002BFBD0A0
:10045000BDE81040184700BF00000000F80FFF1F64
:100460007C560000F40FFF1F000000002DE9F04152
:1004700001218AB0264C0D2002F09CF92023236034
:1004800004F092F8C023069308238DF81D30002352
:100490002746194606ACE2180133072B1172FAD130
:1004A00094E80F0004F098F8DFF8748000267D20AF
:1004B000202502F0DBF93D60002000F0BFFB07EED5
:1004C000900AB8EEE77ADFED137A0296C7EE276A54
:1004D000012300930022204601969FED0F7AC6EE7D
:1004E000877A9FED0E7A67EE877AFDEEE77ACDED9B
:1004F000057ABDF9141004F043F894E80F0004F0F5
:100500006BF87D2002F0B2F9C8F80050CFE700BFC9
:1005100084F00F4000C07F440820803F00007F43EC
:1005200088F00F40164A136843F480531360154A4D
:1005300000231370144A1370144A1370144A137072
:10054000144A1370144A40F2133111604FF4517180
:100550005160124AC0F344311170C0F3471100F0EA
:100560001F0051709072937013742C23D3700C4B36
:1005700040221A70A3F21F3308221A60704700BF8E
:10058000348004407E10FF1F1510FF1F8410FF1FD2
:100590007F10FF1F1410FF1F08C0044000C006405A
:1005A00023E400E0184B9A7802F0EC0100F003021B
:1005B0000A43410748BF42F010029A70124900F006
:1005C0000F02042A02BF8A7942F040028A715A79E6
:1005D000C30602F0EF020C4B48BF42F010025A7102
:1005E0009A79810602F0EF0248BF42F010029A7138
:1005F000C305054906D54B780A78DBB242F02002E4
:100600000A704B70704700BF00C00640124B1B6859
:10061000DB0410B500D410BD104C227802F0FF03AB
:1006200012B103F06FFCF8E70D4A082111600D4A82
:1006300001F1804101F59821D37040F203120A6064
:100640004A60094A1370094A1370094B1B680BB1C1
:1006500001221A7010BD00BF348004401410FF1F27
:1006600084E100E000C006407E10FF1F1510FF1F50
:100670001010FF1F0A4A38B50446137803F0FF052F
:10068000002BFAD10121204602F094F82946204699
:1006900002F070F8034B53F83420034B1A6038BD56
:1006A0001410FF1FD45100008010FF1F10B509B1B6
:1006B00040F080000E4B1A78904217D00D4C246801
:1006C000E40412D502F07F02082A02BF0A4A00247D
:1006D0001460002900F07F010CBF44226022082929
:1006E00002BF054942F440720A60187010BD00BF95
:1006F000FC06FF1F348004400CC004407047FFFF1D
:1007000038B50D4B1B6813F480534FF0000410D024
:100710003F280A4D0AD80A4B012153F830302B608C
:1007200002F048F82B681C70012038BD2C60204670
:1007300038BD184638BD00BF348004401010FF1F7C
:10074000D45100000B4B1B6813F4805310D00E28BB
:10075000094B09D1094A40F2023111605A7B42F03B
:1007600001025A73012070475A7B02F0FE025A734D
:10077000002070473480044000C0064004C004409C
:100780002DE9F8431F4B1B68DA04064637D51E4B8C
:100790001B680BB101221A701C4DDFF880902C7879
:1007A0001B4F0134282C28BF0024C84699F800307C
:1007B000A34219D101F068F9402810DC3B791B06EF
:1007C000F4D599F80030134A0133282B28BF0023B1
:1007D000D25CDBB2D2B2FA7188F80030E6E7FF28CB
:1007E000E4DD03F08FFBE1E70A4BF6B21E550A4B3E
:1007F00001221A70064BE4B2AC222C70DA70BDE80C
:10080000F88300BF348004408010FF1F8410FF1F56
:1008100000C006401610FF1F1410FF1F7F10FF1F9F
:1008200038B504464518AC4204D014F8010BFFF764
:10083000A7FFF8E738BDFFFF10B5034C237813B1CD
:1008400003F060FBFAE710BD1410FF1F064B187889
:10085000064B1A78C0B2D3B298422CBF273303F1AB
:10086000FF33181A704700BF8410FF1F7F10FF1F4F
:10087000054B1878054B1A78C0B2D3B2984238BFEE
:100880004030C01A704700BF7E10FF1F1510FF1FB9
:1008900010B5104B104C1B782278D9B2D2B29142CD
:1008A00014D0531C402B28BF00230C4AD05CDAB272
:1008B00022700B4A1268C0B252B18B4288BF4031DD
:1008C000CB1A1A2B04DC0023137010BD4FF0FF303D
:1008D00010BD00BF7E10FF1F1510FF1F3E10FF1F31
:1008E0001010FF1F084B1A78084B1B78DBB29A4296
:1008F00007D00133402B28BF0023054AD05CC0B28B
:1009000070474FF0FF3070477E10FF1F1510FF1F1C
:100910003E10FF1F054B064A1B78DBB21370054BD8
:100920001B680BB100221A70704700BF1510FF1F23
:100930007E10FF1F1010FF1F10B5284B1A7992066A
:1009400020D52749DA790B782648013300783F2BE8
:10095000C8BF0023834218BF2348D2B21EBFC2546F
:10096000DAB20A70214A116861B1214A1278D2B212
:10097000934236BFC2F140029B1A9B18272BC4BF7B
:1009800001230B701549CA78D2B2140616D50B791B
:10099000180613D5174B164C18782378DBB29842FB
:1009A00002D16C23CB7009E00133282B28BF002330
:1009B0001148C05CDBB2C0B2C871237051060CD5BF
:1009C000064B1A79520608D50C4A002111700C4AC0
:1009D000126802B111702C22DA7010BD00C00640FE
:1009E0007E10FF1F1510FF1F3E10FF1F1010FF1F6E
:1009F0007F10FF1F8410FF1F1610FF1F1410FF1F12
:100A00008010FF1F1FB572B6134B144970221A7065
:100A1000134A116080221A701A781206FCD5114B05
:100A2000186862B6104B984298BF0A2301AC98BF71
:100A300058430A22214601F095FF0C4A0023E15C4D
:100A400021B101330A2B22F8021BF8D1084A0133E5
:100A50005B00137004B010BD0000024000000741AD
:100A6000040002400C0002407F9698008807FF1F98
:100A70008607FF1FF0B5374A374B11680906FCD4CB
:100A8000196811F08001F8D172B634480378002B50
:100A90005DD0334B334A1F6804330C321B6852F865
:100AA0000C6C52F8085C52F8044C12683B44334416
:100AB0002B4423441344C3F34E032B4A43F4004313
:100AC00013602A4B1F68043340321B6852F80C6CC9
:100AD00052F8085C52F8044C12683B4433442B44EF
:100AE00023441344C3F34E03214A43F400431360E9
:100AF000204B02F500221F68043310321B68166871
:100B0000556894683B440C32334412682B442344A8
:100B10001344C3F34E03184A43F400431360174BC6
:100B20001F68043340321B6852F80C6C52F8085CA2
:100B300052F8044C12683B4433442B44234413447E
:100B4000C3F34E030E4A43F400431360017062B6D0
:100B5000F0BD00BF24B0034024B00B408610FF1F3F
:100B600038B0034040B003402CB0034058B00340BD
:100B700030B0034038B00B402CB00B4058B00B40A5
:100B800030B00B4010B5204B2048214960221A702C
:100B9000E1225A701F4B204A1C78204B082C01D1AF
:100BA000012402E00A2C03D139240460132005E05B
:100BB0000C2C0CBF35243D24046012200860146006
:100BC0001860174B17491B78174A03B101230B60B4
:100BD0001360164B164A1978164B012901D880214B
:100BE0000BE0042901D8842107E0082901D88521D8
:100BF00003E0102994BF86218721116019600E4BF4
:100C000001221A7010BD00BF0040074008B0034029
:100C10000CB003409C07FF1F08B00B400CB00B400A
:100C20008910FF1F20B0034020B00B409D07FF1F1D
:100C300024B0034024B00B408610FF1F47282DE945
:100C4000F04150D8294B1C5CFF2C4CD0284B1B7812
:100C50000BB1FFF70FFF210617D472B6254E264FB2
:100C6000346001233B7062B6234D72B633681A06B6
:100C700004D5224B00221B682A7026E02B78002B1B
:100C8000EED062B603F03EF9EFE772B61C4EDFF825
:100C9000808004F04007FFB204F03F05336817B1CD
:100CA00023F0100301E043F01003164C33600123DE
:100CB000C8F80050237062B672B6D8F800301B0630
:100CC0000AD5114B00221B68227062B60F4A1078B9
:100CD00043FA00F0BDE8F0812378002BDED062B645
:100CE00003F010F9E8E70020BDE8F0818C51000026
:100CF0008610FF1F00B003408810FF1F10B0034094
:100D00000CB00B408710FF1F10B00B408510FF1F69
:100D100000B00B40164A136843F480631360154A11
:100D200000231370144A1370144A1370144A13707A
:100D3000144A1370144A40F2133111604FF4517188
:100D400042F8041C114AC0F344311170C0F347113A
:100D500000F01F0051709072937013742C23D370A5
:100D60000B4B40221A70A3F23A3304221A607047E8
:100D700028800440FA10FF1F9110FF1F0011FF1F71
:100D8000FB10FF1F9010FF1F64D0044000A00E4016
:100D900042E400E0184B9A7802F0EC0100F0030204
:100DA0000A43410748BF42F010029A70124900F00E
:100DB0000F02042A02BF8A7942F040028A715A79EE
:100DC000C30602F0EF020C4B48BF42F010025A710A
:100DD0009A79810602F0EF0248BF42F010029A7140
:100DE000C305054906D54B780A78DBB242F02002EC
:100DF0000A704B70704700BF00A00E40114B1B687B
:100E00005B0510B500D410BD0F4C227802F0FF0333
:100E100012B103F077F8F8E70C4A042111600C4A8C
:100E20000C49D37040F203120A6041F8042C0A4ABC
:100E300013700A4A13700A4B1B680BB101221A7017
:100E400010BD00BF288004409010FF1F88E100E023
:100E500000A00E4064D00440FA10FF1F9110FF1F45
:100E60008C10FF1F0A4A38B50446137803F0FF05BB
:100E7000002BFAD10121204601F09CFC2946204696
:100E800001F078FC034B53F83420034B1A6038BD53
:100E90009010FF1FD4510000FC10FF1F10B509B1C6
:100EA00040F080000E4B1A78904217D00D4C246809
:100EB000E40412D502F07F02212A02BF0A4A00246C
:100EC0001460002900F07F010CBF44226022212918
:100ED00002BF054942F440720A60187010BD00BF9D
:100EE0009E07FF1F3480044060D004407047FFFF1E
:100EF00038B50D4B1B6813F480634FF0000410D01D
:100F00003F280A4D0AD80A4B012153F830302B6094
:100F100001F050FC2B681C70012038BD2C6020466D
:100F200038BD184638BD00BF288004408C10FF1F14
:100F3000D45100000B4B1B6813F4806310D01828A9
:100F4000094B09D1094A40F2023111605A7B42F043
:100F500001025A73012070475A7B02F0FE025A7355
:100F6000002070472880044000A00E4068D0044054
:100F70002DE9F8431F4B1B685A05064637D51E4B13
:100F80001B680BB101221A701C4DDFF880902C7881
:100F90001B4F0134282C28BF0024C84699F8003084
:100FA000A34219D100F070FD402810DC3B791B06EC
:100FB000F4D599F80030134A0133282B28BF0023B9
:100FC000D25CDBB2D2B2FA7188F80030E6E7FF28D3
:100FD000E4DD02F097FFE1E70A4BF6B21E550A4B3B
:100FE00001221A70064BE4B2AC222C70DA70BDE814
:100FF000F88300BF28800440FC10FF1F0011FF1F72
:1010000000A00E409210FF1F9010FF1FFB10FF1F4B
:1010100038B504464518AC4204D014F8010BFFF76C
:10102000A7FFF8E738BDFFFF10B5034C237813B1D5
:1010300002F068FFFAE710BD9010FF1F064B18780A
:10104000064B1A78C0B2D3B298422CBF273303F1B3
:10105000FF33181A704700BF0011FF1FFB10FF1F5E
:10106000054B1878054B1A78C0B2D3B2984238BFF6
:101070004030C01A704700BFFA10FF1F9110FF1FC9
:1010800010B5104B104C1B782278D9B2D2B29142D5
:1010900014D0531C402B28BF00230C4AD05CDAB27A
:1010A00022700B4A1268C0B252B18B4288BF4031E5
:1010B000CB1A1A2B04DC0023137010BD4FF0FF3045
:1010C00010BD00BFFA10FF1F9110FF1FBA10FF1FC5
:1010D0008C10FF1F084B1A78084B1B78DBB29A4222
:1010E00007D00133402B28BF0023054AD05CC0B293
:1010F00070474FF0FF307047FA10FF1F9110FF1F2D
:10110000BA10FF1F054B064A1B78DBB21370054B64
:101110001B680BB100221A70704700BF9110FF1FAF
:10112000FA10FF1F8C10FF1F10B5284B1A7992067A
:1011300020D52749DA790B782648013300783F2BF0
:10114000C8BF0023834218BF2348D2B21EBFC25477
:10115000DAB20A70214A116861B1214A1278D2B21A
:10116000934236BFC2F140029B1A9B18272BC4BF83
:1011700001230B701549CA78D2B2140616D50B7923
:10118000180613D5174B164C18782378DBB2984203
:1011900002D16C23CB7009E00133282B28BF002338
:1011A0001148C05CDBB2C0B2C871237051060CD5C7
:1011B000064B1A79520608D50C4A002111700C4AC8
:1011C000126802B111702C22DA7010BD00A00E401E
:1011D000FA10FF1F9110FF1FBA10FF1F8C10FF1F86
:1011E000FB10FF1F0011FF1F9210FF1F9010FF1F29
:1011F000FC10FF1FF0B50C4C0C4E23780C4D43F047
:10120000020706EBC70283F0010350602A782370BF
:10121000002A14BFC820882082F0010240EA014160
:101220002A7046F83710F0BD6C11FF1F0000FF1F39
:10123000E411FF1F431E032B10B510D872B6094AE4
:1012400052F8230048B1416842F823100649048847
:1012500031F81320121B21F8132062B610BD0020B4
:1012600010BD00BF5C11FF1F441BFF1F0138032886
:101270000AD872B6054B53F82030002013B1013064
:101280005B68FBE762B6704700207047B011FF1F34
:1012900070B472B6174C184901231A1912F8012CB0
:1012A00012071DD59A00144E51F832502DB906EB95
:1012B000431308305860114B09E042F0010251F825
:1012C00032506DB906EBC203083058600C4B46F83B
:1012D00032300C4A1378013B137062B670BC704711
:1012E0000133052BD9D162B6064B00221A7070BCAF
:1012F00001F0EABE345100000000FF1F88004000EA
:10130000C8004000DA11FF1F431E032B10B532D86E
:10131000194A400140F01000104472B6174AD45CDC
:10132000032C0BD8DFE804F018040207052414E0AE
:101330000830022411E0083004240EE01048114A5D
:1013400050F8234014B940F8231002E052F823006B
:10135000416042F823100DE00324D45410F0080F2C
:1013600001F108030A88436014BFC823882343EAB5
:101370000243036062B610BD0000FF1F1811FF1F7B
:10138000B011FF1FC011FF1F2DE9F74FA84B1C78AC
:10139000E4B214F0040F1D461AD0A64B1B78A3B17B
:1013A000A54A117801F0FF0321B1013BDBB21370B4
:1013B00003B900BEA14A117801F0FF0329B1013B36
:1013C000DBB213700BB901F0B1FF994A042313701B
:1013D00004F0080303F0FF02002B00F06F82984B2B
:1013E000984C1B78DBB21F094FEA930640F0EA8164
:1013F00004EBC603596854F83630C3F38303013B4A
:101400000C2B00F2DB81DFE813F098019801D90181
:10141000D901D901D901D901D901B701D901D9011E
:10142000D9010D000A68884D88484B682A6001215F
:101430006B60DFF84C82864B017092B240F28160A3
:1014400044F8363082424FF00003C8F80030236180
:10145000A36117D8B2F5D06F80F02581B2F5817FF6
:1014600000F0D68006D8802A00F0C180822A00F0E1
:10147000C28033E140F202339A4200F00581B2F5B6
:10148000A06F1AE042F22100824200F053810CD892
:10149000B2F5086F00F0A580B2F5106F40F01E8124
:1014A000644AA97811701E460AE042F221218A425C
:1014B00000F00C8142F221339A4200F013810DE1D9
:1014C000A219136A1F0603D5506A083801F0FCFD03
:1014D0000836802EF4D1DFF8AC915E4F0026CA4664
:1014E00059F826004FEA860B30B14268009201F0AD
:1014F000EBFD009A1046F7E7574B584A4AF80B00A5
:101500004BF803005BF8020040B141680192009182
:1015100001F0DAFD0099019A0846F5E7504B42F8D0
:101520000B0023F816003B784E4A023B4BF80200B2
:10153000032B07D8DFE803F002040204002300E0D5
:1015400001233B700136042E07F10107C8D1464B39
:10155000464E3F4F00221A704FF0010B9946444A05
:101560000BEB06015A4411F8011C920011F0080F10
:1015700011704FEA8B0A24D001F088FD38B104EBDA
:101580004B1208303B4B506044F83A3006E099F873
:10159000002044F83A00013289F8002001F076FD7D
:1015A0004AF0010230B104EBC2010830486044F84F
:1015B000327006E044F8320099F80020013289F8D0
:1015C00000204AF002010BF1010B4AF0030A00224D
:1015D000BBF1050F44F8312044F83A20BFD113463F
:1015E00081E0144B244E1B7833700B467EE0224E74
:1015F0003370737079E0AA88042A6FD81E4E920067
:10160000337073701D4B9B5C9C076ED531706CE022
:10161000AA8802F07F02042A60D86B88002B5DD173
:101620001649920011440A7822F0020239E000BF04
:1016300080200740E311FF1F6D11FF1F6D13FF1F77
:10164000902007400000FF1FD011FF1FE411FF1F73
:10165000C80040001811FF1F0811FF1FB011FF1F25
:10166000441BFF1FC011FF1FDA11FF1F3451000080
:1016700030C8011088004000DB11FF1FC020074068
:101680000411FF1F5C11FF1FAA8802F07F02042AC9
:1016900024D86B8813BBA549920011440A7842F004
:1016A00002020A701FE06A88A988A14B5E68AEB189
:1016B0001888904208D15888884205D1120A032A16
:1016C0000CBF33781B8911E00C33EFE7994A11689E
:1016D000994A1160994AA978117004E0934B0F223E
:1016E0001A7027E000231E4600E00223EC889C428B
:1016F00028BF1C46402C254628BF40253046294699
:10170000FFF778FD641B2E4403D1402D12D12546EE
:1017100003E0402C254628BF402530462946FFF7E8
:1017200069FD641B2E4401D1402D03D1844BC8F8C0
:1017300000601C800122834B3FE0834B1A8842F2F9
:1017400021039A4214D1814A0023C85C9854013382
:10175000072BFAD17D4B1B68862B08BF7C4B4FF0C3
:10176000000108BF0F22084608BF1A70FFF742FDAC
:10177000784B44F8363021E0774F3E68A6B1DFF869
:10178000C081B8F80040402C254628BF402530468F
:101790002946FFF72FFD601B80B2A8F8000008B9AA
:1017A000402D00D170193860674B1A88B2F5A06FD0
:1017B00004D100225A709A78684B1A70614B01224A
:1017C0001A7077E004EBC605013F6A6803F008036E
:1017D000A2F10800FFB203F0FF0E002B36D001F09B
:1017E00073FC5F485F4A50F82710E9B14B6840F836
:1017F000273001F108036B60D35D032B0BD8DFE8C2
:1018000003F002040608032304E0022302E0052398
:1018100000E00423D35515F0080F0A8814BFC8232D
:10182000882343EA024343E0D35D032B07D8DFE874
:1018300003F041410204002306E0012304E015F017
:10184000080F14BF03230223D35533E054F8363076
:101850001B0C99B222F8081C23B3434B22F806EC68
:1018600042F804EC53F82720DFF82CE112B943F8D2
:10187000270002E05EF8273058603C4A4EF8270007
:1018800032F817300B4422F8173001F0FFFB10B18B
:101890000830686006E0364A44F8360013780133B1
:1018A000137007E0334A2B4B15F0080F08BF13469F
:1018B00044F83630304A0823137067E5E0071ED538
:1018C00020492C482D4C02230B702D4B1A702D4BA8
:1018D000186098602C48D8601A619A615C60134B5C
:1018E0000D2018702948FF2303702B700274284ABA
:1018F0001370284B9F221A7001230B7012E02106EF
:1019000004D50A4B0D221A7080232B70A20705D52F
:101910001E4A1378DBB2137002232B70E30644BF18
:1019200010232B7003B0BDE8F08F00BFC02007402C
:1019300038510000D812FF1F541BFF1F7C13FF1FDC
:10194000D811FF1F94200740D011FF1F4C1BFF1F11
:101950006D11FF1FC80040000411FF1F98200740B1
:10196000B011FF1F1811FF1F5C11FF1F441BFF1F49
:10197000DA11FF1F88004000802007401C11FF1F64
:101980006C11FF1F0000FF1F7011FF1F8820074010
:101990008C200740842007400811FF1F10B5FFF777
:1019A00031F800231A4819461950C4180833882BF7
:1019B000174A6160F8D117490B6843F480230B6024
:1019C00015490B6843F040730B60144BC2F30721B9
:1019D0001970C2F30741120E19751A76104AFF23C7
:1019E00013700021137202F8703C0123137582F802
:1019F000801013710B4B70226FF44C711A700B44F2
:101A00004FF400121A60084B10221A7010BD00BF6C
:101A10000000FF1F3480044000D800409C20074095
:101A20008020074035E400E00821074008B50B4D51
:101A30002C462B68580301D5FFF7A6FC23685905EF
:101A400001D501F0A5FA23681A0501D500F004FEBE
:101A50002368DB04EDD5FEF76FFFEAE7348004402E
:101A600008B5FFF7E3FFFFFF014B10221A80704714
:101A7000002005407047FFFF024A136818441060B9
:101A800018467047A007FF1FEFF313839BB9EFF3CE
:101A9000108098B9EFF3058323B10F2B04D9084ABE
:101AA000985C01E04FF48070EFF311833BB19842F2
:101AB00028BF184670474FF0FF30704718467047F0
:101AC000F0E300E0214A136843F400531360204A16
:101AD000002313701F4A13701F4A13701F4A13709C
:101AE0001F4A13701F4B1B781F2B05D03F2B07D1AC
:101AF00040F213321C4B02E01C4B40F213321A60CE
:101B00001B4B1B78202B05D03E2B07D14FF4517275
:101B1000184B02E0184B4FF451721A60174BC0F388
:101B200044321A70C0F347125A7000F01F000022AE
:101B300098729A701A742C22DA70114B40226FF44A
:101B400048711A700B4420221A6070473480044098
:101B50005612FF1FED11FF1F5C12FF1F5712FF1FD0
:101B6000EC11FF1FA407FF1F14D0044028A004405D
:101B7000A507FF1F10D004402CA0044000D0064051
:101B800025E400E0184B9A7802F0EC0100F0030223
:101B90000A43410748BF42F010029A70124900F010
:101BA0000F02042A02BF8A7942F040028A715A79F0
:101BB000C30602F0EF020C4B48BF42F010025A710C
:101BC0009A79810602F0EF0248BF42F010029A7142
:101BD000C305054906D54B780A78DBB242F02002EE
:101BE0000A704B70704700BF00D006401F4B1B6847
:101BF0009B0410B500D410BD1D4C237803F0FF01E9
:101C000013B102F07FF9F8E71A4B1B481B4C202256
:101C10001A601B4BD970A3F50B33A3F5757340F213
:101C2000031202601A6024781F2C04D03F2C03D1C9
:101C3000144A116000E00260134A127802F07F0239
:101C4000202A04D03E2A05D10022104B01E040F2A8
:101C500003121A600E4A002313700E4A13700E4BC3
:101C60001B680BB101221A7010BD00BF3480044004
:101C7000EC11FF1F84E100E028A00440A407FF1F2F
:101C800000D0064014D00440A507FF1F10D0044028
:101C90005612FF1FED11FF1FE811FF1F0A4A38B54A
:101CA0000446137803F0FF05002BFAD101212046EA
:101CB00000F080FD2946204600F05CFD034B53F800
:101CC0003420034B1A6038BDEC11FF1FD4510000C3
:101CD0005812FF1F10B509B140F08000144A137864
:101CE0009842144622D0134A126892041DD503F07C
:101CF0007F03202B04D03E2B05D100220E4B01E0A8
:101D00000E4B00221A60002900F07F0214BF6023EE
:101D10004423202A05D03E2A07D143F44073064AC3
:101D200002E0064A43F440731360207010BD00BF08
:101D3000A507FF1F3480044010D004402CA00440AD
:101D40000F4B1A7882421AD00E490968890415D5BA
:101D50001F2A04D03F2A05D100210B4A01E00B4A7B
:101D6000002111601F2805D03F2807D140F2133110
:101D7000054A02E0054A40F21331116018707047BD
:101D8000A407FF1F3480044014D0044028A004405E
:101D900038B50D4B1B6813F400534FF0000410D0FE
:101DA0003F280A4D0AD80A4B012153F830302B60E6
:101DB00000F000FD2B681C70012038BD2C6020460F
:101DC00038BD184638BD00BF34800440E811FF1FFD
:101DD000D4510000002070472DE9F8431F4B1B68C9
:101DE0009A04064637D51E4B1B680BB101221A70A8
:101DF0001C4DDFF880902C781B4F0134282C28BF15
:101E00000024C84699F80030A34219D1FFF73CFEE0
:101E1000402810DC3B791B06F4D599F80030134AB2
:101E20000133282B28BF0023D25CDBB2D2B2FA7177
:101E300088F80030E6E7FF28E4DD02F063F8E1E728
:101E40000A4BF6B21E550A4B01221A70064BE4B239
:101E5000AC222C70DA70BDE8F88300BF34800440F7
:101E60005812FF1F5C12FF1F00D00640EE11FF1F2B
:101E7000EC11FF1F5712FF1F38B504464518AC423E
:101E800004D014F8010BFFF7A7FFF8E738BDFFFFF8
:101E900010B5034C237813B102F034F8FAE710BD03
:101EA000EC11FF1F064B1878064B1A78C0B2D3B25C
:101EB00098422CBF273303F1FF33181A704700BF35
:101EC0005C12FF1F5712FF1F054B1878054B1A783D
:101ED000C0B2D3B2984238BF4030C01A704700BF7A
:101EE0005612FF1FED11FF1F10B5104B104C1B7841
:101EF0002278D9B2D2B2914214D0531C402B28BFC1
:101F000000230C4AD05CDAB222700B4A1268C0B2CD
:101F100052B18B4288BF4031CB1A1A2B04DC00230C
:101F2000137010BD4FF0FF3010BD00BF5612FF1FE1
:101F3000ED11FF1F1612FF1FE811FF1F084B1A7843
:101F4000084B1B78DBB29A4207D00133402B28BFE5
:101F50000023054AD05CC0B270474FF0FF30704795
:101F60005612FF1FED11FF1F1612FF1F054B064AE9
:101F70001B78DBB21370054B1B680BB100221A7083
:101F8000704700BFED11FF1F5612FF1FE811FF1F22
:101F900010B5284B1A79920620D52749DA790B78A3
:101FA0002648013300783F2BC8BF0023834218BF67
:101FB0002348D2B21EBFC254DAB20A70214A116855
:101FC00061B1214A1278D2B2934236BFC2F14002C7
:101FD0009B1A9B18272BC4BF01230B701549CA7885
:101FE000D2B2140616D50B79180613D5174B164C1A
:101FF00018782378DBB2984202D16C23CB7009E0C9
:102000000133282B28BF00231148C05CDBB2C0B2CB
:10201000C871237051060CD5064B1A79520608D5A3
:102020000C4A002111700C4A126802B111702C2266
:10203000DA7010BD00D006405612FF1FED11FF1FD1
:102040001612FF1FE811FF1F5712FF1F5C12FF1F20
:10205000EE11FF1FEC11FF1F5812FF1F294A1368D2
:1020600043F400631360284A00231370274A137057
:10207000274A1370274A1370274A1370274B1B787F
:102080001A2B07D03B2B09D0092B0BD140F213326E
:10209000234B06E040F21332224B02E0224B40F287
:1020A00013321A60214B1B781F2B07D03A2B09D013
:1020B0000A2B0BD14FF451721D4B06E04FF45172B5
:1020C0001C4B02E01C4B4FF451721A601B4BC0F3C7
:1020D00044321A70C0F347125A700421022200F0F1
:1020E0001F0098729970DA745975882119743C210F
:1020F000D970134B402119706FF447710B441A606B
:10210000704700BF34800440CE12FF1F6512FF1FCE
:10211000D412FF1FCF12FF1F6412FF1FA607FF1F5D
:102120000CB004403890044004D00440A707FF1FBF
:1021300010B0044028A0044000D0044000B0064085
:1021400021E400E0184B9A7802F0EC0100F0030261
:102150000A43410748BF42F010029A70124900F04A
:102160000F02042A02BF8A7942F040028A715A792A
:10217000C30602F0EF020C4B48BF42F010025A7146
:102180009A79810602F0EF0248BF42F010029A717C
:10219000C305054906D54B780A78DBB242F0200228
:1021A0000A704B70704700BF00B006401C4B1B68A4
:1021B0001B0510B500D410BD1A4C227802F0FF03A5
:1021C00012B101F09FFEF8E7174A02211160174A89
:1021D000D370174A1278092A04D03B2A06D1154A2F
:1021E000136003E0144B40F203121A60134B1B7888
:1021F00003F07F030A2B04D03A2B06D10022104BA8
:1022000002E0104B40F203121A600F4A00231370D1
:102210000E4A13700E4B1B680BB101221A7010BDD1
:10222000348004406412FF1F84E100E000B00640E7
:10223000A607FF1F04D004400CB00440A707FF1FEF
:1022400000D0044010B00440CE12FF1F6512FF1FE3
:102250006012FF1F0A4A38B50446137803F0FF05E1
:10226000002BFAD10121204600F0A4FA294620468D
:1022700000F080FA034B53F83420034B1A6038BD4A
:102280006412FF1FD4510000D012FF1F10B509B116
:1022900040F08000144A13789842144622D0134A22
:1022A000126812051DD503F07F030A2B04D03A2BC8
:1022B00005D100220E4B01E00E4B00221A600029CE
:1022C00000F07F0214BF602344230A2A05D03A2A73
:1022D00007D143F44073064A02E0064A43F44073D0
:1022E0001360207010BD00BFA707FF1F348004409B
:1022F00000D0044010B004400F4B1A7882421AD02C
:102300000E490968090515D5092A04D03B2A05D1CB
:1023100000210B4A01E00B4A00211160092805D079
:102320003B2807D140F21331054A02E0054A40F24A
:102330001331116018707047A607FF1F34800440E6
:1023400004D004400CB0044038B50D4B1B6813F4A6
:1023500000634FF0000410D03F280A4D0AD80A4B02
:10236000012153F830302B6000F024FA2B681C70E8
:10237000012038BD2C60204638BD184638BD00BF4E
:10238000348004406012FF1FD45100000E4B1B68C4
:1023900013F4006316D017280C4B03D140F202311E
:1023A0000B4A04E03C2809D10A4A40F2023111608C
:1023B0005A7B42F001025A73012070475A7B02F0A7
:1023C000FE025A73002070473480044000B006407B
:1023D00008B0044008D004402DE9F8431F4B1B68A7
:1023E0001A05064637D51E4B1B680BB101221A7021
:1023F0001C4DDFF880902C781B4F0134282C28BF0F
:102400000024C84699F800309C4219D1FFF73CFBE4
:10241000402810DC3B791B06F4D599F80030134AAC
:102420000133282B28BF0023D25CDBB2D2B2FA7171
:1024300088F80030E6E7FF28E4DD01F063FDE1E71E
:102440000A4BF6B21E550A4B01221A70064BE4B233
:10245000BC222C70DA70BDE8F88300BF34800440E1
:10246000D012FF1FD412FF1F00B006406612FF1FDC
:102470006412FF1FCF12FF1F2DE9F84F264B1B6878
:102480001A050646884645D5244B1B680BB1012228
:102490001A70234FB246B94606EB08039A4536D266
:1024A0003C78204BDFF87CB01B780134282C28BF07
:1024B00000249C420AD01C4B1AF8011B19551B4BD7
:1024C0000121E4B2197089F80040E5E7184DBC23FA
:1024D000EB70FFF7D9FA402810DC2B791B0611D5D9
:1024E0009BF80030104A0133282B28BF0023D05C12
:1024F000DBB2C0B2E8718BF8003003E0FF2801DDE9
:1025000001F000FD9BF800309C42E2D0D3E7084B7D
:10251000BC22DA70BDE8F88F34800440D012FF1F6F
:10252000D412FF1FCF12FF1F6612FF1F6412FF1F7E
:1025300000B0064010B5034C237813B101F0E2FC63
:10254000FAE710BD6412FF1F064B1878064B1A7885
:10255000C0B2D3B298422CBF273303F1FF33181A0D
:10256000704700BFD412FF1FCF12FF1F054B187812
:10257000054B1A78C0B2D3B2984238BF4030C01A67
:10258000704700BFCE12FF1F6512FF1F10B5104B22
:10259000104C1B782278D9B2D2B2914214D0531C7D
:1025A000402B28BF00230C4AD05CDAB222700B4AC1
:1025B0001268C0B252B18B4288BF4031CB1A1A2B7D
:1025C00004DC0023137010BD4FF0FF3010BD00BFBE
:1025D000CE12FF1F6512FF1F8E12FF1F6012FF1F1A
:1025E000084B1A78084B1B78DBB29A4207D00133AC
:1025F000402B28BF0023054AD05CC0B270474FF083
:10260000FF307047CE12FF1F6512FF1F8E12FF1F93
:102610000C4B1B681B0514D50B4BDA7802F0CB0270
:10262000DA7040225A74DA7842F03402DA70074BDA
:10263000074A1B78DBB21370064B1B680BB10022F4
:102640001A7070473480044000B006406512FF1FC6
:10265000CE12FF1F6012FF1FF0B534490B7913F043
:10266000300F2FD072B68B7D03F0FF0423B9CB79E6
:1026700040234B7462B625E062B62D482D4A03789C
:1026800012782D4FDBB2D2B20546581C4028CE79C5
:1026900028BF00209042F6B21CBF3E540346601E85
:1026A00010F0FF04F1D1D9B229702449096849B169
:1026B000934236BFC2F140029B1A9B18272BC4BF1E
:1026C00001230B70194AD178C9B20D061ED51379B2
:1026D0001C061BD51A4B1B481D7803781A4EEDB209
:1026E000DBB2AB420AD00133282B28BF0023147978
:1026F000F45CE4B2D471147D072CF2D9DBB2037020
:102700000A4B1A79100644BF7C22DA7049060CD5B0
:10271000064B1A79520608D50C4A002111700C4A52
:10272000126802B111703C22DA70F0BD00B00640B0
:10273000CE12FF1F6512FF1F8E12FF1F6012FF1FB8
:10274000D412FF1FCF12FF1F6612FF1F6412FF1F5C
:10275000D012FF1F044B054900221A600A60044A88
:10276000106010221A60704714D0034004D0034058
:1027700000D003403F2810B518D80D4B53F8302037
:1027800092F880423CB1012311B182F8803010BD33
:1027900082F8003110BD03EBC0035B681A6811B109
:1027A00042F0030201E022F002021A6010BD00BFF5
:1027B000D45100003F2810B537D81C4A02EBC003A3
:1027C00001295B68144601D004290FD154F8302048
:1027D000012082F880024FF4A2721A601A6804295C
:1027E0000CBF42F0200222F020021DE052F83020FF
:1027F000002082F8800211B18A1E012A12D84FF4FB
:10280000807202291A6003D11A6842F003020BE0B9
:1028100003290AD11A6842F002021A601A6822F0EB
:10282000010201E040F203121A6010BDD451000011
:1028300072B60B4B0B4A0C491B681268096862B6EA
:10284000490102D5322B88BF0132C3F53B4330200A
:102850007F33B3FBF0F34FF47A7000FB0230704724
:1028600018E000E0D812FF1F04ED00E038B5044680
:10287000FFF7DEFF054624B938BD013C0AD005F557
:102880007A75FFF7D5FF401BB0F57A7FF5D201F0DE
:1028900039FBF6E738BDFFFF2A4B4FF0006270B5F9
:1028A0001A604FF080521A604FF000521A604FF0D9
:1028B00080421A604FF000421A60234B234A244D95
:1028C000244C254E4BF6FF710020186059602823D8
:1028D0001360936013619361136293621363936354
:1028E000103202F501222B602360136093601361A4
:1028F0009361136293620922326006F580560436B2
:1029000030607160B360336146F8042C06F5FE2632
:1029100030607160B360336146F8042C06F5805670
:1029200030600E4801602B6023600D4B1A60FEF78B
:1029300029F94FF4C870FFF799FFBDE87040FFF721
:102940002DB800BF04E100E0048003400C80034088
:102950000C900B4014900B400080034008900B40FB
:1029600000900B4030B503460020B3FBF2F402FBAD
:102970001433092B94BF30333733DBB20B54234667
:102980000CB10130F1E70A1823465470C41AA3426F
:1029900006DACC5C1578CD5402F801490133F5E72D
:1029A000084630BD294A136843F480631360284AFF
:1029B00000231370274A1370274A1370274A137095
:1029C000274A1370274B1B78152B06D01B2B08D0DA
:1029D0005BB940F21332244B06E040F21332234B32
:1029E00002E0234B40F213321A60224B1B78052B76
:1029F00007D01A2B09D0012B0BD14FF451721E4B6B
:102A000006E04FF451721D4B02E01D4B4FF4517222
:102A10001A601C4BC0F344321A70C0F347125A704C
:102A200000F01F000422022198729A70D9745A751E
:102A300088221A743C22DA70134B40221A70A3F2D7
:102A40001F334FF000421A60704700BF34800440CB
:102A50006313FF1FE112FF1F6C13FF1F6413FF1F9F
:102A6000E012FF1F2213FF1F40A0044018C00440C3
:102A70003C900440A807FF1F44A004401CC0044031
:102A80003890044000A006401FE400E0184B9A78FC
:102A900002F0EC0100F003020A43410748BF42F094
:102AA00010029A70124900F00F02042A02BF8A79BC
:102AB00042F040028A715A79C30602F0EF020C4BD1
:102AC00048BF42F010025A719A79810602F0EF0273
:102AD00048BF42F010029A71C305054906D54B78EC
:102AE0000A78DBB242F020020A704B70704700BFD8
:102AF00000A00640114B1B685B0510B500D410BD4B
:102B00000F4C227802F0FF0312B101F0FBF9F8E755
:102B10000C4A4FF0004111600B4A0C49D37040F24F
:102B200003120A604A600A4A13700A4A13700A4B79
:102B30001B680BB101221A7010BD00BF3480044025
:102B4000E012FF1F80E100E000A0064040A004402A
:102B50006313FF1FE112FF1FDC12FF1F0A4A38B583
:102B60000446137803F0FF05002BFAD1012120461B
:102B7000FFF720FE29462046FFF7FCFD034B53F8E4
:102B80003420034B1A6038BDE012FF1FD4510000FF
:102B90006813FF1F10B509B140F08000194A13787F
:102BA000984214462DD0184A1268520528D503F0D1
:102BB0007F03052B06D01A2B07D0012B08D100224A
:102BC000124B04E00022124B01E0124B00221A606B
:102BD000002900F07F0214BF60234423052A07D098
:102BE0001A2A09D0012A0BD143F44073074A06E0A0
:102BF00043F44073064A02E0064A43F4407313600C
:102C0000207010BDA807FF1F3480044044A004407A
:102C10001CC0044038900440144A1378834223D0E7
:102C20001349096849051ED5152B05D01B2B06D065
:102C300043B910490B6005E000210F4B01E00F4B39
:102C400000211960152806D01B2808D058B940F279
:102C50001331084B06E040F21331074B02E0074BFB
:102C600040F2133119601070704700BF2213FF1F2C
:102C70003480044040A0044018C004403C9004400C
:102C800038B50D4B1B6813F480634FF0000410D06F
:102C90003F280A4D0AD80A4B012153F830302B60E7
:102CA000FFF788FD2B681C70012038BD2C60204682
:102CB00038BD184638BD00BF34800440DC12FF1F09
:102CC000D45100000E4B1B6813F4806316D01228F9
:102CD0000C4B03D140F202310B4A04E0142809D115
:102CE0000A4A40F2023111605A7B42F001025A73E3
:102CF000012070475A7B02F0FE025A730020704791
:102D00003480044000A006400CA0044014C00440DD
:102D10002DE9F8431F4B1B685A05064637D51E4B55
:102D20001B680BB101221A701C4DDFF880902C78C3
:102D30001B4F0134402C28BF0024C84699F80030AE
:102D4000A34219D1FEF7A0FE402810DC3B791B06F8
:102D5000F4D599F80030134A0133402B28BF0023E3
:102D6000D25CDBB2D2B2FA7188F80030E6E7FF2815
:102D7000E4DD01F0C7F8E1E70A4BF6B21E550A4B55
:102D800001221A70064BE4B2BC222C70DA70BDE846
:102D9000F88300BF348004406813FF1F6C13FF1FCB
:102DA00000A00640E212FF1FE012FF1F6413FF1F86
:102DB0002DE9F84F264B1B685A050646884645D52F
:102DC000244B1B680BB101221A70234FB246B9463F
:102DD00006EB08039A4536D23C78204BDFF87CB0EE
:102DE0001B780134402C28BF00249C420AD01C4B85
:102DF0001AF8011B19551B4B0121E4B2197089F80F
:102E00000040E5E7184DBC23EB70FEF73DFE40287F
:102E100010DC2B791B0611D59BF80030104A0133CA
:102E2000402B28BF0023D05CDBB2C0B2E8718BF826
:102E3000003003E0FF2801DD01F064F89BF800306A
:102E40009C42E2D0D3E7084BBC22DA70BDE8F88F91
:102E5000348004406813FF1F6C13FF1F6413FF1FAF
:102E6000E212FF1FE012FF1F00A0064010B5034C46
:102E7000237813B101F046F8FAE710BDE012FF1F06
:102E8000064B1878064B1A78C0B2D3B298422CBFC2
:102E90003F3303F1FF33181A704700BF6C13FF1F55
:102EA0006413FF1F054B1878054B1A78C0B2D3B2D4
:102EB000984238BF4030C01A704700BF6313FF1FED
:102EC000E112FF1F10B5104B104C1B782278D9B2BD
:102ED000D2B2914214D0531C402B28BF00230C4A7D
:102EE000D05CDAB222700B4A1268C0B252B18B4287
:102EF00088BF4031CB1A1A2B04DC0023137010BD9D
:102F00004FF0FF3010BD00BF6313FF1FE112FF1F22
:102F10002313FF1FDC12FF1F084B1A78084B1B7886
:102F2000DBB29A4207D00133402B28BF0023054A69
:102F3000D05CC0B270474FF0FF3070476313FF1F83
:102F4000E112FF1F2313FF1F0C4B1B685B0514D5F9
:102F50000B4BDA7802F0CB02DA7040225A74DA783E
:102F600042F03402DA70074B074A1B78DBB2137069
:102F7000064B1B680BB100221A7070473480044066
:102F800000A00640E112FF1F6313FF1FDC12FF1FAA
:102F9000F0B534490B7913F0300F2FD072B68B7D1A
:102FA00003F0FF0423B9CB7940234B7462B625E0CC
:102FB00062B62D482D4A037812782D4FDBB2D2B27B
:102FC0000546581C4028CE7928BF00209042F6B212
:102FD0001CBF3E540346601E10F0FF04F1D1D9B26D
:102FE00029702449096849B1934236BFC2F14002B1
:102FF0009B1A9B18272BC4BF01230B70194AD17849
:10300000C9B20D061ED513791C061BD51A4B1B48D9
:103010001D7803781A4EEDB2DBB2AB420AD0013311
:10302000402B28BF00231479F45CE4B2D471147DE2
:10303000072CF2D9DBB203700A4B1A79100644BF91
:103040007C22DA7049060CD5064B1A79520608D54F
:103050000C4A002111700C4A126802B111703C2216
:10306000DA70F0BD00A006406313FF1FE112FF1FDE
:103070002313FF1FDC12FF1F6C13FF1F6413FF1FBE
:10308000E212FF1FE012FF1F6813FF1F10B572B698
:103090000B480268B2FA82F10B2902DD62B6002009
:1030A00010BD4FF00043CB4022EA0302026062B63B
:1030B000044C48234B43E0180022E250426010BD0C
:1030C000AC07FF1F9803FF1F0C4B4822C31AB3FB2A
:1030D000F2F30B2B11D80A4A127822B1094A12785E
:1030E0000AB1FEF7D5B872B607494FF0004222FA8E
:1030F00003F30A681A430A6062B670479803FF1F19
:10310000DA11FF1FE311FF1FAC07FF1F10B5104CB2
:1031100023686BB1206843885A1C03441C7A0388D7
:103120009A4212D3FFF7D0FF094B00221A600DE03C
:10313000084B1B7813B94FF0FF3010BD0320FEF78A
:1031400079F820600028E5D1F5E74280204610BDDF
:103150007813FF1FE311FF1F10B50B4C236813B149
:1031600022686AB902E0094B1B7813B94FF0FF30AF
:1031700010BD0320FEF75EF820600028F0D1F5E7CF
:1031800053881344187A10BD7813FF1FE311FF1FF3
:10319000044B9888044B1A681AB1138852889B1AFA
:1031A00018447047441BFF1F7813FF1F10B5094BCD
:1031B0001B786BB1084C206818B1FFF785FF00231E
:1031C00023600320FEF736F810B1FFF77DFFF8E724
:1031D00010BD00BFE311FF1F7813FF1F2DE9F84F4B
:1031E000304DDFF8D080012381460C462B704646D7
:1031F000002C52D0D8F8003043BBDFF8A8A0DFF88D
:10320000ACB047F20957284B1B7803F0FF010BB90C
:10321000297014E00420FEF729F8072807D80123B5
:103220002B70FFF733FF306080B98AF80000013F50
:1032300002D09BF8003033B11C4B01221A704FF0C2
:10324000FF30BDE8F88F00F05DFEDCE7174B002192
:10325000197031684B88C3F14000A04228BF204656
:103260001F180B444F80241A073309EB0007B94598
:1032700004D019F8010B03F8010FF8E74B883F2B36
:1032800006D940230B800420FEF73EF8002333606C
:10329000074B05221A70B946AAE72C702046BDE8F4
:1032A000F88F00BF6E13FF1FE311FF1F7413FF1F82
:1032B0006D13FF1F7013FF1F07B502AB012103F849
:1032C000010D1846FFF78AFF03B05DF804FBFFFF0E
:1032D0002DE9F041114B1B78F3B1114F114B3C68B4
:1032E000114D01261E7098464CB1002663882E7041
:1032F000214623800420FEF707F83E6009E0FFF72F
:10330000C5FE014620B104202C70FDF7FDFF00E052
:103310002E70002388F80030BDE8F081E311FF1F14
:103320007013FF1F6E13FF1F6D13FF1F38B50E4B79
:103330001B7803F0FF05ABB90C4C216831B14B8809
:103340000B800420FDF7E0FF256038BDFFF79EFEEF
:10335000014620B10420BDE83840FDF7D5BF044B3D
:1033600001221A7038BD00BF6E13FF1F7013FF1FBC
:103370006D13FF1F164A136843F400631360154A68
:1033800000231370144A1370144A1370144A1370F4
:10339000144A1370144A40F2133111604FF4517102
:1033A0005160124AC0F344311170C0F3471100F06C
:1033B0001F0051709072937013742C23D3700C4BB8
:1033C00040221A70A3F54F7310221A60704700BF95
:1033D00028800440EE13FF1F8513FF1FF413FF1F07
:1033E000EF13FF1F8413FF1F20C0044000B00E40E6
:1033F00044E400E0184B9A7802F0EC0100F003027C
:103400000A43410748BF42F010029A70124900F087
:103410000F02042A02BF8A7942F040028A715A7967
:10342000C30602F0EF020C4B48BF42F010025A7183
:103430009A79810602F0EF0248BF42F010029A71B9
:10344000C305054906D54B780A78DBB242F0200265
:103450000A704B70704700BF00B00E40104B1B68E5
:103460001B0510B500D410BD0E4C227802F0FF03EE
:1034700012B100F047FDF8E70B4A102111600B4A2A
:103480000B49D37040F203120A604A60094A137074
:10349000094A1370094B1B680BB101221A7010BD49
:1034A000288004408413FF1F88E100E000B00E4034
:1034B00020C00440EE13FF1F8513FF1F8013FF1F62
:1034C0000A4A38B50446137803F0FF05002BFAD1F9
:1034D00001212046FFF76EF929462046FFF74AF9F9
:1034E000034B53F83420034B1A6038BD8413FF1F7D
:1034F000D4510000F013FF1F10B509B140F0800057
:103500000E4B1A78904217D00D4C2468E40412D563
:1035100002F07F02302A02BF0A4A00241460002908
:1035200000F07F010CBF44226022302902BF054910
:1035300042F440720A60187010BD00BFB007FF1F50
:103540003480044024C004407047FFFF38B50D4B61
:103550001B6813F400634FF0000410D03F280A4D9D
:103560000AD80A4B012153F830302B60FFF722F9BB
:103570002B681C70012038BD2C60204638BD1846D1
:1035800038BD00BF288004408013FF1FD4510000C5
:103590000B4B1B6813F4006310D03828094B09D17A
:1035A000094A40F2023111605A7B42F001025A731B
:1035B000012070475A7B02F0FE025A7300207047C8
:1035C0002880044000B00E4028D004402DE9F84384
:1035D0001F4B1B681A05064637D51E4B1B680BB1DF
:1035E00001221A701C4DDFF880902C781B4F01349B
:1035F000282C28BF0024C84699F80030A34219D1CE
:10360000FEF742FA402810DC3B791B06F4D599F806
:103610000030134A0133282B28BF0023D25CDBB2D1
:10362000D2B2FA7188F80030E6E7FF28E4DD00F056
:1036300069FCE1E70A4BF6B21E550A4B01221A70EB
:10364000064BE4B2AC222C70DA70BDE8F88300BF00
:1036500028800440F013FF1FF413FF1F00B00E403A
:103660008613FF1F8413FF1FEF13FF1F38B5044697
:103670004518AC4204D014F8010BFFF7A7FFF8E798
:1036800038BDFFFF10B5034C237813B100F03AFCAE
:10369000FAE710BD8413FF1F064B1878064B1A7803
:1036A000C0B2D3B298422CBF273303F1FF33181AAC
:1036B000704700BFF413FF1FEF13FF1F054B18786F
:1036C000054B1A78C0B2D3B2984238BF4030C01A06
:1036D000704700BFEE13FF1F8513FF1F10B5104B7F
:1036E000104C1B782278D9B2D2B2914214D0531C1C
:1036F000402B28BF00230C4AD05CDAB222700B4A60
:103700001268C0B252B18B4288BF4031CB1A1A2B1B
:1037100004DC0023137010BD4FF0FF3010BD00BF5C
:10372000EE13FF1F8513FF1FAE13FF1F8013FF1F34
:10373000084B1A78084B1B78DBB29A4207D001334A
:10374000402B28BF0023054AD05CC0B270474FF021
:10375000FF307047EE13FF1F8513FF1FAE13FF1FCF
:10376000054B064A1B78DBB21370054B1B680BB187
:1037700000221A70704700BF8513FF1FEE13FF1F52
:103780008013FF1F10B5284B1A79920620D52749C0
:10379000DA790B782648013300783F2BC8BF002325
:1037A000834218BF2348D2B21EBFC254DAB20A7095
:1037B000214A116861B1214A1278D2B2934236BFD0
:1037C000C2F140029B1A9B18272BC4BF01230B7028
:1037D0001549CA78D2B2140616D50B79180613D536
:1037E000174B164C18782378DBB2984202D16C2321
:1037F000CB7009E00133282B28BF00231148C05C9F
:10380000DBB2C0B2C871237051060CD5064B1A79D1
:10381000520608D50C4A002111700C4A126802B1F8
:1038200011702C22DA7010BD00B00E40EE13FF1F95
:103830008513FF1FAE13FF1F8013FF1FEF13FF1F22
:10384000F413FF1F8613FF1F8413FF1FF013FF1FC6
:103850000368C9B21B6818470368C9B21B681847D8
:103860000368C9B21B6818470368C9B21B681847C8
:103870000368C9B21B6818470368C9B21B681847B8
:103880000368C9B21B6818470368C9B21B681847A8
:1038900008B50846FEF7A0FA012008BD08B508469D
:1038A000FEF79AFA012008BD38B508460D4601F02A
:1038B00027FA044601462846FEF7DEFA204638BDC0
:1038C00010B5084614461146FEF7D6FA204610BD3C
:1038D000FEF7E8BAFEF74ABB08B50846FEF77AFAE3
:1038E000003018BF012008BD08B50846FEF750FAA1
:1038F000003018BF012008BD08461146FEF7EAB99E
:103900000846FEF71DBA0846FEF7C8B9FEF76EB9BD
:103910004B0803F1B76000F55840B0FBF1F0FEF73B
:10392000D1B810B54B0803F1B760144600F5584004
:10393000B0FBF1F0FEF7C6F82046BDE81040FEF7F8
:1039400021B9FEF7A5BAFEF7F9BAFEF7CDBAFEF730
:10395000BBBA08B50846FFF7DBF9012008BD08B57A
:103960000846FFF7D5F9012008BD38B508460D46D1
:1039700001F0C6F9044601462846FFF719FA204629
:1039800038BD10B5084614461146FFF711FA204617
:1039900010BDFFF775BAFFF7D7BA08B50846FFF7AD
:1039A00091F9003018BF012008BD08B50846FFF79F
:1039B00067F9003018BF012008BD08461146FFF71F
:1039C000E9B80846FFF728B90846FFF7C7B8FFF778
:1039D00091B84B0803F1B76000F55840B0FBF1F027
:1039E000FEF7E0BF10B54B0803F1B760144600F5D1
:1039F0005840B0FBF1F0FEF7D5FF2046BDE810407F
:103A0000FFF744B8FFF732BAFFF786BAFFF75ABAA2
:103A1000FFF748BA7047FFFF044B00221A714FF4BA
:103A20007A711A73024A99601A607047F813FF1F7F
:103A3000DC53000010B5044600F0A0F8204610BD8D
:103A40000448054A0549002303708023437300F0AE
:103A500043BE00BF0814FF1FF806FF1F353A0000E1
:103A60007047FFFF044B00221A714FF47A711A73EA
:103A7000024A99601A6070471C14FF1F3C540000F2
:103A800000F05EBEFFF792BBFFF722BCFFF764BBFE
:103A9000FFF73CBBFFF77CBB08461146FFF79EBB18
:103AA0000846FFF709BC7047044B00221A714FF417
:103AB0007A711A73024A99601A6070472C14FF1FBA
:103AC0009C540000024B01221A60024B1B681847ED
:103AD0000C7103404414FF1F024B01221A60024B79
:103AE0005B6818471C7103404414FF1F024B0122FE
:103AF0001A60024B9B6818472C7103404414FF1F47
:103B0000024B01221A60024BDB6818473C710340EC
:103B10004414FF1F054B01221A60054A136823F461
:103B200000031360034B00221A70704700700340BB
:103B30003C8004404014FF1F8268002310B41360CF
:103B4000027B0121541102F01F0201FA02F209491D
:103B500041F82420084A41785354D15C31B90133EB
:103B6000042BFAD15DF8044BFFF7D4BF5DF8044B8A
:103B7000704700BF80E100E03C14FF1F037810B5E0
:103B800004460BB1FFF7D8FF0023237010BD036874
:103B9000C9B21B6818470368C9B21B681847036895
:103BA000C9B21B6818470368C9B21B68184708B533
:103BB0000846FDF7DDF9012008BD08B50846FDF708
:103BC000D7F9012008BD38B508460D4601F098F830
:103BD000044601462846FDF71BFA204638BD10B5BD
:103BE000084614461146FDF713FA204610BDFDF7AE
:103BF00025BAFDF787BA08B50846FDF79BF90030EE
:103C000018BF012008BD08B50846FDF771F900305E
:103C100018BF012008BD08461146FDF73FB9084608
:103C2000FDF764B90846FDF71DB9FDF7E7B84B0885
:103C300003F1B76000F55840B0FBF1F0FDF76AB84A
:103C400010B54B0803F1B760144600F55840B0FBBF
:103C5000F1F0FDF75FF82046BDE81040FDF79AB897
:103C6000FDF7E2B9FDF736BAFDF70ABAFDF7F8B984
:103C70007047FFFF044B00221A714FF47A711A73D8
:103C8000024A99601A6070475414FF1FC054000024
:103C90000368C9B21B6818470368C9B21B68184794
:103CA0000368C9B21B6818470368C9B21B68184784
:103CB00008B50846FEF790FB012008BD08B5084688
:103CC000FEF78AFB012008BD38B508460D4601F015
:103CD00017F8044601462846FEF7CEFB204638BDBD
:103CE00010B5084614461146FEF7C6FB204610BD27
:103CF000FEF72ABCFEF78CBC08B50846FEF746FB6B
:103D0000003018BF012008BD08B50846FEF71CFBAF
:103D1000003018BF012008BD08461146FEF7B6BAAC
:103D20000846FEF7E9BA0846FEF794BAFEF73EBA2F
:103D30004B0803F1B76000F55840B0FBF1F0FEF717
:103D40008DB910B54B0803F1B760144600F5584023
:103D5000B0FBF1F0FEF782F92046BDE81040FEF717
:103D6000F1B9FEF7E7BBFEF73BBCFEF70FBCFEF771
:103D7000FDBB7047044B00221A714FF47A711A731D
:103D8000024A99601A6070476414FF1F20550000B2
:103D9000164AF8B51368164D43F080731360154A40
:103DA000136843F001031360134B2E681C688CB139
:103DB000237A6BB123682F681B68204698472A68CE
:103DC000E388D21B120991B29A42A18088BFE18098
:103DD0006469ECE72B68094A9B1B1B0999B21180A7
:103DE000074A1088834288BF1180F8BDFCED00E0CF
:103DF000041000E0001000E07414FF1F7A14FF1F8D
:103E00007814FF1F0368C9B21B6818470368C9B25A
:103E10001B6818470368C9B21B6818470368C9B212
:103E20001B68184708B50846FCF7AAFC012008BD26
:103E300008B50846FCF7A4FC012008BD38B50846C3
:103E40000D4600F05DFF044601462846FCF7E8FCFD
:103E5000204638BD10B5084614461146FCF7E0FC74
:103E6000204610BDFCF7F2BCFCF754BD08B508466F
:103E7000FCF768FC003018BF012008BD08B50846F3
:103E8000FCF73EFC003018BF012008BD0846114673
:103E9000FCF70CBC0846FCF731BC0846FCF7EABB53
:103EA000FCF7B4BB4B0803F1B76000F55840B0FB1A
:103EB000F1F0FCF737BB10B54B0803F1B7601446BF
:103EC00000F55840B0FBF1F0FCF72CFB2046BDE8B4
:103ED0001040FCF767BBFCF7AFBCFCF703BDFCF779
:103EE000D7BCFCF7C5BC7047044B00221A714FF4D5
:103EF0007A711A73024A99601A6070477C14FF1F26
:103F00008055000010B5154C237833BB0123237076
:103F1000FFF73EF908B1FFF7C6FDFEF7C3FF08B192
:103F2000FFF79EFDFEF722FB08B1FFF722FFFCF72B
:103F30009FFC08B1FFF7D7FFFDF7C6FF08B1FFF7F9
:103F400069FDFDF78DF808B1FFF792FEFFF7B6FBAC
:103F500008B100F076F80023237010BD8C14FF1F09
:103F60000368C9B21B6818470368C9B21B681847C1
:103F70000368C9B21B6818470368C9B21B681847B1
:103F800008B50846FFF722FB012008BD08B5084622
:103F9000FFF71CFB012008BD38B508460D4600F0B0
:103FA000AFFE044601462846FFF760FB204638BDB9
:103FB00010B5084614461146FFF758FB204610BDC1
:103FC000FFF76ABBFFF7CCBB08B50846FFF7E0FA7E
:103FD000003018BF012008BD08B50846FFF7B6FA43
:103FE000003018BF012008BD08461146FFF784BA0B
:103FF0000846FFF7A9BA0846FFF762BAFFF72EBADC
:104000004B0803F1B76000F55840B0FBF1F0FFF743
:10401000B1B910B54B0803F1B760144600F558402C
:10402000B0FBF1F0FFF7A6F92046BDE81040FFF71E
:10403000E1B9FFF727BBFFF77BBBFFF74FBBFFF7EC
:104040003DBB7047044B00221A714FF47A711A730A
:10405000024A99601A6070479014FF1FE0550000F3
:104060004FF4806310B50A2480E8180000F11401B1
:1040700000238360C36003610A4600F23464536026
:104080009360C2F8B430C2F8B830C432A242F6D15C
:104090000C4B19600C4B00F120021A600B4A0123F3
:1040A00013600B4AC0F8C8300021116009490A2288
:1040B0000A60C0F8D4200849084A03240C60136041
:1040C00010BD00BFA814FF1FA014FF1FA414FF1FE2
:1040D000C814FF1FCC14FF1FC014FF1FC414FF1F00
:1040E00072B6044B4A1C08BF01211868196062B6F9
:1040F000704700BFC014FF1F72B6034B022218683E
:104100001A6062B6704700BFC014FF1F836824495D
:10411000F0B5C42404FB03050A68C5F8D0200022CA
:10412000D5F8C860012E0DD104FB0206D6F8CC707C
:1041300047B11C4B8260D6F8D4201A600023C6F821
:10414000CC3017E00132082AEAD1C4240133072B0E
:1041500001DD002305E004FB0302D2F8C820012A98
:10416000F4D183608368C42202FB0303D3F8D42014
:104170000C4B1A6082680C4DC4235343C41814348A
:104180002C60C418094D203418442C60B2FA82F215
:10419000074CD0F8D0300B6052092260F0BD00BF50
:1041A000C814FF1FCC14FF1FA814FF1FA014FF1F6B
:1041B000A414FF1F0148FFF7A9BF00BFD014FF1FC1
:1041C000044A136801331360034B1B680BB100F002
:1041D00037BA7047D812FF1FC414FF1F1EF0040F18
:1041E0000CBFEFF30880EFF30980836913F8023CFA
:1041F000212B02D100F01ABA06E0222B04D1034B86
:1042000001221A6000F014BA704700BFC014FF1FEB
:1042100038B505460848FFF76FFF2B68014633B9EC
:1042200001242C600448FFF75BFF204638BD02489C
:10423000FFF756FF002038BDD014FF1F2DE9F047CF
:1042400004460E46FFF7E4FF98B9174D174FD5F80F
:104250000080DFF85C904FF0C40A2046FFF7D8FFDB
:1042600038B94EB12B68C8EB03039E4204D2BDE8B7
:10427000F0870120BDE8F0876368013311D10B4856
:10428000FFF73AFFBB686360D9F80030A36063684A
:104290000AFB037304220146C3F8C8200348FFF752
:1042A0001FFF21DFD9E700BFD812FF1FD014FF1F67
:1042B000CC14FF1F38B5164D04462846FFF71CFFE7
:1042C0002368012B01461BD1002222606268002A6C
:1042D00016DB6268A068511C08BFAA68C42101FBF4
:1042E0000252C2F8CC00626801FB02530122C3F8FB
:1042F000C8204FF0FF336360BFF35F8F22DF04E01D
:10430000BFF35F8F0248FFF7EBFE012038BD00BF0F
:10431000D014FF1F08B50748074A08490023037057
:104320008023437300F0D8F90548BDE80840FFF743
:1043300097BE00BFAC14FF1FF806FF1F353A000000
:10434000D014FF1F344A8260012B06BF02F51832D9
:104350004832324A4FF4007313609DF80030012B4D
:104360000CBF2F4A2F4A4FF4007313602E4A137864
:1043700043F0800313708268274B9A4201BF2B4A97
:10438000136843F0100313608268536823F40053EA
:1043900053608268136843F0804313608268136837
:1043A00023F00043136083681A68D202FCD41A68B1
:1043B00082F000721A6083681A689201FCD41A684D
:1043C000D201FCD51A6842F400321A608268136880
:1043D00043F0005313604CF250339942836801D18B
:1043E000134A13E0134A914201D1134A0EE0134AD3
:1043F000914201D1124A09E0124A914201D1124A76
:1044000004E0124A91420CBF114A124A5A6000233A
:104410000370437043607047004002403090044096
:104420004CA0044034900440005006403C800440BE
:1044300002007B13A086010002007B0990D00300DC
:1044400002007B0320A1070002007B0140420F0015
:104450000200090102007B0730B5836800221A615F
:104460004D7884680A784B6865B15B00002A23F0B8
:10447000404323F0010314BF4FF040424FF080420D
:1044800013430AE01149002A4FEAC34314BF4FF017
:1044900000420022194041EA0203A36482681368C3
:1044A00023F08053136083681A68D101FCD41A6822
:1044B0001201FCD480234FF0006182688032D15019
:1044C0001033B3F5807FF8D130BD00BF0000F83F56
:1044D0002DE9F341CE8805460C461EB1264B1B68DC
:1044E0000093009EDFF890800827AB683A01803384
:1044F00099189B5803F07063B3F1006F09D10B60FA
:104500002079AB682168A8B1843321F060419950CB
:1045100015E0E28822B901370F2FE6DD002027E001
:10452000D8F800300193019B9B1B9A42F6D9FFF704
:10453000E9FCDAE711488433890408409850AB68F5
:10454000A168883309BA9950AB68E1688C3309BA1D
:1045500099506379A96820791B04803103F4702392
:1045600010B143F0466301E043F040638B500120FB
:1045700002B0BDE8F08100BFD812FF1F0000FC1F91
:1045800030B5C025BDF9144005600825017282725E
:1045900029412A410373847301232C4145714172DF
:1045A000C2724373C47330BD13B50C20FFF768FAB1
:1045B000002300931A4606490446FFF7C3FE054B45
:1045C000214620461C6002B0BDE81040FFF744BF02
:1045D00048E801000C1BFF1F30B5094D85B08DE880
:1045E0000F0000212868FFF729FE064B694618686E
:1045F000FFF76EFF2868FFF75DFE05B030BD00BF16
:10460000081BFF1F0C1BFF1F08B50C20FFF738FA13
:1046100000234FF0FF320360436083600360426019
:104620008360014B186008BD081BFF1F72B616E0BF
:1046300072B618E072B6224800680121016006E0F7
:1046400072B61EF10F0F38D01EF11F0F35D01D4866
:104650000168002903D0A1F1010101602DE01A4891
:104660000068012829D119480068A0E8F04FA0ECA3
:10467000200AF1EE101A02C015480068002803D184
:10468000EFF3098013490860FFF794FD0F480068B5
:10469000B0E8F04FB0EC200A02C8E1EE101A0EF0BC
:1046A000100E6EF0160E0A480068002805D1094861
:1046B000006880F309884EF0040E62B6704700006F
:1046C000041BFF1FCC14FF1FC014FF1FA014FF1FEB
:1046D000A414FF1FC814FF1F0B460146184600F024
:1046E00001B800BF13460A460146022000F076BB1F
:1046F00070B50F4E0F4D761BB61018BF002405D0B5
:10470000013455F8043B9847A642F9D10A4E0B4DA7
:10471000761B00F093FFB61018BF002406D00134BA
:1047200055F8043B9847A642F9D170BD70BD00BF53
:1047300048560000485600007856000048560000D1
:10474000024B0146186800F003B800BFE00BFF1FE2
:104750002DE9F04F01F10B05162D83B0064640F20E
:104760009F8035F0070500F1BF80A94200F2BC80B0
:1047700000F0A6FAB5F5FC7FC0F09C826B0A00F051
:10478000BA80042B00F28381A80900F1390E4FEAA8
:104790004E033830C44F07EB8303A3F108015C6874
:1047A000A14207D1ACE0002A80F2AC80E468A142CB
:1047B00000F0A680636823F003035A1B0F2AF2DD82
:1047C000B9493C6901F1080E744500F0B381636892
:1047D00023F003035A1B0F2A00F39981002AC1F822
:1047E00014E0C1F810E080F29E80B3F5007F80F005
:1047F0006781DB0803F1010C01229B1002FA03F32D
:104800004A6851F83C80C4F8088001EBCC091A438F
:10481000A9F10803E3604A6041F83C40C8F80C4045
:10482000831001249C40944200F28A80144206D1F5
:1048300020F003006400144200F10400FAD007EBFA
:10484000C009CC468046DCF80C108C4507D173E1DA
:10485000002A80F28181C9688C4500F06D814B6827
:1048600023F003035A1B0F2AF2DD0C46D1F80CC0CB
:1048700054F8088F4B1945F001054D6042F00101D5
:10488000C8F80CC03046CCF808807B613B61C3F8A7
:104890000CE0C3F808E059609A5000F013FA1FE0EA
:1048A000102921D800F00CFA1025062302207E4F93
:1048B00007EB8303A3F108025C68944200F0458192
:1048C0006368E168A56823F00303234430465A680F
:1048D000E96042F001028D605A6000F0F3F908349B
:1048E000204603B0BDE8F08F00240C23204633603F
:1048F00003B0BDE8F08F80234FF0400E3F2049E722
:1049000070465DE72344E1685A68A56842F00102F9
:10491000E96030468D605A6000F0D4F908342046D2
:1049200003B0BDE8F08F234430465A6842F00102DC
:104930005A6000F0C7F90834204603B0BDE8F08F94
:10494000BC68636823F00308A84504D3C5EB0803DB
:104950000F2B00F38C80554BDFF860911A68D9F863
:10496000003001332A4404EB080A00F0608102F5AC
:1049700080520F3222F47F6222F00F02114630463D
:10498000019200F0A1F9B0F1FF3F8346019A00F0D7
:104990005881824500F2FC80454B1968DA45114484
:1049A000196000F05381D9F80000DFF810E1013000
:1049B0001BBFCAEB0B0A5144CEF800B019601BF0C4
:1049C000070100F01781C1F10800C1F5805183444F
:1049D00008315A44C2F30B02C2EB01094946304682
:1049E000019300F071F9431C019B00F03F81CBEB78
:1049F00000024A4442F001021968C7F808B049446D
:104A0000BC42CBF804201960DFF8A49016D0B8F1AE
:104A10000F0F40F2FD806268A8F10C0323F007033A
:104A2000E01802F001024FF0050E1A430F2B6260EE
:104A3000C0F804E0C0F808E000F21C811D4BBC681F
:104A40001A68914288BF19601B4B1A6891426268CC
:104A500088BF196022F003029542A2EB050301D83A
:104A60000F2B04DC304600F02DF9002438E76219E2
:104A700043F0010345F0010565603046BA605360BC
:104A800000F020F90834204603B0BDE8F08F142B65
:104A900071D9542B00F2A480280B00F16F0E4FEA5D
:104AA0004E036E3076E600BFE40BFF1F181BFF1F9E
:104AB0001C1BFF1F141BFF1F101BFF1FF00FFF1FEE
:104AC0005A0A042A5ED9142A00F2B38002F15C016A
:104AD00049005B3207EB810C57F82110DFF8DC81CD
:104AE000ACF1080C8C4500F088804A6822F0030283
:104AF000934202D289688C45F7D1D1F80CC07A680C
:104B0000C4F80CC0A160CCF80840CC6088E66319FA
:104B100042F0010745F00105656030464B610B61CD
:104B2000C3F80CE0C3F808E05F609A50083400F066
:104B3000C9F8D5E64A6873E608F1010818F0030FD2
:104B40000CF1080C7FF47FAE30E0DC68A34208BFB4
:104B500002303FF435AEB3E60B440C465A68C968E0
:104B600054F8085F42F001025A603046E9608D60F7
:104B700000F0A8F8B4E603F15C0E03F15B004FEA25
:104B80004E0307E69A0902F1390149003832A1E7DC
:104B9000BC424A4B3FF400AF9C68626822F00302BB
:104BA0005AE759F80839994540F0828010F0030F10
:104BB00000F1FF30F5D17B6823EA04037B606400D9
:104BC0009C423FF6BDAE002C3FF4BAAE1C424046BC
:104BD0007FF435AE64001C4200F10400FAD02EE6EA
:104BE000B3F5AA7F18D8E80B00F1780E4FEA4E0310
:104BF0007730CFE54FF48051EBE60121D8F804304F
:104C0000921001FA02F21A43C8F80420614677E7CD
:104C10000123CBF8043025E740F25452934220D8C8
:104C2000A80C00F17D0E4FEA4E037C30B2E5103245
:104C3000A4E6542A26D81A0B02F16F0149006E32FD
:104C400048E7BC68626822F0030205E7CAF30B007C
:104C500000287FF4A8AE4244BB6842F001025A60CB
:104C6000ECE6FE234FF07F0E7E2093E501224FF00D
:104C70000009C1E604F10801304600F073F9D9F8E3
:104C80000010DBE6B2F5AA7F05D8DA0B02F1780155
:104C9000490077321EE740F254518A4205D89A0CF7
:104CA00002F17D0149007C3214E7FE217E2211E7EA
:104CB0007B6884E7E808431C5B00F8E5E40BFF1F12
:104CC000704700BF704700BF38B5074C002305464A
:104CD00008462360FCF7D0FE431C00D038BD236893
:104CE000002BFBD02B6038BD581BFF1FFFFFFFFFC1
:104CF000FFFFFFFFFFFFFFFFFFFFFFFFFFFFFFFFC4
:104D000090F800F06DE9024520F007016FF0000C0B
:104D100010F0070491F820F040F049804FF00004B3
:104D20006FF00700D1E9002391F840F000F108008E
:104D300082FA4CF2A4FA8CF283FA4CF3A2FA8CF3C6
:104D40004BBBD1E9022382FA4CF200F10800A4FA2D
:104D50008CF283FA4CF3A2FA8CF3E3B9D1E9042381
:104D600082FA4CF200F10800A4FA8CF283FA4CF3B8
:104D7000A2FA8CF37BB9D1E9062301F1200182FA72
:104D80004CF200F10800A4FA8CF283FA4CF3A2FA78
:104D90008CF3002BC6D0002A04BF04301A4612BA86
:104DA000B2FA82F2FDE8024500EBD2007047D1E989
:104DB000002304F00305C4F100004FEAC50514F018
:104DC000040F91F840F00CFA05F562EA05021CBFE9
:104DD00063EA050362464FF00004A9E72DE9F047B6
:104DE000254C2568D5F8484106468846924699469E
:104DF000C4B360681F2817DC431C76B104EB800540
:104E00000122C5F888A0D4F8881182401143022EEF
:104E1000C4F88811C5F808911ED00230636044F8C8
:104E200020800020BDE8F087144B03B34FF4C87016
:104E3000FFF786FC0446D0B1D5F84831002780E85A
:104E40008800C5F8484138460123C4F88871C4F881
:104E50008C71002EE1D0D1E7D4F88C110A43C4F84C
:104E60008C21DAE705F5A674C5F84841C1E74FF093
:104E7000FF30BDE8F08700BF385600004147000012
:104E8000024B13B1024800F005B870470000000063
:104E9000A14E0000002301461A461846FFF79EBFA8
:104EA00038B5074D074C2C1BA41005D0013C55F814
:104EB000043D9847002CF9D1BDE8384000F0DCBB38
:104EC0000000000000000000F8B5234F0C46064625
:104ED000FFF7F6FEBB685D6825F00305291B01F6A8
:104EE000EF7121F47F6121F00F01A1F58054B4F539
:104EF000805F07DB00213046FFF7E6FEBB682B44EE
:104F0000984204D03046FFF7DDFE0020F8BD614234
:104F10003046FFF7D9FE01300DD0104BBA68196842
:104F20002D1B45F001053046091B55601960FFF740
:104F3000C9FE0120F8BD00213046FFF7C5FEBA6862
:104F4000831A0F2BDEDD064C0449246843F001036D
:104F5000001B53600860D5E7E40BFF1F1C1BFF1FFD
:104F6000F00FFF1F002945D02DE9F0410D46804686
:104F7000FFF7A6FE55F8047C6A4927F00103A5F166
:104F80000804E2188E685068B24220F0030062D034
:104F9000FE0750600BD455F8087CE41B01F1080EA5
:104FA000A56875453B446FD0E768EF60BD60151894
:104FB0006D68ED0742D543F001026260E350B3F53E
:104FC000007F18D2DB085A1C4D6851F83270A76078
:104FD00001209B1000FA03F301EBC2001D430838C7
:104FE000E0604D6041F83240FC604046BDE8F04171
:104FF000FFF768BE70475A0A042A53D89A0902F18B
:1050000039077F0002F1380501EB870051F82720AE
:105010004449083890424DD0516821F003018B4239
:1050200002D292689042F7D1D068E060A2608460BA
:10503000D4604046BDE8F041FFF744BE95683A4F62
:10504000BD4203443FD0D068E86043F00102856070
:105050006260E350B3E7FF07034407D455F8082C18
:10506000A41A1344A068E268C26090602F4A1268D4
:1050700043F00100934260608C60B6D32C4B4046F5
:105080001968FFF721FFB0E711184968C90744D430
:105090009168D268CA60034443F001009160606087
:1050A000E350A2E7142A17D802F15C077F0002F14F
:1050B0005B05A9E7AA104B68012505FA02F2134324
:1050C0004B600246B1E743F001024C610C61E560C0
:1050D000A5606260E35088E7542A06D81A0B02F1F3
:1050E0006F077F0002F16E058EE7B2F5AA7F06D842
:1050F000DA0B02F178077F0002F1770584E740F2CE
:105100005450824206D89A0C02F17D077F0002F1CA
:105110007C0579E7FE277E2576E743F00102626091
:10512000E35062E7E40BFF1FEC0BFF1FEC0FFF1FC8
:10513000181BFF1F0015191500010000FD06FF1FB9
:1051400012000000000200002807FF1F43000000BB
:10515000000300008207FF1F000000000103090494
:105160001007FF1F00000000020309046C07FF1F67
:1051700000000000030309048607FF1F0000000071
:10518000000000000000000000000000050E0809FB
:105190000D0C06070F0403938E8F050E08090D0CE6
:1051A00006070F04FFFFFFFFFFFFFF8E8F11128422
:1051B00085868791FFFFFFFFFFFFFFFFFF8A8BFFC1
:1051C000FFFFFFFFFFFFFFFFFFFFFFFF03931797A7
:1051D00001811A924008FE4340A004404408FE4367
:1051E00044A004400018FE4300C004403000FE43C9
:1051F000309004403400FE43349004401C18FE43B9
:105200001CC004401018FE4310C004400818FE43A0
:1052100008C004400C18FE430CC004400C10FE43B0
:105220000CB004401010FE4310B004401810FE43B0
:1052300018B004401C10FE431CB004401410FE4380
:1052400014B004400418FE4304C004400010FE43A0
:1052500000B004400008FE4300A004400408FE43E0
:1052600004A004400C08FE430CA004400808FE43C0
:1052700008A004401418FE4314C004401818FE434C
:1052800018C004400410FE4304B004400810FE435C
:1052900008B004406820FE4368D004401400FE4378
:1052A000149004403800FE43389004403C00FE4314
:1052B0003C9004404000FE43409004404808FE43B8
:1052C00048A004404C08FE434CA004402808FE437C
:1052D00028A004402C08FE432CA004406020FE437C
:1052E00060D004406420FE4364D004402010FE439C
:1052F00020B004402410FE4324B004402810FE4394
:1053000028B004402C10FE432CB004404400FE435F
:10531000449004407000FE43709004407400FE43CB
:10532000749004406800FE43689004405008FE43B7
:1053300050A004405808FE4358A004405C08FE43B7
:105340005CA004405408FE4354A004402018FE43CF
:1053500020C004402418FE4324C004401008FE432B
:1053600010A004401408FE4314A004403818FE4363
:1053700038C004403418FE4334C004403018FE43A3
:1053800030C004403C18FE433CC004402C18FE438F
:105390002CC004402820FE4328D004402C20FE438B
:1053A0002CD004400020FE4300D004400420FE43E3
:1053B00004D004400820FE4308D004400C20FE43E3
:1053C0000CD004401020FE4310D004401420FE43B3
:1053D00014D0044000000000000000009D380000D0
:1053E000C13800004F3900004B3900004739000038
:1053F0004339000011390000233900000D39000045
:105400000739000001390000F9380000E9380000D0
:10541000D9380000D5380000D138000071380000BC
:10542000793800008138000089380000A938000070
:105430009138000000000000000000005F3900000B
:1054400083390000113A00000D3A0000093A0000CB
:10545000053A0000D3390000E5390000CF390000DB
:10546000C9390000C3390000BB390000AB39000066
:105470009B39000097390000933900005138000033
:105480005938000061380000693800006B390000AD
:10549000533900000000000000000000A13A0000A5
:1054A000993A0000953A0000913A00008D3A0000C8
:1054B000893A0000853A000000000000000000006A
:1054C000BB3B0000DF3B00006D3C0000693C00007E
:1054D000653C0000613C00002F3C0000413C0000A6
:1054E0002B3C0000253C00001F3C0000173C000046
:1054F000073C0000F73B0000F33B0000EF3B0000DF
:105500008F3B0000973B00009F3B0000A73B000043
:10551000C73B0000AF3B000000000000000000009F
:10552000BD3C0000E13C00006F3D00006B3D000011
:10553000673D0000633D0000313D0000433D000039
:105540002D3D0000273D0000213D0000193D0000D9
:10555000093D0000F93C0000F53C0000F13C000072
:10556000913C0000993C0000A13C0000A93C0000D7
:10557000C93C0000B13C0000000000000000000039
:10558000313E0000553E0000E33E0000DF3E0000DB
:10559000DB3E0000D73E0000A53E0000B73E000005
:1055A000A13E00009B3E0000953E00008D3E0000A5
:1055B0007D3E00006D3E0000693E0000653E00003B
:1055C000053E00000D3E0000153E00001D3E00009F
:1055D0003D3E0000253E00000000000000000000ED
:1055E0008D3F0000B13F00003F4000003B40000005
:1055F000374000003340000001400000134000002D
:10560000FD3F0000F73F0000F13F0000E93F0000D0
:10561000D93F0000C93F0000C53F0000C13F000066
:10562000613F0000693F0000713F0000793F0000CA
:10563000993F0000813F0000B807FF1FF8B500BF89
:10564000F8BC08BC9E467047814E0000350400003F
:10565000193A0000413A0000653A0000A93A0000FA
:10566000753C0000753D0000E93E0000454000002B
:0856700015430000094600008B
:04567800F8B500BFC2
:10567C0000000000081201010102000040C0168366
:10568C0004000201020301001803540065006500C8
:10569C006E00730079006400750069006E006F0085
:1056AC0009024300020100C0320904000001020299
:1056BC000100052400100105240101010424020647
:1056CC0005240600010705820310004009040100AF
:1056DC00020A0000000705030240000007058402CF
:1056EC0040000000160355005300420020005300F8
:1056FC0065007200690061006C00040309040C036E
:10570C00000000000000000000000000000000008D
:10571C00000000000A0422005C1BFF1F1F20090A66
:10572C0001000000FFFFFFFF22000000000000004E
:10573C0000000000A40AFF1F0C0BFF1F740BFF1FBF
:10574C00000000000000000000000000000000004D
:10575C00000000000000000000000000000000003D
:10576C00000000000000000000000000000000002D
:10577C00000000000000000000000000000000001D
:10578C00000000000000000000000000000000000D
:10579C0000000000000000000000000000000000FD
:1057AC0000000000000000000000000000000000ED
:1057BC0000000000000000000000000000000000DD
:1057CC0000000000000000000000000000000000CD
:1057DC0000000000000000000100000000000000BC
:1057EC000E33CDAB34126DE6ECDE05000B00000081
:1057FC00000000000000000000000000000000009D
:10580C00000000000000000000000000000000008C
:10581C00000000000000000000000000000000007C
:10582C00000000000000000000000000000000006C
:105B5C000000000000000000B807FF1F000000005C
:105B6C0000000000E40BFF1FE40BFF1FEC0BFF1FFA
:105B7C00EC0BFF1FF40BFF1FF40BFF1FFC0BFF1FA5
:105B8C00FC0BFF1F040CFF1F040CFF1F0C0CFF1F52
:105B9C000C0CFF1F140CFF1F140CFF1F1C0CFF1F01
:105BAC001C0CFF1F240CFF1F240CFF1F2C0CFF1FB1
:105BBC002C0CFF1F340CFF1F340CFF1F3C0CFF1F61
:105BCC003C0CFF1F440CFF1F440CFF1F4C0CFF1F11
:105BDC004C0CFF1F540CFF1F540CFF1F5C0CFF1FC1
:105BEC005C0CFF1F640CFF1F640CFF1F6C0CFF1F71
:105BFC006C0CFF1F740CFF1F740CFF1F7C0CFF1F21
:105C0C007C0CFF1F840CFF1F840CFF1F8C0CFF1FD0
:105C1C008C0CFF1F940CFF1F940CFF1F9C0CFF1F80
:105C2C009C0CFF1FA40CFF1FA40CFF1FAC0CFF1F30
:105C3C00AC0CFF1FB40CFF1FB40CFF1FBC0CFF1FE0
:105C4C00BC0CFF1FC40CFF1FC40CFF1FCC0CFF1F90
:105C5C00CC0CFF1FD40CFF1FD40CFF1FDC0CFF1F40
:105C6C00DC0CFF1FE40CFF1FE40CFF1FEC0CFF1FF0
:105C7C00EC0CFF1FF40CFF1FF40CFF1FFC0CFF1FA0
:105C8C00FC0CFF1F040DFF1F040DFF1F0C0DFF1F4D
:105C9C000C0DFF1F140DFF1F140DFF1F1C0DFF1FFC
:105CAC001C0DFF1F240DFF1F240DFF1F2C0DFF1FAC
:105CBC002C0DFF1F340DFF1F340DFF1F3C0DFF1F5C
:105CCC003C0DFF1F440DFF1F440DFF1F4C0DFF1F0C
:105CDC004C0DFF1F540DFF1F540DFF1F5C0DFF1FBC
:105CEC005C0DFF1F640DFF1F640DFF1F6C0DFF1F6C
:105CFC006C0DFF1F740DFF1F740DFF1F7C0DFF1F1C
:105D0C007C0DFF1F840DFF1F840DFF1F8C0DFF1FCB
:105D1C008C0DFF1F940DFF1F940DFF1F9C0DFF1F7B
:105D2C009C0DFF1FA40DFF1FA40DFF1FAC0DFF1F2B
:105D3C00AC0DFF1FB40DFF1FB40DFF1FBC0DFF1FDB
:105D4C00BC0DFF1FC40DFF1FC40DFF1FCC0DFF1F8B
:105D5C00CC0DFF1FD40DFF1FD40DFF1FDC0DFF1F3B
:105D6C00DC0DFF1FE40DFF1FE40DFF1FEC0DFF1FEB
:105D7C00EC0DFF1FF40DFF1FF40DFF1FFC0DFF1F9B
:105D8C00FC0DFF1F040EFF1F040EFF1F0C0EFF1F48
:105D9C000C0EFF1F140EFF1F140EFF1F1C0EFF1FF7
:105DAC001C0EFF1F240EFF1F240EFF1F2C0EFF1FA7
:105DBC002C0EFF1F340EFF1F340EFF1F3C0EFF1F57
:105DCC003C0EFF1F440EFF1F440EFF1F4C0EFF1F07
:105DDC004C0EFF1F540EFF1F540EFF1F5C0EFF1FB7
:105DEC005C0EFF1F640EFF1F640EFF1F6C0EFF1F67
