:100000000000022099010000B912000085120000D2
:100010008512000085120000851200008512000084
:1000200085120000851200008512000025420000A4
:10003000B912000085120000B91200000942000048
:10004000B9120000B9120000B9120000B912000084
:10005000B9120000B9120000B9120000B912000074
:10006000B9120000B9120000B9120000B912000064
:10007000B9120000B9120000B9120000B912000054
:10008000B9120000B9120000B9120000B912000044
:10009000B9120000B9120000B9120000B912000034
:1000A000B9120000B9120000B9120000B912000024
:1000B000B9120000B9120000B9120000BD2D0000F5
:1000C000B912000035350000B912000081090000A6
:1000D000B912000029220000B9120000B912000074
:1000E000B9120000B9120000B9120000B9120000E4
:1000F000B9120000B9120000B9120000B9120000D4
:100100000D3B0000213B0000353B0000493B000057
:10011000B9120000E10B0000B9120000B912000092
:10012000B9120000B9120000B9120000B9120000A3
:10013000B9120000B9120000B9120000B912000093
:10014000D93D0000B9120000F1190000B9120000F9
:1001500005270000B9120000B9120000B912000012
:10016000B9120000B9120000B9120000B912000063
:10017000B9120000B9120000B9120000B912000053
:10018000B9120000B9120000B9120000B912000043
:10019000B9120000B9120000584B4CF2205210B5B1
:1001A0001A804DF628121A8000BF00BF01F088F8AF
:1001B000534B4FF030621A60524A9A60524ADA60EA
:1001C000524B4FF470021A60514A136813F4807353
:1001D00001BF50490B604FF4A85313604E4B4F4979
:1001E0001A78100742BF1A7842F008021A704C4B76
:1001F0002A221A704B4A4C4B8B4204D252F8040FFD
:1002000043F8040BF8E7494B494A0021934202D2D4
:1002100043F8041BFAE7474A4748002350F82310E5
:1002200042F823100133662BF8D1444B444A802115
:1002300003F8011B9342FBD1424B3E4A1A60424BEA
:100240008A221A70A3F5805324225A70A0221A70B1
:100250009A799107FCD59A79D206FCD43B4A9379D6
:1002600003F00C03082B394BF9D103221A714022F9
:100270005A719A799406FCD534498A79334B5006E1
:10028000FBD5334A334911600221516020221A7094
:100290009A7902F00C020C2AFAD12F4B2F4A1A60DD
:1002A0002F4B4BF67F321A6000225A60072243F828
:1002B000042C2C4AC3F80C2D62B601F0F1F8154B52
:1002C0001B68DA0705D5284801F048F8274B284A6B
:1002D0001A60284B1B785B0609D5244C244B2268F6
:1002E0009A4204D1204801F039F80023236004F039
:1002F00029FA00F0EBFF00F0C5F8FEE70E200540FC
:1003000030800440823F04000100002B88ED00E0B3
:1003100010D0034014D0034002D00740F40FFF1F59
:1003200000E00740B8560000F806FF1FF40FFF1F5B
:100330005C1BFF1F0002FF1F0000000000E400E044
:1003400056E400E008ED00E00050064000400640A2
:10035000448004400000131104800440C0100500D4
:1003600014E000E00000202000DD68501CE00340A5
:10037000A5C3945A00F00740FFFFFFFFFFFFFFFFF8
:10038000FFFFFFFFFFFFFFFFFFFFFFFFFFFFFFFF7D
:10039000FFFFFFFFFFFFFFFFFFFFFFFFFFFFFFFF6D
:1003A000FFFFFFFFFFFFFFFFFFFFFFFFFFFFFFFF5D
:1003B000FFFFFFFFFFFFFFFFFFFFFFFFFFFFFFFF4D
:1003C000FFFFFFFFFFFFFFFFFFFFFFFFFFFFFFFF3D
:1003D000FFFFFFFFFFFFFFFFFFFFFFFFFFFFFFFF2D
:1003E000FFFFFFFFFFFFFFFFFFFFFFFFFFFFFFFF1D
:1003F000FFFFFFFFFFFFFFFFFFFFFFFFFFFFFFFF0D
:10040000FFFFFFFFFFFFFFFFFFFFFFFFDEF9FFFF23
:1004100010B5054C237833B9044B13B10448AFF33E
:1004200000800123237010BDF40FFF1F00000000A7
:10043000BC560000084B10B51BB108490848AFF383
:1004400000800848036803B910BD074B002BFBD0A0
:10045000BDE81040184700BF00000000F80FFF1F64
:10046000BC560000F40FFF1F0000000000230360D3
:1004700003714371C380C21D0E3002F8013F8242F6
:10048000FBD170472DE9F04101218EB00D20324E95
:1004900000F094FF2023336006AD04F095F8284661
:1004A000FFF7E4FFC023069308238DF81D300023D7
:1004B0001946EA180133072B1172FAD12824FA20C1
:1004C00000F0D8FF95E80F0004F096F8013CF6D153
:1004D0000AAD2846FFF7CAFFC0230A9308238DF808
:1004E0002D3021462346EA180133072B1172FAD129
:1004F000DFF8748000277D20202400F0BBFF3460EB
:10050000002001F0BFFB07EE900AB8EEE77ADFEDBE
:10051000137A0297C7EE276A012300930022284628
:1005200001979FED0F7AC6EE877A9FED0E7A67EE00
:10053000877AFDEEE77ACDED057ABDF9141004F067
:1005400085F895E80F0004F057F87D2000F092FF41
:10055000C8F80040CFE700BF84F00F4000C07F44E0
:100560000820803F00007F4388F00F40164A136840
:1005700043F480531360154A00231370144A137018
:10058000144A1370144A1370144A1370144A40F238
:10059000133111604FF451715160124AC0F344316C
:1005A0001170C0F3471100F01F00517090729370EA
:1005B00013742C23D3700C4B40221A70A3F21F33F8
:1005C00008221A60704700BF348004407E10FF1F6D
:1005D0001510FF1F8410FF1F7F10FF1F1410FF1F37
:1005E00008C0044000C0064023E400E0184B9A789D
:1005F00002F0EC0100F003020A43410748BF42F059
:1006000010029A70124900F00F02042A02BF8A7980
:1006100042F040028A715A79C30602F0EF020C4B95
:1006200048BF42F010025A719A79810602F0EF0237
:1006300048BF42F010029A71C305054906D54B78B0
:100640000A78DBB242F020020A704B70704700BF9C
:1006500000C00640124B1B68DB0410B500D410BD6F
:10066000104C227802F0FF0312B103F06FFCF8E7A0
:100670000D4A082111600D4A01F1804101F59821D0
:10068000D37040F203120A604A60094A1370094AA3
:100690001370094B1B680BB101221A7010BD00BF0B
:1006A000348004401410FF1F84E100E000C00640C5
:1006B0007E10FF1F1510FF1F1010FF1F0A4A38B5CC
:1006C0000446137803F0FF05002BFAD101212046E0
:1006D00000F074FE2946204600F050FE034B53F80C
:1006E0003420034B1A6038BD1410FF1F74510000F2
:1006F0008010FF1F10B509B140F080000E4B1A7832
:10070000904217D00D4C2468E40412D502F07F0209
:10071000082A02BF0A4A00241460002900F07F0161
:100720000CBF44226022082902BF054942F44072EE
:100730000A60187010BD00BFFC06FF1F3480044023
:100740000CC004407047FFFF38B50D4B1B6813F415
:1007500080534FF0000410D03F280A4D0AD80A4BAE
:10076000012153F830302B6000F028FE2B681C70FC
:10077000012038BD2C60204638BD184638BD00BF6A
:10078000348004401010FF1F745100000B4B1B6895
:1007900013F4805310D00E28094B09D1094A40F2B6
:1007A000023111605A7B42F001025A7301207047F6
:1007B0005A7B02F0FE025A730020704734800440D6
:1007C00000C0064004C004402DE9F8431F4B1B68DD
:1007D000DA04064637D51E4B1B680BB101221A708E
:1007E0001C4DDFF880902C781B4F0134282C28BF3B
:1007F0000024C84699F80030A34219D100F070FDDA
:10080000402810DC3B791B06F4D599F80030134AD8
:100810000133282B28BF0023D25CDBB2D2B2FA719D
:1008200088F80030E6E7FF28E4DD03F08FFBE1E71E
:100830000A4BF6B21E550A4B01221A70064BE4B25F
:10084000AC222C70DA70BDE8F88300BF348004401D
:100850008010FF1F8410FF1F00C006401610FF1FEE
:100860001410FF1F7F10FF1F38B504464518AC4217
:1008700004D014F8010BFFF7A7FFF8E738BDFFFF1E
:1008800010B5034C237813B103F060FBFAE710BDF9
:100890001410FF1F064B1878064B1A78C0B2D3B25B
:1008A00098422CBF273303F1FF33181A704700BF5B
:1008B0008410FF1F7F10FF1F054B1878054B1A7817
:1008C000C0B2D3B2984238BF4030C01A704700BFA0
:1008D0007E10FF1F1510FF1F10B5104B104C1B781A
:1008E0002278D9B2D2B2914214D0531C402B28BFE7
:1008F00000230C4AD05CDAB222700B4A1268C0B2F4
:1009000052B18B4288BF4031CB1A1A2B04DC002332
:10091000137010BD4FF0FF3010BD00BF7E10FF1FE1
:100920001510FF1F3E10FF1F1010FF1F084B1A78F5
:10093000084B1B78DBB29A4207D00133402B28BF0B
:100940000023054AD05CC0B270474FF0FF307047BB
:100950007E10FF1F1510FF1F3E10FF1F054B064A9C
:100960001B78DBB21370054B1B680BB100221A70A9
:10097000704700BF1510FF1F7E10FF1F1010FF1FD4
:1009800010B5284B1A79920620D52749DA790B78C9
:100990002648013300783F2BC8BF0023834218BF8D
:1009A0002348D2B21EBFC254DAB20A70214A11687B
:1009B00061B1214A1278D2B2934236BFC2F14002ED
:1009C0009B1A9B18272BC4BF01230B701549CA78AB
:1009D000D2B2140616D50B79180613D5174B164C40
:1009E00018782378DBB2984202D16C23CB7009E0EF
:1009F0000133282B28BF00231148C05CDBB2C0B2F2
:100A0000C871237051060CD5064B1A79520608D5C9
:100A10000C4A002111700C4A126802B111702C228C
:100A2000DA7010BD00C006407E10FF1F1510FF1FBA
:100A30003E10FF1F1010FF1F7F10FF1F8410FF1FAD
:100A40001610FF1F1410FF1F8010FF1FF0B50C4C75
:100A50000C4E23780C4D43F0020706EBC70283F0DF
:100A6000010350602A782370002A14BFC820882010
:100A700082F0010240EA01412A7046F83710F0BDC9
:100A8000F010FF1F0000FF1F6811FF1F431E032B04
:100A900010B510D872B6094A52F8230048B141681F
:100AA00042F823100649048831F81320121B21F85C
:100AB000132062B610BD002010BD00BFE010FF1F64
:100AC000441BFF1F013803280AD872B6054B53F8A0
:100AD0002030002013B101305B68FBE762B670473D
:100AE000002070473411FF1F70B472B6174C1849BC
:100AF00001231A1912F8012C12071DD59A00144E61
:100B000051F832502DB906EB431308305860114BA1
:100B100009E042F0010251F832506DB906EBC20310
:100B2000083058600C4B46F832300C4A1378013BC1
:100B3000137062B670BC70470133052BD9D162B611
:100B4000064B00221A7070BC02F0D4B97453000036
:100B50000000FF1F88004000C80040005E11FF1F1A
:100B6000431E032B10B532D8194A400140F0100043
:100B7000104472B6174AD45C032C0BD8DFE804F09B
:100B800018040207052414E00830022411E008309C
:100B900004240EE01048114A50F8234014B940F8DC
:100BA000231002E052F82300416042F823100DE0C8
:100BB0000324D45410F0080F01F108030A8843609D
:100BC00014BFC823882343EA0243036062B610BD02
:100BD0000000FF1F9C10FF1F3411FF1F4411FF1F57
:100BE0002DE9F74FA84B1C78E4B214F0040F1D4612
:100BF0001AD0A64B1B78A3B1A54A117801F0FF03C8
:100C000021B1013BDBB2137003B900BEA14A1178D8
:100C100001F0FF0329B1013BDBB213700BB902F005
:100C200017FE994A0423137004F0080303F0FF022F
:100C3000002B00F06F82984B984C1B78DBB21F0999
:100C40004FEA930640F0EA8104EBC603596854F872
:100C50003630C3F38303013B0C2B00F2DB81DFE86A
:100C600013F098019801D901D901D901D901D9010D
:100C7000D901B701D901D901D9010D000A68884D00
:100C800088484B682A6001216B60DFF84C82864BF4
:100C9000017092B240F2816044F8363082424FF0E7
:100CA0000003C8F800302361A36117D8B2F5D06FF4
:100CB00080F02581B2F5817F00F0D68006D8802AA9
:100CC00000F0C180822A00F0C28033E140F202339A
:100CD0009A4200F00581B2F5A06F1AE042F22100BD
:100CE000824200F053810CD8B2F5086F00F0A58065
:100CF000B2F5106F40F01E81644AA97811701E464B
:100D00000AE042F221218A4200F00C8142F22133B2
:100D10009A4200F013810DE1A219136A1F0603D550
:100D2000506A083802F0E6F80836802EF4D1DFF871
:100D3000AC915E4F0026CA4659F826004FEA860B52
:100D400030B14268009202F0D5F8009A1046F7E7F9
:100D5000574B584A4AF80B004BF803005BF8020067
:100D600040B141680192009102F0C4F80099019AE3
:100D70000846F5E7504B42F80B0023F816003B7885
:100D80004E4A023B4BF80200032B07D8DFE803F082
:100D900002040204002300E001233B700136042E0C
:100DA00007F10107C8D1464B464E3F4F00221A704B
:100DB0004FF0010B9946444A0BEB06015A4411F8D7
:100DC000011C920011F0080F11704FEA8B0A24D019
:100DD00002F072F838B104EB4B1208303B4B506014
:100DE00044F83A3006E099F8002044F83A0001321D
:100DF00089F8002002F060F84AF0010230B104EBFB
:100E0000C2010830486044F8327006E044F832000D
:100E100099F80020013289F800204AF002010BF114
:100E2000010B4AF0030A0022BBF1050F44F8312000
:100E300044F83A20BFD1134681E0144B244E1B786E
:100E400033700B467EE0224E3370737079E0AA88CF
:100E5000042A6FD81E4E9200337073701D4B9B5C3A
:100E60009C076ED531706CE0AA8802F07F02042ADC
:100E700060D86B88002B5DD11649920011440A7826
:100E800022F0020239E000BF802007406711FF1FF7
:100E9000F110FF1FE513FF1F902007400000FF1F08
:100EA0005411FF1F6811FF1FC80040009C10FF1F56
:100EB0008C10FF1F3411FF1F441BFF1F4411FF1F25
:100EC0005E11FF1F7453000030C8011088004000FD
:100ED0005F11FF1FC02007408810FF1FE010FF1F99
:100EE000AA8802F07F02042A24D86B8813BBA54984
:100EF000920011440A7842F002020A701FE06A88E8
:100F0000A988A14B5E68AEB11888904208D1588874
:100F1000884205D1120A032A0CBF33781B8911E0DD
:100F20000C33EFE7994A1168994A1160994AA978F8
:100F3000117004E0934B0F221A7027E000231E4625
:100F400000E00223EC889C4228BF1C46402C25462A
:100F500028BF402530462946FFF778FD641B2E4404
:100F600003D1402D12D1254603E0402C254628BF51
:100F7000402530462946FFF769FD641B2E4401D108
:100F8000402D03D1844BC8F800601C800122834BA4
:100F90003FE0834B1A8842F221039A4214D1814ADE
:100FA0000023C85C98540133072BFAD17D4B1B6892
:100FB000862B08BF7C4B4FF0000108BF0F2208466C
:100FC00008BF1A70FFF742FD784B44F8363021E035
:100FD000774F3E68A6B1DFF8C081B8F80040402CDA
:100FE000254628BF402530462946FFF72FFD601BC8
:100FF00080B2A8F8000008B9402D00D170193860FF
:10100000674B1A88B2F5A06F04D100225A709A7803
:10101000684B1A70614B01221A7077E004EBC60529
:10102000013F6A6803F00803A2F10800FFB203F071
:10103000FF0E002B36D001F05DFF5F485F4A50F88D
:101040002710E9B14B6840F8273001F108036B60C5
:10105000D35D032B0BD8DFE803F00204060803235B
:1010600004E0022302E0052300E00423D35515F039
:10107000080F0A8814BFC823882343EA024343E0C9
:10108000D35D032B07D8DFE803F0414102040023BE
:1010900006E0012304E015F0080F14BF0323022328
:1010A000D35533E054F836301B0C99B222F8081CA3
:1010B00023B3434B22F806EC42F804EC53F8272004
:1010C000DFF82CE112B943F8270002E05EF8273080
:1010D00058603C4A4EF8270032F817300B4422F88B
:1010E000173001F0E9FE10B10830686006E0364ABA
:1010F00044F8360013780133137007E0334A2B4B62
:1011000015F0080F08BF134644F83630304A08235C
:10111000137067E5E0071ED520492C482D4C0223AB
:101120000B702D4B1A702D4B186098602C48D860AE
:101130001A619A615C60134B0D2018702948FF23D7
:1011400003702B700274284A1370284B9F221A7068
:1011500001230B7012E0210604D50A4B0D221A70F0
:1011600080232B70A20705D51E4A1378DBB21370BB
:1011700002232B70E30644BF10232B7003B0BDE89D
:10118000F08F00BFC0200740785300006C11FF1F94
:10119000541BFF1FF413FF1F5C11FF1F9420074017
:1011A0005411FF1F4C1BFF1FF110FF1FC800400010
:1011B0008810FF1F982007403411FF1F9C10FF1F4D
:1011C000E010FF1F441BFF1F5E11FF1F880040003F
:1011D00080200740A010FF1FF010FF1F0000FF1F1E
:1011E000F410FF1F882007408C2007408420074010
:1011F0008C10FF1F10B500F0B9F900231A481946EA
:101200001950C4180833882B174A6160F8D1174960
:101210000B6843F480230B6015490B6843F040735F
:101220000B60144BC2F307211970C2F30741120E71
:1012300019751A76104AFF2313700021137202F8F1
:10124000703C0123137582F8801013710B4B7022D0
:101250006FF44C711A700B444FF400121A60084B73
:1012600010221A7010BD00BF0000FF1F3480044020
:1012700000D800409C2007408020074035E400E073
:101280000821074008B50B4D2C462B68580301D5A3
:10129000FFF7A6FC2368590501D501F08FFD2368EF
:1012A0001A0501D502F046F92368DB04EDD5FFF7F6
:1012B00067FBEAE73480044008B5FFF7E3FFFFFF70
:1012C000014B10221A807047002005407047FFFF35
:1012D000024A136818441060184670470007FF1F41
:1012E000EFF313839BB9EFF3108098B9EFF3058305
:1012F00023B10F2B04D9084A985C01E04FF48070A9
:10130000EFF311833BB1984228BF184670474FF066
:10131000FF30704718467047F0E300E030B50346F1
:101320000020B3FBF2F402FB1433092B94BF3033DB
:101330003733DBB20B5423460CB10130F1E70A1806
:1013400023465470C41AA34206DACC5C1578CD54F7
:1013500002F801490133F5E7084630BD044B054961
:1013600000221A600A60044A106010221A60704756
:1013700014D0034004D0034000D003403F2810B5F0
:1013800018D80D4B53F8302092F880423CB101231D
:1013900011B182F8803010BD82F8003110BD03EB2E
:1013A000C0035B681A6811B142F0030201E022F049
:1013B00002021A6010BD00BF745100003F2810B532
:1013C00037D81C4A02EBC00301295B68144601D0E0
:1013D00004290FD154F83020012082F880024FF404
:1013E000A2721A601A6804290CBF42F0200222F08F
:1013F00020021DE052F83020002082F8800211B156
:101400008A1E012A12D84FF4807202291A6003D171
:101410001A6842F003020BE003290AD11A6842F06D
:1014200002021A601A6822F0010201E040F203127F
:101430001A6010BD7451000072B60B4B0B4A0C4978
:101440001B681268096862B6490102D5322B88BF51
:101450000132C3F53B4330207F33B3FBF0F34FF44D
:101460007A7000FB0230704718E000E06C11FF1F3B
:1014700004ED00E038B50446FFF7DEFF054624B969
:1014800038BD013C0AD005F57A75FFF7D5FF401B42
:10149000B0F57A7FF5D202F059FDF6E738BDFFFFCF
:1014A0002A4B4FF0006270B51A604FF080521A60FC
:1014B0004FF000521A604FF080421A604FF0004225
:1014C0001A60234B234A244D244C254E4BF6FF71C2
:1014D00000201860596028231360936013619361A2
:1014E0001362936213639363103202F501222B603F
:1014F0002360136093601361936113629362092206
:10150000326006F58056043630607160B360336136
:1015100046F8042C06F5FE2630607160B360336136
:1015200046F8042C06F5805630600E4801602B60AA
:1015300023600D4B1A6000F049FB4FF4C870FFF7B1
:1015400099FFBDE87040FFF755BE00BF04E100E021
:10155000048003400C8003400C900B4014900B401F
:101560000080034008900B4000900B401FB572B6FE
:10157000134B144970221A70134A116080221A709A
:101580001A781206FCD5114B186862B6104B9842B7
:1015900098BF0A2301AC98BF58430A222146FFF79F
:1015A000BDFE0C4A0023E15C21B101330A2B22F875
:1015B000021BF8D1084A01335B00137004B010BD60
:1015C0000000024000000741040002400C000240FD
:1015D0007F9698008E07FF1F8C07FF1F164A13681F
:1015E00043F480631360154A00231370144A137088
:1015F000144A1370144A1370144A1370144A40F2B8
:10160000133111604FF4517142F8041C114AC0F3B8
:1016100044311170C0F3471100F01F0051709072F7
:10162000937013742C23D3700B4B40221A70A3F2C7
:101630003A3304221A60704728800440DE11FF1FED
:101640007511FF1FE411FF1FDF11FF1F7411FF1F32
:1016500064D0044000A00E4042E400E0184B9A78A9
:1016600002F0EC0100F003020A43410748BF42F0D8
:1016700010029A70124900F00F02042A02BF8A7900
:1016800042F040028A715A79C30602F0EF020C4B15
:1016900048BF42F010025A719A79810602F0EF02B7
:1016A00048BF42F010029A71C305054906D54B7830
:1016B0000A78DBB242F020020A704B70704700BF1C
:1016C00000A00E40114B1B685B0510B500D410BD87
:1016D0000F4C227802F0FF0312B102F037FCF8E75A
:1016E0000C4A042111600C4A0C49D37040F20312D9
:1016F0000A6041F8042C0A4A13700A4A13700A4B14
:101700001B680BB101221A7010BD00BF2880044075
:101710007411FF1F88E100E000A00E4064D0044077
:10172000DE11FF1F7511FF1F7011FF1F0A4A38B528
:101730000446137803F0FF05002BFAD1012120465F
:10174000FFF73CFE29462046FFF718FE034B53F8EF
:101750003420034B1A6038BD7411FF1F7451000010
:10176000E011FF1F10B509B140F080000E4B1A7850
:10177000904217D00D4C2468E40412D502F07F0289
:10178000212A02BF0A4A00241460002900F07F01C8
:101790000CBF44226022212902BF054942F4407255
:1017A0000A60187010BD00BFA207FF1F34800440FC
:1017B00060D004407047FFFF38B50D4B1B6813F431
:1017C00080634FF0000410D03F280A4D0AD80A4B1E
:1017D000012153F830302B60FFF7F0FD2B681C70AF
:1017E000012038BD2C60204638BD184638BD00BFEA
:1017F000288004407011FF1F745100000B4B1B68C0
:1018000013F4806310D01828094B09D1094A40F21B
:10181000023111605A7B42F001025A730120704775
:101820005A7B02F0FE025A73002070472880044061
:1018300000A00E4068D004402DE9F8431F4B1B6800
:101840005A05064637D51E4B1B680BB101221A708C
:101850001C4DDFF880902C781B4F0134282C28BFBA
:101860000024C84699F80030A34219D1FFF738FD8B
:10187000402810DC3B791B06F4D599F80030134A58
:101880000133282B28BF0023D25CDBB2D2B2FA711D
:1018900088F80030E6E7FF28E4DD02F057FBE1E7D7
:1018A0000A4BF6B21E550A4B01221A70064BE4B2DF
:1018B000AC222C70DA70BDE8F88300BF28800440A9
:1018C000E011FF1FE411FF1F00A00E407611FF1F63
:1018D0007411FF1FDF11FF1F38B504464518AC42D5
:1018E00004D014F8010BFFF7A7FFF8E738BDFFFF9E
:1018F00010B5034C237813B102F028FBFAE710BDB2
:101900007411FF1F064B1878064B1A78C0B2D3B279
:1019100098422CBF273303F1FF33181A704700BFDA
:10192000E411FF1FDF11FF1F054B1878054B1A78D4
:10193000C0B2D3B2984238BF4030C01A704700BF1F
:10194000DE11FF1F7511FF1F10B5104B104C1B78D7
:101950002278D9B2D2B2914214D0531C402B28BF66
:1019600000230C4AD05CDAB222700B4A1268C0B273
:1019700052B18B4288BF4031CB1A1A2B04DC0023B2
:10198000137010BD4FF0FF3010BD00BFDE11FF1F00
:101990007511FF1F9E11FF1F7011FF1F084B1A7852
:1019A000084B1B78DBB29A4207D00133402B28BF8B
:1019B0000023054AD05CC0B270474FF0FF3070473B
:1019C000DE11FF1F7511FF1F9E11FF1F054B064AF9
:1019D0001B78DBB21370054B1B680BB100221A7029
:1019E000704700BF7511FF1FDE11FF1F7011FF1F31
:1019F00010B5284B1A79920620D52749DA790B7849
:101A00002648013300783F2BC8BF0023834218BF0C
:101A10002348D2B21EBFC254DAB20A70214A1168FA
:101A200061B1214A1278D2B2934236BFC2F140026C
:101A30009B1A9B18272BC4BF01230B701549CA782A
:101A4000D2B2140616D50B79180613D5174B164CBF
:101A500018782378DBB2984202D16C23CB7009E06E
:101A60000133282B28BF00231148C05CDBB2C0B271
:101A7000C871237051060CD5064B1A79520608D549
:101A80000C4A002111700C4A126802B111702C220C
:101A9000DA7010BD00A00E40DE11FF1F7511FF1F90
:101AA0009E11FF1F7011FF1FDF11FF1FE411FF1FA9
:101AB0007611FF1F7411FF1FE011FF1FF0B5374AA9
:101AC000374B11680906FCD4196811F08001F8D170
:101AD00072B634480378002B5DD0334B334A1F680D
:101AE00004330C321B6852F80C6C52F8085C52F844
:101AF000044C12683B4433442B4423441344C3F343
:101B00004E032B4A43F4004313602A4B1F680433EF
:101B100040321B6852F80C6C52F8085C52F8044CC6
:101B200012683B4433442B4423441344C3F34E0311
:101B3000214A43F400431360204B02F500221F6842
:101B4000043310321B681668556894683B440C32A5
:101B5000334412682B4423441344C3F34E03184AFE
:101B600043F400431360174B1F68043340321B6873
:101B700052F80C6C52F8085C52F8044C12683B4462
:101B800033442B4423441344C3F34E030E4A43F41B
:101B900000431360017062B6F0BD00BF24B0034083
:101BA00024B00B40E611FF1F38B0034040B00340A3
:101BB0002CB0034058B0034030B0034038B00B4065
:101BC0002CB00B4058B00B4030B00B4010B5204B40
:101BD0002048214960221A70E1225A701F4B204A86
:101BE0001C78204B082C01D1012402E00A2C03D1DF
:101BF00039240460132005E00C2C0CBF35243D244F
:101C000004601220086014601860174B17491B7895
:101C1000174A03B101230B601360164B164A19785B
:101C2000164B012901D880210BE0042901D8842119
:101C300007E0082901D8852103E0102994BF8621F7
:101C40008721116019600E4B01221A7010BD00BF70
:101C50000040074008B003400CB00340A307FF1F3B
:101C600008B00B400CB00B40E911FF1F20B003403F
:101C700020B00B40A407FF1F24B0034024B00B404A
:101C8000E611FF1F47282DE9F04150D8294B1C5C75
:101C9000FF2C4CD0284B1B780BB1FFF70FFF210610
:101CA00017D472B6254E264F346001233B7062B6BE
:101CB000234D72B633681A0604D5224B00221B68E6
:101CC0002A7026E02B78002BEED062B602F03EF9A7
:101CD000EFE772B61C4EDFF8808004F04007FFB2D9
:101CE00004F03F05336817B123F0100301E043F01F
:101CF0001003164C33600123C8F80050237062B6FD
:101D000072B6D8F800301B060AD5114B00221B68AA
:101D1000227062B60F4A107843FA00F0BDE8F081F5
:101D20002378002BDED062B602F010F9E8E700203D
:101D3000BDE8F081CC530000E611FF1F00B0034066
:101D4000E811FF1F10B003400CB00B40E711FF1F5C
:101D500010B00B40E511FF1F00B00B40214A136883
:101D600043F400531360204A002313701F4A13707A
:101D70001F4A13701F4A13701F4A13701F4B1B78A2
:101D80001F2B05D03F2B07D140F213321C4B02E032
:101D90001C4B40F213321A601B4B1B78202B05D0D2
:101DA0003E2B07D14FF45172184B02E0184B4FF401
:101DB00051721A60174BC0F344321A70C0F34712C5
:101DC0005A7000F01F00002298729A701A742C2228
:101DD000DA70114B40226FF448711A700B442022C4
:101DE0001A607047348004405A12FF1FF111FF1F20
:101DF0006012FF1F5B12FF1FF011FF1FA507FF1FDF
:101E000014D0044028A00440A607FF1F10D00440AF
:101E10002CA0044000D0064025E400E0184B9A783E
:101E200002F0EC0100F003020A43410748BF42F010
:101E300010029A70124900F00F02042A02BF8A7938
:101E400042F040028A715A79C30602F0EF020C4B4D
:101E500048BF42F010025A719A79810602F0EF02EF
:101E600048BF42F010029A71C305054906D54B7868
:101E70000A78DBB242F020020A704B70704700BF54
:101E800000D006401F4B1B689B0410B500D410BD4A
:101E90001D4C237803F0FF0113B102F057F8F8E767
:101EA0001A4B1B481B4C20221A601B4BD970A3F500
:101EB0000B33A3F5757340F2031202601A602478A5
:101EC0001F2C04D03F2C03D1144A116000E00260A3
:101ED000134A127802F07F02202A04D03E2A05D14C
:101EE0000022104B01E040F203121A600E4A002358
:101EF00013700E4A13700E4B1B680BB101221A703F
:101F000010BD00BF34800440F011FF1F84E100E0E9
:101F100028A00440A507FF1F00D0064014D00440AD
:101F2000A607FF1F10D004405A12FF1FF111FF1F18
:101F3000EC11FF1F0A4A38B50446137803F0FF0579
:101F4000002BFAD101212046FFF738FA2946204616
:101F5000FFF714FA034B53F83420034B1A6038BDD3
:101F6000F011FF1F745100005C12FF1F10B509B182
:101F700040F08000144A13789842144622D0134A45
:101F8000126892041DD503F07F03202B04D03E2B52
:101F900005D100220E4B01E00E4B00221A600029F1
:101FA00000F07F0214BF60234423202A05D03E2A7C
:101FB00007D143F44073064A02E0064A43F44073F3
:101FC0001360207010BD00BFA607FF1F34800440BF
:101FD00010D004402CA004400F4B1A7882421AD033
:101FE0000E490968890415D51F2A04D03F2A05D156
:101FF00000210B4A01E00B4A002111601F2805D087
:102000003F2807D140F21331054A02E0054A40F269
:102010001331116018707047A507FF1F348004400A
:1020200014D0044028A0044038B50D4B1B6813F4AD
:1020300000534FF0000410D03F280A4D0AD80A4B35
:10204000012153F830302B60FFF7B8F92B681C7072
:10205000012038BD2C60204638BD184638BD00BF71
:1020600034800440EC11FF1F7451000000207047C1
:102070002DE9F8431F4B1B689A04064637D51E4BC3
:102080001B680BB101221A701C4DDFF880902C7870
:102090001B4F0134282C28BF0024C84699F8003073
:1020A000A34219D1FFF71CF9402810DC3B791B062D
:1020B000F4D599F80030134A0133282B28BF0023A8
:1020C000D25CDBB2D2B2FA7188F80030E6E7FF28C2
:1020D000E4DD01F03BFFE1E70A4BF6B21E550A4B87
:1020E00001221A70064BE4B2AC222C70DA70BDE803
:1020F000F88300BF348004405C12FF1F6012FF1F92
:1021000000D00640F211FF1FF011FF1F5B12FF1FEE
:1021100038B504464518AC4204D014F8010BFFF75B
:10212000A7FFF8E738BDFFFF10B5034C237813B1C4
:1021300001F00CFFFAE710BDF011FF1F064B1878F5
:10214000064B1A78C0B2D3B298422CBF273303F1A2
:10215000FF33181A704700BF6012FF1F5B12FF1F8A
:10216000054B1878054B1A78C0B2D3B2984238BFE5
:102170004030C01A704700BF5A12FF1FF111FF1FF5
:1021800010B5104B104C1B782278D9B2D2B29142C4
:1021900014D0531C402B28BF00230C4AD05CDAB269
:1021A00022700B4A1268C0B252B18B4288BF4031D4
:1021B000CB1A1A2B04DC0023137010BD4FF0FF3034
:1021C00010BD00BF5A12FF1FF111FF1F1A12FF1F8F
:1021D000EC11FF1F084B1A78084B1B78DBB29A42B0
:1021E00007D00133402B28BF0023054AD05CC0B282
:1021F00070474FF0FF3070475A12FF1FF111FF1F59
:102200001A12FF1F054B064A1B78DBB21370054BF1
:102210001B680BB100221A70704700BFF111FF1F3D
:102220005A12FF1FEC11FF1F10B5284B1A799206A6
:1022300020D52749DA790B782648013300783F2BDF
:10224000C8BF0023834218BF2348D2B21EBFC25466
:10225000DAB20A70214A116861B1214A1278D2B209
:10226000934236BFC2F140029B1A9B18272BC4BF72
:1022700001230B701549CA78D2B2140616D50B7912
:10228000180613D5174B164C18782378DBB29842F2
:1022900002D16C23CB7009E00133282B28BF002327
:1022A0001148C05CDBB2C0B2C871237051060CD5B6
:1022B000064B1A79520608D50C4A002111700C4AB7
:1022C000126802B111702C22DA7010BD00D00640E5
:1022D0005A12FF1FF111FF1F1A12FF1FEC11FF1FEF
:1022E0005B12FF1F6012FF1FF211FF1FF011FF1F93
:1022F0005C12FF1F164A136843F400631360154A0B
:1023000000231370144A1370144A1370144A137084
:10231000144A1370144A40F2133111604FF4517192
:102320005160124AC0F344311170C0F3471100F0FC
:102330001F0051709072937013742C23D3700C4B48
:1023400040221A70A3F54F7310221A60704700BF25
:1023500028800440D212FF1F6912FF1FD812FF1FEE
:10236000D312FF1F6812FF1F20C0044000B00E40B0
:1023700044E400E0184B9A7802F0EC0100F003020C
:102380000A43410748BF42F010029A70124900F018
:102390000F02042A02BF8A7942F040028A715A79F8
:1023A000C30602F0EF020C4B48BF42F010025A7114
:1023B0009A79810602F0EF0248BF42F010029A714A
:1023C000C305054906D54B780A78DBB242F02002F6
:1023D0000A704B70704700BF00B00E40104B1B6876
:1023E0001B0510B500D410BD0E4C227802F0FF037F
:1023F00012B101F0ABFDF8E70B4A102111600B4A56
:102400000B49D37040F203120A604A60094A137004
:10241000094A1370094B1B680BB101221A7010BDD9
:10242000288004406812FF1F88E100E000B00E40E1
:1024300020C00440D212FF1F6912FF1F6412FF1F49
:102440000A4A38B50446137803F0FF05002BFAD189
:1024500001212046FEF7B2FF29462046FEF78EFFF7
:10246000034B53F83420034B1A6038BD6812FF1F2A
:1024700074510000D412FF1F10B509B140F0800064
:102480000E4B1A78904217D00D4C2468E40412D5F4
:1024900002F07F02302A02BF0A4A00241460002999
:1024A00000F07F010CBF44226022302902BF0549A1
:1024B00042F440720A60187010BD00BFA707FF1FEA
:1024C0003480044024C004407047FFFF38B50D4BF2
:1024D0001B6813F400634FF0000410D03F280A4D2E
:1024E0000AD80A4B012153F830302B60FEF766FF03
:1024F0002B681C70012038BD2C60204638BD184662
:1025000038BD00BF288004406412FF1F74510000D2
:102510000B4B1B6813F4006310D03828094B09D10A
:10252000094A40F2023111605A7B42F001025A73AB
:10253000012070475A7B02F0FE025A730020704758
:102540002880044000B00E4028D004402DE9F84314
:102550001F4B1B681A05064637D51E4B1B680BB16F
:1025600001221A701C4DDFF880902C781B4F01342B
:10257000282C28BF0024C84699F80030A34219D15E
:10258000FEF7AEFE402810DC3B791B06F4D599F827
:102590000030134A0133282B28BF0023D25CDBB262
:1025A000D2B2FA7188F80030E6E7FF28E4DD01F0E6
:1025B000CDFCE1E70A4BF6B21E550A4B01221A7018
:1025C000064BE4B2AC222C70DA70BDE8F88300BF91
:1025D00028800440D412FF1FD812FF1F00B00E4005
:1025E0006A12FF1F6812FF1FD312FF1F38B504467F
:1025F0004518AC4204D014F8010BFFF7A7FFF8E729
:1026000038BDFFFF10B5034C237813B101F09EFCD9
:10261000FAE710BD6812FF1F064B1878064B1A78B0
:10262000C0B2D3B298422CBF273303F1FF33181A3C
:10263000704700BFD812FF1FD312FF1F054B187839
:10264000054B1A78C0B2D3B2984238BF4030C01A96
:10265000704700BFD212FF1F6912FF1F10B5104B49
:10266000104C1B782278D9B2D2B2914214D0531CAC
:10267000402B28BF00230C4AD05CDAB222700B4AF0
:102680001268C0B252B18B4288BF4031CB1A1A2BAC
:1026900004DC0023137010BD4FF0FF3010BD00BFED
:1026A000D212FF1F6912FF1F9212FF1F6412FF1F39
:1026B000084B1A78084B1B78DBB29A4207D00133DB
:1026C000402B28BF0023054AD05CC0B270474FF0B2
:1026D000FF307047D212FF1F6912FF1F9212FF1FB7
:1026E000054B064A1B78DBB21370054B1B680BB118
:1026F00000221A70704700BF6912FF1FD212FF1F1D
:102700006412FF1F10B5284B1A79920620D527496D
:10271000DA790B782648013300783F2BC8BF0023B5
:10272000834218BF2348D2B21EBFC254DAB20A7025
:10273000214A116861B1214A1278D2B2934236BF60
:10274000C2F140029B1A9B18272BC4BF01230B70B8
:102750001549CA78D2B2140616D50B79180613D5C6
:10276000174B164C18782378DBB2984202D16C23B1
:10277000CB7009E00133282B28BF00231148C05C2F
:10278000DBB2C0B2C871237051060CD5064B1A7962
:10279000520608D50C4A002111700C4A126802B189
:1027A00011702C22DA7010BD00B00E40D212FF1F43
:1027B0006912FF1F9212FF1F6412FF1FD312FF1F27
:1027C000D812FF1F6A12FF1F6812FF1FD412FF1FCB
:1027D000294A136843F480631360284A0023137066
:1027E000274A1370274A1370274A1370274A137019
:1027F000274B1B78152B06D01B2B08D05BB940F25A
:102800001332244B06E040F21332234B02E0234BF9
:1028100040F213321A60224B1B78052B07D01A2B7B
:1028200009D0012B0BD14FF451721E4B06E04FF42F
:1028300051721D4B02E01D4B4FF451721A601C4B3C
:10284000C0F344321A70C0F347125A7000F01F00F0
:102850000422022198729A70D9745A7588221A74C7
:102860003C22DA70134B40221A70A3F21F334FF050
:1028700000421A60704700BF348004406313FF1F9A
:10288000E112FF1F6C13FF1F6413FF1FE012FF1FF5
:102890002213FF1F40A0044018C004403C90044095
:1028A000A807FF1F44A004401CC004403890044007
:1028B00000A006401FE400E0184B9A7802F0EC01FB
:1028C00000F003020A43410748BF42F010029A7029
:1028D000124900F00F02042A02BF8A7942F0400236
:1028E0008A715A79C30602F0EF020C4B48BF42F0DE
:1028F00010025A719A79810602F0EF0248BF42F045
:1029000010029A71C305054906D54B780A78DBB2E7
:1029100042F020020A704B70704700BF00A00640D2
:10292000114B1B685B0510B500D410BD0F4C22780D
:1029300002F0FF0312B101F009FBF8E70C4A4FF077
:10294000004111600B4A0C49D37040F203120A6037
:102950004A600A4A13700A4A13700A4B1B680BB18B
:1029600001221A7010BD00BF34800440E012FF1F26
:1029700080E100E000A0064040A004406313FF1F78
:10298000E112FF1FDC12FF1F0A4A38B50446137814
:1029900003F0FF05002BFAD101212046FEF70EFDC2
:1029A00029462046FEF7EAFC034B53F83420034B3C
:1029B0001A6038BDE012FF1F745100006813FF1F3A
:1029C00010B509B140F08000194A137898421446B6
:1029D0002DD0184A1268520528D503F07F03052B25
:1029E00006D01A2B07D0012B08D10022124B04E08D
:1029F0000022124B01E0124B00221A60002900F065
:102A00007F0214BF60234423052A07D01A2A09D065
:102A1000012A0BD143F44073074A06E043F44073A4
:102A2000064A02E0064A43F440731360207010BD6A
:102A3000A807FF1F3480044044A004401CC0044089
:102A400038900440144A1378834223D0134909680C
:102A500049051ED5152B05D01B2B06D043B91049AF
:102A60000B6005E000210F4B01E00F4B00211960C6
:102A7000152806D01B2808D058B940F21331084B4E
:102A800006E040F21331074B02E0074B40F21331EE
:102A900019601070704700BF2213FF1F348004407C
:102AA00040A0044018C004403C90044038B50D4B91
:102AB0001B6813F480634FF0000410D03F280A4DC8
:102AC0000AD80A4B012153F830302B60FEF776FC10
:102AD0002B681C70012038BD2C60204638BD18467C
:102AE00038BD00BF34800440DC12FF1F7451000069
:102AF0000E4B1B6813F4806316D012280C4B03D1C5
:102B000040F202310B4A04E0142809D10A4A40F28B
:102B1000023111605A7B42F001025A730120704762
:102B20005A7B02F0FE025A73002070473480044042
:102B300000A006400CA0044014C004402DE9F84356
:102B40001F4B1B685A05064637D51E4B1B680BB139
:102B500001221A701C4DDFF880902C781B4F013435
:102B6000402C28BF0024C84699F80030A34219D150
:102B7000FEF7B6FB402810DC3B791B06F4D599F82C
:102B80000030134A0133402B28BF0023D25CDBB254
:102B9000D2B2FA7188F80030E6E7FF28E4DD01F0F0
:102BA000D5F9E1E70A4BF6B21E550A4B01221A701D
:102BB000064BE4B2BC222C70DA70BDE8F88300BF8B
:102BC000348004406813FF1F6C13FF1F00A00640F1
:102BD000E212FF1FE012FF1F6413FF1F2DE9F84FE1
:102BE000264B1B685A050646884645D5244B1B686C
:102BF0000BB101221A70234FB246B94606EB080307
:102C00009A4536D23C78204BDFF87CB01B780134F3
:102C1000402C28BF00249C420AD01C4B1AF8011BF0
:102C200019551B4B0121E4B2197089F80040E5E702
:102C3000184DBC23EB70FEF753FB402810DC2B79BA
:102C40001B0611D59BF80030104A0133402B28BFDA
:102C50000023D05CDBB2C0B2E8718BF8003003E037
:102C6000FF2801DD01F072F99BF800309C42E2D0B0
:102C7000D3E7084BBC22DA70BDE8F88F34800440FB
:102C80006813FF1F6C13FF1F6413FF1FE212FF1F67
:102C9000E012FF1F00A0064010B5034C237813B1CB
:102CA00001F054F9FAE710BDE012FF1F064B187847
:102CB000064B1A78C0B2D3B298422CBF3F3303F10F
:102CC000FF33181A704700BF6C13FF1F6413FF1FF8
:102CD000054B1878054B1A78C0B2D3B2984238BF6A
:102CE0004030C01A704700BF6313FF1FE112FF1F7F
:102CF00010B5104B104C1B782278D9B2D2B2914249
:102D000014D0531C402B28BF00230C4AD05CDAB2ED
:102D100022700B4A1268C0B252B18B4288BF403158
:102D2000CB1A1A2B04DC0023137010BD4FF0FF30B8
:102D300010BD00BF6313FF1FE112FF1F2313FF1F0E
:102D4000DC12FF1F084B1A78084B1B78DBB29A4243
:102D500007D00133402B28BF0023054AD05CC0B206
:102D600070474FF0FF3070476313FF1FE112FF1FE2
:102D70002313FF1F0C4B1B685B0514D50B4BDA7834
:102D800002F0CB02DA7040225A74DA7842F0340250
:102D9000DA70074B074A1B78DBB21370064B1B68CF
:102DA0000BB100221A7070473480044000A0064026
:102DB000E112FF1F6313FF1FDC12FF1FF0B5344940
:102DC0000B7913F0300F2FD072B68B7D03F0FF0418
:102DD00023B9CB7940234B7462B625E062B62D4807
:102DE0002D4A037812782D4FDBB2D2B20546581C1B
:102DF0004028CE7928BF00209042F6B21CBF3E5436
:102E00000346601E10F0FF04F1D1D9B229702449A5
:102E1000096849B1934236BFC2F140029B1A9B1820
:102E2000272BC4BF01230B70194AD178C9B20D06F4
:102E30001ED513791C061BD51A4B1B481D78037829
:102E40001A4EEDB2DBB2AB420AD00133402B28BFA1
:102E500000231479F45CE4B2D471147D072CF2D908
:102E6000DBB203700A4B1A79100644BF7C22DA7079
:102E700049060CD5064B1A79520608D50C4A002192
:102E800011700C4A126802B111703C22DA70F0BD68
:102E900000A006406313FF1FE112FF1F2313FF1F53
:102EA000DC12FF1F6C13FF1F6413FF1FE212FF1FD2
:102EB000E012FF1F6813FF1F10B572B60B480268BF
:102EC000B2FA82F10B2902DD62B6002010BD4FF08C
:102ED0000043CB4022EA0302026062B6044C48235E
:102EE0004B43E0180022E250426010BDAC07FF1FC8
:102EF0009803FF1F0C4B4822C31AB3FBF2F30B2BB2
:102F000011D80A4A127822B1094A12780AB1FDF79B
:102F1000EBBD72B607494FF0004222FA03F30A688C
:102F20001A430A6062B670479803FF1F5E11FF1FC5
:102F30006711FF1FAC07FF1F294A136843F40063A2
:102F40001360284A00231370274A1370274A13700E
:102F5000274A1370274A1370274B1B781A2B07D068
:102F60003B2B09D0092B0BD140F21332234B06E047
:102F700040F21332224B02E0224B40F213321A602D
:102F8000214B1B781F2B07D03A2B09D00A2B0BD1D2
:102F90004FF451721D4B06E04FF451721C4B02E08E
:102FA0001C4B4FF451721A601B4BC0F344321A7021
:102FB000C0F347125A700421022200F01F009872D9
:102FC0009970DA745975882119743C21D970134BA2
:102FD000402119706FF447710B441A60704700BFAD
:102FE00034800440DE13FF1F7513FF1FE413FF1F1F
:102FF000DF13FF1F7413FF1FB007FF1F0CB0044047
:103000003890044004D00440B107FF1F10B00440C2
:1030100028A0044000D0044000B0064021E400E0B5
:10302000184B9A7802F0EC0100F003020A434107C2
:1030300048BF42F010029A70124900F00F02042AB1
:1030400002BF8A7942F040028A715A79C30602F0BF
:10305000EF020C4B48BF42F010025A719A79810678
:1030600002F0EF0248BF42F010029A71C305054911
:1030700006D54B780A78DBB242F020020A704B701A
:10308000704700BF00B006401C4B1B681B0510B505
:1030900000D410BD1A4C227802F0FF0312B100F0E8
:1030A00055FFF8E7174A02211160174AD370174AF3
:1030B0001278092A04D03B2A06D1154A136003E08E
:1030C000144B40F203121A60134B1B7803F07F037A
:1030D0000A2B04D03A2B06D10022104B02E0104BF1
:1030E00040F203121A600F4A002313700E4A137045
:1030F0000E4B1B680BB101221A7010BD34800440C6
:103100007413FF1F84E100E000B00640B007FF1F0A
:1031100004D004400CB00440B107FF1F00D00440AD
:1031200010B00440DE13FF1F7513FF1F7013FF1F45
:103130000A4A38B50446137803F0FF05002BFAD18C
:1031400001212046FEF73AF929462046FEF716F9F6
:10315000034B53F83420034B1A6038BD7413FF1F20
:1031600074510000E013FF1F10B509B140F080005A
:10317000144A13789842144622D0134A1268120552
:103180001DD503F07F030A2B04D03A2B05D1002272
:103190000E4B01E00E4B00221A60002900F07F0266
:1031A00014BF602344230A2A05D03A2A07D143F4E6
:1031B0004073064A02E0064A43F4407313602070ED
:1031C00010BD00BFB107FF1F3480044000D0044091
:1031D00010B004400F4B1A7882421AD00E49096889
:1031E000090515D5092A04D03B2A05D100210B4A2F
:1031F00001E00B4A00211160092805D03B2807D1C6
:1032000040F21331054A02E0054A40F213311160E1
:1032100018707047B007FF1F3480044004D004408A
:103220000CB0044038B50D4B1B6813F400634FF02D
:10323000000410D03F280A4D0AD80A4B012153F848
:1032400030302B60FEF7BAF82B681C70012038BDB7
:103250002C60204638BD184638BD00BF348004407D
:103260007013FF1F745100000E4B1B6813F40063B2
:1032700016D017280C4B03D140F202310B4A04E060
:103280003C2809D10A4A40F2023111605A7B42F0CF
:1032900001025A73012070475A7B02F0FE025A73F2
:1032A000002070473480044000B0064008B004405D
:1032B00008D004402DE9F8431F4B1B681A05064649
:1032C00037D51E4B1B680BB101221A701C4DDFF85D
:1032D00080902C781B4F0134282C28BF0024C8462E
:1032E00099F800309C4219D1FDF7FAFF402810DC14
:1032F0003B791B06F4D599F80030134A0133282B8B
:1033000028BF0023D25CDBB2D2B2FA7188F8003059
:10331000E6E7FF28E4DD00F019FEE1E70A4BF6B22C
:103320001E550A4B01221A70064BE4B2BC222C70C7
:10333000DA70BDE8F88300BF34800440E013FF1F5B
:10334000E413FF1F00B006407613FF1F7413FF1F26
:10335000DF13FF1F2DE9F84F264B1B681A050646A1
:10336000884645D5244B1B680BB101221A70234FA8
:10337000B246B94606EB08039A4536D23C78204B54
:10338000DFF87CB01B780134282C28BF00249C4235
:103390000AD01C4B1AF8011B19551B4B0121E4B232
:1033A000197089F80040E5E7184DBC23EB70FDF774
:1033B00097FF402810DC2B791B0611D59BF80030B5
:1033C000104A0133282B28BF0023D05CDBB2C0B2E7
:1033D000E8718BF8003003E0FF2801DD00F0B6FD56
:1033E0009BF800309C42E2D0D3E7084BBC22DA7055
:1033F000BDE8F88F34800440E013FF1FE413FF1F83
:10340000DF13FF1F7613FF1F7413FF1F00B006406A
:1034100010B5034C237813B100F098FDFAE710BD06
:103420007413FF1F064B1878064B1A78C0B2D3B23C
:1034300098422CBF273303F1FF33181A704700BF9F
:10344000E413FF1FDF13FF1F054B1878054B1A7895
:10345000C0B2D3B2984238BF4030C01A704700BFE4
:10346000DE13FF1F7513FF1F10B5104B104C1B7898
:103470002278D9B2D2B2914214D0531C402B28BF2B
:1034800000230C4AD05CDAB222700B4A1268C0B238
:1034900052B18B4288BF4031CB1A1A2B04DC002377
:1034A000137010BD4FF0FF3010BD00BFDE13FF1FC3
:1034B0007513FF1F9E13FF1F7013FF1F084B1A7811
:1034C000084B1B78DBB29A4207D00133402B28BF50
:1034D0000023054AD05CC0B270474FF0FF30704700
:1034E000DE13FF1F7513FF1F9E13FF1F0C4B1B687E
:1034F0001B0514D50B4BDA7802F0CB02DA704022B0
:103500005A74DA7842F03402DA70074B074A1B78B3
:10351000DBB21370064B1B680BB100221A707047A8
:103520003480044000B006407513FF1FDE13FF1FF8
:103530007013FF1FF0B534490B7913F0300F2FD003
:1035400072B68B7D03F0FF0423B9CB7940234B7413
:1035500062B625E062B62D482D4A037812782D4FC9
:10356000DBB2D2B20546581C4028CE7928BF0020D5
:103570009042F6B21CBF3E540346601E10F0FF049A
:10358000F1D1D9B229702449096849B1934236BFB3
:10359000C2F140029B1A9B18272BC4BF01230B705A
:1035A000194AD178C9B20D061ED513791C061BD550
:1035B0001A4B1B481D7803781A4EEDB2DBB2AB42B2
:1035C0000AD00133282B28BF00231479F45CE4B21D
:1035D000D471147D072CF2D9DBB203700A4B1A792F
:1035E000100644BF7C22DA7049060CD5064B1A79C6
:1035F000520608D50C4A002111700C4A126802B11B
:1036000011703C22DA70F0BD00B00640DE13FF1FDF
:103610007513FF1F9E13FF1F7013FF1FE413FF1F7F
:10362000DF13FF1F7613FF1F7413FF1FE013FF1F2D
:1036300010B5104C23686BB1206843885A1C0344B2
:103640001C7A03889A4212D3FFF754FC094B0022DC
:103650001A600DE0084B1B7813B94FF0FF3010BD16
:103660000320FDF713FA20600028E5D1F5E742803A
:10367000204610BDF013FF1F6711FF1F10B50B4C44
:10368000236813B122686AB902E0094B1B7813B9A9
:103690004FF0FF3010BD0320FDF7F8F9206000283F
:1036A000F0D1F5E753881344187A10BDF013FF1FCB
:1036B0006711FF1F044B9888044B1A681AB11388CE
:1036C00052889B1A18447047441BFF1FF013FF1FBA
:1036D00010B5094B1B786BB1084C206818B1FFF787
:1036E00009FC002323600320FDF7D0F910B1FFF798
:1036F00001FCF8E710BD00BF6711FF1FF013FF1FAB
:103700002DE9F84F304DDFF8D080012381460C467B
:103710002B704646002C52D0D8F8003043BBDFF85F
:10372000A8A0DFF8ACB047F20957284B1B7803F08C
:10373000FF010BB9297014E00420FDF7C3F9072835
:1037400007D801232B70FFF7B7FB306080B98AF8E8
:103750000000013F02D09BF8003033B11C4B012226
:103760001A704FF0FF30BDE8F88F00F0EFFBDCE798
:10377000174B0021197031684B88C3F14000A042FB
:1037800028BF20461F180B444F80241A073309EB2B
:103790000007B94504D019F8010B03F8010FF8E749
:1037A0004B883F2B06D940230B800420FDF7D8F926
:1037B00000233360074B05221A70B946AAE72C7024
:1037C0002046BDE8F88F00BFE613FF1F6711FF1FFB
:1037D000EC13FF1FE513FF1FE813FF1F07B502AB34
:1037E000012103F8010D1846FFF78AFF03B05DF8C9
:1037F00004FBFFFF2DE9F041114B1B78F3B1114F92
:10380000114B3C68114D01261E7098464CB10026A4
:1038100063882E70214623800420FDF7A1F93E60C5
:1038200009E0FFF749FB014620B104202C70FDF7A9
:1038300097F900E02E70002388F80030BDE8F08191
:103840006711FF1FE813FF1FE613FF1FE513FF1F9C
:1038500038B50E4B1B7803F0FF05ABB90C4C216853
:1038600031B14B880B800420FDF77AF9256038BD13
:10387000FFF722FB014620B10420BDE83840FDF7E8
:103880006FB9044B01221A7038BD00BFE613FF1F49
:10389000E813FF1FE513FF1F0368C9B21B68184731
:1038A0000368C9B21B6818470368C9B21B68184788
:1038B0000368C9B21B6818470368C9B21B68184778
:1038C0000368C9B21B6818470368C9B21B68184768
:1038D0000368C9B21B68184708B50846FEF736FEEC
:1038E000012008BD08B50846FEF730FE012008BDDE
:1038F00038B508460D4601F023FA0446014628462D
:10390000FEF774FE204638BD10B508461446114631
:10391000FEF76CFE204610BDFEF77EBEFEF7E0BE51
:1039200008B50846FEF7F4FD003018BF012008BDB9
:1039300008B50846FEF7CAFD003018BF012008BDD3
:1039400008461146FEF798BD0846FEF7BDBD08467D
:10395000FEF776BDFEF742BD4B0803F1B76000F5F8
:103960005840B0FBF1F0FEF7C5BC10B54B0803F1B1
:10397000B760144600F55840B0FBF1F0FEF7BAFC12
:103980002046BDE81040FEF7F5BCFEF73BBEFEF753
:103990008FBEFEF763BEFEF751BE08B50846FFF7BF
:1039A000CDF8012008BD08B50846FFF7C7F801208B
:1039B00008BD38B508460D4601F0C2F90446014677
:1039C0002846FFF70BF9204638BD10B508461446C7
:1039D0001146FFF703F9204610BDFFF767B9FFF75F
:1039E000C9B908B50846FFF783F8003018BF0120B1
:1039F00008BD08B50846FFF759F8003018BF012088
:103A000008BD08461146FEF7DBBF0846FFF71AB8A7
:103A10000846FEF7B9BFFEF783BF4B0803F1B76056
:103A200000F55840B0FBF1F0FEF7D2BE10B54B08E0
:103A300003F1B760144600F55840B0FBF1F0FEF713
:103A4000C7FE2046BDE81040FEF736BFFFF724B999
:103A5000FFF778B9FFF74CB9FFF73AB97047FFFFA6
:103A6000044B00221A714FF47A711A73024A99605A
:103A70001A607047F813FF1F1C54000010B504466D
:103A800000F0A0F8204610BD0448054A054900236F
:103A900003708023437300F049BE00BF0814FF1F6A
:103AA000F806FF1F7D3A00007047FFFF044B00221D
:103AB0001A714FF47A711A73024A99601A6070474A
:103AC0001C14FF1F7C54000000F064BEFFF700BE12
:103AD000FFF790BEFFF7D2BDFFF7AABDFFF7EABD23
:103AE00008461146FFF70CBE0846FFF777BE704741
:103AF000044B00221A714FF47A711A73024A9960CA
:103B00001A6070472C14FF1FDC540000024B012286
:103B10001A60024B1B6818470C7103404414FF1FC6
:103B2000024B01221A60024B5B6818471C7103406C
:103B30004414FF1F024B01221A60024B9B68184776
:103B40002C7103404414FF1F024B01221A60024BE8
:103B5000DB6818473C7103404414FF1F054B0122EA
:103B60001A60054A136823F400031360034B002214
:103B70001A707047007003403C8004404014FF1FDF
:103B80008268002310B41360027B0121541102F0FB
:103B90001F0201FA02F2094941F82420084A41783B
:103BA0005354D15C31B90133042BFAD15DF8044B85
:103BB000FFF7D4BF5DF8044B704700BF80E100E021
:103BC0003C14FF1F037810B504460BB1FFF7D8FF74
:103BD0000023237010BD0368C9B21B68184703682F
:103BE000C9B21B6818470368C9B21B681847036845
:103BF000C9B21B68184708B50846FDF71DFE01202D
:103C000008BD08B50846FDF717FE012008BD38B508
:103C100008460D4601F094F8044601462846FDF793
:103C20005BFE204638BD10B5084614461146FDF728
:103C300053FE204610BDFDF765BEFDF7C7BE08B5B3
:103C40000846FDF7DBFD003018BF012008BD08B5B0
:103C50000846FDF7B1FD003018BF012008BD084639
:103C60001146FDF77FBD0846FDF7A4BD0846FDF7E8
:103C70005DBDFDF727BD4B0803F1B76000F5584067
:103C8000B0FBF1F0FDF7AABC10B54B0803F1B7602B
:103C9000144600F55840B0FBF1F0FDF79FFC2046BC
:103CA000BDE81040FDF7DABCFDF722BEFDF776BE99
:103CB000FDF74ABEFDF738BE7047FFFF044B0022F8
:103CC0001A714FF47A711A73024A99601A60704738
:103CD0005414FF1F005500000368C9B21B68184741
:103CE0000368C9B21B6818470368C9B21B68184744
:103CF0000368C9B21B68184708B50846FFF7DAFA27
:103D0000012008BD08B50846FFF7D4FA012008BD18
:103D100038B508460D4601F013F80446014628461A
:103D2000FFF718FB204638BD10B50846144611466B
:103D3000FFF710FB204610BDFFF774BBFFF7D6BBA3
:103D400008B50846FFF790FA003018BF012008BDFB
:103D500008B50846FFF766FA003018BF012008BD15
:103D600008461146FFF700BA0846FFF733BA08467F
:103D7000FFF7DEB9FFF788B94B0803F1B76000F52C
:103D80005840B0FBF1F0FFF7D7B810B54B0803F17E
:103D9000B760144600F55840B0FBF1F0FFF7CCF8DF
:103DA0002046BDE81040FFF73BB9FFF731BBFFF7F6
:103DB00085BBFFF759BBFFF747BB7047044B002299
:103DC0001A714FF47A711A73024A99601A60704737
:103DD0006414FF1F60550000164AF8B51368164DAD
:103DE00043F080731360154A136843F001031360B6
:103DF000134B2E681C688CB1237A6BB123682F6833
:103E00001B68204698472A68E388D21B120991B2A2
:103E10009A42A18088BFE1806469ECE72B68094A77
:103E20009B1B1B0999B21180074A1088834288BFE7
:103E30001180F8BDFCED00E0041000E0001000E08F
:103E40007414FF1F7A14FF1F7814FF1F0368C9B290
:103E50001B6818470368C9B21B6818470368C9B2D2
:103E60001B6818470368C9B21B68184708B508469D
:103E7000FCF7AAFC012008BD08B50846FCF7A4FC25
:103E8000012008BD38B508460D4600F059FF04462C
:103E900001462846FCF7E8FC204638BD10B5084628
:103EA00014461146FCF7E0FC204610BDFCF7F2BCBE
:103EB000FCF754BD08B50846FCF768FC003018BF95
:103EC000012008BD08B50846FCF73EFC003018BFCD
:103ED000012008BD08461146FCF70CBC0846FCF75B
:103EE00031BC0846FCF7EABBFCF7B4BB4B0803F156
:103EF000B76000F55840B0FBF1F0FCF737BB10B5E8
:103F00004B0803F1B760144600F55840B0FBF1F0E0
:103F1000FCF72CFB2046BDE81040FCF767BBFCF724
:103F2000AFBCFCF703BDFCF7D7BCFCF7C5BC7047C2
:103F3000044B00221A714FF47A711A73024A996085
:103F40001A6070477C14FF1FC055000010B5154C57
:103F5000237833BB01232370FFF7ACFB08B1FFF7D5
:103F6000C6FDFEF7B5FE08B1FFF79EFDFFF76CFA40
:103F700008B1FFF722FFFCF79FFC08B1FFF7D7FF5E
:103F8000FEF7EEF808B100F080F8FDF7CDFC08B1BF
:103F9000FFF792FEFEF752FB08B1FFF75FFD00232B
:103FA000237010BD8C14FF1F0368C9B21B6818472B
:103FB0000368C9B21B6818470368C9B21B68184771
:103FC0000368C9B21B68184708B50846FEF750F8E1
:103FD000012008BD08B50846FEF74AF8012008BDD3
:103FE00038B508460D4600F0ABFE044601462846AB
:103FF000FEF78EF8204638BD10B508461446114627
:10400000FEF786F8204610BDFEF798B8FEF7FAB81E
:1040100008B50846FEF72AF8003018BF012008BD91
:1040200008B50846FEF700F8003018BF012008BDAB
:1040300008461146FDF79ABF0846FDF7CDBF084672
:10404000FDF778BFFDF71EBF4B0803F1B76000F521
:104050005840B0FBF1F0FDF781BE10B54B0803F1FD
:10406000B760144600F55840B0FBF1F0FDF776FE5E
:104070002046BDE81040FDF7D1BEFEF755B8FEF76B
:10408000A9B8FEF77DB8FEF76BB87047044B002265
:104090001A714FF47A711A73024A99601A60704764
:1040A0009014FF1F205600004FF4806310B50A24BF
:1040B00080E8180000F1140100238360C3600361ED
:1040C0000A4600F2346453609360C2F8B430C2F818
:1040D000B830C432A242F6D10C4B19600C4B00F13F
:1040E00020021A600B4A012313600B4AC0F8C83043
:1040F0000021116009490A220A60C0F8D420084949
:10410000084A03240C60136010BD00BFA814FF1FF1
:10411000A014FF1FA414FF1FC814FF1FCC14FF1FFF
:10412000C014FF1FC414FF1F72B6044B4A1C08BF03
:1041300001211868196062B6704700BFC014FF1FE4
:1041400072B6034B022218681A6062B6704700BF4D
:10415000C014FF1F83682449F0B5C42404FB030581
:104160000A68C5F8D0200022D5F8C860012E0DD10C
:1041700004FB0206D6F8CC7047B11C4B8260D6F81F
:10418000D4201A600023C6F8CC3017E00132082A88
:10419000EAD1C4240133072B01DD002305E004FB31
:1041A0000302D2F8C820012AF4D183608368C422B4
:1041B00002FB0303D3F8D4200C4B1A6082680C4D29
:1041C000C4235343C41814342C60C418094D20343C
:1041D00018442C60B2FA82F2074CD0F8D0300B6051
:1041E00052092260F0BD00BFC814FF1FCC14FF1F8E
:1041F000A814FF1FA014FF1FA414FF1F0148FFF7FE
:10420000A9BF00BFD014FF1F044A13680133136015
:10421000034B1B680BB100F03DBA70476C11FF1FD8
:10422000C414FF1F1EF0040F0CBFEFF30880EFF360
:104230000980836913F8023C212B02D100F020BAD7
:1042400006E0222B04D1034B01221A6000F01ABAB7
:10425000704700BFC014FF1F38B505460848FFF778
:104260006FFF2B68014633B901242C600448FFF727
:104270005BFF204638BD0248FFF756FF002038BDDF
:10428000D014FF1F2DE9F04704460E46FFF7E4FF68
:1042900098B9174D174FD5F80080DFF85C904FF0B4
:1042A000C40A2046FFF7D8FF38B94EB12B68C8EBD7
:1042B00003039E4204D2BDE8F0870120BDE8F087E9
:1042C0006368013311D10B48FFF73AFFBB686360A5
:1042D000D9F80030A36063680AFB03730422014627
:1042E000C3F8C8200348FFF71FFF21DFD9E700BF4D
:1042F0006C11FF1FD014FF1FCC14FF1F38B5164DD3
:1043000004462846FFF71CFF2368012B01461BD1FA
:10431000002222606268002A16DB6268A068511CD5
:1043200008BFAA68C42101FB0252C2F8CC0062682F
:1043300001FB02530122C3F8C8204FF0FF33636032
:10434000BFF35F8F22DF04E0BFF35F8F0248FFF708
:10435000EBFE012038BD00BFD014FF1F08B5074891
:10436000074A0849002303708023437300F0DEF9F5
:104370000548BDE80840FFF797BE00BFAC14FF1F1B
:10438000F806FF1F7D3A0000D014FF1F344A8260F8
:10439000012B06BF02F518324832324A4FF400733F
:1043A00013609DF80030012B0CBF2F4A2F4A4FF4A9
:1043B000007313602E4A137843F0800313708268F1
:1043C000274B9A4201BF2B4A136843F01003136036
:1043D0008268536823F4005353608268136843F083
:1043E000804313608268136823F00043136083687E
:1043F0001A68D202FCD41A6882F000721A608368CC
:104400001A689201FCD41A68D201FCD51A6842F4E9
:1044100000321A608268136843F0005313604CF254
:1044200050339942836801D1134A13E0134A9142F1
:1044300001D1134A0EE0134A914201D1124A09E018
:10444000124A914201D1124A04E0124A91420CBF31
:10445000114A124A5A600023037043704360704748
:1044600000400240309004404CA00440349004408E
:10447000005006403C80044002007B13A0860100EF
:1044800002007B0990D0030002007B0320A10700FB
:1044900002007B0140420F000200090102007B077D
:1044A00030B5836800221A614D7884680A784B68B9
:1044B00065B15B00002A23F0404323F0010314BFE1
:1044C0004FF040424FF0804213430AE01149002A66
:1044D0004FEAC34314BF4FF000420022194041EAA3
:1044E0000203A3648268136823F080531360836817
:1044F0001A68D101FCD41A681201FCD480234FF051
:10450000006182688032D1501033B3F5807FF8D1DA
:1045100030BD00BF0000F83F2DE9F341CE880546CD
:104520000C461EB1264B1B680093009EDFF890805E
:104530000827AB683A01803399189B5803F07063E1
:10454000B3F1006F09D10B602079AB682168A8B185
:10455000843321F06041995015E0E28822B9013797
:104560000F2FE6DD002027E0D8F800300193019BF3
:104570009B1B9A42F6D9FFF7E9FCDAE7114884332E
:10458000890408409850AB68A168883309BA9950EB
:10459000AB68E1688C3309BA99506379A9682079CE
:1045A0001B04803103F4702310B143F0466301E033
:1045B00043F040638B50012002B0BDE8F08100BFA2
:1045C0006C11FF1F0000FC1F13B50C20FFF77CFAD5
:1045D000002300931A4606490446FFF7D7FE054B11
:1045E000214620461C6002B0BDE81040FFF758BFCE
:1045F00090D003000C1BFF1F30B5094D85B08DE82E
:104600000F0000212868FFF73DFE064B6946186839
:10461000FFF782FF2868FFF771FE05B030BD00BFCD
:10462000081BFF1F0C1BFF1F08B50C20FFF74CFADF
:1046300000234FF0FF3203604360836003604260F9
:104640008360014B186008BD081BFF1F30B5C025F3
:104650000560082582722A41BDF91440C2720373B5
:104660009DF810209DF80C30017243EA4203294165
:1046700084732C41457141724373C47330BDFFFF95
:1046800072B616E072B618E072B6224800680121D0
:10469000016006E072B61EF10F0F38D01EF11F0F39
:1046A00035D01D480168002903D0A1F10101016046
:1046B0002DE01A480068012829D119480068A0E8AF
:1046C000F04FA0EC200AF1EE101A02C01548006865
:1046D000002803D1EFF3098013490860FFF78EFD2E
:1046E0000F480068B0E8F04FB0EC200A02C8E1EED5
:1046F000101A0EF0100E6EF0160E0A480068002810
:1047000005D10948006880F309884EF0040E62B6AE
:1047100070470000041BFF1FCC14FF1FC014FF1FB5
:10472000A014FF1FA414FF1FC814FF1F0B4601464F
:10473000184600F001B800BF13460A4601460220A1
:1047400000F06CBB70B50F4E0F4D761BB61018BF46
:10475000002405D0013455F8043B9847A642F9D10E
:104760000A4E0B4D761B00F089FFB61018BF0024CF
:1047700006D0013455F8043B9847A642F9D170BDE4
:1047800070BD00BF8856000088560000B856000073
:1047900088560000024B0146186800F003B800BFBD
:1047A000E00BFF1F2DE9F04F01F10B05162D83B033
:1047B000064640F29F8035F0070500F1BF80A94210
:1047C00000F2BC8000F0A6FAB5F5FC7FC0F09C8238
:1047D0006B0A00F0BA80042B00F28381A80900F173
:1047E000390E4FEA4E033830C44F07EB8303A3F171
:1047F00008015C68A14207D1ACE0002A80F2AC80DD
:10480000E468A14200F0A680636823F003035A1B0A
:104810000F2AF2DDB9493C6901F1080E744500F038
:10482000B381636823F003035A1B0F2A00F39981B5
:10483000002AC1F814E0C1F810E080F29E80B3F5C0
:10484000007F80F06781DB0803F1010C01229B10DF
:1048500002FA03F34A6851F83C80C4F8088001EB7F
:10486000CC091A43A9F10803E3604A6041F83C40CF
:10487000C8F80C40831001249C40944200F28A80C6
:10488000144206D120F003006400144200F1040039
:10489000FAD007EBC009CC468046DCF80C108C45FA
:1048A00007D173E1002A80F28181C9688C4500F04C
:1048B0006D814B6823F003035A1B0F2AF2DD0C466F
:1048C000D1F80CC054F8088F4B1945F001054D6024
:1048D00042F00101C8F80CC03046CCF808807B617A
:1048E0003B61C3F80CE0C3F808E059609A5000F04F
:1048F00013FA1FE0102921D800F00CFA1025062326
:1049000002207E4F07EB8303A3F108025C68944208
:1049100000F045816368E168A56823F00303234440
:1049200030465A68E96042F001028D605A6000F03A
:10493000F3F90834204603B0BDE8F08F00240C23BF
:104940002046336003B0BDE8F08F80234FF0400E67
:104950003F2049E770465DE72344E1685A68A5684F
:1049600042F00102E96030468D605A6000F0D4F9EF
:104970000834204603B0BDE8F08F234430465A681F
:1049800042F001025A6000F0C7F90834204603B033
:10499000BDE8F08FBC68636823F00308A84504D322
:1049A000C5EB08030F2B00F38C80554BDFF86091AB
:1049B0001A68D9F8003001332A4404EB080A00F0E1
:1049C000608102F580520F3222F47F6222F00F02E2
:1049D00011463046019200F0A1F9B0F1FF3F834645
:1049E000019A00F05881824500F2FC80454B19681D
:1049F000DA451144196000F05381D9F80000DFF85E
:104A000010E101301BBFCAEB0B0A5144CEF800B0D5
:104A100019601BF0070100F01781C1F10800C1F512
:104A20008051834408315A44C2F30B02C2EB01099E
:104A300049463046019300F071F9431C019B00F098
:104A40003F81CBEB00024A4442F001021968C7F8EB
:104A500008B04944BC42CBF804201960DFF8A490A8
:104A600016D0B8F10F0F40F2FD806268A8F10C0378
:104A700023F00703E01802F001024FF0050E1A437D
:104A80000F2B6260C0F804E0C0F808E000F21C815F
:104A90001D4BBC681A68914288BF19601B4B1A688D
:104AA0009142626888BF196022F003029542A2EB2E
:104AB000050301D80F2B04DC304600F02DF900244B
:104AC00038E7621943F0010345F00105656030469F
:104AD000BA60536000F020F90834204603B0BDE806
:104AE000F08F142B71D9542B00F2A480280B00F105
:104AF0006F0E4FEA4E036E3076E600BFE40BFF1FE9
:104B0000181BFF1F1C1BFF1F141BFF1F101BFF1F69
:104B1000F00FFF1F5A0A042A5ED9142A00F2B3804C
:104B200002F15C0149005B3207EB810C57F8211060
:104B3000DFF8DC81ACF1080C8C4500F088804A6815
:104B400022F00302934202D289688C45F7D1D1F852
:104B50000CC07A68C4F80CC0A160CCF80840CC60E6
:104B600088E6631942F0010745F0010565603046AB
:104B70004B610B61C3F80CE0C3F808E05F609A502A
:104B8000083400F0C9F8D5E64A6873E608F1010870
:104B900018F0030F0CF1080C7FF47FAE30E0DC68F6
:104BA000A34208BF02303FF435AEB3E60B440C46D7
:104BB0005A68C96854F8085F42F001025A603046EA
:104BC000E9608D6000F0A8F8B4E603F15C0E03F133
:104BD0005B004FEA4E0307E69A0902F139014900EA
:104BE0003832A1E7BC424A4B3FF400AF9C68626890
:104BF00022F003025AE759F80839994540F08280BB
:104C000010F0030F00F1FF30F5D17B6823EA0403B5
:104C10007B6064009C423FF6BDAE002C3FF4BAAE10
:104C20001C4240467FF435AE64001C4200F1040093
:104C3000FAD02EE6B3F5AA7F18D8E80B00F1780E6B
:104C40004FEA4E037730CFE54FF48051EBE6012178
:104C5000D8F80430921001FA02F21A43C8F804207E
:104C6000614677E70123CBF8043025E740F2545240
:104C7000934220D8A80C00F17D0E4FEA4E037C3001
:104C8000B2E51032A4E6542A26D81A0B02F16F01BD
:104C900049006E3248E7BC68626822F0030205E70B
:104CA000CAF30B0000287FF4A8AE4244BB6842F070
:104CB00001025A60ECE6FE234FF07F0E7E2093E562
:104CC00001224FF00009C1E604F10801304600F06E
:104CD00069F9D9F80010DBE6B2F5AA7F05D8DA0B3E
:104CE00002F17801490077321EE740F254518A42BE
:104CF00005D89A0C02F17D0149007C3214E7FE21AF
:104D00007E2211E77B6884E7E808431C5B00F8E536
:104D1000E40BFF1F704700BF704700BF38B5074C5A
:104D20000023054608462360FCF7D2FA431C00D056
:104D300038BD2368002BFBD02B6038BD581BFF1FEC
:104D400090F800F06DE9024520F007016FF0000CCB
:104D500010F0070491F820F040F049804FF0000473
:104D60006FF00700D1E9002391F840F000F108004E
:104D700082FA4CF2A4FA8CF283FA4CF3A2FA8CF386
:104D80004BBBD1E9022382FA4CF200F10800A4FAED
:104D90008CF283FA4CF3A2FA8CF3E3B9D1E9042341
:104DA00082FA4CF200F10800A4FA8CF283FA4CF378
:104DB000A2FA8CF37BB9D1E9062301F1200182FA32
:104DC0004CF200F10800A4FA8CF283FA4CF3A2FA38
:104DD0008CF3002BC6D0002A04BF04301A4612BA46
:104DE000B2FA82F2FDE8024500EBD2007047D1E949
:104DF000002304F00305C4F100004FEAC50514F0D8
:104E0000040F91F840F00CFA05F562EA05021CBFA8
:104E100063EA050362464FF00004A9E72DE9F04775
:104E2000254C2568D5F8484106468846924699465D
:104E3000C4B360681F2817DC431C76B104EB8005FF
:104E40000122C5F888A0D4F8881182401143022EAF
:104E5000C4F88811C5F808911ED00230636044F888
:104E600020800020BDE8F087144B03B34FF4C870D6
:104E7000FFF790FC0446D0B1D5F84831002780E810
:104E80008800C5F8484138460123C4F88871C4F841
:104E90008C71002EE1D0D1E7D4F88C110A43C4F80C
:104EA0008C21DAE705F5A674C5F84841C1E74FF053
:104EB000FF30BDE8F08700BF78560000954700003E
:104EC000024B13B1024800F005B870470000000023
:104ED000E14E0000002301461A461846FFF79EBF28
:104EE00038B5074D074C2C1BA41005D0013C55F8D4
:104EF000043D9847002CF9D1BDE8384000F0DCBBF8
:104F00000000000000000000F8B5234F0C460646E4
:104F1000FFF700FFBB685D6825F00305291B01F65C
:104F2000EF7121F47F6121F00F01A1F58054B4F5F8
:104F3000805F07DB00213046FFF7F0FEBB682B44A3
:104F4000984204D03046FFF7E7FE0020F8BD6142EA
:104F50003046FFF7E3FE01300DD0104BBA681968F8
:104F60002D1B45F001053046091B55601960FFF700
:104F7000D3FE0120F8BD00213046FFF7CFFEBA680E
:104F8000831A0F2BDEDD064C0449246843F001032D
:104F9000001B53600860D5E7E40BFF1F1C1BFF1FBD
:104FA000F00FFF1F002945D02DE9F0410D46804646
:104FB000FFF7B0FE55F8047C6A4927F00103A5F11C
:104FC0000804E2188E685068B24220F0030062D0F4
:104FD000FE0750600BD455F8087CE41B01F1080E65
:104FE000A56875453B446FD0E768EF60BD60151854
:104FF0006D68ED0742D543F001026260E350B3F5FE
:10500000007F18D2DB085A1C4D6851F83270A76037
:1050100001209B1000FA03F301EBC2001D43083886
:10502000E0604D6041F83240FC604046BDE8F04130
:10503000FFF772BE70475A0A042A53D89A0902F140
:1050400039077F0002F1380501EB870051F827206E
:105050004449083890424DD0516821F003018B42F9
:1050600002D292689042F7D1D068E060A26084607A
:10507000D4604046BDE8F041FFF74EBE95683A4F18
:10508000BD4203443FD0D068E86043F00102856030
:105090006260E350B3E7FF07034407D455F8082CD8
:1050A000A41A1344A068E268C26090602F4A126894
:1050B00043F00100934260608C60B6D32C4B4046B5
:1050C0001968FFF721FFB0E711184968C90744D4F0
:1050D0009168D268CA60034443F001009160606047
:1050E000E350A2E7142A17D802F15C077F0002F10F
:1050F0005B05A9E7AA104B68012505FA02F21343E4
:105100004B600246B1E743F001024C610C61E5607F
:10511000A5606260E35088E7542A06D81A0B02F1B2
:105120006F077F0002F16E058EE7B2F5AA7F06D801
:10513000DA0B02F178077F0002F1770584E740F28D
:105140005450824206D89A0C02F17D077F0002F18A
:105150007C0579E7FE277E2576E743F00102626051
:10516000E35062E7E40BFF1FEC0BFF1FEC0FFF1F88
:10517000181BFF1F4008FE4340A004404408FE43A4
:1051800044A004400018FE4300C004403000FE4329
:10519000309004403400FE43349004401C18FE4319
:1051A0001CC004401018FE4310C004400818FE4301
:1051B00008C004400C18FE430CC004400C10FE4311
:1051C0000CB004401010FE4310B004401810FE4311
:1051D00018B004401C10FE431CB004401410FE43E1
:1051E00014B004400418FE4304C004400010FE4301
:1051F00000B004400008FE4300A004400408FE4341
:1052000004A004400C08FE430CA004400808FE4320
:1052100008A004401418FE4314C004401818FE43AC
:1052200018C004400410FE4304B004400810FE43BC
:1052300008B004406820FE4368D004401400FE43D8
:10524000149004403800FE43389004403C00FE4374
:105250003C9004404000FE43409004404808FE4318
:1052600048A004404C08FE434CA004402808FE43DC
:1052700028A004402C08FE432CA004406020FE43DC
:1052800060D004406420FE4364D004402010FE43FC
:1052900020B004402410FE4324B004402810FE43F4
:1052A00028B004402C10FE432CB004404400FE43C0
:1052B000449004407000FE43709004407400FE432C
:1052C000749004406800FE43689004405008FE4318
:1052D00050A004405808FE4358A004405C08FE4318
:1052E0005CA004405408FE4354A004402018FE4330
:1052F00020C004402418FE4324C004401008FE438C
:1053000010A004401408FE4314A004403818FE43C3
:1053100038C004403418FE4334C004403018FE4303
:1053200030C004403C18FE433CC004402C18FE43EF
:105330002CC004402820FE4328D004402C20FE43EB
:105340002CD004400020FE4300D004400420FE4343
:1053500004D004400820FE4308D004400C20FE4343
:105360000CD004401020FE4310D004401420FE4313
:1053700014D0044000151915000100000407FF1F98
:1053800012000000000200002E07FF1F4300000073
:10539000000300008807FF1F00000000010309044C
:1053A0001607FF1F00000000020309047207FF1F19
:1053B00000000000030309048C07FF1F0000000029
:1053C000000000000000000000000000050E0809B9
:1053D0000D0C06070F0403938E8F050E08090D0CA4
:1053E00006070F04FFFFFFFFFFFFFF8E8F111284E0
:1053F00085868791FFFFFFFFFFFFFFFFFF8A8BFF7F
:10540000FFFFFFFFFFFFFFFFFFFFFFFF0393179764
:1054100001811A920000000000000000E538000041
:105420000939000097390000933900008F390000D6
:105430008B390000593900006B39000055390000E4
:105440004F3900004939000041390000313900006E
:10545000213900001D39000019390000B938000059
:10546000C1380000C9380000D1380000F138000010
:10547000D93800000000000000000000A73900003B
:10548000CB390000593A0000553A0000513A00006B
:105490004D3A00001B3A00002D3A0000173A000078
:1054A000113A00000B3A0000033A0000F339000003
:1054B000E3390000DF390000DB39000099380000D3
:1054C000A1380000A9380000B1380000B33900004D
:1054D0009B3900000000000000000000E93A0000D5
:1054E000E13A0000DD3A0000D93A0000D53A000068
:1054F000D13A0000CD3A000000000000000000009A
:10550000033C0000273C0000B53C0000B13C00001B
:10551000AD3C0000A93C0000773C0000893C000045
:10552000733C00006D3C0000673C00005F3C0000E5
:105530004F3C00003F3C00003B3C0000373C00007B
:10554000D73B0000DF3B0000E73B0000EF3B0000E3
:105550000F3C0000F73B00000000000000000000CE
:10556000053D0000293D0000B73D0000B33D0000AF
:10557000AF3D0000AB3D0000793D00008B3D0000D9
:10558000753D00006F3D0000693D0000613D000079
:10559000513D0000413D00003D3D0000393D00000F
:1055A000D93C0000E13C0000E93C0000F13C000077
:1055B000113D0000F93C0000000000000000000068
:1055C000793E00009D3E00002B3F0000273F000079
:1055D000233F00001F3F0000ED3E0000FF3E0000A3
:1055E000E93E0000E33E0000DD3E0000D53E000045
:1055F000C53E0000B53E0000B13E0000AD3E0000DB
:105600004D3E0000553E00005D3E0000653E00003E
:10561000853E00006D3E000000000000000000001C
:10562000D53F0000F93F00008740000083400000A4
:105630007F4000007B400000494000005B400000CC
:10564000454000003F40000039400000314000006C
:1056500021400000114000000D4000000940000002
:10566000A93F0000B13F0000B93F0000C13F00006A
:10567000E13F0000C93F0000B807FF1FF8B500BFB9
:10568000F8BC08BC9E467047C14E000035040000BF
:10569000613A0000893A0000AD3A0000F13A00009A
:1056A000BD3C0000BD3D0000313F00008D400000CA
:0856B0005D43000029460000E3
:0456B800F8B500BF82
:1056BC0000000000080000005C1BFF1F120101012C
:1056CC0002000040C016830400020102030118030B
:1056DC005400650065006E0073007900640075006D
:1056EC0069006E006F0009024300020100C032091C
:1056FC000400000102020100052400100105240130
:10570C00010104240206052406000107058203108A
:10571C00004009040100020A0000000705030240D2
:10572C0000000705840240000000160355005300DA
:10573C0042002000530065007200690061006C009B
:10574C00040309040C03000000000000000000002A
:10575C0000000000000000000000220A041F2022AC
:10576C0001000000FFFFFFFF090A0000000000001D
:10577C0000000000A40AFF1F0C0BFF1F740BFF1F7F
:10578C00000000000000000000000000000000000D
:10579C0000000000000000000000000000000000FD
:1057AC0000000000000000000000000000000000ED
:1057BC0000000000000000000000000000000000DD
:1057CC0000000000000000000000000000000000CD
:1057DC0000000000000000000000000000000000BD
:1057EC0000000000000000000000000000000000AD
:1057FC00000000000000000000000000000000009D
:10580C00000000000000000000000000000000008C
:10581C00000000000000000001000000000000007B
:10582C000E33CDAB34126DE6ECDE05000B00000040
:10583C00000000000000000000000000000000005C
:10584C00000000000000000000000000000000004C
:10585C00000000000000000000000000000000003C
:10586C00000000000000000000000000000000002C
:105B9C000000000000000000B807FF1F000000001C
:105BAC0000000000E40BFF1FE40BFF1FEC0BFF1FBA
:105BBC00EC0BFF1FF40BFF1FF40BFF1FFC0BFF1F65
:105BCC00FC0BFF1F040CFF1F040CFF1F0C0CFF1F12
:105BDC000C0CFF1F140CFF1F140CFF1F1C0CFF1FC1
:105BEC001C0CFF1F240CFF1F240CFF1F2C0CFF1F71
:105BFC002C0CFF1F340CFF1F340CFF1F3C0CFF1F21
:105C0C003C0CFF1F440CFF1F440CFF1F4C0CFF1FD0
:105C1C004C0CFF1F540CFF1F540CFF1F5C0CFF1F80
:105C2C005C0CFF1F640CFF1F640CFF1F6C0CFF1F30
:105C3C006C0CFF1F740CFF1F740CFF1F7C0CFF1FE0
:105C4C007C0CFF1F840CFF1F840CFF1F8C0CFF1F90
:105C5C008C0CFF1F940CFF1F940CFF1F9C0CFF1F40
:105C6C009C0CFF1FA40CFF1FA40CFF1FAC0CFF1FF0
:105C7C00AC0CFF1FB40CFF1FB40CFF1FBC0CFF1FA0
:105C8C00BC0CFF1FC40CFF1FC40CFF1FCC0CFF1F50
:105C9C00CC0CFF1FD40CFF1FD40CFF1FDC0CFF1F00
:105CAC00DC0CFF1FE40CFF1FE40CFF1FEC0CFF1FB0
:105CBC00EC0CFF1FF40CFF1FF40CFF1FFC0CFF1F60
:105CCC00FC0CFF1F040DFF1F040DFF1F0C0DFF1F0D
:105CDC000C0DFF1F140DFF1F140DFF1F1C0DFF1FBC
:105CEC001C0DFF1F240DFF1F240DFF1F2C0DFF1F6C
:105CFC002C0DFF1F340DFF1F340DFF1F3C0DFF1F1C
:105D0C003C0DFF1F440DFF1F440DFF1F4C0DFF1FCB
:105D1C004C0DFF1F540DFF1F540DFF1F5C0DFF1F7B
:105D2C005C0DFF1F640DFF1F640DFF1F6C0DFF1F2B
:105D3C006C0DFF1F740DFF1F740DFF1F7C0DFF1FDB
:105D4C007C0DFF1F840DFF1F840DFF1F8C0DFF1F8B
:105D5C008C0DFF1F940DFF1F940DFF1F9C0DFF1F3B
:105D6C009C0DFF1FA40DFF1FA40DFF1FAC0DFF1FEB
:105D7C00AC0DFF1FB40DFF1FB40DFF1FBC0DFF1F9B
:105D8C00BC0DFF1FC40DFF1FC40DFF1FCC0DFF1F4B
:105D9C00CC0DFF1FD40DFF1FD40DFF1FDC0DFF1FFB
:105DAC00DC0DFF1FE40DFF1FE40DFF1FEC0DFF1FAB
:105DBC00EC0DFF1FF40DFF1FF40DFF1FFC0DFF1F5B
:105DCC00FC0DFF1F040EFF1F040EFF1F0C0EFF1F08
:105DDC000C0EFF1F140EFF1F140EFF1F1C0EFF1FB7
:105DEC001C0EFF1F240EFF1F240EFF1F2C0EFF1F67
